:100000000C94200A0C94480A0C94480A0C94CD27AE
:100010000C9457280C9433280C94480A0C94480AE2
:100020000C94480A0C94480A0C94480A0C947B28B7
:100030000C94480A0C94480A0C94480A0C94480AF8
:100040000C940C260C94480A0C947C260C9456268E
:100050000C94480A0C94480A0C94480A0C94480AD8
:100060000C94AE260C94480A300031006E6F007973
:1000700065730054454C2C656E61626C65643D008F
:1000800043414C5F53544F52452C737461747573E4
:100090003D006E6F00796573002C76616C69643D7C
:1000A000002C75707065725F6465673D0043414C5C
:1000B0005F4C494D4954532C6C6F7765725F646592
:1000C000673D002C736F6E61725F63656E7465725D
:1000D0005F636D3D0043414C5F5A45524F2C617345
:1000E000353630305F7A65726F5F6465673D006EEC
:1000F0006F00796573002C7369676E5F63616C696B
:100100006272617465643D006E6F00796573002CE6
:100110006C696D6974735F63616C69627261746547
:10012000643D00626164006F6B0043414C2C7A6552
:10013000726F5F63616C696272617465643D002C0B
:1001400063757272656E745F736F6E61723D002CC1
:1001500063757272656E745F6173353630303D0061
:100160005349474E532C63757272656E745F737496
:1001700065707065723D004641554C54532C626960
:1001800074733D002C706F735F6D733D0041474584
:100190002C616E676C655F6D733D002C785F6669DE
:1001A0006C745F636D3D002C785F636D3D004D4561
:1001B00041532C74686574615F6465673D006261DA
:1001C00064006F6B002C706F733D0053454E534FAE
:1001D00052532C616E676C653D0053544154452C5D
:1001E000005741524E2C736F6E61725F6E65617283
:1001F0003D6E6F3B2075736520736F6E6172207367
:1002000069676E202B2F2D31206F722072657275F9
:100210006E206200494E464F2C736F6E61725F6EA6
:100220006561723D7965733B206D6F76655F7461C2
:10023000726765745F6661725F7468656E5F6700A0
:10024000494E464F2C7375676765737465645F61CB
:1002500073353630305F7369676E3D00494E464FE7
:100260002C7375676765737465645F73746570700C
:1002700065725F7369676E3D00494E464F2C746826
:100280006574615F7261775F64656C74615F6465FA
:10029000673D00494E464F2C63616C5F7369676E22
:1002A0005F626567696E5F636F6D706C6574650032
:1002B0004552522C616E676C655F6E6F745F72653C
:1002C0006164795F61667465725F6A6F6700455249
:1002D000522C63616E6E6F745F656E7465725F63DE
:1002E000616C69625F7369676E004552522C616E82
:1002F000676C655F6E6F745F726561647900475506
:100300004944452C646F3D742D3E612D3E702D3E59
:10031000662D3E62004552522C6661756C745F61B9
:10032000637469766500494E464F2C7369676E7336
:100330005F6170706C6965645F72756E74696D651C
:100340003B2072756E2063616C5F7361766520740B
:100350006F2070657273697374005349474E5F4331
:10036000414C5F524553554C542C004552522C730E
:100370006F6E61725F6E6F745F7265616479004762
:10038000554944452C646F3D736F6E6172207369EB
:10039000676E20317C2D31206F7220726572756E10
:1003A0002062004552522C7369676E5F736F6E61F5
:1003B000725F6E6561725F6D697373696E67004528
:1003C00052522C63616C5F7369676E5F6E6F745F0E
:1003D00073746172746564006E6F00796573002CCC
:1003E0007A65726F5F63616C696272617465643DA6
:1003F000002C736F6E61725F63656E7465725F630C
:100400006D3D0043414C5F5A45524F2C6173353668
:1004100030305F7A65726F5F6465673D006E6F00B4
:10042000796573002C6C696D6974735F63616C69C5
:100430006272617465643D002C75707065725F64F2
:1004400065673D0043414C5F4C494D4954532C6C0A
:100450006F7765725F6465673D004641554C545F38
:10046000494E464F2C7265636F7665723D666978BA
:100470005F73656E736F722D3E73004641554C5429
:100480005F494E464F2C7265636F7665723D6669B3
:10049000785F73656E736F722D3E662D3E730046F6
:1004A00041554C545F494E464F2C706F735F6F6FD0
:1004B000623D312C646F3D63656E7465725F74617B
:1004C000726765745F7468656E5F70004641554C75
:1004D000545F494E464F2C616E676C655F6F6F626B
:1004E0003D312C646F3D6C6576656C5F6265616D56
:1004F0005F7468656E5F61004641554C545F494EBC
:10050000464F2C6932635F6572726F723D312C64A5
:100510006F3D636865636B5F41533536303000462D
:1005200041554C545F494E464F2C736F6E61725F5C
:1005300074696D656F75743D312C646F3D666C61D7
:10054000745F7461726765742B636865636B5F4881
:100550004353523034004641554C545F494E464F48
:100560002C6E6F6E65006272696E6775705F776181
:10057000726E696E670072756E5F686172645F6645
:1005800061756C74004641554C545F494E464F2C82
:100590006D6F64653D004641554C545F494E464F72
:1005A0002C626974733D004D454E552C736F6E611E
:1005B000723D666C61745F7461726765745F7468C4
:1005C000656E5F736F6E61725F64696167006E6F05
:1005D00000796573006E6F00796573002C736F6E20
:1005E00061725F6F6B3D006E6F00796573002C6107
:1005F0006E676C655F6F6B3D006E6F0079657300B1
:100600002C7369676E3D006E6F00796573002C6C0A
:10061000696D6974733D002C7A65726F3D004D45BC
:100620004E552C73746174653D004D454E552C62DA
:1006300072696E67757000300031002C6A756D70DC
:100640005F72656A6563745F636E743D002C7469E4
:100650006D656F75745F636E743D002C76616C69B7
:10066000645F73747265616B3D002C66696C745FC6
:10067000636D3D002C7261775F636D3D002C616797
:10068000655F6D733D00300031002C74696D656FDE
:1006900075743D00300031002C66726573683D0052
:1006A000534F4E41525F444941472C6861735F7319
:1006B000616D706C653D004F4B2C63616C5F7A65BA
:1006C000726F5F616E676C655F7365743D00455264
:1006D000522C616E676C655F6E6F745F72656164EA
:1006E00079004552522C736F6E61725F6E6F745F4A
:1006F0007265616479004F4B2C63616C5F7A65723F
:100700006F5F706F736974696F6E5F7365743D00BE
:100710004552522C6C696D69745F7370616E5F74C1
:100720006F6F5F736D616C6C00494E464F2C6C6946
:100730006D6974735F6E6F726D616C697A65645F09
:1007400066726F6D5F646F776E5F7570004F4B2CD4
:1007500063616C5F6C696D69745F646F776E5F7302
:1007600065743D004552522C616E676C655F6E6F1B
:10077000745F726561647900494E464F2C6C696DF7
:100780006974735F6E6F726D616C697A65645F66C0
:10079000726F6D5F646F776E5F7570004F4B2C6387
:1007A000616C5F6C696D69745F75705F7365743DD2
:1007B000004552522C616E676C655F6E6F745F729C
:1007C000656164790047554944452C737465703DF3
:1007D00072756E2C646F3D72756E5F72004755497D
:1007E00044452C737465703D736176652C646F3D70
:1007F00072756E5F760047554944452C7374657079
:100800003D736F6E61725F73656E736F722C646F90
:100810003D666C61745F7461726765745F7468656E
:100820006E5F736F6E61725F6469616700475549FF
:1008300044452C737465703D616E676C655F7365CC
:100840006E736F722C646F3D636865636B5F4153B9
:10085000353630305F7468656E5F730047554944C4
:10086000452C737465703D736F6E61725F73696759
:100870006E5F6D616E75616C2C646F3D736F6E6140
:10088000725F7369676E5F315F6F725F2D31004712
:10089000554944452C737465703D736F6E61725F8A
:1008A0007369676E5F6175746F2C646F3D6D6F76F1
:1008B000655F7461726765745F6661725F746865B5
:1008C0006E5F670047554944452C737465703D73EE
:1008D00069676E5F626567696E2C646F3D72756EE5
:1008E0005F620047554944452C737465703D6661ED
:1008F000756C745F72657365742C646F3D6669789E
:100900005F7468656E5F660047554944452C737493
:1009100065703D6C696D6974735F6669782C646F8E
:100920003D7265646F5F5B5F616E645F5D0047553C
:100930004944452C737465703D75705F6C696D69D1
:10094000742C646F3D6D6F76655F55505F7468659C
:100950006E5F5D0047554944452C737465703D6476
:100960006F776E5F6C696D69742C646F3D6D6F7627
:10097000655F444F574E5F7468656E5F5B00475517
:100980004944452C737465703D7A65726F5F706F72
:10099000732C646F3D666C61745F7461726765741B
:1009A0005F63656E7465725F7468656E5F70004743
:1009B000554944452C737465703D7A65726F5F616B
:1009C0006E676C652C646F3D6C6576656C5F626507
:1009D000616D5F7468656E5F6100424C4F434B2CE4
:1009E000696E6E65725F6C6F6F7000424C4F434B67
:1009F0002C6661756C747300424C4F434B2C7365CD
:100A00006E736F727300424C4F434B2C7369676E69
:100A100000424C4F434B2C6C696D69747300424C1F
:100A20004F434B2C7A65726F004552522C72756E93
:100A30005F626C6F636B6564006E6F007965730055
:100A400057495A2C372C646F3D633D736176652C92
:100A5000713D65786974006E6F00796573002C6470
:100A6000697274793D006E6F00796573002C73694B
:100A7000676E3D006E6F00796573002C6C696D695F
:100A800074733D0057495A2C73756D6D6172792CE2
:100A90007A65726F3D0057495A2C362C646F3D665B
:100AA00061725F7461726765745F7468656E5F6EB2
:100AB0000057495A2C352C646F3D6E6561725F7426
:100AC00061726765745F7468656E5F6E0057495A3E
:100AD0002C342C646F3D6D6F76655F55505F746884
:100AE000656E5F6E0057495A2C332C646F3D6D6FF5
:100AF00076655F444F574E5F7468656E5F6E005752
:100B0000495A2C322C646F3D666C61745F7461725B
:100B10006765745F63656E7465725F7468656E5F48
:100B20006E0057495A2C312C646F3D6C6576656CAC
:100B30005F6265616D5F7468656E5F6E0030003185
:100B4000002C74656C656D657472795F7265737481
:100B50006F7265643D0057495A2C657869742C7230
:100B60006561736F6E3D00000000002300260029C0
:100B70000042414C4C5F4245414D5F424F4F540053
:100B80004F4B2C63616C5F6C696D69745F7570703D
:100B900065725F7365743D004552522C696E7661D3
:100BA0006C69645F6C696D69745F7370616E004538
:100BB00052522C616E676C655F6E6F745F72656117
:100BC0006479004F4B2C63616C5F6C696D69745F75
:100BD0006C6F7765725F7365743D004552522C6986
:100BE0006E76616C69645F6C696D69745F73706166
:100BF0006E004552522C616E676C655F6E6F745F5C
:100C000072656164790043414C5F535547474553D2
:100C1000542C534F4E41525F43454E5445525F430F
:100C20004D3D004552522C736F6E61725F6E6F7452
:100C30005F72656164790043414C5F535547474596
:100C400053542C4153353630305F5A45524F5F4430
:100C500045473D004552522C616E676C655F6E6F73
:100C6000745F72656164790030003100415335363C
:100C700030305F444941472C004552522C63616C2F
:100C80005F736176655F6661696C6564004F4B2CCC
:100C900077697A6172645F73617665640045525268
:100CA0002C77697A6172645F6E6F745F61745F73D1
:100CB0006176655F73746570004552522C77697A6E
:100CC0006172645F6E6F745F61637469766500570B
:100CD000495A2C737465705F6661696C65642C6633
:100CE00069785F616E645F70726573735F6E5F6178
:100CF0006761696E004552522C77697A6172645F50
:100D0000696E76616C69645F737465700057495AE7
:100D10002C6177616974696E675F636F6E66697273
:100D20006D2C70726573733D635F746F5F73617672
:100D3000655F6F725F715F746F5F6578697400459E
:100D400052522C77697A6172645F6E6F745F61636F
:100D500074697665003000310057495A2C636F6E14
:100D600074726F6C733D6E2C632C710057495A2C52
:100D700074656C656D657472795F6175746F5F64BD
:100D8000697361626C65642C707265763D004F4BCF
:100D90002C77697A6172645F737461727465640040
:100DA00057495A2C626C6F636B65642C646F3D7499
:100DB0002D3E612D3E702D3E662D3E732D3E7700FB
:100DC0004552522C6661756C745F61637469766517
:100DD000004552522C73746F705F6265666F726566
:100DE0005F77697A617264004552522C77697A6143
:100DF00072645F616C72656164795F616374697666
:100E0000650048454C502C6B657973004552522C57
:100E1000756E6B6E6F776E5F636F6D6D616E642C58
:100E20007472793D68004552522C6E6F5F66617531
:100E30006C745F7374617465004F4B2C6661756CE4
:100E4000745F636C6561726564004F4B2C73746FE3
:100E500070706564004F4B2C72756E6E696E670022
:100E60004F4B2C63616C5F64656661756C74735F76
:100E70006170706C696564004552522C75736167CE
:100E8000653A63616C5F7265736574206465666161
:100E9000756C74730064656661756C7473006C6F57
:100EA00061646564004F4B2C63616C5F6C6F6164BF
:100EB0002C004552522C63616C5F736176655F66EE
:100EC00061696C6564004F4B2C63616C5F73617684
:100ED0006564004552522C75736167653A63616CB5
:100EE0005F6C696D69747320736574202E2E2E20DB
:100EF0007C2073686F77004552522C75736167656B
:100F00003A63616C5F6C696D6974732073657420FA
:100F10002E2E2E004552522C75736167653A63611F
:100F20006C5F6C696D69747320736574202E2E2E4E
:100F3000004552522C75736167653A63616C5F6C52
:100F4000696D69747320736574202E2E2E207C20A9
:100F500073686F77004552522C75736167653A6309
:100F6000616C5F7A65726F2073657420616E676C67
:100F7000657C706F736974696F6E207C2063616C2F
:100F80005F7A65726F2073686F77004552522C75D7
:100F9000736167653A63616C5F7A65726F20736530
:100FA0007420616E676C657C706F736974696F6EB5
:100FB000004552522C75736167653A63616C5F7AC4
:100FC00065726F2073657420616E676C657C706FED
:100FD000736974696F6E004552522C757361676551
:100FE0003A63616C5F7A65726F2073657420616E1D
:100FF000676C657C706F736974696F6E207C2063A9
:10100000616C5F7A65726F2073686F77004552522A
:101010002C75736167653A736F6E617220646961E4
:10102000677C7369676E20317C2D31004F4B2C73C8
:101030006F6E61725F7369676E5F7365743D0045C3
:1010400052522C75736167653A736F6E61722073CB
:1010500069676E20317C2D31004552522C757361C9
:1010600067653A736F6E6172207369676E20317CB9
:101070002D31004552522C75736167653A736F6E5E
:10108000617220646961677C7369676E20317C2DB1
:1010900031004552522C75736167653A63616C5F2C
:1010A0007369676E20626567696E7C73617665003F
:1010B0004552522C75736167653A63616C5F736961
:1010C000676E20626567696E7C7361766500455264
:1010D000522C6A6F675F626C6F636B65645F6C6FE5
:1010E0007765725F6C696D6974004F4B2C6A6F672E
:1010F0005F73746172746564004552522C6A6F6745
:101100005F626C6F636B65645F75707065725F6C56
:10111000696D6974004552522C616E676C655F6E33
:101120006F745F7265616479004552522C6A6F6713
:101130005F72657175697265735F6C696D697473EF
:10114000004552522C73746F705F72756E6E696ECB
:10115000675F6265666F72655F6A6F6700455252CE
:101160002C696E76616C69645F6A6F675F61726734
:1011700073004552522C75736167653A6A6F672038
:101180003C7369676E65645F73746570733E203C81
:10119000726174653E004F4B2C6472697665725FB4
:1011A000656E61626C6564004F4B2C647269766594
:1011B000725F64697361626C6564004552522C65AC
:1011C0006E5F72657175697265735F305F6F725FB4
:1011D0003100300031004F4B2C74656C656D6574C7
:1011E00072793D004552522C75736167653A74659A
:1011F0006C656D6574727920307C31004552522CDB
:1012000077697A6172645F6E6F745F616374697627
:1012100065004552522C6E6F5F6661756C745F732A
:1012200074617465004F4B2C6661756C745F636C00
:101230006561726564004F4B2C73746F70706564E8
:10124000004F4B2C72756E6E696E67004F4B2C63AE
:10125000616C5F64656661756C74735F6170706CFE
:101260006965640064656661756C7473006C6F61B8
:10127000646564004F4B2C63616C5F6C6F61642C20
:10128000004552522C63616C5F736176655F6661E5
:10129000696C6564004F4B2C63616C5F73617665AC
:1012A00064004552522C6A6F675F626C6F636B65B6
:1012B000645F6C6F7765725F6C696D6974004F4B2A
:1012C0002C6A6F675F737461727465640045525273
:1012D0002C6A6F675F626C6F636B65645F757070BB
:1012E00065725F6C696D6974004552522C616E675E
:1012F0006C655F6E6F745F72656164790045525210
:101300002C6A6F675F72657175697265735F6C696E
:101310006D697473004552522C73746F705F7275EF
:101320006E6E696E675F6265666F72655F6A6F6732
:10133000004552522C696E76616C69645F6A6F6712
:101340005F61726773004552522C75736167653A2D
:101350006A203C7369676E65645F73746570733E81
:10136000203C726174653E004F4B2C647269766557
:10137000725F64697361626C6564004F4B2C6472C8
:10138000697665725F656E61626C65640045525294
:101390002C75736167653A6520307C31003000310F
:1013A000004F4B2C74656C656D657472793D005708
:1013B00041524E2C6A6F675F73746F707065645F23
:1013C0006C6F7765725F6C696D6974005741524E3E
:1013D0002C6A6F675F73746F707065645F7570708F
:1013E00065725F6C696D69740054454C2C00000097
:1013F0000000240027002A0000000000250028002B
:101400002B00040404040404040402020202020285
:1014100003030303030301020408102040800102B8
:101420000408102001020408102000000008000237
:10143000010000030407000000000000000048292C
:1014400011241FBECFEFD8E0DEBFCDBF12E0A0E079
:10145000B1E0E6E1F6E702C005900D92A03DB107CC
:10146000D9F725E0A0EDB2E001C01D92A93BB2077B
:10147000E1F71AE0C0E2DAE004C02197FE010E9421
:101480005238CF31D107C9F70E94282B0C94093B61
:101490000C940000FC018091EE048530B1F0808155
:1014A0008823A1F08181882389F08281882371F0CB
:1014B0008381882359F08481811107C08581882325
:1014C00029F094E09093EE04089580E008958091CF
:1014D000EE04843011F0823021F483E08093EE0436
:1014E0000895813011F41092EE040895FC01AC01CE
:1014F000485E5F4F8FEF9FEF2191922728E0BC015C
:10150000880F991F77FF04C031E2832730E19327CA
:101510002150A9F7E417F50779F708958091230181
:1015200087FF2BC08FEF809323018091240187FFD9
:1015300026C08FEF809324018091250187FF21C071
:101540008FEF809325012091330130913401409138
:1015500035015091360160912F01709130018091D9
:101560003101909132010E94893A87FD05C0809136
:101570002601837F80932601089581E0D4CF81E006
:10158000D9CF81E0DECF0F931F93CF93DF93CDB7F9
:10159000DEB76A970FB6F894DEBF0FBECDBFFE016F
:1015A00031968AE1DF011D928A95E9F781E08D830A
:1015B0008E838F8380E090E0A0E0B1EC898B9A8BE2
:1015C000AB8BBC8B80E090E0A0E0B1E48D8B9E8B78
:1015D000AF8BB88F8AE1AFE1B1E001900D928A95AF
:1015E000E1F70FE111E080E19BEBF801918380834B
:1015F00081E090E09383828380E090E0A0EAB1E410
:1016000084879587A687B787C8010E94760AD80184
:1016100059969C938E9358976A960FB6F894DEBFAE
:101620000FBECDBFDF91CF911F910F9108952F92E3
:101630003F924F925F926F927F928F929F92AF9262
:10164000BF92CF92DF92EF92FF920F931F93CF93AF
:10165000DF93CDB7DEB766970FB6F894DEBF0FBE47
:10166000CDBF9E8B8D8B6A017B01DC0194968C91A2
:101670009497412C512C3201882391F090962D9112
:101680003D914D915C919397CB01B6010E948638B4
:101690002AE037ED43EA5CE30E94F8382B013C0175
:1016A000ED89FE892081318142815381C701B601D4
:1016B0000E948E3A6F83788789879A87AD89BE8921
:1016C00014968D919D910D90BC91A02D8B879C8738
:1016D000AD87BE87ED89FE89848C958CA68CB78CEE
:1016E0002085318542855385C301B2010E948E3A1F
:1016F0006F87788B898B9A8BA50194016B857C858C
:101700008D859E850E948E3A2F81388549855A8520
:101710000E9487382F85388949895A890E948738DD
:101720002B013C01AD89BE895896BC91BB83ED89E4
:10173000FE89F18DFC83AD89BE895A96BC91BD832B
:10174000ED89FE89F38DFE83AD89BE895496BC91E7
:10175000B983ED89FE89F589FA83AD89BE895696EC
:101760003C90569757962C902B813C814D815E8101
:101770000E94893A87FD0AC020E030E0A901C70134
:10178000B6010E94893A18160CF454C029813A8196
:10179000432D522DC301B2010E94F33818164CF0AC
:1017A00020E030E0A901C701B6010E94F33887FDAF
:1017B00041C02AE037ED43EA5CE3C701B6010E946D
:1017C0008E3AA50194010E948738762E672E582EF6
:1017D000492EED89FE89F089FB8BAD89BE89519632
:1017E000BC91BC8BED89FE89028913898484958420
:1017F000A684B7849401A5010E94F33887FD12C026
:101800002B893C89A801672D762D852D942D0E946A
:10181000893A8B889C885801181624F0872C962CBE
:10182000A52CB42CC401D501ED89FE89848F958F38
:10183000A68FB78FAD89BE895C962D913D914D9154
:101840005C915F976B857C858D859E850E948E3A25
:101850002F81388549855A850E9487382F85388998
:1018600049895A890E9487385B018C019B01AC0130
:1018700069817A81832D922D0E94893A181674F01D
:101880009501A8016B817C818D819E810E94F33836
:1018900087FD2CC0A982BA82302E212EAD89BE8947
:1018A0009096CD92DD92ED92FC92939781E0949682
:1018B0008C9369817A81832D922D66960FB6F89468
:1018C000DEBF0FBECDBFDF91CF911F910F91FF9073
:1018D000EF90DF90CF90BF90AF909F908F907F90D0
:1018E0006F905F904F903F902F900895BB81B98388
:1018F000EC81EA833D802E80D1CF9FB7F894809110
:10190000B705882379F04091B3055091B4056091F3
:10191000B5057091B60581E0141615061606170672
:101920000CF080E09FBF0895E0919C05F0919D052B
:10193000309731F0908180919E0580958923808336
:101940000895E9E9F5E016861786108A118A128A49
:10195000138A148A158A8FB7F8941486168E128EFD
:10196000138E148E158E178E178A168A118E108E6E
:1019700013868FBF0C94940CCF92DF92EF92FF925C
:10198000CF936B017C0120E030E041EE54E40E94F3
:10199000893A18160CF4A6C020E030E041EE54EC71
:1019A000C701B6010E94F33887FDA3C0C092A70506
:1019B000D092A805E092A905F092AA05D701C60128
:1019C000BF778093AB059093AC05A093AD05B09322
:1019D000AE0560912401062E000C770B880B990B45
:1019E0000E949B39A70196010E948E3AC1E020E037
:1019F00030E0A9010E94893A87FDC0E0C093A605A6
:101A00009091A605E0919F05F091A005309741F0D7
:101A10008091A105992309F473C09081892B80835B
:101A2000C090AB05D090AC05E090AD05F090AE0550
:101A300020E030E040E85FE3C701B6010E94F338E0
:101A400070E060E087FD2DC0A7019601C701B601D7
:101A50000E9487389B01AC0160E070E48CE197E460
:101A60000E94F8386B017C0120E030E040E85FE341
:101A70000E94F33887FD48C020E030E64AE657E48C
:101A8000C701B6010E94893A18160CF444C020E040
:101A900030E040E05FE3C701B6010E9487380E9452
:101AA0006A399FB7F8947093B0056093AF0570934F
:101AB000B2056093B10581E06115710509F480E01C
:101AC0008093A5058091A505811102C01092A405FF
:101AD0009FBF672B41F5CF91FF90EF90DF90CF90A4
:101AE0000C94940CC12CD12C31EEE32E34E4F32E63
:101AF0005DCFC12CD12C21EEE22E24ECF22E56CF5C
:101B00009081809589238BCFC12CD12C90E8E92E30
:101B10009FE3F92EBCCFC12C80E6D82E8AE6E82EB2
:101B200087E4F82EB4CFCF91FF90EF90DF90CF9065
:101B300008958F929F92AF92BF92CF92DF92EF92D1
:101B4000FF924B015C0169017A0181149104A104A7
:101B5000B10451F4FF90EF90DF90CF90BF90AF9021
:101B60009F908F900C94A10C20E030E040E85FE360
:101B7000C701B6010E94F33887FF06C0C12CD12CE3
:101B800080E8E82E8FE3F82E2FB7F894D501C40132
:101B9000B7FE07C088279927DC0188199909AA0987
:101BA000BB098093B3059093B405A093B505B0939A
:101BB000B60581E08093B7051092B8052FBF1814C1
:101BC00019041A041B0424F0F7FAF094F7F8F094BF
:101BD000C701B601FF90EF90DF90CF90BF90AF901C
:101BE0009F908F900C94BC0C8FB7F8949091B8058F
:101BF000911102C08FBF08951092B8051092B705D9
:101C00001092B3051092B4051092B5051092B60566
:101C10008FBF60E070E0CB010C94BC0C4F925F92E0
:101C20006F927F928F929F92AF92BF92CF92DF92EC
:101C3000EF92FF921F9320916A05222309F4A0C01E
:101C40006B017C0160916F05709170058091710549
:101C500090917205409073055090740560907505E1
:101C60007090760580906B0590906C05A0906D0546
:101C7000B0906E056093DB037093DC038093DD030B
:101C80009093DE032AE037ED43E25CE30E948E3A54
:101C90006093DF037093E0038093E1039093E2038A
:101CA0004092E3035092E4036092E5037092E603EE
:101CB0002AE037ED43E25CE3C301B2010E948E3AB1
:101CC0006093E7037093E8038093E9039093EA033A
:101CD0008092EB039092EC03A092ED03B092EE039E
:101CE00020917B0530917C052230310528F410923B
:101CF000F0031092CE0333C0809077059090780562
:101D0000A0907905B0907A05C818D908EA08FB08B0
:101D100041E021EAC216D104E104F10408F040E0F8
:101D20004093F00321EAC216D104E104F10408F75C
:101D30008092C7039092C803A092C903B092CA03CD
:101D40001092CB039F7711E02EEA37E441E65EE381
:101D50000E94893A18160CF010E01093CE032091DF
:101D6000F003822F1F91FF90EF90DF90CF90BF90F4
:101D7000AF909F908F907F906F905F904F9008955D
:101D80001092F0031092CE03ECCF9091CB03809190
:101D9000CC03811182E0892B9091CD03911194E0C5
:101DA000892B9091CE03911198E0892B089590E0B2
:101DB000FC01E65DFB4E2491FC01EA5EFB4E349192
:101DC000FC01EE5FFB4EE491EE23C9F0222339F0D3
:101DD000233001F1A8F4213019F1223029F1F0E08B
:101DE000EE0FFF1FE850FC4EA591B4918FB7F89409
:101DF000EC91611126C030953E233C938FBF08952E
:101E00002730A9F02830C9F0243049F780918000AC
:101E10008F7D03C0809180008F7780938000DFCF1B
:101E200084B58F7784BDDBCF84B58F7DFBCF809168
:101E3000B0008F778093B000D2CF8091B0008F7DBB
:101E4000F9CF3E2BDACF2F923F924F925F926F9253
:101E50007F928F929F92AF92BF92CF92DF92EF923A
:101E6000FF920F931F93CF93DF93CDB7DEB7A49765
:101E70000FB6F894DEBF0FBECDBF2B013C012F8FF4
:101E800038A349A35AA380918605811140C080914F
:101E9000820590918305A0918405B0918505A301E9
:101EA0009B01281B390B4A0B5B0BDA01C9018034FB
:101EB0009C49A105B10558F18FB7F89411E0109332
:101EC000870510929005109291058FBF60E0809178
:101ED0003D050E94D70E83E090E00197F1F761E0A5
:101EE00080913D050E94D70E83E290E00197F1F7C3
:101EF00060E080913D050E94D70E4092820550928D
:101F000083056092840570928505109386052FB72E
:101F1000F8949090910560E070E0CB01992051F029
:101F20001092910560918C0570918D0580918E05C0
:101F300090918F052FBF992009F447C21092860512
:101F4000F09062050091630510E0A801435C5A4FD0
:101F50006A01D80111961D019B01AC012150310984
:101F600041095109273A31464105510508F007C298
:101F70000E94993928E23EE74CE05DE30E948E3AE8
:101F800020E030E040E05FE30E948E3A2B013C010C
:101F900020E030E040E050E40E94893A87FD98C09C
:101FA00020E030E042E852E4C301B2010E94F3387D
:101FB00018160CF48DC0E0906A05EE2009F48AC072
:101FC00080906B0590906C05A0906D05B0906E05AB
:101FD000A5019401C301B2010E9486389F7720E0D9
:101FE00030E048EC51E40E94893A1816FCF48091E4
:101FF0007F059091800501969093800580937F05E1
:10200000A5019401C301B2010E94893A20E030E0A9
:1020100048EC51E4181624F020E030E048EC51EC94
:10202000C501B4010E9487382B013C01E7E0FE1294
:1020300053C0D6015E968C91882329F08091640567
:10204000815080936405F601E68EEE2081F0000F4A
:10205000111F000F111FF801E35CFA4F42825382F7
:1020600064827582809164058F5F80936405C101ED
:1020700067E070E00E941C3880936305E11030C077
:1020800081E08093810580917D0590917E058F3F51
:10209000980729F0019690937E0580937D05A4967C
:1020A0000FB6F894DEBF0FBECDBFDF91CF911F9169
:1020B0000F91FF90EF90DF90CF90BF90AF909F90E7
:1020C0008F907F906F905F904F903F902F900895EA
:1020D000E12CACCFE92CAACFF394F0926205B3CFF8
:1020E00080916405853030F1909162052BE535E0F3
:1020F000EDE3F5E080E010E0981701F1D9014D9192
:102100009D014423A1F044E0149FD001112441E03B
:1021100050E04C0F5D1FA40FB51F428153816481B5
:1021200075814D935D936D937C9313971F5F8F5FC4
:102130003496E2CF81E080938105B1CFC12CD12CC0
:102140007601112309F481C0D12C212E312C8D2D43
:1021500090E09C012F5F3F4F221533050CF049C0E2
:1021600000E0D101A81BB90BBCA3ABA3802F90E06A
:102170007C01BFEFEB1AFB0AEBA1FCA1EE16FF06F8
:10218000B4F5880F991F880F991F21E030E02C0FBC
:102190003D1F280F391F3E8F2D8FD9018D909D90A7
:1021A000AD90BC90EE0CFF1CEE0CFF1CE1E0F0E0EB
:1021B000EC0FFD1FEE0EFF1ED7014D905D906D9050
:1021C0007C90A3019201C501B4010E94893A1816BE
:1021D00064F4ED8DFE8D4082518262827382D7015C
:1021E0008D929D92AD92BC9213970F5FBFCFD39407
:1021F000AECF812F869590E0FC01EE0FFF1FEE0F12
:10220000FF1F21E030E02C0F3D1FE20FF31FC080C5
:10221000D180E280F38010FD18C00197880F991FCC
:10222000880F991F820F931FDC012D913D914D91D5
:102230005C91C701B6010E94873820E030E040E0A1
:102240005FE30E948E3A6B017C01809165058111EC
:102250006FC0C0926605D0926705E0926805F09263
:10226000690581E080936505C0926B05D0926C058D
:10227000E0926D05F0926E0560912501062E000C2E
:10228000770B880B990B0E949B392B013C018090A6
:102290002B0190902C01A0902D01B0902E01A50152
:1022A0009401C701B6010E948638A30192010E94E1
:1022B0008E3A60936F0570937005809371059093CB
:1022C0007205A50194016091660570916705809182
:1022D0006805909169050E948638A30192010E94C9
:1022E0008E3A60937305709374058093750590938F
:1022F00076052F8D38A149A15AA1209377053093F7
:1023000078054093790550937A0581E080936A05BA
:102310001092810580917B0590917C058F3F9807F5
:1023200009F4BDCE019690937C0580937B05B7CED2
:102330002CEC3CEC4CEC5EE360916605709167051B
:1023400080916805909169050E948E3A4B015C016D
:102350002AE939E949E15FE3C701B6010E948E3AF3
:102360009B01AC01C501B4010E94873860936605EA
:1023700070936705809368059093690575CF47E072
:10238000F41271C0D6015E968C91882329F0809159
:102390006405815080936405F601168EC10167E0E3
:1023A00070E00E941C388093630581E08093810572
:1023B00080917D0590917E058F3F980709F46FCE3F
:1023C000019690937E0580937D05809186058823F4
:1023D00009F465CE8091820590918305A0918405D2
:1023E000B0918505481A590A6A0A7B0A29EA4216F9
:1023F00021E652066104710408F451CE109286055C
:10240000209162058091630590E0FC01E35CFA4F46
:10241000273069F5268D222329F02091640521506B
:1024200020936405168E019667E070E00E941C38C8
:102430008093630581E08093810580917D05909173
:102440007E058F3F980729F0019690937E05809333
:102450007D058FB7F8941092870510929005109221
:1024600091058FBF1CCEF394F092620595CF2F5F3C
:1024700020936205D7CFCF93DF9390E0FC01EA5E13
:10248000FB4E24918E5F9B4EFC0184918823D1F0FA
:1024900090E0880F991FFC01E251FC4EA591B49188
:1024A000FC01E850FC4EC591D49161110EC09FB75C
:1024B000F8948C91E22FE0958E238C932881E2236F
:1024C000E8839FBFDF91CF9108958FB7F894EC9187
:1024D000E22BEC938FBFF6CF3FB7F8948091C30304
:1024E0009091C403A091C503B091C60326B5A89BE3
:1024F00005C02F3F19F00196A11DB11D3FBFBA2F96
:10250000A92F982F8827BC01CD01620F711D811D55
:10251000911D42E0660F771F881F991F4A95D1F7DA
:1025200008958F929F92AF92BF92CF92DF92EF92D7
:10253000FF924B015C010E946C126B017C010E94B6
:102540006C126C197D098E099F09683E73408105E4
:102550009105A8F321E0821A9108A108B10888EE3C
:10256000C80E83E0D81EE11CF11C81149104A10463
:10257000B10429F7FF90EF90DF90CF90BF90AF901C
:102580009F908F9008952FB7F8946091BF0370913A
:10259000C0038091C1039091C2032FBF08952F9271
:1025A0003F924F925F926F927F928F929F92AF92E3
:1025B000BF92CF92DF92EF92FF920F931F93CF9330
:1025C000DF9300D000D01F92CDB7DEB79B838A8304
:1025D0000E94C3124B015C0110E000E01D82312C0F
:1025E0001C82212C0E94C312681979098A099B094F
:1025F0006438734081059105D0F01C828C810F9066
:102600000F900F900F900F90DF91CF911F910F912E
:10261000FF90EF90DF90CF90BF90AF909F908F9002
:102620007F906F905F904F903F902F9008950E9401
:102630006C122B013C010E94C3126B017C010E94B1
:10264000F40DA7019601C301B2010E94230FF0917E
:102650006A05F983FF2309F47FC080917B0590917F
:102660007C05029708F478C08091770590917805F1
:10267000A0917905B0917A05C81AD90AEA0AFB0A2D
:1026800021EAC216D104E104F10408F065C0C0904B
:102690006B05D0906C05E0906D05F0906E05609034
:1026A000660570906705509068054090690520E0C8
:1026B00030E0A901B301852D942D0E94893A1816A6
:1026C0000CF446C020E030E0A901B601C7010E9429
:1026D000893A18160CF040C08C818823D1F02CEC7C
:1026E0003CEC4CEC5EE3612F702F8D81932D0E94AA
:1026F0008E3A2B013C012AE939E949E15FE3B60151
:10270000C7010E948E3AA30192010E9487386B0193
:102710007C0123946DE270E080E090E00E949112D1
:10272000E981EC831C2D0D2DED823F2C25E022123A
:1027300059CFFC81FF2309F460CF812F902FAD8109
:10274000B32DEA81FB8180839183A283B38356CF2B
:102750006301E52CF42CC0CF6AE070E080E090E0EB
:102760000E949112E3CF08950895AF92BF92CF9245
:10277000DF92EF92FF920F931F93CF93DF936C0141
:102780007B018B01040F151FEB015E01AE18BF0822
:10279000C017D10759F06991D601ED91FC910190D4
:1027A000F081E02DC6010995892B79F7C501DF91EC
:1027B000CF911F910F91FF90EF90DF90CF90BF903E
:1027C000AF900895FC01538D448D252F30E0842F68
:1027D00090E0821B930B541710F0CF960895019749
:1027E0000895FC01918D828D981761F0A28DAE0F36
:1027F000BF2FB11D5D968C91928D9F5F9F73928FBD
:1028000090E008958FEF9FEF0895FC01918D828DE8
:10281000981731F0828DE80FF11D858D90E00895B5
:102820008FEF9FEF0895FC01918D228D892F90E00D
:10283000805C9F4F821B91098F739927089585E4CF
:1028400094E00E94131421E0892B09F420E0822FE8
:10285000089580E090E0892B29F00E941F148111D7
:102860000C9400000895FC01A48DA80FB92FB11D90
:10287000A35ABF4F2C91848D90E001968F739927B6
:10288000848FA689B7892C93A089B1898C91837094
:1028900080648C93938D848D981306C00288F3898D
:1028A000E02D80818F7D80830895EF92FF920F93BA
:1028B0001F93CF93DF93EC0181E0888F9B8D8C8DEC
:1028C00098131AC0E889F989808185FF15C09FB7E0
:1028D000F894EE89FF896083E889F98980818370A3
:1028E000806480839FBF81E090E0DF91CF911F9152
:1028F0000F91FF90EF900895F62E0B8D10E00F5F73
:102900001F4F0F731127E02E8C8D8E110CC00FB648
:1029100007FCFACFE889F989808185FFF5CFCE01E0
:102920000E943314F1CFEB8DEC0FFD2FF11DE35A14
:10293000FF4FF0829FB7F8940B8FEA89FB89808163
:102940008062CFCF0F931F93CF93DF938C01D0E0A2
:10295000C0E0F801EC0FFD1F6491662341F085E4AF
:1029600094E00E945514892B11F02196F2CFCE01EC
:10297000DF91CF911F910F910895682F85E494E026
:102980000C945514CF93DF93EC01888D8823B9F014
:10299000AA89BB89E889F9898C9185FD03C080816A
:1029A00086FD0DC00FB607FCF7CF8C9185FFF2CFE7
:1029B000808185FFEDCFCE010E943314E9CFDF91F6
:1029C000CF91089520911503260F3327331F21320D
:1029D0003105ECF420911B04FC0190E080E02430F0
:1029E00069F082E00895A09115032191AC014B504C
:1029F0005D4FA40FB52FB11D2C930196861798F348
:102A000080911503680F6093150380E0089581E0BD
:102A1000089510921B0481E080931A041092F5032C
:102A200061E082E10E94D70E61E083E10E94D70E4F
:102A3000E9EBF0E080818E7F808380818D7F8083D1
:102A400088E48093B80085E48093BC000895CF9318
:102A5000DF9391E09093F4028823B9F0C091B8001D
:102A6000D091BA008091BC008A7B8093BC0060E06A
:102A700082E10E94D70E60E083E10E94D70E0E949F
:102A80000915D093BA00C093B800DF91CF91089593
:102A90008F929F92AF92BF92CF92DF92EF92FF926E
:102AA0000F931F93CF93DF93D0914404D13208F05A
:102AB000D7C0182FC09143040E946C126B017C0197
:102AC00080911B0481116BC082E080931B041093E2
:102AD0001A048FEF8093190410921804D0931704EE
:102AE000A3E2B4E0E7EFF3E080E0D81391C01092E6
:102AF000F6038091F603CC0FC82BC093F6038091A8
:102B0000F503813009F088C01092F5030E946C1221
:102B10006B017C018091F6038093BB0080911D04C2
:102B200090911E04A0911F04B0912004892B8A2B40
:102B30008B2BA1F00E946C1200911D0410911E04B9
:102B400020911F04309120046C197D098E099F0982
:102B5000061717072807390708F442C08091BC0000
:102B600083FDD8CF85EC8093BC000E946C126B0172
:102B70007C0180911B04823009F450C080911904BB
:102B80008F3F09F46FC080911904803209F46CC042
:102B900080911904803309F469C084E026C08091D3
:102BA0001D0490911E04A0911F04B0912004892B54
:102BB0008A2B8B2B09F484CF0E946C1280901D0409
:102BC00090901E04A0901F04B09020046C197D0901
:102BD0008E099F0986169706A806B90608F070CFD9
:102BE00080911C040E94271585E010922204109207
:102BF000440410922104DF91CF911F910F91FF9017
:102C0000EF90DF90CF90BF90AF909F908F900895FE
:102C10009D9191938F5F69CF85EEA5CF80911D0423
:102C200090911E04A0911F04B0912004892B8A2B3F
:102C30008B2B09F49ECF0E946C1200911D04109101
:102C40001E0420911F04309120046C197D098E0907
:102C50009F09061717072807390708F08ACFC0CF42
:102C600081E0C3CF80E0C1CF82E0BFCF83E0BDCFA2
:102C70000895E0913D0380913C03E81730F4F0E0C3
:102C8000EC52FD4F808190E008958FEF9FEF089503
:102C900090913D0380913C032FEF3FEF981748F44C
:102CA000E92FF0E0EC52FD4F208130E09F5F9093E0
:102CB0003D03C901089580913C0390913D03891B18
:102CC000990B0895CF92DF92EF92FF920F931F938B
:102CD000CF93DF937C01CB018A0120912104222331
:102CE00089F0EB016B01C40ED51ECC15DD0569F032
:102CF0006991D701ED91FC910190F081E02DC70120
:102D00000995F3CF642F0E94E214C801DF91CF919F
:102D10001F910F91FF90EF90DF90CF900895CF9388
:102D2000DF931F92CDB7DEB7698320912104222360
:102D3000F9F020914404203258F021E030E0FC0109
:102D40003383228390E080E00F90DF91CF9108954C
:102D500080912204E82FF0E0ED5DFB4F9981908394
:102D60008F5F809322048093440481E090E0ECCF55
:102D700061E0CE0101960E94E214F7CF90E080E07E
:102D80000895CF93DF930E94A10CC9E9D5E01A867C
:102D900061E08A810E94D70E8FB7F8941B862E8936
:102DA0003F89398F288F8FBFDF91CF910C94940C7E
:102DB0008091CB0381110AC08091CC03811106C0A0
:102DC0008091CD03811102C08091CE0308958F922E
:102DD0009F92AF92BF92CF92DF92EF92FF920F93AA
:102DE0001F934091EE0408EE13E020E030E0443001
:102DF00021F40CE211E020E030E0C0904103D090DB
:102E00004203E0904303F09044034B015C018C18B3
:102E10009D08AE08BF08750164010C151D052E053F
:102E20003F0518F451E05093CC03C090C703D090F5
:102E3000C803E090C903F090CA036C197D098E099C
:102E40009F09061717072807390718F481E08093B0
:102E5000CB03443099F40E94D816882379F085E09A
:102E60008093EE041F910F91FF90EF90DF90CF9031
:102E7000BF90AF909F908F900C94C1161F910F91AF
:102E8000FF90EF90DF90CF90BF90AF909F908F908A
:102E900008954F925F926F927F928F929F92AF921E
:102EA000BF92CF92DF92EF92FF920F931F93CF9337
:102EB000DF9300D000D000D0CDB7DEB7009709F483
:102EC000C7C09A838983FC01208101962032C9F30F
:102ED00037EF320F3230A8F32D3099F32D32C1F590
:102EE0009A838983812C912C30E8A32E3FEBB32E5B
:102EF00009811A811E830D8319821A821B821C820A
:102F000080E0ED81FE81119190ED910F9A3058F59E
:102F1000AAE0B0E029813A814B815C810E94583857
:102F2000AB01BC01812F110F990BC097092E000C2A
:102F3000AA0BBB0B8C019D01040F151F261F371F09
:102F400009831A832B833C8381E0FE83ED83D9CFF1
:102F50002B3211F49A838983812C912C20E8A22EA4
:102F60002FE3B22EC5CF1E3209F076C00D811E812F
:102F70000B5F1F4F1E830D83C12CD12C7601C39490
:102F8000412C512C3201119190ED910F9A3008F0A3
:102F90005DC0AAE0B0E0A30192010E945838212F41
:102FA000110F330B205331092901330F66087708BD
:102FB000460E571E681E791EA70196010E945838BA
:102FC0006B017C0181E00D811E810E171F07D9F670
:102FD00012E0C116D104E104F10408F43FC0C301BA
:102FE000B2010E9499392B013C01C701B6010E9430
:102FF00099399B01AC01C301B2010E94F8386B0101
:103000007C0169817A818B819C810E949939A70119
:1030100096010E948738A50194010E948E3A269657
:103020000FB6F894DEBF0FBECDBFDF91CF911F91D9
:103030000F91FF90EF90DF90CF90BF90AF909F9057
:103040008F907F906F905F904F9008958111C0CFC7
:1030500060E070E0CB01E3CF8823D1F3C12CD12C09
:103060007601CFCF20913301309134014091350169
:103070005091360160912F017091300180913101A2
:10308000909132010E94F338881F8827881F089585
:10309000809126018C708C3011F40C94321880E0F1
:1030A000089590912601937081E0933009F080E0BB
:1030B0000895EF92FF920F931F93CF93DF9300D069
:1030C00000D000D0CDB7DEB7009126010295017087
:1030D0000E945118E82E0E944818F82E1091EF0314
:1030E00011111091F0030E94D816202F3E2D4F2D64
:1030F000512F682F71E080E090E026960FB6F8948B
:10310000DEBF0FBECDBFDF91CF911F910F91FF901A
:10311000EF900895FC0101900020E9F73197AF018D
:10312000481B590BBC0185E494E00C94B513CF9374
:10313000DF930E94A214EC018FE991E00E948A18AB
:103140008C0F9D1FDF91CF910895E0911B01E73017
:1031500008F05EC0F0E0E155F74E0C945238B61816
:10316000BA18BD18C018C318C618C91882E29BE067
:103170000C9497188FEF9AE0FBCF85EE9AE0F8CF8A
:103180008DEC9AE0F5CF81EB9AE0F2CF86E99AE0F8
:10319000EFCF84E89AE00E94A2140E945118811196
:1031A0002BC084E79AE00E94A2148BE79AE00E9469
:1031B000A2140E944818811122C086E69AE00E945B
:1031C000A2148DE69AE00E94A2148091260184FD4B
:1031D00019C087E59AE00E94A2148EE59AE00E9449
:1031E000A21480914A03811110C089E39AE00E94E1
:1031F000971880E49AE0BCCF87E79AE0D4CF89E6BD
:103200009AE0DDCF8AE59AE0E6CF8CE39AE0EFCF53
:103210000895CF9380911A01811150C0C091260169
:103220008FEA99E0C0FF12C08EE799E0C1FF0EC09F
:1032300084E599E0C2FF0AC08EE299E0C3FF06C0B0
:103240000E943218811105C088E099E0CF910C945A
:1032500097188091EE04853019F483EE98E0F6CF4C
:1032600084EC98E0C4FFF2CF80910001882371F0D4
:103270008091020181110AC080910101882319F017
:103280008FE898E0E3CF8CE598E0E0CF8091EF0302
:10329000811103C08DE298E0D9CF8091F0038111B4
:1032A00003C086EF97E0D2CF80914A03882319F0BC
:1032B0008DED97E0CBCF85EC97E0C8CFCF91089507
:1032C0008F929F92AF92BF920F931F93CF93DF93F2
:1032D000CDB7DEB7A1970FB6F894DEBF0FBECDBF56
:1032E00019A2423008F44AE08E010F5D1F4F842E70
:1032F000912CB12CA12CA50194010E943038E62F0D
:10330000B901CA01EA30F4F4E05DD801EE938D0111
:10331000232B242B252B79F790E080E0109719F0D0
:10332000CD010E948A18A1960FB6F894DEBF0FBE99
:10333000CDBFDF91CF911F910F91BF90AF909F9024
:103340008F900895E95CE1CFCF93DF93D0E0C0E0A8
:10335000009719F00E948A18EC018FE991E00E9411
:103360008A188C0F9D1FDF91CF9108958AE296E015
:103370000E9497188EE196E00E94A214E091EE045C
:10338000E63008F04FC0F0E0EE0FFF1FE159FE4FAE
:1033900080819181009711F00E948A1887E196E060
:1033A0000E94A2140E94511881113FC087E096E04C
:1033B0000E94A2148EE096E00E94A2140E94481877
:1033C000811136C089EF95E00E94A21480E096E05A
:1033D0000E94A2148091260184FD2DC087EE95E005
:1033E0000E94A2148EEE95E00E94A2148091EF0339
:1033F000811124C085ED95E00E94A2148CED95E02A
:103400000E94A2148091F00381111BC08EEC95E004
:103410000E9497188091F003811116C087EA95E009
:103420000C94971882EA91E0B7CF8AE096E0C0CF7B
:103430008CEF95E0C9CF8AEE95E0D2CF88ED95E08C
:10344000DBCF81ED95E0E4CF0895CF93DF93EC01DE
:103450008091EE04813011F40E94670A10920001FD
:1034600080911C0110921A0110921B0191E090931F
:103470001C0110921D0180931E0186E59BE00E94B5
:10348000A214CE010E948A1881E49BE00E94A2143B
:1034900080911E01811106C08DE39BE0DF91CF91E9
:1034A0000C9497188FE39BE0F9CF4F925F926F9245
:1034B0007F928F929F92AF92BF92CF92DF92EF92C4
:1034C000FF920F931F93CF936B017C01742EAC017D
:1034D0009B010E94FB3A882399F08AEA91E0CF9100
:1034E0001F910F91FF90EF90DF90CF90BF90AF9022
:1034F0009F908F907F906F905F904F900C948A1860
:1035000046015701E894B7F82FEF3FEF4FE75FE729
:10351000C501B4010E94FB3A81110DC02FEF3FEFAE
:103520004FE75FE7C501B4010E94F33818161CF499
:103530008EEA91E0D4CF2FEF3FEF4FE75FE4C70172
:10354000B6010E94893A18161CF482EB91E0C7CFAD
:103550002FEF3FEF4FE75FECC701B6010E94F33852
:1035600087FDF3CF20E030E0A901C701B6010E943A
:10357000F33810E000E087FF08C08DE20E94BD1420
:103580008C01F7FAF094F7F8F094C0E060E070E096
:1035900080E09FE37C1641F020E030E040E251E41F
:1035A0000E94F838CF5FF6CFA70196010E948738B6
:1035B0002B013C010E946A394B015C014AE00E94E8
:1035C00060197C01E00EF11ECC23B1F1C501B401FC
:1035D0000E9499399B01AC01C301B2010E94863857
:1035E0004B015C018EE20E94BD14E80EF91EC15031
:1035F00018F120E030E040E251E4C501B4010E943E
:103600008E3A2B013C010E946A394B01B12CA12C4E
:103610004AE0C501B4010E946019E80EF91EC50117
:10362000B4010E9499399B01AC01C301B2010E940F
:1036300086384B015C01DBCFC701CF911F910F9101
:10364000FF90EF90DF90CF90BF90AF909F908F90C2
:103650007F906F905F904F9008950C94551A84E47A
:1036600094E00E94A21460912F017091300180912A
:1036700031019091320146E050E00E942D1B88E319
:1036800094E00E94A2146091330170913401809102
:1036900035019091360146E050E00E942D1B84E2F6
:1036A00094E00E94A2140E944818811104C08DE188
:1036B00094E00C94971880E294E0FBCF83E094E0D0
:1036C0000E94A21460912701709128018091290124
:1036D00090912A0146E050E00E942D1B81EF93E07B
:1036E0000E94A21460912B0170912C0180912D01F8
:1036F00090912E0146E050E00E942D1B8FED93E04B
:103700000E94A2140E945118811104C088ED93E018
:103710000C9497188BED93E0FBCFCF93DF930E942F
:10372000551AEC018FE991E00E948A188C0F9D1FB9
:10373000DF91CF910895CF92DF92EF92FF92CF93D6
:10374000DF936C01990FEE08FF08F7FE1DC08DE2B4
:103750000E94BD14EC0166277727CB016C197D0907
:103760008E099F094AE00E946019C80FD91F8FE98E
:1037700091E00E948A188C0F9D1FDF91CF91FF90DE
:10378000EF90DF90CF9008954AE0C701B6010E9404
:103790006019EC01ECCFCF92DF92EF92FF92CF93C2
:1037A000DF936C01990FEE08FF08F7FE17C08DE25A
:1037B0000E94BD14EC0166277727CB016C197D09A7
:1037C0008E099F094AE00E9460198C0F9D1FDF91AE
:1037D000CF91FF90EF90DF90CF9008954AE0C7011E
:1037E000B601DF91CF91FF90EF90DF90CF900C94D6
:1037F0006019CF93DF93682F70E090E080E04AE09B
:103800000E946019EC018FE991E00E948A188C0FE8
:103810009D1FDF91CF910895CF930E94C50EC82FB1
:1038200086E995E00E94A2148C2F0E94F91B85E87E
:1038300095E00E94A2148091EE04843089F186E61E
:1038400095E00E94971886E595E0CC2331F18091B0
:10385000CB03882321F08FE195E00E949718809197
:10386000CC03882321F088EF94E00E949718809180
:10387000CD03882321F08CEC94E00E94971880916E
:10388000CE03882321F08FE994E00E94971880915D
:10389000EE04853041F48BE794E0CF910C949718B7
:1038A00086E795E0CECF8AE594E0F7CF2F923F925E
:1038B0004F925F926F927F928F929F92AF92BF9240
:1038C000CF92DF92EF92FF920F931F93CF93DF93EC
:1038D00000D000D01F92CDB7DEB70E94C312209057
:1038E0006A0520918105298320917B0530917C0513
:1038F0003D832C832220E1F000917705109178051B
:103900002091790530917A056B017C01C01AD10AAA
:10391000E20AF30A8C819D81029740F033243394AC
:1039200091EAC916D104E104F10438F0312C05C044
:10393000312CCC24CA94DC2C760140906B0550903D
:103940006C0560906D0570906E0580906605909096
:103950006705A0906805B090690500917D051091FC
:103960007E0520917F05309180053B832A8380EA84
:1039700096E00E94A21486E996E0211002C084E934
:1039800096E00E94A21488E996E00E94A21488E8BA
:1039900096E0311002C086E896E00E94A2148AE800
:1039A00096E00E94A214398189E396E0311102C0A9
:1039B00087E396E00E94A2148DE796E00E94A2148D
:1039C0004AE0C701B6010E94601984E796E00E94B0
:1039D000A21444E050E0C301B2010E942D1B8AE60C
:1039E00096E00E94A21444E050E0C501B4010E9498
:1039F0002D1B8BE596E00E94A2142C813D81B9011C
:103A000090E080E04AE00E9460198DE496E00E9418
:103A1000A214B80190E080E04AE00E9460198BE3B4
:103A200096E00E94A2142A813B81B90190E080E0D7
:103A30004AE00E9460198FE991E00F900F900F907B
:103A40000F900F90DF91CF911F910F91FF90EF900A
:103A5000DF90CF90BF90AF909F908F907F906F90AE
:103A60005F904F903F902F900C948A18CF93DF93E4
:103A7000EC0189E29AE00E9497188981811104C0C3
:103A80008EE19AE00E9497188A81811104C081E139
:103A90009AE00E9497188881811104C086E09AE01C
:103AA0000E9497188B81811104C088EF99E00E94D1
:103AB00097188C81882321F08BEE99E00E9497184B
:103AC0008D81811104C08AED99E00E9497188C8144
:103AD00081110E940C1C8B81811102C00E94561C16
:103AE000DF91CF910C9409191F93CF93DF9300D0EE
:103AF00000D0CDB7DEB719821A821B821C82CE019C
:103B000001960E94CF12182F81110FC082EE96E00D
:103B10000E9497180E94561C812F0F900F900F90B3
:103B20000F90DF91CF911F91089589819A81AB8188
:103B3000BC8180932B0190932C01A0932D01B09315
:103B40002E01809126018260809326010E94C3127B
:103B50000E940E0E81E080934A0386EF96E00E9459
:103B6000A21469817A818B819C8146E050E00E9499
:103B70008D1B0E945E1BD0CF1F93CF93DF9300D08D
:103B800000D0CDB7DEB7109100018FEB93E0112389
:103B900051F010910101111111C083EA93E00E94CC
:103BA00097188FE793E00E949718812F0F900F903E
:103BB0000F900F90DF91CF911F91089519821A8273
:103BC0001B821C82CE0101960E94CF12182F8111F8
:103BD00007C08BE693E00E9497180E94561CE5CF21
:103BE00069817A818B819C816093070170930801C0
:103BF0008093090190930A012091030130910401FF
:103C000040910501509106010E94893A87FF70C0DA
:103C10008FEF8093190191E09093020110920001BF
:103C20008F3F09F081E0809325018091EE0481307F
:103C300019F483E08093EE048AE593E00E94A214D5
:103C40000E94C3124AE00E9460198CE20E94BD14D7
:103C500060911301709114018091150190911601EA
:103C600045E050E00E942D1B8CE20E94BD14809123
:103C70001701082E000C990B0E94CB1B8CE20E94AE
:103C8000BD1480911801082E000C990B0E94CB1BCB
:103C90008CE20E94BD146091030170910401809137
:103CA00005019091060144E050E00E942D1B8CE23A
:103CB0000E94BD1460910701709108018091090173
:103CC00090910A0144E050E00E942D1B8CE20E947A
:103CD000BD1480911901082E000C990B0E949B1BAA
:103CE00086E293E00E94971881E080934A035DCFBB
:103CF00081E08FCFCF92DF92EF92FF920E94C312AA
:103D00006B017C018AED91E00E94A214E091EE0427
:103D100082EA91E0E63038F4F0E0EE0FFF1FE1595F
:103D2000FE4F808191810E94A4198BEC91E00E944A
:103D3000A2148091EF03811129C18EEB91E00E94C2
:103D4000A21485EC91E00E94A2148091F0038111ED
:103D500020C183E291E00E9497188EEA91E00E94D0
:103D6000A2146091CF037091D0038091D103909100
:103D7000D20344E050E00E942D1B87EA91E00E94AC
:103D8000A2146091DB037091DC038091DD039091BC
:103D9000DE0344E050E00E942D1B8BE991E00E947D
:103DA000A2146091E3037091E4038091E503909184
:103DB000E60344E050E00E948D1B8DE891E00E94F4
:103DC000A2148091410390914203A0914303B091CA
:103DD0004403A7019601281B390B4A0B5B0BCA0150
:103DE000B9014AE00E94601984E891E00E94A2149F
:103DF0008091C7039091C803A091C903B091CA03F1
:103E0000A7019601281B390B4A0B5B0BCA01B901AC
:103E10004AE00E9460198FE991E00E948A1887E7C2
:103E200091E00E94A2140E94C50E0E94F91B80E638
:103E300091E00E94A21480912401082E000C990B9D
:103E40000E94CB1B8FE491E00E94A2148091230179
:103E5000082E000C990B0E94CB1B8FE391E00E946F
:103E6000A21480912501082E000C990B0E949B1B27
:103E70008AE291E00E94A2140E94511881118CC024
:103E800088E091E00E94A2148FE091E00E94A214C9
:103E90000E944818811183C08FEE90E00E94A21406
:103EA00086EF90E00E94A2148091260184FD7AC0E2
:103EB00082E990E00E94971885ED90E00E94A2149C
:103EC00060912701709128018091290190912A0128
:103ED00046E050E00E942D1B83EC90E00E94A2146B
:103EE00060912B0170912C0180912D0190912E01F8
:103EF00046E050E00E948D1B8DEA90E00E94A214E3
:103F000060912F01709130018091310190913201C7
:103F100045E050E00E942D1B81EA90E00E94A2142F
:103F20006091330170913401809135019091360197
:103F300045E050E00E942D1B89E990E00E94A21408
:103F40000E944818811131C08CE690E00E949718B9
:103F500080E890E00E94A21480914903813059F1D9
:103F6000823031F58DEB91E00E94A41983E790E057
:103F70000E94A21480911E01811120C088E690E069
:103F8000FF90EF90DF90CF900C94971882EC91E027
:103F9000D6CE87E291E0DFCE8BE091E073CF82EF67
:103FA00090E07CCF85E990E085CF8FE690E0CECFA2
:103FB00086EC91E0D9CF86EB91E0D6CF8AE690E00F
:103FC000DFCF2F923F924F925F926F927F928F92AC
:103FD0009F92AF92BF92CF92DF92EF92FF920F9398
:103FE0001F93CF93DF93CDB7DEB72A970FB6F89420
:103FF000DEBF0FBECDBFA0919205B0919305109783
:1040000091F58091950590919605A0919705B091B5
:1040100098050196A11DB11D809395059093960575
:10402000A0939705B09398051092EF0381E08093D9
:10403000CC0380E02A960FB6F894DEBF0FBECDBF4A
:10404000DF91CF911F910F91FF90EF90DF90CF9074
:10405000BF90AF909F908F907F906F905F904F90A8
:104060003F902F90089589011A016F83788789877F
:104070009A872091940531E03093210420934304E2
:104080001092220410924404ED91FC91119701903A
:10409000F081E02D6CE0CD01099580E00E9448158B
:1040A000F82E8111AECFE09094050E946C122B0186
:1040B0003C0180911B04811164C081E080931B044A
:1040C00080931A049FEF9093190410921804809320
:1040D00017048093F6038091F603EE0CE82AE09231
:1040E000F6038091F503813009F0CFC01092F503FB
:1040F0000E946C122B013C018091F6038093BB005F
:1041000080911D0490911E04A0911F04B091200481
:10411000892B8A2B8B2BA1F00E946C1220911D04FD
:1041200030911E0440911F045091200464197509B8
:1041300086099709261737074807590708F442C028
:104140008091BC0083FDD8CF85EC8093BC000E9499
:104150006C122B013C0180911B04813009F497C043
:1041600080911804823008F0B4C080911804A7EF41
:10417000B3E0E4EDF2E0F81649F19D919193F394E8
:10418000FACF80911D0490911E04A0911F04B0915C
:104190002004892B8A2B8B2B09F48BCF0E946C1265
:1041A00020911D0430911E0440911F045091200461
:1041B00064197509860997092617370748075907AB
:1041C00008F077CF80911C040E94271510923D03C0
:1041D000F0923C0382E0882EF81013CF8091920574
:1041E00090919305DC01ED91FC910084F185E02D27
:1041F000099502970CF405CF809192059091930553
:10420000DC01ED91FC910284F385E02D0995F82EF7
:104210008091920590919305DC01ED91FC910284CF
:10422000F385E02D099560E07F2D66277F70682B70
:1042300090E080E00E94993920E030E044EB53E4C4
:104240000E948E3A20E030E040E859E30E948E3A26
:104250002B013C0120912701309128014091290137
:1042600050912A010E9486386B017C0120E030E0E9
:1042700044E353E40E94893A18166CF520E030E0DC
:1042800044EB53E4C701B601EDCF85EE5ECF8091DC
:104290001D0490911E04A0911F04B0912004892B4D
:1042A0008A2B8B2B09F457CF0E946C1220911D048E
:1042B00030911E0440911F04509120046419750927
:1042C00086099709261737074807590708F043CF8B
:1042D00079CF82E04CCF20E030E044E353ECC701DB
:1042E000B6010E94F33887FF0BC020E030E044EBBA
:1042F00053E4C701B6010E9487386B017C01EBCF04
:1043000060912301062E000C770B880B990B0E94FD
:104310009B39A70196010E948E3A6B017C01C092E5
:10432000CF03D092D003E092D103F092D20325E3E1
:104330003AEF4EE85CE30E948E3A6093D3037093A9
:10434000D4038093D5039093D6034092D703509221
:10435000D8036092D9037092DA0321E02093EF032F
:104360008090D0029090D102A090D202B090D3025F
:1043700089829A82AB82BC8289288A288B28B9F5E7
:104380008F809884A984BA848092D0029092D102BE
:10439000A092D202B092D302809241039092420343
:1043A000A0924303B09244031092CC039F77BB24A6
:1043B000B39422E93AE046E85EE30E94893A18168F
:1043C0000CF0B12CB092CD032114310431F0D101A5
:1043D000CD92DD92ED92FC9213970115110529F013
:1043E000F801408251826282738281E023CE8F8005
:1043F0009884A984BA8429813A814B815C81821A8C
:10440000930AA40AB50A8092450390924603A092AB
:104410004703B0924803B4CF1F93CF93DF93CDB738
:10442000DEB728970FB6F894DEBF0FBECDBF198256
:104430001A821B821C821D821E821F8218860E9485
:10444000C3129E012B5F3F4FAE014F5F5F4F0E9433
:10445000E11F182F81110FC08EEC96E00E94971873
:10446000812F28960FB6F894DEBF0FBECDBFDF9127
:10447000CF911F9108958D819E81AF81B8858093E2
:10448000270190932801A0932901B0932A018091DC
:1044900026018160809326010E94C31230E020E053
:1044A00050E040E00E94E11F81E080934A0387EBE7
:1044B00096E00E94A2146D817E818F81988546E0EE
:1044C00050E00E948D1B0E945E1BCACF4F925F92EC
:1044D0006F927F928F929F92AF92BF92CF92DF9214
:1044E000EF92FF920F931F93CF93DF93CDB7DEB779
:1044F0002C970FB6F894DEBF0FBECDBF8091EE04AF
:10450000853061F485E193E00E9497180E940C1CAD
:104510008EEF92E00E94971810E019C00E94C3121B
:1045200019861A861B861C861D821E821F8218868B
:104530009E012B5F3F4FAE01475F5F4F0E94E11F1F
:10454000182F81111CC08AEE92E00E949718812FCB
:104550002C960FB6F894DEBF0FBECDBFDF91CF9182
:104560001F910F91FF90EF90DF90CF90BF90AF9091
:104570009F908F907F906F905F904F900895809163
:10458000EE048450823018F48EEC92E0C3CF11E038
:104590001093EE0410930001109301011092020198
:1045A0008091240180931701809123018093180149
:1045B000809125018093190119821A821B821C8225
:1045C000CE0101960E94CF128093010189819A81C8
:1045D000AB81BC818093030190930401A0930501FA
:1045E000B09306018D819E81AF81B88580930B01C8
:1045F00090930C01A0930D01B0930E011093A305AD
:1046000060E080919B050E94D70E20E030E04AEFE9
:1046100053E468E770E080E090E00E94990D0E940A
:10462000C3124B015C010E947D0C8823E9F00E94BB
:104630006C122B013C010E94C3126B017C010E9491
:10464000F40DA7019601C301B2010E94230FC818FF
:10465000D908EA08FB0889EBC8168BE0D806E10404
:10466000F10408F30E94A10C0E94F40D62E370E0D3
:1046700080E090E00E9491120E94C3122FE031E08E
:1046800050E040E00E94E11F182F81110CC080EB28
:1046900092E00E9497188091EE04813009F057CF84
:1046A0001092EE0454CF20910B0130910C014091F7
:1046B0000D0150910E0160910F01709110018091D8
:1046C0001101909112010E9486386B017C0120E05B
:1046D00030E044E353E40E94893A18163CF420E0A9
:1046E00030E044EB53E4C701B601EDCF20E030E009
:1046F00044E353ECC701B6010E94F33887FF0BC0B7
:1047000020E030E044EB53E4C701B6010E94873853
:104710006B017C01EBCFC0921301D0921401E092A7
:104720001501F09216010091240120E030E0A9016A
:10473000C701B6010E94893A87FD019500931701D0
:1047400020E030E0A901C701B6010E94893A87FD47
:1047500055C081E08093180191E007FD9FEF909391
:1047600024018F3F09F081E080932301809126018D
:1047700080618093260181E080934A038091EE045A
:10478000813019F483E08093EE0483E992E00E9483
:10479000971889E792E00E94A2146091130170912A
:1047A0001401809115019091160145E050E00E949E
:1047B0008D1B8CE592E00E94A21480911701082EB7
:1047C000000C990B0E949B1B80E492E00E94A214B3
:1047D00080911801082E000C990B0E949B1B809160
:1047E0000101882369F084E192E00E94971880918A
:1047F000AD03811108C00E94C116A9CE8FEFAACFC8
:1048000081EE91E0F2CF182FA2CECF92DF92EF92FD
:10481000FF92CF936B017C01C092F103D092F2031F
:10482000E092F303F092F40330E020E050E040E047
:104830000E94E11FC82FC701B6010E940E0EC111D0
:1048400001C080E0CF91FF90EF90DF90CF9008956E
:1048500085ED8093BC0080911D0490911E04A09171
:104860001F04B09120040796A11DB11D23E0B69549
:10487000A795979587952A95D1F72091BC0024FD9F
:1048800003C010921B04089540911D0450911E0412
:1048900060911F0470912004452B462B472B69F330
:1048A0000097A105B10541F02AE22A95F1F700C071
:1048B0000197A109B109E1CF80911C040C9427153F
:1048C0004F925F926F927F928F929F92AF92BF9220
:1048D000CF92DF92EF92FF92CF93C09126018C2F5F
:1048E0008C708C3099F5C0902F01D0903001E09001
:1048F0003101F090320140903301509034016090CA
:10490000350170903601A3019201C701B6010E94E2
:10491000F5394B015C01A3019201C701B6010E9468
:10492000D6396B017C01A50194010E94863820E0F4
:1049300030E040E050E40E94F33887FF09C0C37FB5
:10494000C093260180E197E00E94971880E011C093
:1049500080922F0190923001A0923101B0923201E9
:10496000C0923301D0923401E0923501F0923601C9
:1049700081E0CF91FF90EF90DF90CF90BF90AF900C
:104980009F908F907F906F905F904F9008951F93AE
:10499000CF93DF9300D000D0CDB7DEB719821A8253
:1049A0001B821C820E94C31230E020E0AE014F5FE8
:1049B0005F4F0E94E11F182F81110DC081EB97E01E
:1049C0000E949718812F0F900F900F900F90DF91FA
:1049D000CF911F91089589819A81AB81BC81809389
:1049E000330190933401A0933501B0933601809147
:1049F000260188608093260181E080934A038CE938
:104A000097E00E94A21469817A818B819C8146E0A3
:104A100050E00E948D1B8091260182FF08C00E94F9
:104A20006024882339F088E797E00E9497180E9455
:104A30002F1BC8CF10E0C6CF1F93CF93DF9300D0BA
:104A400000D0CDB7DEB719821A821B821C820E9469
:104A5000C31230E020E0AE014F5F5F4F0E94E11FC4
:104A6000182F81110DC084E697E00E949718812FBE
:104A70000F900F900F900F90DF91CF911F9108959D
:104A800089819A81AB81BC8180932F019093300101
:104A9000A0933101B093320180912601846080930C
:104AA000260181E080934A038DE497E00E94A214DE
:104AB00069817A818B819C8146E050E00E948D1B48
:104AC0008091260183FF08C00E946024882339F06A
:104AD00089E297E00E9497180E942F1BC8CF10E030
:104AE000C6CFFF920F931F93CF93DF9380E19BEB91
:104AF0009093200180931F0181E090E09093220128
:104B0000809321010E948E0A8FE191E00E94760A33
:104B100090933801809337010FE111E0D0E0C0E0BD
:104B2000F801F1908F01CE010E940638F81621F0AD
:104B30006F2DCE010E940E382196CA31D10581F722
:104B400081E080934903DF91CF911F910F91FF90F6
:104B50000895EF92FF920F931F93CF93DF93CDB7FA
:104B6000DEB76A970FB6F894DEBF0FBECDBF8AE1FD
:104B7000E9E3F1E0DE01119601900D928A95E1F7EB
:104B8000CE0101967C0110E000E0C8010E940638C9
:104B9000F70181937F010F5F1F4F0A311105A9F7BC
:104BA00089819A8180319B4B21F48B819C81019773
:104BB00099F00E94C30A82E08093490380E06A96DC
:104BC0000FB6F894DEBF0FBECDBFDF91CF911F911E
:104BD0000F91FF90EF900895CE0101960E94760A02
:104BE000298D3A8D2817390721F78AE1FE01319680
:104BF000AFE1B1E001900D928A95E1F70E948E0A33
:104C00008FE191E00E94760A9093380180933701FA
:104C100081E080934903D3CF1F920F920FB60F927A
:104C200011242F933F938F939F93AF93BF938091C2
:104C3000BF039091C003A091C103B091C203309112
:104C4000BE0323E0230F2D3758F50196A11DB11D9A
:104C50002093BE038093BF039093C003A093C1032E
:104C6000B093C2038091C3039091C403A091C50384
:104C7000B091C6030196A11DB11D8093C30390930B
:104C8000C403A093C503B093C603BF91AF919F9196
:104C90008F913F912F910F900FBE0F901F901895FD
:104CA00026E8230F0296A11DB11DD2CF1F920F92AD
:104CB0000FB60F9211242F933F934F935F936F93EF
:104CC0007F938F939F93AF93BF93EF93FF9385E46D
:104CD00094E00E943314FF91EF91BF91AF919F91A7
:104CE0008F917F916F915F914F913F912F910F9095
:104CF0000FBE0F901F9018951F920F920FB60F9234
:104D000011242F938F939F93EF93FF93E09155047A
:104D1000F09156048081E0915B04F0915C0482FD87
:104D20001BC0908180915E048F5F8F7320915F0420
:104D3000821741F0E0915E04F0E0EB5BFB4F958F52
:104D400080935E04FF91EF919F918F912F910F902F
:104D50000FBE0F901F9018958081F4CF1F920F9275
:104D60000FB60F9211242F933F934F935F936F933E
:104D70007F938F939F93AF93BF93EF93FF93809114
:104D8000B900887F803609F44AC0F0F5883209F40A
:104D9000A7C018F5803109F49BC0B8F4882309F442
:104DA000F9C0883009F494C0FF91EF91BF91AF91A1
:104DB0009F918F917F916F915F914F913F912F9133
:104DC0000F900FBE0F901F901895883109F488C07E
:104DD000803251F78093190414C0803409F49DC0C7
:104DE00040F48033B9F38833F9F68093190485ECE5
:104DF000B0C0803509F485C0883509F496C0883480
:104E000099F60E942824D0CF883909F48CC038F54F
:104E1000883729F050F4883611F0803729F683E07E
:104E200080931B041092370357C0883809F47BC065
:104E3000803919F0803809F0B7CF8091370380327C
:104E400008F071C0E091370381E08E0F8093370343
:104E50008091BB00F0E0E95EFC4F80833DC0803B69
:104E600039F0E0F4803A09F479C0883A09F09CCF2F
:104E700084E080931B041092160310921503E091B6
:104E80003A03F0913B0309958091150381110FC0FE
:104E900081E0809315031092F50209C0803C09F46B
:104EA000A6CF883C09F4A3CF883B09F07DCFE091E1
:104EB000160381E08E0F80931603F0E0EB50FD4F58
:104EC00080818093BB00909116038091150329C0C7
:104ED0008091F6038093BB0085EC8093BC0064CF87
:104EE0009091180480911704981758F5E0911804D0
:104EF00081E08E0F80931804F0E0E950FC4F808130
:104F0000E9CFE091180481E08E0F8093180480911E
:104F1000BB00F0E0E950FC4F808390911804809131
:104F200017049817C8F285E8D8CFE091180481E0FB
:104F30008E0F809318048091BB00F0E0E950FC4F85
:104F4000808380911A0481115CCF81E08093F50306
:104F500084EA8093BC0010921B0426CF85EC8093DA
:104F6000BC0010921B0480913703803230F4E09132
:104F70003703F0E0E95EFC4F10826091370370E088
:104F8000E0913803F091390387E193E0099510929D
:104F900037030ACF1092190434CF1F920F920FB625
:104FA0000F9211240F931F932F933F934F935F936F
:104FB0006F937F938F939F93AF93BF93CF93EF9311
:104FC000FF93E0913F03F09140033097C1F0C0910F
:104FD0003E03CC23A1F010810E946C122091870522
:104FE000222369F0C123F9F0609388057093890545
:104FF00080938A0590938B0581E080939005FF91C3
:10500000EF91CF91BF91AF919F918F917F916F91D0
:105010005F914F913F912F911F910F910F900FBE74
:105020000F901F90189520919005222341F3009135
:1050300088051091890520918A0530918B05601BA8
:10504000710B820B930B60938C0570938D0580938D
:105050008E0590938F0581E08093910510929005C5
:1050600010928705CCCF1F920F920FB60F9211248A
:105070002F933F934F935F936F937F938F939F9360
:10508000AF93BF93EF93FF930E94CD27FF91EF91D2
:10509000BF91AF919F918F917F916F915F914F9150
:1050A0003F912F910F900FBE0F901F9018951F9258
:1050B0000F920FB60F9211242F933F934F935F934C
:1050C0006F937F938F939F93AF93BF93EF93FF93D0
:1050D0000E94CD27FF91EF91BF91AF919F918F914A
:1050E0007F916F915F914F913F912F910F900FBEE4
:1050F0000F901F9018951F920F920FB60F921124C8
:105100008F939F93AF93BF93EF93FF938091A205EB
:105110008823E9F08091A3058823C9F08091A50533
:105120008823A9F08091AF059091B005892B79F083
:105130008091B1059091B2050297A0F08091B105E0
:105140009091B20501979093B2058093B105FF91BC
:10515000EF91BF91AF919F918F910F900FBE0F90E4
:105160001F9018958091AF059091B0059093B2056E
:105170008093B1058091A40591E089278093A405CF
:105180009091A405E0919C05F0919D0580919E056C
:10519000992309F44AC09081892B80838091A405CA
:1051A0008823A9F28091B705882389F28091B305FD
:1051B0009091B405A091B505B091B60518161906E1
:1051C0001A061B0624F68091B3059091B405A091B0
:1051D000B505B091B6050197A109B1098093B30552
:1051E0009093B405A093B505B093B6058091B3052F
:1051F0009091B405A091B505B091B605892B8A2B85
:105200008B2B09F0A4CF1092A5051092A405E09174
:105210009C05F0919D05908180919E058095892344
:10522000808381E08093B80592CF90818095892317
:10523000B4CFFC0110821182128213821482158273
:1052400016821782108611861286138648E25BE664
:105250006EE67EEC448755876687778788E29BE613
:10526000AEE6BEE4808B918BA28BB38B448B558BC7
:10527000668B778B808F918FA28FB38F148E158E54
:10528000168E178E10A211A212A213A214A20895B4
:10529000CF93DF93CDB7DEB76C970FB6F894DEBF30
:1052A0000FBECDBF109248041092470488EE93E0E1
:1052B000A0E0B0E08093490490934A04A0934B048B
:1052C000B0934C042FE731E030934604209345041B
:1052D00025EC30E0309352042093510424EC30E06C
:1052E000309354042093530420EC30E03093560460
:1052F0002093550421EC30E0309358042093570458
:1053000022EC30E030935A042093590426EC30E02C
:1053100030935C0420935B0410925E0410925F044F
:1053200010926004109261041092E5041092E4045B
:105330008093E6049093E704A093E804B093E90413
:1053400081E991E09093E3048093E20482E080930A
:10535000990583E080939A0584E080939B051092E1
:105360009D0510929C0510929E051092A00510922A
:105370009F051092A1051092A2051092A30510920C
:10538000A4051092A50581E08093A6051092A705BB
:105390001092A8051092A9051092AA051092AB05CB
:1053A0001092AC051092AD051092AE051092B005AA
:1053B0001092AF051092B2051092B1051092B3058C
:1053C0001092B4051092B5051092B6051092B7056B
:1053D0001092B805109293051092920586E380937F
:1053E00094051092950510929605109297051092CB
:1053F000980588E080933D0589E080933E05EFE3C2
:10540000F5E0119211921192119285E0EB35F807B7
:10541000C1F710925B0510925C0510925D05109229
:105420005E0510925F051092600510926105109262
:105430006205109263051092640510926505109242
:105440006605109267051092680510926905109222
:105450006A0510926B0510926C0510926D05109202
:105460006E0510926F0510927005109271051092E2
:1054700072051092730510927405109275051092C2
:1054800076051092770510927805109279051092A2
:105490007A0510927C0510927B0510927E05109281
:1054A0007D051092800510927F0510928105109263
:1054B0008205109283051092840510928505109242
:1054C0008605109287051092880510928905109222
:1054D0008A0510928B0510928C0510928D05109202
:1054E0008E0510928F0510929005109291058FEE07
:1054F00094E00E94192984E195E00E9419291092F4
:10550000390510923A0510923B0510923C058DE842
:1055100095E3ADE7B2E48093EF049093F004A09399
:10552000F104B093F2048EEB9DE5A0E6B3E4809322
:10553000F3049093F404A093F504B093F6048AED79
:105540009DE2A6EDB0E48093F7049093F804A09355
:10555000F904B093FA0487EB9DE0A3E2BAEB8093E1
:10556000FB049093FC04A093FD04B093FE0487EB2E
:105570009DE0A3E2BAE38093FF0490930005A0931B
:105580000105B09302058EE19AEFAEE0BEEB809389
:10559000030590930405A0930505B09306058EE1DD
:1055A0009AEFAEE0BEE38093070590930805A093C1
:1055B0000905B0930A058CE1E3E5F1E0DE011196FF
:1055C00001900D928A95E1F785E99FE9A7E2B0E4A1
:1055D00089839A83AB83BC8387E291E2AAE4B2E435
:1055E0008D839E83AF83B88780EA9BE7AEE0B2EC01
:1055F0008D879E87AF87B88B80EA9BE7AEE0B2E4E9
:10560000898B9A8BAB8BBC8B80E090E0A1EEB4ECE5
:105610008D8B9E8BAF8BB88F80E090E0A1EEB4E4D1
:10562000898F9A8FAB8FBC8F8CE1FE013196A4E1FC
:10563000B5E001900D928A95E1F71092EE046C9618
:105640000FB6F894DEBF0FBECDBFDF91CF910895A6
:10565000CF93DF93CDB7DEB760970FB6F894DEBF78
:105660000FBECDBF789484B5826084BD84B581605F
:1056700084BD85B5826085BD85B5816085BD80911D
:105680006E00816080936E00109281008091810095
:10569000826080938100809181008160809381008D
:1056A000809180008160809380008091B10084604F
:1056B0008093B1008091B00081608093B0008091B0
:1056C0007A00846080937A0080917A00826080936F
:1056D0007A0080917A00816080937A0080917A00CC
:1056E000806880937A001092C100E0915504F09197
:1056F000560412E01083E0915104F091520410829C
:10570000E0915304F091540480E1808310925D0491
:10571000E0915904F0915A0486E08083E0915704A7
:10572000F0915804808180618083E0915704F0916A
:105730005804808188608083E0915704F091580478
:10574000808180688083E0915704F09158048081C3
:105750008F7D80836AEF70E080E090E00E9491127C
:1057600081E79BE00E9497180E94A925811104C03F
:105770000E94C30A1093490361E0809199050E9439
:105780003B1261E080919A050E943B1261E080919A
:105790009B050E943B128091990590E0FC01EE5F11
:1057A000FB4EE491F0E0EE0FFF1FE850FC4E259118
:1057B000349130939D0520939C05FC01EA5EFB4EDD
:1057C000E491E0939E0580919A0590E0FC01EE5FE4
:1057D000FB4EE491F0E0EE0FFF1FE850FC4E2591E8
:1057E00034913093A00520939F05FC01EA5EFB4EA7
:1057F000E491E093A1050E94940CE0919F05F09143
:10580000A005309731F090818091A1058095892382
:10581000808361E080919B050E94D70E1092A305C2
:105820009FB7F8941092800010928100109285002A
:105830001092840021E330E03093890020938800A7
:1058400080918100886080938100809181008260D6
:105850008093810080916F00826080936F0011E0DF
:105860001093A2059FBF0E94C11610923D03109293
:105870003C0310922204109244040E94091583EB09
:1058800093E190933B0380933A0384EB93E19093ED
:1058900039038093380382EE94E0909393058093CC
:1058A000920586E3809394050E94091580919405E2
:1058B000109321048093430481E00E944815082F2F
:1058C00061E080913D050E943B1260E080913E05C1
:1058D0000E943B1260E080913D050E94D70E8FE050
:1058E00090E00197F1F78FB7F89410928705109226
:1058F0009005109291058FBF0E946C1260547C49F4
:1059000081099109609382057093830580938405D2
:1059100090938505EBE0F4E1E491F0E0EE0FFF1FDA
:10592000E959F44F859194919093400380933F03FC
:10593000EFE1F4E1E491E0933E038091680081603F
:105940008093680080916B00826080936B0010925E
:10595000CB031092CC031092CD031092CE03011111
:105960001093CC031092AE031092AF031092B003C9
:105970001092B1031092B2031092B3031092B403C9
:105980001092B5030E94C3126093BA037093BB03D5
:105990008093BC039093BD036093B6037093B703E9
:1059A0008093B8039093B9036093410370934203CB
:1059B00080934303909344036093C7037093C80399
:1059C0008093C9039093CA0382E09EE00E949718D7
:1059D0000E94B6190E947A1E0E940C1C0E9409198E
:1059E0000E946C126B017C010E94C3122B013C01CE
:1059F0000E94F40DA3019201C701B6010E94230F7A
:105A000085E494E00E941314181619060CF08CC754
:105A100085E494E00E94F1138D3091F32091AB0363
:105A20003091AC038A3009F06FC7255B3C4FD90138
:105A30001C921C861B86AE01455F5F4F64ED71E0D2
:105A40008BE493E00E94C2378C01009709F40EC2E8
:105A500066ED71E00E94003B892B51F0F801019046
:105A60000020E9F7CF0102978017910709F0B1C232
:105A7000D801EC91E153EA3408F0ABC20E2E000CD1
:105A8000FF0BEB5BF24D0C945238F432FE32E92FEF
:105A9000E92FE92FE92FE92FE92FE92FE92FE92F46
:105AA000E92FE92FE92FF02FE92FE92FE92FE92F2F
:105AB000E92FE92FE92FE92FE92FE92FE92FE92F26
:105AC000E92FE92FE92FE92FE92FE92FE92FE92F16
:105AD000E92FE92FE92FE92FE92FE92FE92FF432F8
