:100000000C94D20A0C94FA0A0C94FA0A0C94A926BD
:100010000C942E270C940A270C94FA0A0C94FA0AD2
:100020000C94FA0A0C94FA0A0C94FA0A0C945227CB
:100030000C94FA0A0C94FA0A0C94FA0A0C94FA0A30
:100040000C94E8240C94FA0A0C9458250C9432254C
:100050000C94FA0A0C94FA0A0C94FA0A0C94FA0A10
:100060000C948A250C94FA0A4E414E494E49545933
:10007000494E46CDCCCC3D0AD7233C17B7D1387773
:10008000CC2B329595E6241FB14F0A000020410089
:1000900000C84200401C4620BCBE4CCA1B0E5AAED3
:1000A000C59D7448454C502C6C6F6E673D63616C08
:1000B0005F7A65726F7C63616C5F6C696D69747384
:1000C0007C63616C5F7369676E7C63616C5F736195
:1000D00076657C63616C5F6C6F61647C72756E7C4D
:1000E00073746F700048454C502C736F6E61723D95
:1000F000736F6E61722064696167207C20736F6E1C
:100100006172207369676E20317C2D310048454C47
:10011000502C6C696D6974733D5B3D444F574E20A4
:100120005D3D555020286C2F752F312F3220616C8A
:100130006961736573290048454C502C77697A3D95
:1001400077206E206320710048454C502C636F72FD
:10015000653D3F2F68207320742065206A20612050
:1001600070207A205B205D206D2062206720762041
:100170006F2064206920782072206B20660048453B
:100180004C502C6B65797300300031006E6F007934
:1001900065730054454C2C656E61626C65643D006E
:1001A00043414C5F53544F52452C737461747573C3
:1001B0003D006E6F00796573002C76616C69643D5B
:1001C000002C75707065725F6465673D0043414C3B
:1001D0005F4C494D4954532C6C6F7765725F646571
:1001E000673D002C736F6E61725F63656E7465723C
:1001F0005F636D3D0043414C5F5A45524F2C617324
:10020000353630305F7A65726F5F6465673D006ECA
:100210006F00796573002C7369676E5F63616C6949
:100220006272617465643D006E6F00796573002CC5
:100230006C696D6974735F63616C69627261746526
:10024000643D00626164006F6B0043414C2C7A6531
:10025000726F5F63616C696272617465643D002CEA
:1002600063757272656E745F736F6E61723D002CA0
:1002700063757272656E745F6173353630303D0040
:100280005349474E532C63757272656E745F737475
:1002900065707065723D004641554C54532C62693F
:1002A00074733D002C706F735F6D733D0041474563
:1002B0002C616E676C655F6D733D002C785F6669BD
:1002C0006C745F636D3D002C785F636D3D004D4540
:1002D00041532C74686574615F6465673D006261B9
:1002E00064006F6B002C706F733D0053454E534F8D
:1002F00052532C616E676C653D0053544154452C3C
:10030000005741524E2C736F6E61725F6E65617261
:100310003D6E6F3B2075736520736F6E6172207345
:1003200069676E202B2F2D31206F722072657275D8
:100330006E206200494E464F2C736F6E61725F6E85
:100340006561723D7965733B206D6F76655F7461A1
:10035000726765745F6661725F7468656E5F67007F
:10036000494E464F2C7375676765737465645F61AA
:1003700073353630305F7369676E3D00494E464FC6
:100380002C7375676765737465645F7374657070EB
:1003900065725F7369676E3D00494E464F2C746805
:1003A0006574615F7261775F64656C74615F6465D9
:1003B000673D00494E464F2C63616C5F7369676E01
:1003C0005F626567696E5F636F6D706C6574650011
:1003D0004552522C616E676C655F6E6F745F72651B
:1003E0006164795F61667465725F6A6F6700455228
:1003F000522C63616E6E6F745F656E7465725F63BD
:10040000616C69625F7369676E004552522C616E60
:10041000676C655F6E6F745F7265616479004755E4
:100420004944452C646F3D742D3E612D3E702D3E38
:10043000662D3E62004552522C6661756C745F6198
:10044000637469766500494E464F2C7369676E7315
:100450005F6170706C6965645F72756E74696D65FB
:100460003B2072756E2063616C5F736176652074EA
:100470006F2070657273697374005349474E5F4310
:10048000414C5F524553554C542C004552522C73ED
:100490006F6E61725F6E6F745F7265616479004741
:1004A000554944452C646F3D736F6E6172207369CA
:1004B000676E20317C2D31206F7220726572756EEF
:1004C0002062004552522C7369676E5F736F6E61D4
:1004D000725F6E6561725F6D697373696E67004507
:1004E00052522C63616C5F7369676E5F6E6F745FED
:1004F00073746172746564006E6F00796573002CAB
:100500007A65726F5F63616C696272617465643D84
:10051000002C736F6E61725F63656E7465725F63EA
:100520006D3D0043414C5F5A45524F2C6173353647
:1005300030305F7A65726F5F6465673D006E6F0093
:10054000796573002C6C696D6974735F63616C69A4
:100550006272617465643D002C75707065725F64D1
:1005600065673D0043414C5F4C494D4954532C6CE9
:100570006F7765725F6465673D004641554C545F17
:10058000494E464F2C7265636F7665723D66697899
:100590005F73656E736F722D3E73004641554C5408
:1005A0005F494E464F2C7265636F7665723D666992
:1005B000785F73656E736F722D3E662D3E730046D5
:1005C00041554C545F494E464F2C706F735F6F6FAF
:1005D000623D312C646F3D63656E7465725F74615A
:1005E000726765745F7468656E5F70004641554C54
:1005F000545F494E464F2C616E676C655F6F6F624A
:100600003D312C646F3D6C6576656C5F6265616D34
:100610005F7468656E5F61004641554C545F494E9A
:10062000464F2C6932635F6572726F723D312C6484
:100630006F3D636865636B5F41533536303000460C
:1006400041554C545F494E464F2C736F6E61725F3B
:1006500074696D656F75743D312C646F3D666C61B6
:10066000745F7461726765742B636865636B5F4860
:100670004353523034004641554C545F494E464F27
:100680002C6E6F6E65006272696E6775705F776160
:10069000726E696E670072756E5F686172645F6624
:1006A00061756C74004641554C545F494E464F2C61
:1006B0006D6F64653D004641554C545F494E464F51
:1006C0002C626974733D004D454E552C736F6E61FD
:1006D000723D7573655F666C61745F7461726765A6
:1006E000742B736F6E61725F64696167006E6F0077
:1006F000796573004D454E552C646F776E5F75704C
:100700003D706879736963616C3B206175746F5FDC
:100710006E6F726D616C697A6564004D454E552C43
:10072000666C6F773D742D3E612D3E702D3E5B648F
:100730006F776E5D2D3E5D287570292D3E622D3ED2
:1007400028677C736F6E61725F7369676E292D3ED7
:10075000762D3E72006E6F00796573002C736F6E9C
:1007600061725F6F6B3D006E6F00796573002C6185
:100770006E676C655F6F6B3D006E6F00796573002F
:100780002C7369676E3D006E6F00796573002C6C89
:10079000696D6974733D002C7A65726F3D004D453B
:1007A0004E552C73746174653D004D454E552C6259
:1007B00072696E67757000300031002C6A756D705B
:1007C0005F72656A6563745F636E743D002C746963
:1007D0006D656F75745F636E743D002C76616C6936
:1007E000645F73747265616B3D002C66696C745F45
:1007F000636D3D002C7261775F636D3D002C616716
:10080000655F6D733D00300031002C74696D656F5C
:1008100075743D00300031002C66726573683D00D0
:10082000534F4E41525F444941472C6861735F7397
:10083000616D706C653D004F4B2C63616C5F7A6538
:10084000726F5F616E676C655F7365743D004552E2
:10085000522C616E676C655F6E6F745F7265616468
:1008600079004F4B2C63616C5F7A65726F5F706FBC
:10087000736974696F6E5F7365743D004552522CE5
:10088000736F6E61725F6E6F745F72656164790021
:100890004552522C6C696D69745F7370616E5F7440
:1008A0006F6F5F736D616C6C00494E464F2C6C69C5
:1008B0006D6974735F6E6F726D616C697A65645F88
:1008C00066726F6D5F646F776E5F7570004F4B2C53
:1008D00063616C5F6C696D69745F646F776E5F7381
:1008E00065743D004552522C616E676C655F6E6F9A
:1008F000745F726561647900494E464F2C6C696D76
:100900006974735F6E6F726D616C697A65645F663E
:10091000726F6D5F646F776E5F7570004F4B2C6305
:10092000616C5F6C696D69745F75705F7365743D50
:10093000004552522C616E676C655F6E6F745F721A
:10094000656164790047554944452C737465703D71
:1009500072756E2C646F3D72756E5F7200475549FB
:1009600044452C737465703D736176652C646F3DEE
:1009700072756E5F760047554944452C73746570F7
:100980003D736F6E61725F73656E736F722C646F0F
:100990003D666C61745F7461726765745F746865ED
:1009A0006E5F736F6E61725F64696167004755497E
:1009B00044452C737465703D616E676C655F73654B
:1009C0006E736F722C646F3D636865636B5F415338
:1009D000353630305F7468656E5F73004755494443
:1009E000452C737465703D736F6E61725F736967D8
:1009F0006E5F6D616E75616C2C646F3D736F6E61BF
:100A0000725F7369676E5F315F6F725F2D31004790
:100A1000554944452C737465703D736F6E61725F08
:100A20007369676E5F6175746F2C646F3D6D6F766F
:100A3000655F7461726765745F6661725F74686533
:100A40006E5F670047554944452C737465703D736C
:100A500069676E5F626567696E2C646F3D72756E63
:100A60005F620047554944452C737465703D66616B
:100A7000756C745F72657365742C646F3D6669781C
:100A80005F7468656E5F660047554944452C737412
:100A900065703D6C696D6974735F6669782C646F0D
:100AA0003D7265646F5F5B5F616E645F5D004755BB
:100AB0004944452C737465703D75705F6C696D6950
:100AC000742C646F3D6D6F76655F55505F7468651B
:100AD0006E5F5D0047554944452C737465703D64F5
:100AE0006F776E5F6C696D69742C646F3D6D6F76A6
:100AF000655F444F574E5F7468656E5F5B00475596
:100B00004944452C737465703D7A65726F5F706FF0
:100B1000732C646F3D666C61745F74617267657499
:100B20005F63656E7465725F7468656E5F700047C1
:100B3000554944452C737465703D7A65726F5F61E9
:100B40006E676C652C646F3D6C6576656C5F626585
:100B5000616D5F7468656E5F6100424C4F434B2C62
:100B6000696E6E65725F6C6F6F7000424C4F434BE5
:100B70002C6661756C747300424C4F434B2C73654B
:100B80006E736F727300424C4F434B2C7369676EE8
:100B900000424C4F434B2C6C696D69747300424C9E
:100BA0004F434B2C7A65726F004552522C72756E12
:100BB0005F626C6F636B6564006E6F0079657300D4
:100BC00057495A2C372C646F3D633D736176652C11
:100BD000713D65786974006E6F00796573002C64EF
:100BE000697274793D006E6F00796573002C7369CA
:100BF000676E3D006E6F00796573002C6C696D69DE
:100C000074733D0057495A2C73756D6D6172792C60
:100C10007A65726F3D0057495A2C362C646F3D66D9
:100C200061725F7461726765745F7468656E5F6E30
:100C30000057495A2C352C646F3D6E6561725F74A4
:100C400061726765745F7468656E5F6E0057495ABC
:100C50002C342C646F3D6D6F76655F55505F746802
:100C6000656E5F6E0057495A2C332C646F3D6D6F73
:100C700076655F444F574E5F7468656E5F6E0057D0
:100C8000495A2C322C646F3D666C61745F746172DA
:100C90006765745F63656E7465725F7468656E5FC7
:100CA0006E0057495A2C312C646F3D6C6576656C2B
:100CB0005F6265616D5F7468656E5F6E0030003104
:100CC000002C74656C656D657472795F7265737400
:100CD0006F7265643D0057495A2C657869742C72AF
:100CE0006561736F6E3D000000000023002600293F
:100CF0000042414C4C5F4245414D5F424F4F5400D2
:100D00004F4B2C63616C5F6C696D69745F757070BB
:100D100065725F7365743D004552522C696E766151
:100D20006C69645F6C696D69745F7370616E0045B6
:100D300052522C616E676C655F6E6F745F72656195
:100D40006479004F4B2C63616C5F6C696D69745FF3
:100D50006C6F7765725F7365743D004552522C6904
:100D60006E76616C69645F6C696D69745F737061E4
:100D70006E004552522C616E676C655F6E6F745FDA
:100D800072656164790043414C5F53554747455351
:100D9000542C534F4E41525F43454E5445525F438E
:100DA0004D3D004552522C736F6E61725F6E6F74D1
:100DB0005F72656164790043414C5F535547474515
:100DC00053542C4153353630305F5A45524F5F44AF
:100DD00045473D004552522C616E676C655F6E6FF2
:100DE000745F7265616479004552522C63616C5F77
:100DF000736176655F6661696C6564004F4B2C7743
:100E0000697A6172645F7361766564004552522C41
:100E100077697A6172645F6E6F745F61745F73612A
:100E200076655F73746570004552522C77697A61FC
:100E300072645F6E6F745F616374697665005749B1
:100E40005A2C737465705F6661696C65642C6669A1
:100E5000785F616E645F70726573735F6E5F616708
:100E600061696E004552522C77697A6172645F69DC
:100E70006E76616C69645F737465700057495A2CB3
:100E80006177616974696E675F636F6E6669726DC1
:100E90002C70726573733D635F746F5F7361766509
:100EA0005F6F725F715F746F5F6578697400455240
:100EB000522C77697A6172645F6E6F745F616374DC
:100EC000697665003000310057495A2C636F6E74A3
:100ED000726F6C733D6E2C632C710057495A2C74E1
:100EE000656C656D657472795F6175746F5F646957
:100EF0007361626C65642C707265763D004F4B2C9B
:100F000077697A6172645F737461727465640057A3
:100F1000495A2C626C6F636B65642C646F3D742D51
:100F20003E612D3E702D3E662D3E732D3E77004571
:100F300052522C6661756C745F61637469766500EA
:100F40004552522C73746F705F6265666F72655F95
:100F500077697A617264004552522C77697A6172BE
:100F6000645F616C72656164795F61637469766501
:100F7000004552522C756E6B6E6F776E5F636F6DAE
:100F80006D616E642C7472793D68004552522C6E0E
:100F90006F5F6661756C745F7374617465004F4B4D
:100FA0002C6661756C745F636C6561726564004F7B
:100FB0004B2C73746F70706564004F4B2C72756EA0
:100FC0006E696E67004F4B2C63616C5F6465666190
:100FD000756C74735F6170706C6965640045525222
:100FE0002C75736167653A63616C5F7265736574D4
:100FF0002064656661756C74730064656661756C08
:101000007473006C6F61646564004F4B2C63616C9A
:101010005F6C6F61642C004552522C63616C5F738E
:101020006176655F6661696C6564004F4B2C636136
:101030006C5F7361766564004552522C757361670D
:10104000653A63616C5F6C696D6974732073657474
:1010500020646F776E7C75707C6C6F7765727C75C1
:1010600070706572207C2063616C5F6C696D69745F
:10107000732073686F77004552522C7573616765F2
:101080003A63616C5F6C696D697473207365742079
:10109000646F776E7C75707C6C6F7765727C757031
:1010A000706572004552522C75736167653A6361D1
:1010B0006C5F6C696D6974732073657420646F77FD
:1010C0006E7C75707C6C6F7765727C757070657204
:1010D000004552522C75736167653A63616C5F6CB1
:1010E000696D6974732073657420646F776E7C75A5
:1010F000707C6C6F7765727C7570706572207C2077
:1011000063616C5F6C696D6974732073686F7700DD
:101110004552522C75736167653A63616C5F7A65FD
:10112000726F2073657420616E676C657C706F737D
:101130006974696F6E207C2063616C5F7A65726F81
:101140002073686F77004552522C75736167653A5A
:1011500063616C5F7A65726F2073657420616E677E
:101160006C657C706F736974696F6E004552522CA8
:1011700075736167653A63616C5F7A65726F20733E
:10118000657420616E676C657C706F736974696FDC
:101190006E004552522C75736167653A63616C5FEE
:1011A0007A65726F2073657420616E676C657C7000
:1011B0006F736974696F6E207C2063616C5F7A6500
:1011C000726F2073686F77004552522C7573616798
:1011D000653A736F6E617220646961677C736967D9
:1011E0006E20317C2D31004F4B2C736F6E61725F1E
:1011F0007369676E5F7365743D004552522C757359
:101200006167653A736F6E6172207369676E203132
:101210007C2D31004552522C75736167653A736FAE
:101220006E6172207369676E20317C2D31004552EA
:10123000522C75736167653A736F6E6172206469D1
:1012400061677C7369676E20317C2D310045525295
:101250002C75736167653A63616C5F7369676E20B3
:10126000626567696E7C73617665004552522C75C4
:10127000736167653A63616C5F7369676E2062656D
:1012800067696E7C73617665004F4B2C6A6F675F90
:1012900073746172746564004552522C6A6F675FA3
:1012A000626C6F636B65645F6C6F7765725F6C69AE
:1012B0006D6974004552522C6A6F675F626C6F6390
:1012C0006B65645F75707065725F6C696D697400E1
:1012D0004552522C73746F705F72756E6E696E67D3
:1012E0005F6265666F72655F6A6F67004552522C78
:1012F000696E76616C69645F6A6F675F617267735C
:10130000004552522C75736167653A6A6F67203CDD
:101310007369676E65645F73746570733E203C72B9
:101320006174653E004F4B2C6472697665725F652F
:101330006E61626C6564004F4B2C647269766572F5
:101340005F64697361626C6564004552522C656E1E
:101350005F72657175697265735F305F6F725F315F
:1013600000300031004F4B2C74656C656D657472F4
:10137000793D004552522C75736167653A74656C0E
:10138000656D6574727920307C31004552522C773E
:10139000697A6172645F6E6F745F616374697665A8
:1013A000004552522C6E6F5F6661756C745F73748A
:1013B000617465004F4B2C6661756C745F636C657E
:1013C00061726564004F4B2C73746F7070656400BC
:1013D0004F4B2C72756E6E696E67004F4B2C6361BC
:1013E0006C5F64656661756C74735F6170706C6965
:1013F00065640064656661756C7473006C6F61642C
:101400006564004F4B2C63616C5F6C6F61642C00F2
:101410004552522C63616C5F736176655F666169EA
:101420006C6564004F4B2C63616C5F73617665641F
:10143000004F4B2C6A6F675F737461727465640050
:101440004552522C6A6F675F626C6F636B65645FB5
:101450006C6F7765725F6C696D6974004552522CD0
:101460006A6F675F626C6F636B65645F75707065F0
:10147000725F6C696D6974004552522C73746F70A1
:101480005F72756E6E696E675F6265666F72655FCB
:101490006A6F67004552522C696E76616C69645FB1
:1014A0006A6F675F61726773004552522C75736192
:1014B00067653A6A203C7369676E65645F7374653B
:1014C00070733E203C726174653E004F4B2C647219
:1014D000697665725F64697361626C6564004F4B25
:1014E0002C6472697665725F656E61626C6564001A
:1014F0004552522C75736167653A6520307C310026
:10150000300031004F4B2C74656C656D65747279D9
:101510003D005741524E2C6A6F675F73746F707055
:1015200065645F6C6F7765725F6C696D6974005795
:1015300041524E2C6A6F675F73746F707065645FA1
:1015400075707065725F6C696D69740054454C2CE0
:101550000000000000240027002A000000000025F1
:101560000028002B00040404040404040402020202
:1015700002020203030303030301020408102040D4
:10158000800102040810200102040810200000005D
:101590000800020100000304070000000000000032
:1015A00000001F2811241FBECFEFD8E0DEBFCDBF43
:1015B00025E0AAECB2E001C01D92AC39B207E1F718
:1015C00012E0A0E0B1E0E8EEF4E702C005900D9271
:1015D000AA3CB107D9F71AE0C2EDDAE004C02197BE
:1015E000FE010E94F938C13DD107C9F70E94762952
:1015F0000C94723A0C940000FC018091E004853058
:10160000B1F080818823A1F08181882389F08281D3
:10161000882371F08381882359F08481811107C068
:101620008581882329F094E09093E004089580E078
:1016300008958091E004843011F0823021F483E039
:101640008093E0040895813011F41092E00408952D
:10165000FC01AC01485E5F4F8FEF9FEF2191922715
:1016600028E0BC01880F991F77FF04C031E283276F
:1016700030E193272150A9F7E417F50779F708958A
:101680008091230187FF2BC08FEF809323018091EE
:10169000240187FF26C08FEF8093240180912501CC
:1016A00087FF21C08FEF8093250120913301309176
:1016B0003401409135015091360160912F017091B4
:1016C000300180913101909132010E945F3A87FD93
:1016D00005C080912601837F80932601089581E0D3
:1016E000D4CF81E0D9CF81E0DECF0F931F93CF938A
:1016F000DF93CDB7DEB76A970FB6F894DEBF0FBEA3
:10170000CDBFFE0131968AE1DF011D928A95E9F78E
:1017100081E08D838E838F8380E090E0A0E0B1EC48
:10172000898B9A8BAB8BBC8B80E090E0A0E0B1E41E
:101730008D8B9E8BAF8BB88F8AE1AFE1B1E00190CA
:101740000D928A95E1F70FE111E080E19BEBF80142
:101750009183808381E090E09383828380E090E0B6
:10176000A0EAB1E484879587A687B787C8010E945D
:10177000280BD80159969C938E9358976A960FB66A
:10178000F894DEBF0FBECDBFDF91CF911F910F91B7
:1017900008952F923F924F925F926F927F928F9215
:1017A0009F92AF92BF92CF92DF92EF92FF920F93F0
:1017B0001F93CF93DF93CDB7DEB766970FB6F8943C
:1017C000DEBF0FBECDBF9E8B8D8B6A017B01DC011E
:1017D00094968C919497412C512C3201882391F04E
:1017E00090962D913D914D915C919397CB01B601CF
:1017F0000E9413392AE037ED43EA5CE30E94803906
:101800002B013C01ED89FE89208131814281538188
:10181000C701B6010E949B376F83788789879A87B3
:10182000AD89BE8914968D919D910D90BC91A02D8E
:101830008B879C87AD87BE87ED89FE89848C958CCC
:10184000A68CB78C2085318542855385C301B201B2
:101850000E949B376F87788B898B9A8BA5019401A7
:101860006B857C858D859E850E949B372F81388571
:1018700049855A850E9414392F85388949895A89A2
:101880000E9414392B013C01AD89BE895896BC9148
:10189000BB83ED89FE89F18DFC83AD89BE895A96A3
:1018A000BC91BD83ED89FE89F38DFE83AD89BE8930
:1018B0005496BC91B983ED89FE89F589FA83AD8987
:1018C000BE8956963C90569757962C902B813C811A
:1018D0004D815E810E945F3A87FD0AC020E030E0C2
:1018E000A901C701B6010E945F3A18160CF454C052
:1018F00029813A81432D522DC301B2010E9435370F
:1019000018164CF020E030E0A901C701B6010E9492
:10191000353787FD41C02AE037ED43EA5CE3C70174
:10192000B6010E949B37A50194010E941439762EBE
:10193000672E582E492EED89FE89F089FB8BAD89E3
:10194000BE895196BC91BC8BED89FE8902891389B1
:1019500084849584A684B7849401A5010E943537B8
:1019600087FD12C02B893C89A801672D762D852D16
:10197000942D0E945F3A8B889C885801181624F099
:10198000872C962CA52CB42CC401D501ED89FE8999
:10199000848F958FA68FB78FAD89BE895C962D9168
:1019A0003D914D915C915F976B857C858D859E8582
:1019B0000E949B372F81388549855A850E941439AA
:1019C0002F85388949895A890E9414395B018C0115
:1019D0009B01AC0169817A81832D922D0E945F3A2F
:1019E000181674F09501A8016B817C818D819E8110
:1019F0000E94353787FD2CC0A982BA82302E212E55
:101A0000AD89BE899096CD92DD92ED92FC9293972E
:101A100081E094968C9369817A81832D922D6696CC
:101A20000FB6F894DEBF0FBECDBFDF91CF911F91EF
:101A30000F91FF90EF90DF90CF90BF90AF909F906D
:101A40008F907F906F905F904F903F902F90089570
:101A5000BB81B983EC81EA833D802E80D1CF9FB7D3
:101A6000F89480919805882379F0409194055091DD
:101A70009505609196057091970581E014161506FD
:101A8000160617060CF080E09FBF0895E0917D05D3
:101A9000F0917E05309731F0908180917F0580959F
:101AA000892380830895EAE7F5E016861786108A71
:101AB000118A128A138A148A158A8FB7F8941486A9
:101AC000168E128E138E148E158E178E178A168A06
:101AD000118E108E13868FBF0C94460DCF92DF921D
:101AE000EF92FF92CF936B017C0120E030E041EE5A
:101AF00054E40E945F3A18160CF4A6C020E030E0CF
:101B000041EE54ECC701B6010E94353787FDA3C0F2
:101B1000C0928805D0928905E0928A05F0928B05E3
:101B2000D701C601BF7780938C0590938D05A09354
:101B30008E05B0938F0560912401062E000C770B63
:101B4000880B990B0E943C37A70196010E949B3796
:101B5000C1E020E030E0A9010E945F3A87FDC0E0CB
:101B6000C093870590918705E0918005F0918105EC
:101B7000309741F080918205992309F473C09081D8
:101B8000892B8083C0908C05D0908D05E0908E05C8
:101B9000F0908F0520E030E040E85FE3C701B60138
:101BA0000E94353770E060E087FD2DC0A7019601E7
:101BB000C701B6010E9414399B01AC0160E070E4DA
:101BC0008CE197E40E9480396B017C0120E030E0D9
:101BD00040E85FE30E94353787FD48C020E030E6EB
:101BE0004AE657E4C701B6010E945F3A18160CF4A2
:101BF00044C020E030E040E05FE3C701B6010E944E
:101C000014390E94F2399FB7F8947093910560934C
:101C10009005709393056093920581E061157105BD
:101C200009F480E08093860580918605811102C0C9
:101C3000109285059FBF672B41F5CF91FF90EF90E4
:101C4000DF90CF900C94460DC12CD12C31EEE32EB9
:101C500034E4F32E5DCFC12CD12C21EEE22E24EC06
:101C6000F22E56CF9081809589238BCFC12CD12C19
:101C700090E8E92E9FE3F92EBCCFC12C80E6D82E48
:101C80008AE6E82E87E4F82EB4CFCF91FF90EF904C
:101C9000DF90CF9008958F929F92AF92BF92CF9294
:101CA000DF92EF92FF924B015C0169017A0181148E
:101CB0009104A104B10451F4FF90EF90DF90CF9014
:101CC000BF90AF909F908F900C94530D20E030E028
:101CD00040E85FE3C701B6010E94353787FF06C0C1
:101CE000C12CD12C80E8E82E8FE3F82E2FB7F89482
:101CF000D501C401B7FE07C088279927DC018819E0
:101D00009909AA09BB098093940590939505A0931E
:101D10009605B093970581E08093980510929905F8
:101D20002FBF181419041A041B0424F0F7FAF094B6
:101D3000F7F8F094C701B601FF90EF90DF90CF90D5
:101D4000BF90AF909F908F900C946E0D8FB7F894CA
:101D500090919905911102C08FBF08951092990535
:101D60001092980510929405109295051092960580
:101D7000109297058FBF60E070E0CB010C946E0D60
:101D80009091E3038091E403811182E0892B90918B
:101D9000E503911194E0892B9091E603911198E06D
:101DA000892B089590E0FC01E357FA4E2491FC0141
:101DB000E758FA4E3491FC01EB59FA4EE491EE23C8
:101DC000C9F0222339F0233001F1A8F4213019F1B0
:101DD000223029F1F0E0EE0FFF1FE55AFA4EA591EF
:101DE000B4918FB7F894EC91611126C030953E23E1
:101DF0003C938FBF08952730A9F02830C9F02430D4
:101E000049F7809180008F7D03C0809180008F779B
:101E100080938000DFCF84B58F7784BDDBCF84B51E
:101E20008F7DFBCF8091B0008F778093B000D2CFB1
:101E30008091B0008F7DF9CF3E2BDACF2F923F9269
:101E40004F925F926F927F928F929F92AF92BF92CA
:101E5000CF92DF92EF92FF920F931F93CF93DF9376
:101E6000CDB7DEB7A4970FB6F894DEBF0FBECDBFD7
:101E70006D8B7E8B8F8B988F2F8F38A349A35AA39E
:101E80008091680581113DC0809164059091650540
:101E9000A0916605B09167052D893E894F89588DBF
:101EA000281B390B4A0B5B0BDA01C901883B9848A8
:101EB000A105B10530F160E080912F050E94D20E9E
:101EC00083E090E00197F1F761E080912F050E9497
:101ED000D20E83E290E00197F1F760E080912F0548
:101EE0000E94D20E8D899E89AF89B88D809364053A
:101EF00090936505A0936605B093670581E0809394
:101F000068053FB7F8942091720560E070E0CB015E
:101F1000222351F01092720560916D0570916E054B
:101F200080916F05909170053FBF222309F449C04D
:101F3000109268058B019C0101501109210931099A
:101F4000083A11462105310508F0E5C10E943A37EB
:101F500028E23EE74CE05DE30E949B3720E030E062
:101F600040E05FE30E949B374B015C0180914C0590
:101F7000882309F476C020914D0530914E0540919B
:101F80004F0550915005C501B4010E9413399F7748
:101F900020E030E040E951E40E945F3A18160CF06E
:101FA00060C08091610590916205019690936205F1
:101FB0008093610510925E0510925D0581E080932B
:101FC000630580916805882399F18091640590915B
:101FD0006505A0916605B09167052D893E894F89F9
:101FE000588D281B390B4A0B5B0BDA01C901893A62
:101FF0009146A105B105E0F01092680581E080935B
:10200000630510925E0510925D0580915F059091C9
:1020100060058F3F980729F00196909360058093A3
:102020005F058FB7F89410927105109272058FBFFB
:10203000A4960FB6F894DEBF0FBECDBFDF91CF914F
:102040001F910F91FF90EF90DF90CF90BF90AF90D6
:102050009F908F907F906F905F904F903F902F90C8
:10206000089580924D0590924E05A0924F05B09232
:1020700050058091460590E0FC01EE0FFF1FEE0F2A
:10208000FF1FE15DFA4F82829382A482B58201969E
:1020900065E070E00E94C338809346058091450555
:1020A000853018F48F5F8093450580914505C12CDC
:1020B000D12C7601882309F49CC0A1E3B5E0FE0190
:1020C0003196712C4D915D916D917D91419351931C
:1020D0006193719373948711F5CFE12CC72CD12CA8
:1020E0008E2D90E09C012F5F3F4F2C153D050CF08D
:1020F00054C0F12CF601E81BF90BFCA3EBA38F2DC8
:1021000090E08C010F5F1F4F2BA13CA1021713071A
:102110000CF041C0880F991F880F991F41E050E0D3
:102120004C0F5D1F480F591F5E8F4D8FDA018D9147
:102130009D910D90BC91A02D898F9A8FAB8FBC8FF4
:10214000000F111F000F111FE1E0F0E0EC0FFD1F69
:102150000E0F1F1FD8012D903D904D905C90A20155
:102160009101698D7A8D8B8D9C8D0E945F3A181636
:1021700084F4ED8DFE8D2082318242825382298D3E
:102180003A8D4B8D5C8DD8012D933D934D935C938F
:102190001397F394B4CFE394A3CF872D869590E063
:1021A000FC01EE0FFF1FEE0FFF1F21E030E02C0FB0
:1021B0003D1FE20FF31FC080D180E280F38070FCEE
:1021C00018C00197880F991F880F991F820F931FBE
:1021D000DC012D913D914D915C91C701B6010E94AA
:1021E000143920E030E040E05FE30E949B376B0150
:1021F0007C0180914705811167C0C0924805D0924B
:102200004905E0924A05F0924B0581E0809347052D
:1022100060912501062E000C770B880B990B0E940C
:102220003C376B017C0140902B0150902C01609059
:102230002D0170902E01A3019201C501B4010E94ED
:102240001339A70196010E949B3760935105709343
:1022500052058093530590935405A3019201609118
:1022600048057091490580914A0590914B050E945F
:102270001339A70196010E949B376093550570930F
:10228000560580935705909358052F8D38A149A185
:102290005AA12093590530935A0540935B055093FA
:1022A0005C0581E080934C051092630580915D058B
:1022B00090915E058F3F980709F483CE0196909325
:1022C0005E0580935D057DCE26E636E646E25FE359
:1022D000609148057091490580914A0590914B05A0
:1022E0000E949B372B013C0123E333E343EB5EE386
:1022F000C701B6010E949B379B01AC01C301B2012B
:102300000E941439609348057093490580934A05EB
:1023100090934B057DCF81E08093630510925E051D
:1023200010925D0580915F05909160058F3F980741
:1023300009F47ECE01969093600580935F0541CEAF
:10234000CF93DF9390E0FC01E758FA4E24918B592C
:102350009A4EFC0184918823D1F090E0880F991F58
:10236000FC01EF5AFA4EA591B491FC01E55AFA4EE0
:10237000C591D49161110EC09FB7F8948C91E22F52
:10238000E0958E238C932881E223E8839FBFDF9121
:10239000CF9108958FB7F894EC91E22BEC938FBF17
:1023A000F6CF3FB7F8948091DF039091E003A091BE
:1023B000E103B091E20326B5A89B05C02F3F19F0B9
:1023C0000196A11DB11D3FBFBA2FA92F982F8827B5
:1023D000BC01CD01620F711D811D911D42E0660F90
:1023E000771F881F991F4A95D1F708958F929F9262
:1023F000AF92BF92CF92DF92EF92FF924B015C01BE
:102400000E94D1116B017C010E94D1116C197D09D0
:102410008E099F09683E734081059105A8F321E06C
:10242000821A9108A108B10888EEC80E83E0D81E70
:10243000E11CF11C81149104A104B10429F7FF905F
:10244000EF90DF90CF90BF90AF909F908F900895C6
:102450002FB7F8946091DB037091DC038091DD036A
:102460009091DE032FBF089508950895AF92BF9213
:10247000CF92DF92EF92FF920F931F93CF93DF9350
:102480006C017B018B01040F151FEB015E01AE187F
:10249000BF08C017D10759F06991D601ED91FC91A1
:1024A0000190F081E02DC6010995892B79F7C501CE
:1024B000DF91CF911F910F91FF90EF90DF90CF9020
:1024C000BF90AF900895FC01538D448D252F30E0CF
:1024D000842F90E0821B930B541710F0CF96089531
:1024E00001970895FC01918D828D981761F0A28D5E
:1024F000AE0FBF2FB11D5D968C91928D9F5F9F7324
:10250000928F90E008958FEF9FEF0895FC01918DD9
:10251000828D981731F0828DE80FF11D858D90E046
:1025200008958FEF9FEF0895FC01918D228D892FE3
:1025300090E0805C9F4F821B91098F7399270895CB
:1025400087E394E00E94941221E0892B09F420E0B3
:10255000822F089580E090E0892B29F00E94A0123C
:1025600081110C9400000895FC01A48DA80FB92FCF
:10257000B11DA35ABF4F2C91848D90E001968F73AB
:102580009927848FA689B7892C93A089B1898C91CA
:10259000837080648C93938D848D981306C0028819
:1025A000F389E02D80818F7D80830895EF92FF92E3
:1025B0000F931F93CF93DF93EC0181E0888F9B8D66
:1025C0008C8D98131AC0E889F989808185FF15C020
:1025D0009FB7F894EE89FF896083E889F989808143
:1025E0008370806480839FBF81E090E0DF91CF9112
:1025F0001F910F91FF90EF900895F62E0B8D10E034
:102600000F5F1F4F0F731127E02E8C8D8E110CC0A2
:102610000FB607FCFACFE889F989808185FFF5CFED
:10262000CE010E94B412F1CFEB8DEC0FFD2FF11D06
:10263000E35AFF4FF0829FB7F8940B8FEA89FB892A
:1026400080818062CFCF0F931F93CF93DF938C0154
:10265000D0E0C0E0F801EC0FFD1F6491662341F06B
:1026600087E394E00E94D612892B11F02196F2CFD5
:10267000CE01DF91CF911F910F910895682F87E3CD
:1026800094E00C94D612CF93DF93EC01888D8823CD
:10269000B9F0AA89BB89E889F9898C9185FD03C0C5
:1026A000808186FD0DC00FB607FCF7CF8C9185FFAA
:1026B000F2CF808185FFEDCFCE010E94B412E9CF29
:1026C000DF91CF91089520910B03260F3327331FFD
:1026D00021323105ECF420910D04FC0190E080E002
:1026E000243069F082E00895A0910B032191AC01A0
:1026F00045515D4FA40FB52FB11D2C930196861740
:1027000098F380910B03680F60930B0380E00895AA
:1027100081E0089510920D0481E080930C041092E2
:10272000E70361E082E10E94D20E61E083E10E9452
:10273000D20EE9EBF0E080818E7F808380818D7FF7
:10274000808388E48093B80085E48093BC0008957A
:10275000CF93DF9391E09093EA028823B9F0C09180
:10276000B800D091BA008091BC008A7B8093BC00F5
:1027700060E082E10E94D20E60E083E10E94D20E0E
:102780000E948A13D093BA00C093B800DF91CF9112
:1027900008958F929F92AF92BF92CF92DF92EF9265
:1027A000FF920F931F93CF93DF93D0913604D132D2
:1027B00008F0D7C0182FC09135040E94D1116B01C9
:1027C0007C0180910D0481116BC082E080930D0427
:1027D00010930C048FEF80930B0410920A04D09393
:1027E0000904A5E1B4E0E9EEF3E080E0D81391C07C
:1027F0001092E8038091E803CC0FC82BC093E80344
:102800008091E703813009F088C01092E7030E94AD
:10281000D1116B017C018091E8038093BB00809112
:102820000F0490911004A0911104B0911204892B0F
:102830008A2B8B2BA1F00E94D11100910F041091D3
:10284000100420911104309112046C197D098E0935
:102850009F09061717072807390708F442C0809117
:10286000BC0083FDD8CF85EC8093BC000E94D111C1
:102870006B017C0180910D04823009F450C080917D
:102880000B048F3F09F46FC080910B04803209F470
:102890006CC080910B04803309F469C084E026C0C9
:1028A00080910F0490911004A0911104B091120432
:1028B000892B8A2B8B2B09F484CF0E94D111809015
:1028C0000F0490901004A0901104B09012046C19A1
:1028D0007D098E099F0986169706A806B90608F095
:1028E00070CF80910E040E94A81385E0109214040A
:1028F0001092360410921304DF91CF911F910F9123
:10290000FF90EF90DF90CF90BF90AF909F908F900F
:1029100008959D9191938F5F69CF85EEA5CF8091AA
:102920000F0490911004A0911104B0911204892B0E
:102930008A2B8B2B09F49ECF0E94D11100910F049A
:102940001091100420911104309112046C197D092A
:102950008E099F09061717072807390708F08ACF3D
:10296000C0CF81E0C3CF80E0C1CF82E0BFCF83E0A2
:10297000BDCF0895E091330380913203E81730F41E
:10298000F0E0E653FD4F808190E008958FEF9FEFD8
:10299000089590913303809132032FEF3FEF981702
:1029A00048F4E92FF0E0E653FD4F208130E09F5FCF
:1029B00090933303C90108958091320390913303BA
:1029C000891B990B0895CF92DF92EF92FF920F939C
:1029D0001F93CF93DF937C01CB018A0120911304D5
:1029E000222389F0EB016B01C40ED51ECC15DD0549
:1029F00069F06991D701ED91FC910190F081E02D92
:102A0000C7010995F3CF642F0E946313C801DF91BA
:102A1000CF911F910F91FF90EF90DF90CF9008958D
:102A2000CF93DF931F92CDB7DEB769832091130454
:102A30002223F9F020913604203258F021E030E0D2
:102A4000FC013383228390E080E00F90DF91CF91EF
:102A5000089580911404E82FF0E0EB5EFB4F99811C
:102A600090838F5F809314048093360481E090E01C
:102A7000ECCF61E0CE0101960E946313F7CF90E0A6
:102A800080E008952F923F924F925F926F927F92D3
:102A90008F929F92AF92BF92CF92DF92EF92FF926E
:102AA0000F931F93CF93DF93CDB7DEB760970FB629
:102AB000F894DEBF0FBECDBFF801A0914C05109178
:102AC0006305AA2309F4CDC0FE83ED83190158875D
:102AD0004F836D877E878F87988B409051055090EC
:102AE0005205609053057090540580905505909064
:102AF0005605A0905705B0905805C0904D05D09050
:102B00004E05E0904F05F0905005C982DA82EB82C5
:102B1000FC824092B8035092B9036092BA0370925B
:102B2000BB032AE037ED43E25CE3C301B2010E943C
:102B30009B376093BC037093BD038093BE03909357
:102B4000BF038092C0039092C103A092C203B092CF
:102B5000C3032AE037ED43E25CE3C501B4010E9400
:102B60009B376093C4037093C5038093C60390930F
:102B7000C703C092C803D092C903E092CA03F0927F
:102B8000CB0320915D0530915E052230310538F48C
:102B90001092CD0311111EC01092E6033DC020918A
:102BA000590530915A0540915B0550915C05CD84E3
:102BB000DE84EF84F888C21AD30AE40AF50AA70172
:102BC0009601293731054105510510F7112331F0E0
:102BD0001092CD0381E08093E303DECF21E02093C8
:102BE000CD03CD84DE84EF84F888C0923703D09281
:102BF0003803E0923903F0923A031092E3039F778F
:102C000011E02EEA37E441E65EE30E945F3A1816CF
:102C10000CF010E01093E603EF80F884E114F10467
:102C200031F0D7014D925D926D927C9213972114F1
:102C3000310429F0F10180829182A282B382CD8099
:102C4000DE80CD2859F0C980DA80EB80FC80AD8130
:102C5000BE81CD92DD92ED92FC9213971091CD033F
:102C60000AC01092CD031092E603112321F081E0F7
:102C70008093E30310E0812F60960FB6F894DEBFD7
:102C80000FBECDBFDF91CF911F910F91FF90EF90BD
:102C9000DF90CF90BF90AF909F908F907F906F907C
:102CA0005F904F903F902F900895CF93DF930E94B5
:102CB000530DCAE7D5E01A8661E08A810E94D20EE0
:102CC0008FB7F8941B862E893F89398F288F8FBF45
:102CD000DF91CF910C94460D8091E30381110AC0DE
:102CE0008091E403811106C08091E503811102C047
:102CF0008091E60308958F929F92AF92BF92CF92F8
:102D0000DF92EF92FF920F931F934091E00408EE41
:102D100013E020E030E0443021F40CE211E020E048
:102D200030E0C0903B03D0903C03E0903D03F09036
:102D30003E034B015C018C189D08AE08BF0875016D
:102D400064010C151D052E053F0518F451E0509344
:102D5000E403C0903703D0903803E0903903F0903B
:102D60003A036C197D098E099F0906171707280772
:102D7000390718F481E08093E30380916305882389
:102D800019F081E08093E303443099F40E946C16BB
:102D9000882379F085E08093E0041F910F91FF90E4
:102DA000EF90DF90CF90BF90AF909F908F900C945A
:102DB00055161F910F91FF90EF90DF90CF90BF902D
:102DC000AF909F908F9008952091330130913401FE
:102DD000409135015091360160912F017091300181
:102DE00080913101909132010E943537881F8827E8
:102DF000881F0895809126018C708C3011F40C94FA
:102E0000E41680E0089590912601937081E093305C
:102E100009F080E00895EF92FF920F931F93CF93F4
:102E2000DF9300D000D000D0CDB7DEB700912601EF
:102E3000029501700E940317E82E0E94FA16F82EE0
:102E40001091CC0311111091CD030E946C16202F0C
:102E50003E2D4F2D512F682F71E080E090E0269697
:102E60000FB6F894DEBF0FBECDBFDF91CF911F919B
:102E70000F91FF90EF900895FC0101900020E9F779
:102E80003197AF01481B590BBC0187E394E00C94C8
:102E90003612CF93DF930E942313EC018FE991E068
:102EA0000E943C178C0F9D1FDF91CF910895E091F8
:102EB0001B01E73008F05EC0F0E0EF59F84E0C94CB
:102EC000F93868176C176F177217751778177B1713
:102ED00082EA9CE00C9449178FE79CE0FBCF85E6E3
:102EE0009CE0F8CF8DE49CE0F5CF81E39CE0F2CF4D
:102EF00086E19CE0EFCF84E09CE00E9423130E94D7
:102F0000031781112BC084EF9BE00E9423138BEFEA
:102F10009BE00E9423130E94FA16811122C086EEC4
:102F20009BE00E9423138DEE9BE00E94231380916F
:102F3000260184FD19C087ED9BE00E9423138EEDCE
:102F40009BE00E94231380914003811110C089EB04
:102F50009BE00E94491780EC9BE0BCCF87EF9BE091
:102F6000D4CF89EE9BE0DDCF8AED9BE0E6CF8CEB02
:102F70009BE0EFCF0895CF9380911A01811150C04B
:102F8000C09126018FE29BE0C0FF12C08EEF9AE055
:102F9000C1FF0EC084ED9AE0C2FF0AC08EEA9AE03B
:102FA000C3FF06C00E94E416811105C088E89AE0BC
:102FB000CF910C9449178091E004853019F483E691
:102FC0009AE0F6CF84E49AE0C4FFF2CF809100014A
:102FD000882371F08091020181110AC08091010162
:102FE000882319F08FE09AE0E3CF8CED99E0E0CFF1
:102FF0008091CC03811103C08DEA99E0D9CF8091F3
:10300000CD03811103C086E799E0D2CF80914003C0
:10301000882319F08DE599E0CBCF85E499E0C8CFFE
:10302000CF9108958EE791E00E94491788E491E0DE
:103030000E94491787E391E00E9449178DE091E0D3
:103040000E94491785EE90E00E94491783EA90E0BC
:103050000C9449178F929F92AF92BF920F931F9338
:10306000CF93DF93CDB7DEB7A1970FB6F894DEBF4D
:103070000FBECDBF19A2423008F44AE08E010F5DA9
:103080001F4F842E912CB12CA12CA50194010E94DC
:10309000D738E62FB901CA01EA30F4F4E05DD8016F
:1030A000EE938D01232B242B252B79F790E080E0E4
:1030B000109719F0CD010E943C17A1960FB6F89415
:1030C000DEBF0FBECDBFDF91CF911F910F91BF909B
:1030D000AF909F908F900895E95CE1CFCF93DF93FD
:1030E000D0E0C0E0009719F00E943C17EC018FE996
:1030F00091E00E943C178C0F9D1FDF91CF910895A6
:103100008AEA97E00E9449178EE997E00E9423130C
:10311000E091E004E63008F057C0F0E0EE0FFF1F4A
:10312000E159FE4F80819181009711F00E943C1778
:1031300087E997E00E9423130E940317811147C07B
:1031400087E897E00E9423138EE897E00E942313FC
:103150000E94FA1681113EC089E797E00E9423136E
:1031600080E897E00E9423138091260184FD35C0FA
:1031700087E697E00E9423138EE697E00E942313D0
:103180008091CC0381112CC085E597E00E94231328
:103190008CE597E00E9423138091CD03811123C019
:1031A0008DEE96E00E9449178BE197E00E94491747
:1031B00084EF96E00E9449178091CD03811116C0DB
:1031C00087EC96E00C94491782EA91E0AFCF8AE849
:1031D00097E0B8CF8CE797E0C1CF8AE697E0CACFF7
:1031E00088E597E0D3CF80EF96E0DCCF0895CF93CA
:1031F000DF93EC018091E004813011F40E94190BFF
:103200001092000180911C0110921A0110921B0172
:1032100091E090931C0110921D0180931E0186ED98
:103220009CE00E942313CE010E943C1781EC9CE09D
:103230000E94231380911E01811106C08DEB9CE03A
:10324000DF91CF910C9449178FEB9CE0F9CF4F920F
:103250005F926F927F928F929F92AF92BF92CF9226
:10326000DF92EF92FF920F931F93CF936B017C013C
:10327000742EAC019B010E94643A882399F08AEA7B
:1032800091E0CF911F910F91FF90EF90DF90CF9041
:10329000BF90AF909F908F907F906F905F904F9076
:1032A0000C943C1746015701E894B7F82FEF3FEF15
:1032B0004FE75FE7C501B4010E94643A81110DC078
:1032C0002FEF3FEF4FE75FE7C501B4010E943537AD
:1032D00018161CF48EEA91E0D4CF2FEF3FEF4FE7A2
:1032E0005FE4C701B6010E945F3A18161CF482EB36
:1032F00091E0C7CF2FEF3FEF4FE75FECC701B6017B
:103300000E94353787FDF3CF20E030E0A901C701E7
:10331000B6010E94353710E000E087FF08C08DE25B
:103320000E943E138C01F7FAF094F7F8F094C0E095
:1033300060E070E080E09FE37C1641F020E030E048
:1033400040E251E40E948039CF5FF6CFA701960199
:103350000E9414392B013C010E94F2394B015C019F
:103360004AE00E942A187C01E00EF11ECC23B1F144
:10337000C501B4010E943A379B01AC01C301B201FF
:103380000E9413394B015C018EE20E943E13E80E4D
:10339000F91EC15018F120E030E040E251E4C501CF
:1033A000B4010E949B372B013C010E94F2394B0172
:1033B000B12CA12C4AE0C501B4010E942A18E80EE4
:1033C000F91EC501B4010E943A379B01AC01C3014B
:1033D000B2010E9413394B015C01DBCFC701CF91D1
:1033E0001F910F91FF90EF90DF90CF90BF90AF9023
:1033F0009F908F907F906F905F904F9008950C9466
:10340000271984E695E00E94231360912F017091A3
:103410003001809131019091320146E050E00E94EC
:10342000FF1988E595E00E942313609133017091A4
:103430003401809135019091360146E050E00E94C0
:10344000FF1984E495E00E9423130E94FA1681116B
:1034500004C08DE395E00C94491780E495E0FBCF20
:1034600083E295E00E942313609127017091280167
:103470008091290190912A0146E050E00E94FF19B5
:1034800081E195E00E94231360912B0170912C0142
:1034900080912D0190912E0146E050E00E94FF198D
:1034A0008FEF94E00E9423130E940317811104C040
:1034B00088EF94E00C9449178BEF94E0FBCFCF9307
:1034C000DF930E942719EC018FE991E00E943C17DD
:1034D0008C0F9D1FDF91CF910895CF92DF92EF92D5
:1034E000FF92CF93DF936C01990FEE08FF08F7FE70
:1034F0001DC08DE20E943E13EC0166277727CB01A9
:103500006C197D098E099F094AE00E942A18C80F8C
:10351000D91F8FE991E00E943C178C0F9D1FDF910E
:10352000CF91FF90EF90DF90CF9008954AE0C701D0
:10353000B6010E942A18EC01ECCFCF92DF92EF92F5
:10354000FF92CF93DF936C01990FEE08FF08F7FE0F
:1035500017C08DE20E943E13EC0166277727CB014E
:103560006C197D098E099F094AE00E942A188C0F68
:103570009D1FDF91CF91FF90EF90DF90CF90089546
:103580004AE0C701B601DF91CF91FF90EF90DF9045
:10359000CF900C942A18CF93DF93682F70E090E0BF
:1035A00080E04AE00E942A18EC018FE991E00E9435
:1035B0003C178C0F9D1FDF91CF910895CF930E94F0
:1035C000C00EC82F86EB96E00E9423138C2F0E941A
:1035D000CB1A85EA96E00E9423138091E0048430A0
:1035E00089F186E896E00E94491786E796E0CC23A9
:1035F00031F18091E303882321F08FE396E00E946C
:1036000049178091E403882321F088E196E00E9425
:1036100049178091E503882321F08CEE95E00E9404
:1036200049178091E603882321F08FEB95E00E94F3
:1036300049178091E004853041F48BE995E0CF9102
:103640000C94491786E996E0CECF8AE795E0F7CF4C
:10365000FF920F931F93CF93DF93CDB7DEB72C97D5
:103660000FB6F894DEBF0FBECDBF19821A821B823F
:103670001C821D821E821F82188619861A861B864E
:103680001C860E9428128E01075F1F4F9E012B5F30
:103690003F4FAE014F5F5F4F0E944215F82E8111E0
:1036A00011C08CE798E00E9449178F2D2C960FB619
:1036B000F894DEBF0FBECDBFDF91CF911F910F9168
:1036C000FF90089589859A85AB85BC8580932B01F1
:1036D00090932C01A0932D01B0932E01809126018F
:1036E0008260809326010E94281210E000E030E002
:1036F00020E050E040E00E94421581E080934003CA
:1037000082E698E00E94231369857A858B859C85E3
:1037100046E050E00E945F1A0E94301AC6CF2F92F6
:103720003F924F925F926F927F928F929F92AF9251
:10373000BF92CF92DF92EF92FF920F931F93CF939E
:10374000DF9300D000D01F92CDB7DEB70E942812C1
:1037500020904C0520916305298320915D053091CF
:103760005E053D832C832220E1F0009159051091E4
:103770005A0520915B0530915C056B017C01C01AF4
:10378000D10AE20AF30A8C819D81029740F033242A
:10379000339499E7C916D104E104F10438F0312CCF
:1037A00005C0312CCC24CA94DC2C760140904D0508
:1037B00050904E0560904F057090500580904805E0
:1037C00090904905A0904A05B0904B0500915F0587
:1037D0001091600520916105309162053B832A8339
:1037E00080E298E00E94231386E198E0211002C055
:1037F00084E198E00E94231388E198E00E9423135B
:1038000088E098E0311002C086E098E00E9423131F
:103810008AE098E00E942313398189EB97E0311107
:1038200002C087EB97E00E9423138DEF97E00E9480
:1038300023134AE0C701B6010E942A1884EF97E0DB
:103840000E94231344E050E0C301B2010E94FF191B
:103850008AEE97E00E94231344E050E0C501B401D2
:103860000E94FF198BED97E00E9423132C813D816C
:10387000B90190E080E04AE00E942A188DEC97E0C0
:103880000E942313B80190E080E04AE00E942A18C9
:103890008BEB97E00E9423132A813B81B90190E0D2
:1038A00080E04AE00E942A188FE991E00F900F9083
:1038B0000F900F900F90DF91CF911F910F91FF907C
:1038C000EF90DF90CF90BF90AF909F908F907F90C0
:1038D0006F905F904F903F902F900C943C17CF9338
:1038E000DF93EC0189EA9BE00E94491789818111ED
:1038F00004C08EE99BE00E9449178A81811104C0AF
:1039000081E99BE00E9449178881811104C086E803
:103910009BE00E9449178B81811104C088E79BE0DE
:103920000E9449178C81882321F08BE69BE00E943E
:1039300049178D81811104C08AE59BE00E944917D7
:103940008C8181110E94DE1A8B81811102C00E943C
:103950008F1BDF91CF910C94BB170F931F93CF93C5
:10396000DF93CDB7DEB72C970FB6F894DEBF0FBE4E
:10397000CDBF109100018FED94E0112351F0109113
:103980000101111114C083EC94E00E9449178FE9E2
:1039900094E00E944917812F2C960FB6F894DEBF51
:1039A0000FBECDBFDF91CF911F910F910895198662
:1039B0001A861B861C861D821E821F82188619820B
:1039C0001A821B821C820E9428128E010F5F1F4FD9
:1039D0009E012B5F3F4FAE01475F5F4F0E94421534
:1039E000182F811103C08BE894E0D3CF69817A81CD
:1039F0008B819C816093070170930801809309017A
:103A000090930A0120910301309104014091050136
:103A1000509106010E945F3A87FF70C08FEF80933C
:103A2000190191E090930201109200018F3F09F07B
:103A300081E0809325018091E004813019F483E0D6
:103A40008093E0048AE794E00E9423130E942812E6
:103A50004AE00E942A188CE20E943E1360911301F2
:103A600070911401809115019091160145E050E08C
:103A70000E94FF198CE20E943E1380911701082ECC
:103A8000000C990B0E949D1A8CE20E943E138091BB
:103A90001801082E000C990B0E949D1A8CE20E94BE
:103AA0003E13609103017091040180910501909192
:103AB000060144E050E00E94FF198CE20E943E1390
:103AC00060910701709108018091090190910A01AC
:103AD00044E050E00E94FF198CE20E943E13809166
:103AE0001901082E000C990B0E946D1A86E494E0CF
:103AF0000E94491781E0809340034DCF81E08FCF32
:103B0000CF92DF92EF92FF920E9428126B017C010C
:103B10008AEF92E00E942313E091E00482EA91E0B0
:103B2000E63038F4F0E0EE0FFF1FE159FE4F8081E0
:103B300091810E946E188BEE92E00E942313809177
:103B4000CC03811129C18EED92E00E94231385EEF2
:103B500092E00E9423138091CD03811120C183E460
:103B600092E00E9449178EEC92E00E94231360912C
:103B7000AC037091AD038091AE039091AF0344E02C
:103B800050E00E94FF1987EC92E00E94231360919D
:103B9000B8037091B9038091BA039091BB0344E0DC
:103BA00050E00E94FF198BEB92E00E94231360917A
:103BB000C0037091C1038091C2039091C30344E09C
:103BC00050E00E945F1A8DEA92E00E9423138091D8
:103BD0003B0390913C03A0913D03B0913E03A701AC
:103BE0009601281B390B4A0B5B0BCA01B9014AE04D
:103BF0000E942A1884EA92E00E94231380913703DE
:103C000090913803A0913903B0913A03A70196012E
:103C1000281B390B4A0B5B0BCA01B9014AE00E9411
:103C20002A188FE991E00E943C1787E992E00E94F0
:103C300023130E94C00E0E94CB1A80E892E00E94DB
:103C4000231380912401082E000C990B0E949D1AC9
:103C50008FE692E00E94231380912301082E000C2E
:103C6000990B0E949D1A8FE592E00E942313809188
:103C70002501082E000C990B0E946D1A8AE492E02F
:103C80000E9423130E94031781118CC088E292E0E6
:103C90000E9423138FE292E00E9423130E94FA16DF
:103CA000811183C08FE092E00E94231386E192E0AD
:103CB0000E9423138091260184FD7AC082EB91E05B
:103CC0000E94491785EF91E00E942313609127011C
:103CD000709128018091290190912A0146E050E0DD
:103CE0000E94FF1983EE91E00E94231360912B0143
:103CF00070912C0180912D0190912E0146E050E0B1
:103D00000E945F1A8DEC91E00E94231360912F01B5
:103D100070913001809131019091320145E050E085
:103D20000E94FF1981EC91E00E94231360913301FE
:103D300070913401809135019091360145E050E059
:103D40000E94FF1989EB91E00E9423130E94FA164A
:103D5000811131C08CE891E00E94491780EA91E01E
:103D60000E94231380913F03813059F1823031F555
:103D70008DEB91E00E946E1883E991E00E9423137D
:103D800080911E01811120C088E891E0FF90EF90A2
:103D9000DF90CF900C94491782EE92E0D6CE87E464
:103DA00092E0DFCE8BE292E073CF82E192E07CCFB3
:103DB00085EB91E085CF8FE891E0CECF86EC91E066
:103DC000D9CF86EB91E0D6CF8AE891E0DFCF4F9252
:103DD0005F926F927F928F929F92AF92BF92CF929B
:103DE000DF92EF92FF920F931F93CF93DF93A091F7
:103DF0007305B0917405109751F5809176059091F7
:103E00007705A0917805B09179050196A11DB11DA6
:103E10008093760590937705A0937805B093790504
:103E20001092CC0381E08093E40380E0DF91CF9196
:103E30001F910F91FF90EF90DF90CF90BF90AF90C8
:103E40009F908F907F906F905F904F900895890121
:103E5000EA012B013C012091750531E030931304F8
:103E6000209335041092140410923604ED91FC91C5
:103E700011970190F081E02D6CE0CD01099580E073
:103E80000E94C913F82E8111B8CFE09075050E94E9
:103E9000D1114B015C0180910D04811164C081E05E
:103EA00080930D0480930C049FEF90930B04109269
:103EB0000A04809309048093E8038091E803EE0CE0
:103EC000E82AE092E8038091E703813009F0CEC050
:103ED0001092E7030E94D1114B015C018091E8032D
:103EE0008093BB0080910F0490911004A091110465
:103EF000B0911204892B8A2B8B2BA1F00E94D11137
:103F000020910F043091100440911104509112043B
:103F1000681979098A099B0926173707480759073D
:103F200008F442C08091BC0083FDD8CF85EC80931B
:103F3000BC000E94D1114B015C0180910D048130C5
:103F400009F496C080910A04823008F0B3C08091D1
:103F50000A04A9EEB3E0EAECF2E0F81649F19D910B
:103F60009193F394FACF80910F0490911004A09153
:103F70001104B0911204892B8A2B8B2B09F48BCF5F
:103F80000E94D11120910F0430911004409111042E
:103F900050911204681979098A099B092617370775
:103FA0004807590708F077CF80910E040E94A813A4
:103FB00010923303F092320382E0F8121ECF809108
:103FC000730590917405DC01ED91FC910084F185FD
:103FD000E02D099502970CF410CF80917305909114
:103FE0007405DC01ED91FC910284F385E02D0995C7
:103FF000F82E8091730590917405DC01ED91FC9190
:104000000284F385E02D099560E07F2D66277F709F
:10401000682B90E080E00E943A3720E030E044EBEB
:1040200053E40E949B3720E030E040E859E30E94CF
:104030009B374B015C012091270130912801409171
:10404000290150912A010E9413396B017C0120E063
:1040500030E044E353E40E945F3A18166CF520E028
:1040600030E044EB53E4C701B601EDCF85EE5FCFFE
:1040700080910F0490911004A0911104B09112044A
:10408000892B8A2B8B2B09F458CF0E94D1112091B8
:104090000F043091100440911104509112046819DA
:1040A00079098A099B09261737074807590708F035
:1040B00044CF7ACF82E04DCF20E030E044E353ECB0
:1040C000C701B6010E94353787FF0BC020E030E002
:1040D00044EB53E4C701B6010E9414396B017C0123
:1040E000EBCF60912301062E000C770B880B990B08
:1040F0000E943C37A70196010E949B376B017C010F
:10410000C092AC03D092AD03E092AE03F092AF0345
:1041100025E33AEF4EE85CE30E949B376093B003DF
:104120007093B1038093B2039093B3038092B4036E
:104130009092B503A092B603B092B70321E020930A
:10414000CC0340923B0350923C0360923D0370923B
:104150003E031092E4039F777724739422E93AE0B8
:1041600046E85EE30E945F3A18160CF0712C7092DC
:10417000E503209751F40115110529F0F80180821B
:104180009182A282B38281E051CEC882D982EA8232
:10419000FB82F1CF1F93CF93DF93CDB7DEB7289784
:1041A0000FB6F894DEBF0FBECDBF19821A821B82F4
:1041B0001C821D821E821F8218860E9428129E0168
:1041C0002B5F3F4FAE014F5F5F4F0E94E71E182FDE
:1041D00081110FC08EE498E00E944917812F289624
:1041E0000FB6F894DEBF0FBECDBFDF91CF911F9108
:1041F00008958D819E81AF81B8858093270190932A
:104200002801A0932901B0932A01809126018160A1
:10421000809326010E94281230E020E050E040E028
:104220000E94E71E81E08093400387E398E00E94AC
:1042300023136D817E818F81988546E050E00E9436
:104240005F1A0E94301ACACF4F925F926F927F928C
:104250008F929F92AF92BF92CF92DF92EF92FF9296
:104260000F931F93CF93DF93CDB7DEB764970FB64D
:10427000F894DEBF0FBECDBF8091E004853061F4BD
:1042800085E394E00E9449170E94DE1A8EE194E0D3
:104290000E94491710E01BC00E9428124B015C01CC
:1042A000198A1A8A1B8A1C8A1D861E861F86188AEE
:1042B0009E01235F3F4FAE014F5E5F4F0E94E71E9E
:1042C000182F81111CC08AE094E00E944917812FA9
:1042D00064960FB6F894DEBF0FBECDBFDF91CF91CD
:1042E0001F910F91FF90EF90DF90CF90BF90AF9014
:1042F0009F908F907F906F905F904F9008958091E6
:10430000E0048450823018F48EEE93E0C1CFFF2495
:10431000F394F092E004F0920001F0920101109207
:1043200002018091240180931701809123018093E1
:104330001801809125018093190119861A861B8620
:104340001C861D821E821F82188619821A821B8279
:104350001C828E010F5F1F4F9E012B5F3F4FAE01EE
:10436000475F5F4FC501B4010E9442158093010170
:1043700089819A81AB81BC81809303019093040170
:10438000A0930501B09306018D859E85AF85B88900
:1043900080930B0190930C01A0930D01B0930E013B
:1043A000F092840560E080917C050E94D20E20E0AE
:1043B00030E04AEF53E468E770E080E090E00E946C
:1043C0004B0E0E9428124B015C010E942F0D882386
:1043D000E9F00E94D1112B013C010E9428126B01CF
:1043E0007C010E94A60EA7019601C301B2010E94A2
:1043F0001E0FC818D908EA08FB0889EBC8168BE01D
:10440000D806E104F10408F30E94530D0E94A60EA1
:1044100062E370E080E090E00E94F6110E942812B2
:104420002FE031E050E040E00E94E71E182F81119C
:104430000CC080ED93E00E9449178091E004813028
:1044400009F045CF1092E00442CF20910B0130914A
:104450000C0140910D0150910E0160910F0170917E
:10446000100180911101909112010E9413396B018A
:104470007C0120E030E044E353E40E945F3A1816E8
:104480003CF420E030E044EB53E4C701B601EDCF4B
:1044900020E030E044E353ECC701B6010E94353719
:1044A00087FF0BC020E030E044EB53E4C701B601C6
:1044B0000E9414396B017C01EBCFC0921301D092A2
:1044C0001401E0921501F09216010091240120E000
:1044D00030E0A901C701B6010E945F3A87FD01954E
:1044E0000093170120E030E0A901C701B6010E9446
:1044F0005F3A87FD55C081E08093180191E007FD88
:104500009FEF909324018F3F09F081E08093230176
:104510008091260180618093260181E08093400391
:104520008091E004813019F483E08093E00483EB10
:1045300093E00E94491789E993E00E942313609158
:10454000130170911401809115019091160145E0BD
:1045500050E00E945F1A8CE793E00E942313809141
:104560001701082E000C990B0E946D1A80E693E04B
:104570000E94231380911801082E000C990B0E94B1
:104580006D1A80910101882369F084E393E00E9411
:1045900049178091A303811108C00E94551697CE38
:1045A0008FEFAACF81E093E0F2CF182F90CECF9279
:1045B000DF92EF92FF920F931F93CF936B017C01D9
:1045C000C092CE03D092CF03E092D003F092D103F9
:1045D00030E020E050E040E00E94E71EC82F10E0ED
:1045E00000E030E020E050E040E0C701B6010E946A
:1045F0004215C11101C080E0CF911F910F91FF9032
:10460000EF90DF90CF90089585ED8093BC0080916E
:104610000F0490911004A0911104B0911204079618
:10462000A11DB11D23E0B695A795979587952A956D
:10463000D1F72091BC0024FD03C010920D04089511
:1046400040910F0450911004609111047091120474
:10465000452B462B472B69F30097A105B10541F087
:104660002AE22A95F1F700C00197A109B109E1CF2B
:1046700080910E040C94A8134F925F926F927F92D8
:104680008F929F92AF92BF92CF92DF92EF92FF9262
:10469000CF93C09126018C2F8C708C3099F5C090EF
:1046A0002F01D0903001E0903101F0903201409024
:1046B0003301509034016090350170903601A301B0
:1046C0009201C701B6010E94403A4B015C01A3016F
:1046D0009201C701B6010E94213A6B017C01A5013C
:1046E00094010E94133920E030E040E050E40E9441
:1046F000353787FF09C0C37FC093260180E998E062
:104700000E94491780E011C080922F0190923001E1
:10471000A0923101B0923201C0923301D0923401A3
:10472000E0923501F092360181E0CF91FF90EF9059
:10473000DF90CF90BF90AF909F908F907F906F90C1
:104740005F904F9008951F93CF93DF9300D000D0D8
:10475000CDB7DEB719821A821B821C820E942812F2
:1047600030E020E0AE014F5F5F4F0E94E71E182F40
:1047700081110DC081E399E00E944917812F0F90AC
:104780000F900F900F90DF91CF911F910895898125
:104790009A81AB81BC818093330190933401A093C3
:1047A0003501B093360180912601886080932601FF
:1047B00081E0809340038CE199E00E94231369819A
:1047C0007A818B819C8146E050E00E945F1A809143
:1047D000260182FF08C00E943C23882339F088EF1D
:1047E00098E00E9449170E94011AC8CF10E0C6CF76
:1047F0001F93CF93DF9300D000D0CDB7DEB71982DF
:104800001A821B821C820E94281230E020E0AE0136
:104810004F5F5F4F0E94E71E182F81110DC084EE7D
:1048200098E00E944917812F0F900F900F900F90E2
:10483000DF91CF911F91089589819A81AB81BC81CD
:1048400080932F0190933001A0933101B0933201F6
:104850008091260184608093260181E0809340034B
:104860008DEC98E00E94231369817A818B819C8171
:1048700046E050E00E945F1A8091260183FF08C045
:104880000E943C23882339F089EA98E00E94491766
:104890000E94011AC8CF10E0C6CFFF920F931F935A
:1048A000CF93DF9380E19BEB9093200180931F01D6
:1048B00081E090E090932201809321010E94400BBF
:1048C0008FE191E00E94280B90933801809337018B
:1048D0000FE111E0D0E0C0E0F801F1908F01CE01CE
:1048E0000E945C38F81621F06F2DCE010E946438CA
:1048F0002196CA31D10581F781E080933F03DF9192
:10490000CF911F910F91FF900895EF92FF920F9317
:104910001F93CF93DF93CDB7DEB76A970FB6F894A6
:10492000DEBF0FBECDBF8AE1E9E3F1E0DE01119603
:1049300001900D928A95E1F7CE0101967C0110E07D
:1049400000E0C8010E945C38F70181937F010F5F8E
:104950001F4F0A311105A9F789819A8180319B4B3C
:1049600021F48B819C81019799F00E94750B82E064
:1049700080933F0380E06A960FB6F894DEBF0FBEC7
:10498000CDBFDF91CF911F910F91FF90EF900895D0
:10499000CE0101960E94280B298D3A8D28173907E0
:1049A00021F78AE1FE013196AFE1B1E001900D926D
:1049B0008A95E1F70E94400B8FE191E00E94280B5D
:1049C000909338018093370181E080933F03D3CFE8
:1049D0001F920F920FB60F9211242F933F938F9334
:1049E0009F93AF93BF938091DB039091DC03A091E1
:1049F000DD03B091DE033091DA0323E0230F2D377E
:104A000058F50196A11DB11D2093DA038093DB03B5
:104A10009093DC03A093DD03B093DE038091DF036A
:104A20009091E003A091E103B091E2030196A11DF2
:104A3000B11D8093DF039093E003A093E103B09353
:104A4000E203BF91AF919F918F913F912F910F9072
:104A50000FBE0F901F90189526E8230F0296A11DF8
:104A6000B11DD2CF1F920F920FB60F9211242F9328
:104A70003F934F935F936F937F938F939F93AF93E6
:104A8000BF93EF93FF9387E394E00E94B412FF91EA
:104A9000EF91BF91AF919F918F917F916F915F91B6
:104AA0004F913F912F910F900FBE0F901F9018952F
:104AB0001F920F920FB60F9211242F938F939F93F3
:104AC000EF93FF93E0914704F09148048081E091D7
:104AD0004D04F0914E0482FD1BC0908180915004E2
:104AE0008F5F8F7320915104821741F0E091500441
:104AF000F0E0E95CFB4F958F80935004FF91EF91BC
:104B00009F918F912F910F900FBE0F901F9018952E
:104B10008081F4CF1F920F920FB60F9211242F9322
:104B20003F934F935F936F937F938F939F93AF9335
:104B3000BF93EF93FF938091B900887F803609F48B
:104B40004AC0F0F5883209F4A7C018F5803109F49D
:104B50009BC0B8F4882309F4F9C0883009F494C0E4
:104B6000FF91EF91BF91AF919F918F917F916F9145
:104B70005F914F913F912F910F900FBE0F901F901B
:104B80001895883109F488C0803251F780930B045E
:104B900014C0803409F49DC040F48033B9F38833E5
:104BA000F9F680930B0485ECB0C0803509F485C01C
:104BB000883509F496C0883499F60E940423D0CF32
:104BC000883909F48CC038F5883729F050F48836D4
:104BD00011F0803729F683E080930D0410922D03A5
:104BE00057C0883809F47BC0803919F0803809F043
:104BF000B7CF80912D03803208F071C0E0912D0372
:104C000081E08E0F80932D038091BB00F0E0E35F85
:104C1000FC4F80833DC0803B39F0E0F4803A09F4DA
:104C200079C0883A09F09CCF84E080930D041092FB
:104C30000C0310920B03E0913003F09131030995BE
:104C400080910B0381110FC081E080930B031092C0
:104C5000EB0209C0803C09F4A6CF883C09F4A3CF3D
:104C6000883B09F07DCFE0910C0381E08E0F8093AB
:104C70000C03F0E0E551FD4F80818093BB009091E3
:104C80000C0380910B0329C08091E8038093BB0043
:104C900085EC8093BC0064CF90910A048091090454
:104CA000981758F5E0910A0481E08E0F80930A046A
:104CB000F0E0E751FC4F8081E9CFE0910A0481E008
:104CC0008E0F80930A048091BB00F0E0E751FC4F07
:104CD000808390910A04809109049817C8F285E8AE
:104CE000D8CFE0910A0481E08E0F80930A0480916E
:104CF000BB00F0E0E751FC4F808380910C048111F0
:104D00005CCF81E08093E70384EA8093BC0010923B
:104D10000D0426CF85EC8093BC0010920D04809189
:104D20002D03803230F4E0912D03F0E0E35FFC4F7F
:104D3000108260912D0370E0E0912E03F0912F031B
:104D40008DE093E0099510922D030ACF10920B0489
:104D500034CF1F920F920FB60F9211240F931F930F
:104D60002F933F934F935F936F937F938F939F9373
:104D7000AF93BF93CF93EF93FF93E0913503F091FF
:104D800036033097A9F080913403882389F0C081DD
:104D9000C8230E94D111CC23F9F060936905709368
:104DA0006A0580936B0590936C0581E08093710593
:104DB000FF91EF91CF91BF91AF919F918F917F9193
:104DC0006F915F914F913F912F911F910F910F9094
:104DD0000FBE0F901F90189520917105222341F36B
:104DE0000091690510916A0520916B0530916C0561
:104DF000601B710B820B930B60936D0570936E05B6
:104E000080936F059093700581E0809372051092F6
:104E10007105CECF1F920F920FB60F9211242F93D0
:104E20003F934F935F936F937F938F939F93AF9332
:104E3000BF93EF93FF930E94A926FF91EF91BF913B
:104E4000AF919F918F917F916F915F914F913F9122
:104E50002F910F900FBE0F901F9018951F920F92D9
:104E60000FB60F9211242F933F934F935F936F933D
:104E70007F938F939F93AF93BF93EF93FF930E9482
:104E8000A926FF91EF91BF91AF919F918F917F9153
:104E90006F915F914F913F912F910F900FBE0F90A7
:104EA0001F9018951F920F920FB60F9211248F9397
:104EB0009F93AF93BF93EF93FF93809183058823D4
:104EC000E9F0809184058823C9F0809186058823C4
:104ED000A9F08091900590919105892B79F08091AE
:104EE0009205909193050297A0F080919205909180
:104EF000930501979093930580939205FF91EF910D
:104F0000BF91AF919F918F910F900FBE0F901F9007
:104F100018958091900590919105909393058093B9
:104F200092058091850591E0892780938505909170
:104F30008505E0917D05F0917E0580917F0599239F
:104F400009F44AC09081892B80838091850588234C
:104F5000A9F280919805882389F280919405909117
:104F60009505A0919605B0919705181619061A0691
:104F70001B0624F68091940590919505A0919605C5
:104F8000B09197050197A109B10980939405909379
:104F90009505A0939605B0939705809194059091FF
:104FA0009505A0919605B0919705892B8A2B8B2B9F
:104FB00009F0A4CF1092860510928505E0917D0539
:104FC000F0917E05908180917F0580958923808373
:104FD00081E08093990592CF908180958923B4CF09
:104FE000FC011082118212821382148215821682B1
:104FF0001782108611861286138648E25BE66EE6FB
:105000007EEC448755876687778788E29BE6AEE625
:10501000BEE4808B918BA28BB38B448B558B668BBC
:10502000778B808F918FA28FB38F148E158E168EF3
:10503000178E10A211A212A213A214A20895CF9348
:10504000DF93CDB7DEB76C970FB6F894DEBF0FBE17
:10505000CDBFE7E3F4E01382128288EE93E0A0E094
:10506000B0E084839583A683B7832FE731E0318353
:10507000208325EC30E03587248724EC30E0378727
:10508000268720EC30E0318B208B21EC30E0338B15
:10509000228B22EC30E0358B248B26EC30E0378BF2
:1050A000268B118E128E138E148EE4EDF4E0138293
:1050B000128284839583A683B78381E991E09183EB
:1050C0008083EAE7F5E082E0808383E0818384E007
:1050D00082831482138215821782168210861186AB
:1050E00012861386148681E0858716861786108AB5
:1050F000118A128A138A148A158A178A168A118EBF
:10510000108E128E138E148E158E168E178EE3E768
:10511000F5E01182108286E3828313821482158265
:105120001682EFE2F5E088E0808389E081831282D5
:1051300013821482158216821782108611861286B7
:1051400013861486158616861786108A118A128A87
:10515000138A148A158A168A178A108E118E128E57
:10516000138E148E158E168E178E10A211A212A2F7
:1051700013A214A215A216A217A210A611A612A677
:1051800013A614A615A617A616A611AA10AA13AA46
:1051900012AA14AA15AA16AA17AA10AE11AE12AE18
:1051A00013AE14AE15AE10926D0510926E051092EE
:1051B0006F0510927005109271051092720581EEC4
:1051C00094E00E94F02786E095E00E94F027E1EE4F
:1051D000F4E010922B0510922C0510922D051092E0
:1051E0002E058DE895E3ADE7B2E480839183A28339
:1051F000B3838EEB9DE5A0E6B3E484839583A68319
:10520000B7838AED9DE2A6EDB0E480879187A287FF
:10521000B38787EB9DE0A3E2BAEB84879587A687E7
:10522000B78787EB9DE0A3E2BAE3808B918BA28BDB
:10523000B38B8EE19AEFAEE0BEEB848B958BA68BA1
:10524000B78B8EE19AEFAEE0BEE3808F918FA28F95
:10525000B38F8CE1E3E5F1E0DE01119601900D9250
:105260008A95E1F785E99FE9A7E2B0E489839A830B
:10527000AB83BC8387E291E2AAE4B2E48D839E8390
:10528000AF83B88780EA9BE7AEE0B2EC8D879E875C
:10529000AF87B88B80EA9BE7AEE0B2E4898B9A8B4C
:1052A000AB8BBC8B80E090E0A1EEB4EC8D8B9E8B41
:1052B000AF8BB88F80E090E0A1EEB4E4898F9A8F35
:1052C000AB8FBC8F8CE1FE013196A6E0B5E001907A
:1052D0000D928A95E1F71092E0046C960FB6F8945F
:1052E000DEBF0FBECDBFDF91CF910895CF93DF9387
:1052F000CDB7DEB764970FB6F894DEBF0FBECDBF53
:10530000789484B5826084BD84B5816084BD85B5A0
:10531000826085BD85B5816085BD80916E008160AC
:1053200080936E0010928100809181008260809352
:105330008100809181008160809381008091800054
:105340008160809380008091B10084608093B1007F
:105350008091B00081608093B00080917A00846079
:1053600080937A0080917A00826080937A008091A5
:105370007A00816080937A0080917A0080688093BF
:105380007A001092C100E0914704F091480412E0C5
:105390001083E0914304F09144041082E0914504AD
:1053A000F091460480E1808310924F04E0914B0419
:1053B000F0914C0486E08083E0914904F0914A0426
:1053C000808180618083E0914904F0914A0480816A
:1053D00088608083E0914904F0914A04808180686C
:1053E0008083E0914904F0914A0480818F7D80831D
:1053F0006AEF70E080E090E00E94F61181EF9CE09F
:105400000E9449170E948524811104C00E94750BD7
:1054100010933F0361E080917A050E94A01161E042
:1054200080917B050E94A01161E080917C050E9423
:10543000A01180917A0590E0FC01EB59FA4EE491BD
:10544000F0E0EE0FFF1FE55AFA4E259134913093AC
:105450007E0520937D05FC01E758FA4EE491E09328
:105460007F0580917B0590E0FC01EB59FA4EE491B9
:10547000F0E0EE0FFF1FE55AFA4E2591349130937C
:10548000810520938005FC01E758FA4EE491E093F2
:1054900082050E94460DE0918005F09181053097CC
:1054A00031F090818091820580958923808361E02D
:1054B00080917C050E94D20E109284059FB7F894CB
:1054C000109280001092810010928500109284004A
:1054D00021E330E03093890020938800809181009F
:1054E0008860809381008091810082608093810038
:1054F00080916F00826080936F0011E010938305AC
:105500009FBF0E94551610923303109232031092DF
:105510001404109236040E948A1384E392E190935B
:1055200031038093300385E392E190932F038093BE
:105530002E0384ED94E0909374058093730586E3C5
:10554000809375050E948A1380917505109313044A
:105550008093350481E00E94C913082F61E0809197
:105560002F050E94A01160E0809130050E94A011DB
:1055700060E080912F050E94D20E8FE090E00197AD
:10558000F1F70E94D111685B784881099109609315
:105590006405709365058093660590936705EEE654
:1055A000F5E1E491F0E0EE0FFF1FE951F34F859133
:1055B00094919093360380933503E2E8F5E1E4910A
:1055C000E09334038091680081608093680080914B
:1055D0006B00826080936B001092E3031092E403EF
:1055E0001092E5031092E60301111093E403109268
:1055F000A4031092A5031092A6031092A703109281
:10560000A8031092A9031092AA031092AB030E9460
:1056100028126093D6037093D7038093D803909396
:10562000D9036093D2037093D3038093D4039093F0
:10563000D50360933B0370933C0380933D039093A9
:105640003E0360933703709338038093390390933C
:105650003A030E9412180E9480180E94801D0E9426
:10566000DE1A0E94BB170E94D1116B017C010E94BF
:1056700028122B013C010E94A60EA3019201C70132
:10568000B6010E941E0F87E394E00E949412181640
:1056900019060CF003C787E394E00E9472128D3064
:1056A00091F32091A1033091A2038A3009F0E6C65C
:1056B0002F5B3C4FD9011C92188A1F86AE01415FB7
:1056C0005F4F64ED71E081E493E00E9480358C01CE
:1056D000009709F409C266ED71E00E94693A892BCE
:1056E00051F0F80101900020E9F7CF0102978017EF
:1056F000910709F0ACC2D801EC91E153EA3408F00B
:10570000A6C20E2E000CFF0BE857F44D0C94F9388E
:10571000AE30B830272E272E272E272E272E272EC5
:10572000272E272E272E272E272E272E2E2E272ECA
:10573000272E272E272E272E272E272E272E272EC1
:10574000272E272E272E272E272E272E272E272EB1
:10575000272E272E272E272E272E272E272E272EA1
:10576000272E272EAE30272EB830272E272E272E75
:105770005530532F002EDA2CFC2B422D5D2F2E2E70
:105780003832282C3B2DAE308C30AE2DCA2C6430F4
:10579000F42DE52C382ED22BB830BC2C6A2D2E32AD
:1057A000272EE12FAE01415F5F4F64ED71E090E085
:1057B00080E00E948035009799F480911E0191E06D
:1057C000892780931E0184E095E10E942313809134
:1057D0001E01882371F082E095E10E94491784C17F
:1057E0000E943B3521E0892B09F420E020931E0123
:1057F000EACF80E095E1F1CFAE01415F5F4F64ED0C
:1058000071E090E080E00E948035009719F480EF0D
:1058100094E1E3CF0E943B3521E0009709F420E0BA
:105820002093A303892B79F00E946C1681110BC081
:1058300081E08093840560E080917C050E94D20E17
:105840008EED94E1CACF0E9455168BEC94E1C5CF42
:10585000AE01415F5F4F64ED71E090E080E00E9437
:1058600080357C01AE01415F5F4F64ED71E090E0F7
:1058700080E00E9480358C01E114F10411F0892B45
:1058800019F489EA94E1A9CFC7010E9459356B0147
:105890007C01C8010E9437354B015C01C114D10461
:1058A000E104F10439F020E030E0A9010E9435372D
:1058B00018161CF084E994E190CF8091E0048430C4
:1058C00019F488E794E189CF19821A821B821C821D
:1058D0000E94FA16882309F43EC00E94281230E084
:1058E00020E0AE014F5F5F4F0E94E71E882399F1D1
:1058F0002DEC3CEC4CE45EE31C141D041E041F0460
:10590000ACF4609133017091340180913501909134
:1059100036010E94133929813A814B815C810E94B2
:1059200035371816C4F08CE594E157CF60912F01FC
:105930007091300180913101909132010E941439AF
:1059400029813A814B815C810E945F3A87FD03C0C7
:1059500080E494E142CF81E08093840560E080910F
:105960007C050E94D20EA5019401C701B6010E94D8
:105970004B0E81E394E131CF0E944D24882339F00E
:105980001092400384E294E10E94491793C380E19E
:1059900094E1FACF0E948524182F1092400383E0EF
:1059A00094E10E9423138CEF93E11111EDCF83EF6B
:1059B00093E1EACF0E94750B82E080933F0381E080
:1059C000809340038BED93E1DFCF0E9428120E9469
:1059D000D7220E9428120E947B160E940B1729834F
:1059E0003A834B835C836D837E83CE0101960E9454
:1059F000FC0A882309F4EDC41092FD041092FE0401
:105A00001092FF04109200051092010510920205F9
:105A100010920305109204051092050510922205BC
:105A20001092230510922405109225051092260548
:105A300010922705109228051092290510922A0528
:105A400010922B0510922C0510922D0510922E0508
:105A50001092A4031092A5031092A6031092A7031C
:105A60001092A8031092A9031092AA031092AB03FC
:105A700080ED93E1B2CE0E94190B0E94551685EC81
:105A800093E182CF1092E3031092E4031092E503B6
:105A90001092E6030E940B1729833A834B835C83A1
:105AA0006D837E838091E004853039F081EA93E153
:105AB0000E9449170E94DE1AFDC2222329F03323D7
:105AC00019F083E0411101C080E08093E00484EB91
:105AD00093E1EECF80911A01882359F087E59FE08A
