:100000000C943B060C9463060C9463060C94EC274A
:100010000C94EC270C94EC270C9463060C94630668
:100020000C9463060C9463060C9463060C94832969
:100030000C9463060C9463060C9463060C9463069C
:100040000C944A270C9463060C94BA270C949427BA
:100050000C9463060C9463060C9463060C9463067C
:100060000C9464280C946306300031006E6F0079A4
:1000700065730054454C2C656E61626C65643D008F
:1000800043414C5F53544F52452C737461747573E4
:100090003D006E6F00796573002C7369676E5F6356
:1000A000616C696272617465643D006E6F007965B0
:1000B00073002C6C696D6974735F63616C69627243
:1000C000617465643D00626164006F6B0043414C84
:1000D0002C7A65726F5F63616C69627261746564CA
:1000E0003D004641554C54532C626974733D002CBD
:1000F000706F735F6D733D004147452C616E676C97
:10010000655F6D733D002C785F66696C745F636D2D
:100110003D002C785F636D3D004D4541532C746864
:100120006574615F6465673D00626164006F6B00C8
:100130002C706F733D0053454E534F52532C616EDC
:10014000676C653D0053544154452C005741524E55
:100150002C736F6E61725F6E6561723D3000494E47
:10016000464F2C736F6E61725F6E6561723D310038
:100170004552522C616E676C655F6E6F745F72657D
:100180006164795F61667465725F6A6F670045528A
:10019000522C63616E6E6F745F656E7465725F631F
:1001A000616C69625F7369676E004552522C616EC3
:1001B000676C655F6E6F745F726561647900475547
:1001C0004944452C646F3D742D3E612D3E702D3E9B
:1001D000662D3E62004552522C6661756C745F61FB
:1001E000637469766500494E464F2C7369676E7378
:1001F0005F6170706C6965645F72756E74696D655E
:10020000005349474E5F43414C5F524553554C5450
:100210002C004552522C736F6E61725F6E6F745F6B
:1002200072656164790047554944452C646F3D739C
:100230006F6E6172207369676E20317C2D31206F83
:100240007220726572756E2062004552522C73697D
:10025000676E5F736F6E61725F6E6561725F6D690D
:100260007373696E67004552522C63616C5F7369EA
:10027000676E5F6E6F745F73746172746564006E35
:100280006F00796573002C7A65726F5F63616C69CA
:100290006272617465643D002C736F6E61725F639E
:1002A000656E7465725F636D3D0043414C5F5A45F6
:1002B000524F2C6173353630305F7A65726F5F64F0
:1002C00065673D006E6F00796573002C6C696D6920
:1002D00074735F63616C696272617465643D002C64
:1002E00075707065725F6465673D0043414C5F4C9B
:1002F000494D4954532C6C6F7765725F6465673D57
:10030000004641554C545F494E464F2C7265636F11
:100310007665723D66004641554C545F494E464FE6
:100320002C706F735F6F6F623D31004641554C54C6
:100330005F494E464F2C616E676C655F6F6F623D23
:1003400031004641554C545F494E464F2C6932634B
:100350005F6572726F723D31004641554C545F4982
:100360004E464F2C736F6E61725F74696D656F7569
:10037000743D31004641554C545F494E464F2C6EFA
:100380006F6E65006272696E6775705F7761726E1D
:10039000696E670072756E5F686172645F66617531
:1003A0006C74004641554C545F494E464F2C6D6F5E
:1003B00064653D004641554C545F494E464F2C62A2
:1003C0006974733D00300031002C6A756D705F7286
:1003D000656A6563745F636E743D002C74696D6556
:1003E0006F75745F636E743D002C76616C69645F39
:1003F00073747265616B3D002C66696C745F636D2C
:100400003D002C7261775F636D3D002C6167655F15
:100410006D733D00300031002C74696D656F75742B
:100420003D00300031002C66726573683D00534F0B
:100430004E41525F444941472C6861735F73616D5F
:10044000706C653D00300031004153353630305F0F
:10045000444941472C004552522C616E676C655FE0
:100460006E6F745F7265616479004F4B2C63616CD1
:100470005F7A65726F5F616E676C655F7365743D0F
:10048000004552522C736F6E61725F6E6F745F72B3
:1004900065616479004F4B2C63616C5F7A65726FA4
:1004A0005F706F736974696F6E5F7365743D00454B
:1004B00052522C6C696D69745F7370616E5F746FFA
:1004C0006F5F736D616C6C004F4B2C63616C5F6C84
:1004D000696D69745F646F776E5F7365743D004525
:1004E00052522C616E676C655F6E6F745F726561EE
:1004F0006479004F4B2C63616C5F6C696D69745F4C
:1005000075705F7365743D004552522C616E676C67
:10051000655F6E6F745F726561647900424C4F4332
:100520004B2C696E6E65725F6C6F6F7000424C4F42
:10053000434B2C6661756C747300424C4F434B2CDB
:1005400073656E736F727300424C4F434B2C73692B
:10055000676E00424C4F434B2C6C696D697473009D
:10056000424C4F434B2C7A65726F004552522C72AD
:10057000756E5F626C6F636B6564005741524E2C01
:100580006A6F675F73746F707065645F6C6F7765B7
:10059000725F6C696D6974005741524E2C6A6F67C7
:1005A0005F73746F707065645F75707065725F6C97
:1005B000696D6974005741524E2C6A6F675F73749E
:1005C0006F707065645F6C6F7765725F6C696D6981
:1005D00074005741524E2C6A6F675F73746F70706E
:1005E00065645F75707065725F6C696D69740042F7
:1005F000414C4C5F4245414D5F424F4F54004F4B81
:100600002C63616C5F6C696D69745F757070657285
:100610005F7365743D004552522C696E76616C695A
:10062000645F6C696D69745F7370616E00455252EE
:100630002C616E676C655F6E6F745F726561647963
:10064000004F4B2C63616C5F6C696D69745F6C6FFC
:100650007765725F7365743D004552522C696E7602
:10066000616C69645F6C696D69745F7370616E0061
:100670004552522C616E676C655F6E6F745F726578
:100680006164790043414C5F535547474553542CAF
:10069000534F4E41525F43454E5445525F434D3D8B
:1006A000004552522C736F6E61725F6E6F745F7291
:1006B000656164790043414C5F5355474745535446
:1006C0002C4153353630305F5A45524F5F444547D1
:1006D0003D004552522C616E676C655F6E6F745FB2
:1006E00072656164790048454C502C6B65797300E4
:1006F0004552522C756E6B6E6F776E5F636F6D6DCA
:10070000616E642C7472793D68004552522C6E6F94
:100710005F6661756C745F7374617465004F4B2C18
:100720006661756C745F636C6561726564004F4BE4
:100730002C73746F70706564004F4B2C72756E6E05
:10074000696E67004F4B2C63616C5F646566617511
:100750006C74735F6170706C696564004552522CF3
:1007600075736167653A63616C5F72657365740088
:1007700064656661756C7473006C6F6164656400B8
:100780004F4B2C63616C5F6C6F61642C004552525F
:100790002C63616C5F736176655F6661696C65642B
:1007A000004F4B2C63616C5F73617665640045524A
:1007B000522C75736167653A63616C5F6C696D6932
:1007C0007473004552522C75736167653A63616CAE
:1007D0005F6C696D6974735F736574004552522C68
:1007E00075736167653A63616C5F6C696D69747399
:1007F0005F736574004552522C75736167653A6387
:10080000616C5F6C696D697473004552522C75732D
:100810006167653A63616C5F7A65726F0045525239
:100820002C75736167653A63616C5F7A65726F5F9F
:10083000736574004552522C75736167653A636144
:100840006C5F7A65726F5F736574004552522C75E8
:10085000736167653A63616C5F7A65726F004552D8
:10086000522C75736167653A736F6E6172004F4BFE
:100870002C736F6E61725F7369676E5F7365743D31
:10088000004552522C75736167653A736F6E6172E1
:100890005F7369676E004552522C75736167653AE4
:1008A000736F6E61725F7369676E004552522C758B
:1008B000736167653A736F6E6172004552522C75B1
:1008C000736167653A63616C5F7369676E00455277
:1008D000522C75736167653A63616C5F7369676E0B
:1008E000004F4B2C6A6F675F7374617274656400AC
:1008F0004552522C6A6F675F626C6F636B65645F11
:100900006C6F7765725F6C696D6974004552522C2B
:100910006A6F675F626C6F636B65645F757070654B
:10092000725F6C696D6974004552522C616E676C20
:10093000655F6E6F745F7265616479004552522C19
:100940006A6F675F72657175697265735F6C696DF7
:10095000697473004552522C6A6F675F626C6F63F3
:100960006B65645F6C6F7765725F6C696D6974004D
:100970004552522C6A6F675F626C6F636B65645F90
:1009800075707065725F6C696D6974004552522CA8
:1009900073746F705F72756E6E696E675F626566A5
:1009A0006F72655F6A6F67004552522C696E76619F
:1009B0006C69645F6A6F675F61726773004552526A
:1009C0002C75736167653A6A6F67004F4B2C6472D0
:1009D000697665725F64697361626C6564004F4B30
:1009E0002C6472697665725F656E61626C65640025
:1009F0004552522C656E5F72657175697265735FE1
:100A0000305F6F725F3100300031004F4B2C7465E6
:100A10006C656D657472793D004552522C75736139
:100A200067653A74656C656D6574727900455252FC
:100A30002C6E6F5F6661756C745F737461746500B2
:100A40004F4B2C6661756C745F636C656172656495
:100A5000004F4B2C73746F70706564004F4B2C7299
:100A6000756E6E696E67004F4B2C63616C5F6465D9
:100A70006661756C74735F6170706C696564006445
:100A8000656661756C7473006C6F61646564004FBA
:100A90004B2C63616C5F6C6F61642C004552522C6F
:100AA00063616C5F736176655F6661696C65640044
:100AB0004F4B2C63616C5F7361766564004F4B2C08
:100AC0006A6F675F73746172746564004552522C7B
:100AD0006A6F675F626C6F636B65645F6C6F77658D
:100AE000725F6C696D6974004552522C6A6F675F62
:100AF000626C6F636B65645F75707065725F6C6963
:100B00006D6974004552522C616E676C655F6E6F43
:100B1000745F7265616479004552522C6A6F675F39
:100B200072657175697265735F6C696D6974730064
:100B30004552522C6A6F675F626C6F636B65645FCE
:100B40006C6F7765725F6C696D6974004552522CE9
:100B50006A6F675F626C6F636B65645F7570706509
:100B6000725F6C696D6974004552522C73746F70BA
:100B70005F72756E6E696E675F6265666F72655FE4
:100B80006A6F67004552522C696E76616C69645FCA
:100B90006A6F675F61726773004552522C757361AB
:100BA00067653A6A004F4B2C6472697665725F64C0
:100BB000697361626C6564004F4B2C647269766581
:100BC000725F656E61626C6564004552522C75738C
:100BD0006167653A65004F4B2C616E676C655F73AA
:100BE00072633D004552522C73746F705F72756E64
:100BF0006E696E675F6265666F72655F6A6F6700D8
:100C0000300031004F4B2C74656C656D65747279E2
:100C10003D0054454C2C0000000000240027002A11
:100C200000000000080002010000030407000000AB
:100C30000000000000000000002300260029000042
:100C4000000000250028002B000404040404040410
:100C5000040202020202020303030303030102046B
:100C6000081020408001020408102001020408102E
:100C700020007A2A163711241FBECFEFD8E0DEBF3E
:100C8000CDBF12E0A0E0B1E0EEE6F5E702C00590CE
:100C90000D92A03DB107D9F726E0A0EDB2E001C06A
:100CA0001D92A933B207E1F716E0CAE3D6E004C00B
:100CB0002197FE010E940738C933D107C9F70E9466
:100CC000CB2C0C94AA3A0C940000FC0180913905BD
:100CD0008530B1F080818823A1F08181882389F05B
:100CE0008281882371F08381882359F08481811166
:100CF00007C08581882329F094E0909339050895F1
:100D000080E00895FC01AC01485E5F4F8FEF9FEFDC
:100D10002191922728E0BC01880F991F77FF04C01A
:100D200031E2832730E193272150A9F7E417F50733
:100D300079F7089580911F0187FF2BC08FEF809373
:100D40001F018091200187FF26C08FEF8093200133
:100D50008091210187FF21C08FEF80932101209195
:100D60002F01309130014091310150913201609159
:100D70002B0170912C0180912D0190912E010E94E8
:100D80002A3A87FD05C080912201837F809322014A
:100D9000089581E0D4CF81E0D9CF81E0DECF0F93F9
:100DA0001F93CF93DF93CDB7DEB76A970FB6F89452
:100DB000DEBF0FBECDBFFE0131968AE1DF011D927D
:100DC0008A95E9F781E08D838E838F8380E090E0C0
:100DD000A0E0B1EC898B9A8BAB8BBC8B80E090E070
:100DE000A0E0B1E48D8B9E8BAF8BB88F8AE1ABE135
:100DF000B1E001900D928A95E1F70BE111E080E1FD
:100E00009BEBF8019183808381E090E09383828360
:100E100080E090E0A0EAB1E484879587A687B78751
:100E2000C8010E948206D80159969C938E935897C8
:100E30006A960FB6F894DEBF0FBECDBFDF91CF919B
:100E40001F910F9108952F923F924F925F926F9250
:100E50007F928F929F92AF92BF92CF92DF92EF924A
:100E6000FF920F931F93CF93DF93CDB7DEB76697B3
:100E70000FB6F894DEBF0FBECDBF9E8B8D8B6A017F
:100E80007B01DC0194968C919497412C512C32017A
:100E9000882391F090962D913D914D915C9193977F
:100EA000CB01B6010E9427382AE037ED43EA5CE324
:100EB0000E9499382B013C01ED89FE892081318106
:100EC00042815381C701B6010E942F3A6F83788710
:100ED00089879A87AD89BE8914968D919D910D90D1
:100EE000BC91A02D8B879C87AD87BE87ED89FE893D
:100EF000848C958CA68CB78C208531854285538552
:100F0000C301B2010E942F3A6F87788B898B9A8B2D
:100F1000A50194016B857C858D859E850E942F3A65
:100F20002F81388549855A850E9428382F85388930
:100F300049895A890E9428382B013C01AD89BE8914
:100F40005896BC91BB83ED89FE89F18DFC83AD89F8
:100F5000BE895A96BC91BD83ED89FE89F38DFE83CF
:100F6000AD89BE895496BC91B983ED89FE89F58916
:100F7000FA83AD89BE8956963C90569757962C9029
:100F80002B813C814D815E810E942A3A87FD0AC0F7
:100F900020E030E0A901C701B6010E942A3A1816E4
:100FA0000CF454C029813A81432D522DC301B20162
:100FB0000E94943818164CF020E030E0A901C701D7
:100FC000B6010E94943887FD41C02AE037ED43EA1C
:100FD0005CE3C701B6010E942F3AA50194010E946B
:100FE0002838762E672E582E492EED89FE89F089F5
:100FF000FB8BAD89BE895196BC91BC8BED89FE8976
:101000000289138984849584A684B7849401A501F8
:101010000E94943887FD12C02B893C89A801672D56
:10102000762D852D942D0E942A3A8B889C88580114
:10103000181624F0872C962CA52CB42CC401D501AD
:10104000ED89FE89848F958FA68FB78FAD89BE8974
:101050005C962D913D914D915C915F976B857C8560
:101060008D859E850E942F3A2F81388549855A8526
:101070000E9428382F85388949895A890E94283842
:101080005B018C019B01AC0169817A81832D922DDA
:101090000E942A3A181674F09501A8016B817C8190
:1010A0008D819E810E94943887FD2CC0A982BA82CE
:1010B000302E212EAD89BE899096CD92DD92ED9293
:1010C000FC92939781E094968C9369817A81832D29
:1010D000922D66960FB6F894DEBF0FBECDBFDF919E
:1010E000CF911F910F91FF90EF90DF90CF90BF9025
:1010F000AF909F908F907F906F905F904F903F90B8
:101100002F900895BB81B983EC81EA833D802E80C6
:10111000D1CF9FB7F89480913306882379F040911E
:101120002F0650913006609131067091320681E0B1
:1011300014161506160617060CF080E09FBF0895DA
:10114000E0911706F0911806309731F09081809168
:1011500019068095892380830895E4E1F6E01786D7
:10116000108A118A128A138A148A158A168A8FB7EE
:10117000F8941486178E138E148E158E168E10A268
:10118000108E178A128E118E13868FBF0C94A008B2
:10119000CF92DF92EF92FF92CF936B017C0120E020
:1011A00030E041EE54E40E942A3A18160CF4A9C02B
:1011B00020E030E041EE54ECC701B6010E949438C3
:1011C00087FDA6C0C0922306D0922406E092250691
:1011D000F0922606D701C601BF7780932706909329
:1011E0002806A0932906B0932A0660912001062EB6
:1011F000000C770B880B990B0E943C39A7019601D4
:101200000E942F3AC1E020E030E0A9010E942A3A72
:1012100087FDC0E0C093210690912106E0911A0657
:10122000F0911B06309741F080911C06992309F438
:1012300076C09081892B808380912106882309F4D0
:1012400072C081E080932206C0902706D0902806C5
:10125000E0902906F0902A0620E030E040E85FE3C5
:10126000C701B6010E94943870E060E087FD2DC090
:10127000A7019601C701B6010E9428389B01AC0165
:1012800060E070E48CE197E40E9499386B017C0186
:1012900020E030E040E85FE30E94943887FD45C0DD
:1012A00020E030E64AE657E4C701B6010E942A3A38
:1012B00018160CF441C020E030E040E05FE3C701C5
:1012C000B6010E9428380E940B398FB7F894611537
:1012D0007105D1F510922C0610922B0610922E0655
:1012E00010922D061092200610921F068FBF672BBA
:1012F00009F047C0CF91FF90EF90DF90CF900C9412
:10130000A008C12CD12C31EEE32E34E4F32E5ACFB9
:10131000C12CD12C21EEE22E24ECF22E53CF908161
:101320008095892388CF8FEF8DCFC12CD12C90E869
:10133000E92E9FE3F92EBFCFC12C80E6D82E8AE696
:10134000E82E87E4F82EB7CF9091200670932C06F4
:1013500060932B06911108C070932E0660932D06A2
:1013600091E090932006C2CF20912D0630912E0659
:101370006217730708F0BACF70932E0660932D069C
:10138000B5CFCF91FF90EF90DF90CF9008958F92DF
:101390009F92AF92BF92CF92DF92EF92FF924B015A
:1013A0005C0169017A0181149104A104B10451F432
:1013B000FF90EF90DF90CF90BF90AF909F908F9075
:1013C0000C94AD0820E030E040E85FE3C701B601CF
:1013D0000E94943887FF06C0C12CD12C80E8E82EEB
:1013E0008FE3F82E2FB7F894D501C401B7FE07C0DC
:1013F00088279927DC0188199909AA09BB098093D4
:101400002F0690933006A0933106B093320681E008
:1014100080933306109234062FBF181419041A044F
:101420001B0424F0F7FAF094F7F8F094C701B60122
:10143000FF90EF90DF90CF90BF90AF909F908F90F4
:101440000C94C8088FB7F89490913406911102C09B
:101450008FBF0895109234061092330610922F0613
:101460001092300610923106109232068FBF60E063
:1014700070E0CB010C94C80890911A0480911B0471
:10148000811182E0892B90911C04911194E0892BA9
:1014900090911D04911198E0892B08954F925F92CD
:1014A0006F927F928F929F92AF92BF92CF92DF9274
:1014B000EF92FF921F932091F405222309F4A1C01B
:1014C0006B017C016091F9057091FA058091FB0533
:1014D0009091FC054090FD055090FE056090FF0541
:1014E000709000068090F5059090F605A090F705A5
:1014F000B090F80560930004709301048093020497
:10150000909303042AE037ED43E25CE30E942F3A14
:101510006093040470930504809306049093070479
:10152000409208045092090460920A0470920B04DD
:101530002AE037ED43E25CE3C301B2010E942F3A97
:1015400060930C0470930D0480930E0490930F0429
:101550008092100490921104A0921204B09213048D
:101560002091050630910606232B29F410921504CC
:1015700010921D0435C08090010690900206A09044
:101580000306B0900406C818D908EA08FB0841E031
:1015900025EFC21621E0D206E104F10408F040E094
:1015A0004093150425EFC21621E0D206E104F104B0
:1015B000F8F68092F0039092F103A092F203B092B9
:1015C000F30310921A049F7711E02EEA37E441E604
:1015D0005EE30E942A3A18160CF010E010931D04E6
:1015E00020911504822F1F91FF90EF90DF90CF90F4
:1015F000BF90AF909F908F907F906F905F904F9033
:1016000008951092150410921D04ECCF90E0FC0197
:10161000EF5DF34F2491FC01E35AF34F3491FC0149
:10162000E75BF34FE491EE23C9F0222339F0233036
:1016300001F1A8F4213019F1223029F1F0E0EE0F88
:10164000FF1FE15CF34FA591B4918FB7F894EC9133
:10165000611126C030953E233C938FBF08952730FB
:10166000A9F02830C9F0243049F7809180008F7D9F
:1016700003C0809180008F7780938000DFCF84B596
:101680008F7784BDDBCF84B58F7DFBCF8091B00099
:101690008F778093B000D2CF8091B0008F7DF9CF4B
:1016A0003E2BDACFCF93DF9390E0FC01E35AF34F68
:1016B0002491875B934FFC0184918823D1F090E0C3
:1016C000880F991FFC01E95EF34FA591B491FC01CD
:1016D000E15CF34FC591D49161110EC09FB7F894AE
:1016E0008C91E22FE0958E238C932881E223E8836E
:1016F0009FBFDF91CF9108958FB7F894EC91E22BC3
:10170000EC938FBFF6CF3FB7F8948091EC039091A4
:10171000ED03A091EE03B091EF0326B5A89B05C0A1
:101720002F3F19F00196A11DB11D3FBFBA2FA92F60
:10173000982F8827BC01CD01620F711D811D911D5D
:1017400042E0660F771F881F991F4A95D1F70895C9
:101750008F929F92AF92BF92CF92DF92EF92FF92C1
:101760004B015C010E94830B6B017C010E94830B87
:101770006C197D098E099F09683E734081059105AA
:10178000A8F321E0821A9108A108B10888EEC80EDA
:1017900083E0D81EE11CF11C81149104A104B10462
:1017A00029F7FF90EF90DF90CF90BF90AF909F9080
:1017B0008F9008952FB7F8946091E8037091E90332
:1017C0008091EA039091EB032FBF08950895089547
:1017D000AF92BF92CF92DF92EF92FF920F931F933F
:1017E000CF93DF936C017B018B01040F151FEB017D
:1017F0005E01AE18BF08C017D10759F06991D60134
:10180000ED91FC910190F081E02DC6010995892BA5
:1018100079F7C501DF91CF911F910F91FF90EF9064
:10182000DF90CF90BF90AF900895FC01538D448D11
:10183000252F30E0842F90E0821B930B541710F07B
:10184000CF96089501970895FC01918D828D981788
:1018500061F0A28DAE0FBF2FB11D5D968C91928D60
:101860009F5F9F73928F90E008958FEF9FEF089591
:10187000FC01918D828D981731F0828DE80FF11D5A
:10188000858D90E008958FEF9FEF0895FC01918D75
:10189000228D892F90E0805C9F4F821B91098F736E
:1018A0009927089580E994E00E94460C21E0892B55
:1018B00009F420E0822F089580E090E0892B29F040
:1018C0000E94520C81110C9400000895FC01A48D1B
:1018D000A80FB92FB11DA35ABF4F2C91848D90E052
:1018E00001968F739927848FA689B7892C93A08935
:1018F000B1898C91837080648C93938D848D9813BF
:1019000006C00288F389E02D80818F7D8083089551
:10191000EF92FF920F931F93CF93DF93EC0181E03F
:10192000888F9B8D8C8D98131AC0E889F9898081E6
:1019300085FF15C09FB7F894EE89FF896083E88919
:10194000F98980818370806480839FBF81E090E00B
:10195000DF91CF911F910F91FF90EF900895F62E98
:101960000B8D10E00F5F1F4F0F731127E02E8C8D32
:101970008E110CC00FB607FCFACFE889F989808177
:1019800085FFF5CFCE010E94660CF1CFEB8DEC0FF9
:10199000FD2FF11DE35AFF4FF0829FB7F8940B8F94
:1019A000EA89FB8980818062CFCF0F931F93CF9309
:1019B000DF938C01D0E0C0E0F801EC0FFD1F6491D3
:1019C000662341F080E994E00E94880C892B11F095
:1019D0002196F2CFCE01DF91CF911F910F91089503
:1019E000682F80E994E00C94880CCF93DF93EC018E
:1019F000888D8823B9F0AA89BB89E889F9898C91F7
:101A000085FD03C0808186FD0DC00FB607FCF7CFB2
:101A10008C9185FFF2CF808185FFEDCFCE010E94B2
:101A2000660CE9CFDF91CF91089520916C0330913E
:101A30006D032817390771F490916A0380916B0345
:101A4000981741F0E0916A03F0E0EA5DFC4F808175
:101A500090E008958FEF9FEF08950895EF92FF9221
:101A60000F931F93CF93DF93DC015C96ED90FC9076
:101A70005D97E114F10479F481E090E013969C9372
:101A80008E93129790E080E0DF91CF911F910F919C
:101A9000FF90EF9008955196ED91FC9152975096DA
:101AA0008C915097982F90950FB75E962C915E97DA
:101AB000122F127021FD6095F8942081112319F1E5
:101AC000282B2083E7012197F1F728E0462F50E0EB
:101AD000308160FF1AC0382B3083E7012197F1F77E
:101AE000BA0175956795215089F7112381F080819E
:101AF000892380830FBF5C968D919C910197F1F7AC
:101B000081E090E0C1CF2923DCCF3923E5CF90815C
:101B1000892BEFCF20916C0330916D032817390783
:101B200061F480916B0320916A0390E0805C9F4F89
:101B3000821B91098F739927089590E080E00895A2
:101B400020916C0330916D0328173907B9F49091F7
:101B50006A0380916B03981789F0E0916A03F0E0C3
:101B6000EA5DFC4F808120916A0330E02F5F3F4F98
:101B70002F73332720936A0390E008958FEF9FEF30
:101B800008952F923F924F925F926F927F928F9221
:101B90009F92AF92BF92CF92DF92EF92FF920F93FC
:101BA0001F93CF93DF93CDB7DEB7E6970FB6F894C8
:101BB000DEBF0FBECDBF69AB7AAB8BAB9CAB11E088
:101BC00088E895E00E948A0D181619060CF074C278
:101BD00088E895E00E94A00D97FD6EC2E091B005E7
:101BE000E11107C0893561F71093B0058093A7050F
:101BF000E7CFE13049F4893509F0FBC022E02093BA
:101C0000B0058093A805DCCF91E09E0F9093B005BE
:101C1000F0E0E857FA4F878F993090F289A99AA996
:101C2000ABA9BCA98093B1059093B205A093B3056D
:101C3000B093B40510920C06E7EAF5E0A8E8B5E029
:101C4000BEA7ADA730E020E08191280F311D3327DA
:101C50004FEA55E04E175F07B9F72090ED05009168
:101C6000EC05312C8091AF05D101A857BA4F6D0119
:101C70008217130669F110930B060B3029F5FD014D
:101C8000E75AFF4F8081882329F08091EE0581502B
:101C90008093EE05F601E75AFF4F1082C1010196CD
:101CA0006BE070E00E94D1378093ED0580910706CC
:101CB000909108068F3F980709F49BC00196909376
:101CC00008068093070695C00F5F0093EC05E2CFEE
:101CD0006091AA058091A905762F682F90E080E099
:101CE0000E943A394B015C0120E030E040E050E4D2
:101CF0000E942A3A87FD80C020E030E042E852E4AA
:101D0000C501B4010E94943818160CF475C0F09007
:101D1000F405FF2009F472C04090F5055090F605D7
:101D20006090F7057090F805A3019201C501B40118
:101D30000E9427389F7720E030E048EC51E40E9471
:101D40002A3A1816FCF48091090690910A06019629
:101D500090930A0680930906A3019201C501B4017C
:101D60000E942A3A20E030E048EC51E4181624F0B2
:101D700020E030E048EC51ECC301B2010E94283869
:101D80004B015C010B30E9F5F601E75AFF4F80810A
:101D9000882329F08091EE0581508093EE05F601AD
:101DA000E75AFF4FF082FF2081F0F101EE0FFF1F95
:101DB000EE0FFF1FE857FA4F85A696A6A7A6B0AA72
:101DC0008091EE058F5F8093EE05C10101966BE077
:101DD00070E00E94D1378093ED05F11016C010938A
:101DE0000B0680910706909108068F3F980709F02F
:101DF00065CF1092B005E4CEF12CC4CFFF24F3944C
:101E0000C1CF0F5F0093EC05CACF8091EE05882308
:101E100051F19091EC05A1EEB5E080E0B12C98175E
:101E200029F12D912223B9F024E0B29EF001112472
:101E3000EE24E394F12CEC0EFD1EEE0EFF1EEDA53C
:101E4000FEA545A556A567A570A9F7014083518356
:101E500062837383B3948F5F2DA53EA52C5F3F4FA4
:101E60003EA72DA7DCCF10930B06C3CFC12CD12CDE
:101E70007601BB2009F488C0D12C8B2C912C8D2DA0
:101E800090E09C012F5F3F4F281539050CF050C0A2
:101E9000C12CA401481B590B5EAB4DAB2C2C312C33
:101EA00071015FEFE51AF50A8DA99EA9E816F906FA
:101EB000ECF5220C331C220C331CA1E0B0E0AC0F7B
:101EC000BD1F2A0E3B1ED1012D913D914D915C917C
:101ED0002DA73EA74FA758ABEE0CFF1CEE0CFF1C26
:101EE000E1E0F0E0EC0FFD1FEE0EFF1ED7014D907C
:101EF0005D906D907C90A30192016DA57EA58FA54C
:101F000098A90E942A3A18167CF4F1014082518265
:101F1000628273822DA53EA54FA558A9D7012D93A6
:101F20003D934D935C931397C394B8CFD394A7CFAD
:101F30008B2D869590E0FC01EE0FFF1FEE0FFF1F2B
:101F400021E030E02C0F3D1FE20FF31FC080D18055
:101F5000E280F380B0FC18C0FC013197EE0FFF1F48
:101F6000EE0FFF1FE20FF31F208131814281538169
:101F7000C701B6010E94283820E030E040E05FE36E
:101F80000E942F3A6B017C018091EF0581116DC099
:101F9000C092F005D092F105E092F205F092F305BF
:101FA0001093EF05C092F505D092F605E092F70583
:101FB000F092F80560912101062E000C770B880B3A
:101FC000990B0E943C394B015C01409027015090D5
:101FD00028016090290170902A01A3019201C70194
:101FE000B6010E942738A50194010E942F3A609300
:101FF000F9057093FA058093FB059093FC05A30106
:1020000092016091F0057091F1058091F205909137
:10201000F3050E942738A50194010E942F3A60938E
:10202000FD057093FE058093FF059093000689A936
:102030009AA9ABA9BCA98093010690930206A0932C
:102040000306B09304061093F40510920B068091DA
:102050000506909106068F3F980709F4CACE0196AF
:102060009093060680930506C4CE2CEC3CEC4CEC19
:102070005EE36091F0057091F1058091F205909119
:10208000F3050E942F3A4B015C012AE939E949E145
:102090005FE3C701B6010E942F3A9B01AC01C50165
:1020A000B4010E9428386093F0057093F105809385
:1020B000F2059093F30576CF8091B1059091B2052A
:1020C000A091B305B091B40529A93AA94BA95CA97F
:1020D000281B390B4A0B5B0BDA01C901853F914084
:1020E000A105B105A8F181E080930B0690910C0643
:1020F00091112EC080930C068091ED054091EC0566
:1021000090E09C0128573A4F4B30D9F5F901E75A36
:10211000FF4F4081442329F04091EE054150409308
:10212000EE05275A3F4FD9011C9201966BE070E0F3
:102130000E94D1378093ED058091070690910806A3
:102140008F3F980729F00196909308068093070621
:10215000E6960FB6F894DEBF0FBECDBFDF91CF91EC
:102160001F910F91FF90EF90DF90CF90BF90AF90B5
:102170009F908F907F906F905F904F903F902F90A7
:1021800008954F5F4093EC05CCCF2F923F924F9232
:102190005F926F927F928F929F92AF92BF92CF92F7
:1021A000DF92EF92FF920F931F93CF93DF9300D0B4
:1021B00000D000D0CDB7DEB79C838B830E94DA0BB2
:1021C0002B013C011E8210E000E0912C1D8219823F
:1021D0000E94DA0B641975098609970964387340FF
:1021E00081059105D8F01D828D8126960FB6F89451
:1021F000DEBF0FBECDBFDF91CF911F910F91FF903A
:10220000EF90DF90CF90BF90AF909F908F907F9096
:102210006F905F904F903F902F9008950E94DA0B3F
:102220006B017C010E94220AC701B6010E94C10D08
:10223000F091F405FA83FF2309F485C08091050627
:1022400090910606892B09F47EC080910106909139
:102250000206A0910306B0910406C81AD90AEA0A38
:10226000FB0A25EFC21621E0D206E104F10408F0D2
:102270006AC080910B06811166C0C090F505D090B0
:10228000F605E090F705F090F8052090F005309005
:10229000F105A090F205B090F30520E030E0A9012F
:1022A000B101C5010E942A3A18160CF449C020E079
:1022B00030E0A901B601C7010E942A3A18160CF0B5
:1022C00042C08D818823D1F02CEC3CEC4CEC5EE3D9
:1022D0006E81712F802F992D0E942F3A4B015C0146
:1022E0002AE939E949E15FE3B601C7010E942F3AC3
:1022F000A50194010E9428386B017C01E981EF5F00
:10230000E9836DE270E080E090E00E94A80BFA8122
:10231000FD83CE821D2D0E2D9F2C2981253009F0A5
:1023200057CFFD81FF2309F45ECF8E81912FA02F1F
:10233000B92DEB81FC8180839183A283B38354CF39
:1023400061017501BECF6AE070E080E090E00E941C
:10235000A80BE3CF20910303260F3327331F21322D
:102360003105ECF420916604FC0190E080E024301B
:1023700069F082E00895A09103032191AC014D51D1
:102380005D4FA40FB52FB11D2C930196861798F3BE
:1023900080910303680F6093030380E0089581E058
:1023A00008951092660481E08093650410924004C1
:1023B00061E082E10E94060B61E083E10E94060B6E
:1023C000E9EBF0E080818E7F808380818D7F808348
:1023D00088E48093B80085E48093BC000895CF938F
:1023E000DF9391E09093E2028823B9F0C091B800A6
:1023F000D091BA008091BC008A7B8093BC0060E0E1
:1024000082E10E94060B60E083E10E94060B0E94BD
:10241000D111D093BA00C093B800DF91CF91089545
:102420008F929F92AF92BF92CF92DF92EF92FF92E4
:102430000F931F93CF93DF93D0918F04D13208F085
:10244000D7C0182FC0918E040E94830B6B017C01B2
:102450008091660481116BC082E0809366041093C2
:1024600065048FEF8093640410926304D093620438
:10247000AEE6B4E0E2E4F4E080E0D81391C010925C
:10248000410480914104CC0FC82BC093410480913A
:102490004004813009F088C0109240040E94830BF0
:1024A0006B017C01809141048093BB0080916804A2
:1024B00090916904A0916A04B0916B04892B8A2BD6
:1024C0008B2BA1F00E94830B00916804109169048A
:1024D00020916A0430916B046C197D098E099F0963
:1024E000061717072807390708F442C08091BC0077
:1024F00083FDD8CF85EC8093BC000E94830B6B01D9
:102500007C0180916604823009F450C0809164049B
:102510008F3F09F46FC080916404803209F46CC06D
:1025200080916404803309F469C084E026C08091FE
:10253000680490916904A0916A04B0916B04892B9E
:102540008A2B8B2B09F484CF0E94830B8090680424
:1025500090906904A0906A04B0906B046C197D0996
:102560008E099F0986169706A806B90608F070CF4F
:10257000809167040E94EF1185E010926D04109223
:102580008F0410926C04DF91CF911F910F91FF90F7
:10259000EF90DF90CF90BF90AF909F908F90089575
:1025A0009D9191938F5F69CF85EEA5CF809168044F
:1025B00090916904A0916A04B0916B04892B8A2BD5
:1025C0008B2B09F49ECF0E94830B0091680410911D
:1025D000690420916A0430916B046C197D098E099D
:1025E0009F09061717072807390708F08ACFC0CFB9
:1025F00081E0C3CF80E0C1CF82E0BFCF83E0BDCF19
:10260000E0911F0480911E04E81730F4F0E0E05ED2
:10261000FB4F808190E008958FEF9FEF0895909198
:102620001F0480911E042FEF3FEF981748F4E92F05
:10263000F0E0E05EFB4F208130E09F5F90931F044D
:10264000C901089580911E0490911F04891B990B64
:102650000895CF92DF92EF92FF920F931F93CF9343
:10266000DF937C01CB018A0120916C04222389F045
:10267000EB016B01C40ED51ECC15DD0569F0699127
:10268000D701ED91FC910190F081E02DC7010995F2
:10269000F3CF642F0E94AA11C801DF91CF911F913F
:1026A0000F91FF90EF90DF90CF900895CF93DF933D
:1026B0001F92CDB7DEB7698320916C042223F9F015
:1026C00020918F04203258F021E030E0FC01338368
:1026D000228390E080E00F90DF91CF910895809168
:1026E0006D04E82FF0E0E259FB4F998190838F5FF2
:1026F00080936D0480938F0481E090E0ECCF61E0E3
:10270000CE0101960E94AA11F7CF90E080E00895D3
:10271000CF93DF930E94AD08C4E1D6E01A8661E052
:102720008A810E94060B8FB7F8941B862F89388DFB
:102730003A8F298F8FBFDF91CF910C94A0088091A1
:102740001A0481110AC080911B04811106C0809176
:102750001C04811102C080911D0408958F929F92E4
:10276000AF92BF92CF92DF92EF92FF920F931F939F
:102770004091390508EE13E020E030E0443021F4C8
:102780000CED15E020E030E050917C03511141C088
:10279000C0907803D0907903E0907A03F0907B03A7
:1027A0004B015C018C189D08AE08BF0875016401DF
:1027B0000C151D052E053F0518F451E050931B0420
:1027C000C090F003D090F103E090F203F090F30397
:1027D0006C197D098E099F09061717072807390705
:1027E00018F481E080931A044430B1F40E949F13DE
:1027F000882391F085E0809339051F910F91FF9018
:10280000EF90DF90CF90BF90AF909F908F900C94FF
:10281000881310921B04D4CF1F910F91FF90EF905B
:10282000DF90CF90BF90AF909F908F9008954F9280
:102830005F926F927F928F929F92AF92BF92CF9250
:10284000DF92EF92FF920F931F93CF93DF9300D00D
:1028500000D000D0CDB7DEB7009709F4C7C09A8387
:102860008983FC01208101962032C9F337EF320FB2
:102870003230A8F32D3099F32D32C1F59A83898334
:10288000812C912C30E8A32E3FEBB32E09811A81C5
:102890001E830D8319821A821B821C8280E0ED81C7
:1028A000FE81119190ED910F9A3058F5AAE0B0E0B9
:1028B00029813A814B815C810E940D38AB01BC01BA
:1028C000812F110F990BC097092E000CAA0BBB0B7F
:1028D0008C019D01040F151F261F371F09831A83C2
:1028E0002B833C8381E0FE83ED83D9CF2B3211F41F
:1028F0009A838983812C912C20E8A22E2FE3B22E7B
:10290000C5CF1E3209F076C00D811E810B5F1F4FAF
:102910001E830D83C12CD12C7601C394412C512CE4
:102920003201119190ED910F9A3008F05DC0AAE04C
:10293000B0E0A30192010E940D38212F110F330B3B
:10294000205331092901330F66087708460E571EB8
:10295000681E791EA70196010E940D386B017C014B
:1029600081E00D811E810E171F07D9F612E0C116F6
:10297000D104E104F10408F43FC0C301B2010E9494
:102980003A392B013C01C701B6010E943A399B013B
:10299000AC01C301B2010E9499386B017C016981CD
:1029A0007A818B819C810E943A39A70196010E940D
:1029B0002838A50194010E942F3A26960FB6F89464
:1029C000DEBF0FBECDBFDF91CF911F910F91FF9062
:1029D000EF90DF90CF90BF90AF909F908F907F90BF
:1029E0006F905F904F9008958111C0CF60E070E0CC
:1029F000CB01E3CF8823D1F3C12CD12C7601CFCFEB
:102A00001092D4021092D9021092D0021092D102E8
:102A10001092D2021092D3021092D5021092D602D6
:102A20001092D7021092D8020895CF92DF92EF92BF
:102A3000FF92209123013091240140912501509172
:102A400026010E9427386B017C0120E030E044E33E
:102A500053E40E942A3A18163CF420E030E044EB9C
:102A600053E4C701B601EDCF20E030E044E353EC7E
:102A7000C701B6010E94943887FF0BC020E030E008
:102A800044EB53E4C701B6010E9428386B017C0176
:102A9000EBCF60911F01062E000C770B880B990B72
:102AA0000E943C39A70196010E942F3AFF90EF90B7
:102AB000DF90CF90089520912F0130913001409107
:102AC00031015091320160912B0170912C01809164
:102AD0002D0190912E010E949438881F8827881F0D
:102AE0000895809122018C708C3011F40C945B1548
:102AF00080E0089590912201937081E0933009F075
:102B000080E00895EF92FF920F931F93CF93DF938E
:102B100000D000D000D0CDB7DEB710912201809157
:102B20007C03882311F111FBEE24E0F8FF24F394D9
:102B300011E0009114040111009115040E949F13EB
:102B4000212F3E2D4F2D502F682F71E080E090E017
:102B500026960FB6F894DEBF0FBECDBFDF91CF91A2
:102B60001F910F91FF90EF900895129511700E94A0
:102B70007A15E82E0E947115F82EDBCF8F929F9266
:102B8000AF92BF92CF92DF92EF92FF920F931F937B
:102B9000CF93DF93A0910D06B0910E06109709F523
:102BA0008091100690911106A0911206B091130623
:102BB0000196A11DB11D8093100690931106A0935C
:102BC0001206B093130680E0DF91CF911F910F9111
:102BD000FF90EF90DF90CF90BF90AF909F908F903D
:102BE00008958C0180910F0691E090936C0480937E
:102BF0008E0410926D0410928F04ED91FC91119748
:102C00000190F081E02D6CE0CD01099580E00E94FB
:102C10001012C82F8111C4CFD0910F060E94830BD0
:102C20006B017C0180916604811164C081E0809316
:102C30006604809365049FEF90936404109263048C
:102C4000809362048093410480914104DD0FD82B6E
:102C5000D093410480914004813009F0A6C01092C5
:102C600040040E94830B6B017C018091410480939E
:102C7000BB008091680490916904A0916A04B091AE
:102C80006B04892B8A2B8B2BA1F00E94830B8090E5
:102C9000680490906904A0906A04B0906B046C1969
:102CA0007D098E099F0986169706A806B90608F4BD
:102CB00042C08091BC0083FDD8CF85EC8093BC00DE
:102CC0000E94830B6B017C0180916604813009F4C2
:102CD0006EC080916304823008F08BC080916304E1
:102CE000A2E4B4E0E0E2F4E0C81749F19D919193C9
:102CF000CF5FFACF8091680490916904A0916A0433
:102D0000B0916B04892B8A2B8B2B09F48BCF0E94FB
:102D1000830B8090680490906904A0906A04B0903E
:102D20006B046C197D098E099F0986169706A80603
:102D3000B90608F077CF809167040E94EF111092D6
:102D40001F04C0931E04C23009F02ACF80910D06E3
:102D500090910E06DC01ED91FC910084F185E02D4F
:102D6000099502970CF41CCF80910D0690910E06E8
:102D7000DC01ED91FC910284F385E02D0995C82FCB
:102D800080910D0690910E06DC01ED91FC9102847C
:102D9000F385E02D099520E03C2F22273F70282B5A
:102DA000F8013183208381E00FCF85EE87CF8091BA
:102DB000680490916904A0916A04B0916B04892B16
:102DC0008A2B8B2B09F480CF0E94830B80906804A0
:102DD00090906904A0906A04B0906B046C197D090E
:102DE0008E099F0986169706A806B90608F06CCFCB
:102DF000A2CF82E075CFEF92FF920F931F93CF93F4
:102E0000DF9300D000D000D0CDB7DEB78C011E829A
:102E10001D821C821B821A821982CE0105960E9495
:102E2000BE1581110FC0F12C8F2D26960FB6F89488
:102E3000DEBF0FBECDBFDF91CF911F910F91FF90ED
:102E4000EF9008958BE6E82E87E1F82EC7010197F1
:102E5000F1F7CE0103960E94BE15882321F3C70126
:102E60000197F1F7CE0101960E94BE15F82E882336
:102E7000D1F26D817E818B819C8129813A81AC0167
:102E8000461B570B4130E8E05E07A4F19051A901C1
:102E9000461B570B4130E8E05E078CF13051861736
:102EA00097072CF4562F472FBC01852F942F2817F6
:102EB00039070CF4C901681779070CF4BC0177FFD6
:102EC00023C0705F072E000C880B990B0E943C39C1
:102ED00020E030E044EB53E40E942F3A20E030E061
:102EE00040E859E30E942F3AF8016083718382839E
:102EF00093839ACF4115584F54F6905FC8CF411530
:102F0000584F6CF6305FCBCF611580E17807D4F273
:102F10007051D8CF2F923F924F925F926F927F92D3
:102F20008F929F92AF92BF92CF92DF92EF92FF92D9
:102F30000F931F93CF93DF93CDB7DEB72E970FB6C6
:102F4000F894DEBF0FBECDBF9E878D870E94DA0B3F
:102F50001B012C011E8219861A861B861C8610E016
:102F600000E0B12CA12C912C1F820E94DA0B621977
:102F70007309840995096438734081059105D8F077
:102F800010E0812F2E960FB6F894DEBF0FBECDBF96
:102F9000DF91CF911F910F91FF90EF90DF90CF9035
:102FA000BF90AF909F908F907F906F905F904F9069
:102FB0003F902F90089519821A821B821C82CE01A5
:102FC00001960E94FB168887882309F444C0798003
:102FD0008A80FB81FD836C802E81222309F453C0FB
:102FE00029853A854B855C85672D782D8F2F962D09
:102FF0000E9427386B017C0120E030E044E353E479
:103000000E942A3A18163CF420E030E044EB53E4E6
:10301000C701B601EDCF20E030E044E353ECC70137
:10302000B6010E94943887FF0BC020E030E044EBEB
:1030300053E4C701B6010E9428386B017C01EBCF35
:10304000C701B6019F7720E030E040E251E40E94E2
:103050002A3A1816C4F466E070E080E090E00E941E
:10306000A80B2F81253009F080CF112309F488CFD8
:10307000802F9B2DAA2DB92DED85FE858083918310
:10308000A283B3837ECF112351F123E333E343E3E0
:103090005FE3602F7B2D8A2D992D0E942F3A6B01C3
:1030A0007C012AE939E949E95EE3672D782D8D81B4
:1030B000962D0E942F3AA70196010E942838062FCC
:1030C000B72EA82E992E8F818F5F8F83E885EE8390
:1030D00079868A86FD81FB876C861E2FBCCF072DE3
:1030E000B82CAD80962CEFCF2F923F924F925F92EB
:1030F0006F927F928F929F92AF92BF92CF92DF9208
:10310000EF92FF920F931F93CF93DF93CDB7DEB76C
:103110002D970FB6F894DEBF0FBECDBF2B013C013B
:103120001A01890119821A821B821C82CE01019622
:103130000E94FB168D87882309F42AC129813A81D0
:103140004B815C812D833E834F835887CA01B9012F
:103150000E9415154B015C018091D902882309F466
:103160005CC08091D5029091D602A091D702B09117
:10317000D80289879A87AB87BC879C01AD01C501BE
:10318000B4010E9427386B017C0120E030E044E369
:1031900053E40E942A3A18163CF420E030E044EB55
:1031A00053E4C701B601EDCF20E030E044E353EC37
:1031B000C701B6010E94943887FF0BC020E030E0C1
:1031C00044EB53E4C701B6010E9428386B017C012F
:1031D000EBCF20E030E048EC51E4C701B6019F7727
:1031E0000E942A3A1816CCF420E030E0A901C70169
:1031F000B6010E942A3A20E030E048EC51E487FF13
:1032000004C020E030E048EC51EC69857A858B857C
:103210009C850E9428384B015C018092D5029092D7
:10322000D602A092D702B092D80281E08093D90250
:103230009091D4029111C6C08092D0029092D10296
:10324000A092D202B092D3028093D402C090D00256
:10325000D090D102E090D202F090D302C092F40359
:10326000D092F503E092F603F092F70325E33AEFEC
:103270004EE85CE3C701B6010E942F3A6093F80361
:103280007093F9038093FA039093FB032D813E81A1
:103290004F8158852093FC033093FD034093FE0338
:1032A0005093FF038091DA029091DB02A091DC023F
:1032B000B091DD020097A105B10581F0A301920153
:1032C000281B390B4A0B5B0BDA01C9018093DE0224
:1032D0009093DF02A093E002B093E1024092DA0201
:1032E0005092DB026092DC027092DD024092780321
:1032F0005092790360927A0370927B0310921B04C0
:103300000E947115B82E882309F483C020E030E0B4
:1033100040E85FE360912B0170912C0180912D01B9
:1033200090912E010E942738A70196010E942A3A07
:103330001816B4F020E030E040E85FE360912F0120
:103340007091300180913101909132010E942838B2
:10335000A70196010E949438B82EBB1CBB24BB1C4D
:10336000B0921C042114310431F0D101CD92DD92D0
:10337000ED92FC9213970115110551F02D813E81BC
:103380004F815885D8012D933D934D935C931397AE
:103390008D852D960FB6F894DEBF0FBECDBFDF91A1
:1033A000CF911F910F91FF90EF90DF90CF90BF9042
:1033B000AF909F908F907F906F905F904F903F90D5
:1033C0002F90089523E333E343E35FE36091D0025A
:1033D0007091D1028091D2029091D3020E942F3A33
:1033E0006B017C012AE939E949E95EE3C501B401D1
:1033F0000E942F3A9B01AC01C701B6010E942838F8
:103400006093D0027093D1028093D2029093D30242
:103410001DCF10921C04A6CF8F929F92AF92BF92A5
:10342000CF92DF92EF92FF926B017C01C092160463
:10343000D0921704E0921804F092190480917C0352
:10344000882309F48BC08FB7F8948090350690904C
:103450003606A0903706B09038068FBFC501B4017C
:103460000E943C3926E636E646EE5DE30E942F3A9E
:103470006093F4037093F5038093F6039093F7033E
:1034800025E33AEF4EE85CE30E942F3A6093F8039D
:103490007093F9038093FA039093FB031092FC035B
:1034A0001092FD031092FE031092FF038091DA0246
:1034B0009091DB02A091DC02B091DD020097A105A2
:1034C000B10581F0A7019601281B390B4A0B5B0B54
:1034D000DA01C9018093DE029093DF02A093E0023B
:1034E000B093E102C092DA02D092DB02E092DC02F9
:1034F000F092DD02C0927803D0927903E0927A03D1
:10350000F0927B0381E08093140410921B04B7FEB9
:1035100008C0B094A09490948094811C911CA11C2C
:10352000B11C21E039E9831631E09306A104B1040E
:103530000CF420E020931C04C701B6010E944E0A3F
:1035400080911404811180911504FF90EF90DF9019
:10355000CF90BF90AF909F908F90089530E020E083
:1035600050E040E0C7010E9474188091D90288237E
:10357000A9F08091780390917903A0917A03B0919A
:103580007B03B701A601481B590B6A0B7B0B81E03B
:10359000453F51406105710508F080E080931404B7
:1035A000CBCFFC0101900020E9F73197AF01481B18
:1035B000590BBC0180E994E00C94E80BCF93DF93A6
:1035C0000E94D50CEC018DEA91E00E94D11A8C0F7B
:1035D0009D1FDF91CF9108954F925F926F927F92DE
:1035E0008F929F92AF92BF92CF92DF92EF92FF9213
:1035F0000F931F93CF93DF936B017C010E940C1AF2
:10360000C701B6010E94AE1380913905843009F0DC
:103610007CC10E949F13882391F0DF91CF911F916D
:103620000F91FF90EF90DF90CF90BF90AF909F9061
:103630008F907F906F905F904F900C948813809143
:103640001504882309F47DC22AE037ED43E25CE3E8
:1036500060916F0370917003809171039091720378
:103660000E942F3A4B015C01809273039092740385
:10367000A0927503B09276030E947115412C512CD3
:10368000612C91EC792E882309F455C240902B01CE
:1036900050902C0160902D0170902E0120E030E0C0
:1036A00040E051ECC301B2010E942A3A18162CF0F6
:1036B000412C512C612C01EC702EC0902F01D09028
:1036C0003001E0903101F090320120E030E040E044
:1036D00051E4C701B6010E94943820E030E040E791
:1036E00051EC87FF17C2C301B2010E94943887FDD5
:1036F000E9C120E030E040E751E4C301B2010E949B
:103700002A3A181634F4412C512CD0E76D2ED1E40E
:103710007D2E20E030E040E751ECC701B6010E9469
:10372000943887FD29C020E030E040E751E4C7012C
:10373000B6010E942A3A181634F1A3019201C7017A
:10374000B6010E94943887FF0AC0C12CD12CE12C0D
:10375000F1E4FF2E412C512C612CA1EC7A2E8091AA
:103760001404811120C010928405109285051092D6
:1037700086051092870551CFC12CD12CC0E7EC2EC5
:10378000C1ECFC2EDACFC12CD12CB0E7EB2EB1E48A
:10379000FB2ED3CFC12CD12CE0E7EE2EE1ECFE2E98
:1037A00026013701DCCF25E33AEF4EE85CE3C301A5
:1037B000B2010E942F3A8B01D82FC92F562E612EAD
:1037C000782E492E25E33AEF4EE85CE3C701B601B7
:1037D0000E942F3A6B017C0120910C0430910D0462
:1037E00040910E0450910F04C501B4010E94273886
:1037F0004B015C019601A701B8018D2F9C2F0E94FF
:103800002A3A18163CF48601DE2DCF2DC52CD62C75
:10381000E72CF42CB501A4018AE395E00E9423076C
:103820004B015C019B01AC01B8018D2F9C2F0E94C4
:103830002A3A181674F09401A501B601C7010E9436
:1038400094388401DA2DCB2D87FF03C08601DE2D4D
:10385000CF2DC801AD2FBC2F809384059093850593
:10386000A0938605B09387052091F8033091F90362
:103870004091FA035091FB03B8018D2F9C2F0E94B9
:103880002738AB01BC018FE595E00E9423076B014F
:103890007C0120E030E041EE54EC0E94943887FD3A
:1038A00026C020E030E041EE54E4C701B6010E949A
:1038B0002A3A18161CF181E080931E0660E0809180
:1038C00016060E94060BC701B601DF91CF911F912A
:1038D0000F91FF90EF90DF90CF90BF90AF909F90AF
:1038E0008F907F906F905F904F900C94C808C12C80
:1038F000D12C51EEE52E54ECF52EDDCFC12CD12C80
:1039000041EEE42E44E4F42ED6CF0E9489088823A9
:1039100009F4C5C0C0902306D0902406E090250687
:10392000F090260620E030E0A901C701B6010E9410
:103930009438882389F180917C03882309F456C048
:103940008FB7F8948090350690903606A090370691
:10395000B09038068FBF60912001062E000C770BC7
:10396000880B990B0E943C39A70196010E942F3ABF
:1039700020E030E0A9010E942A3A87FD2AC080E9B0
:10398000881681E09806A104B10434F00E94AD08C5
:1039900082ED95E00E94DE1A0E948908882309F4CE
:1039A0007EC081E080931E0660E080911606DF9164
:1039B000CF911F910F91FF90EF90DF90CF90BF902C
:1039C000AF909F908F907F906F905F904F900C94EE
:1039D000060B81E788168EEF98068FEFA806B806CB
:1039E000DCF60E94AD0885EB95E0D4CF0E947115FE
:1039F000882391F280911404882371F28090F4035B
:103A00009090F503A090F603B090F70320E030E02B
:103A1000A901C701B6010E942A3A1816B4F42DEC88
:103A20003CEC4CE45EE360912F0170913001809199
:103A30003101909132010E9427389B01AC01C501F0
:103A4000B4010E942A3A87FF25C020E030E0A90196
:103A5000C701B6010E94943887FF9ECF2DEC3CEC45
:103A60004CE45EE360912B0170912C0180912D015B
:103A700090912E010E9428389B01AC01C501B40130
:103A80000E94943818160CF487CF0E94AD088BE77B
:103A900095E080CF0E94AD0888E995E07BCF8091CA
:103AA0007703882309F4B9CD80911404882309F49D
:103AB000B4CD80911B048111B0CD80911C04811183
:103AC000ACCD6FCF20E030E040E751ECC701B6014C
:103AD0000E94943887FD5ECE20E030E040E751E45C
:103AE000C701B6010E942A3A412C512C30E7632EBF
:103AF00031EC732E18160CF020CEC12CD12C60E7BF
:103B0000E62E61E4F62E412C512C70E7672E71EC05
:103B1000772E25CEC301B2010E949438C12CD12C3E
:103B2000E12C11E4F12E87FFE4CD412C512C20E74C
:103B3000622E21EC722EC12CD12CE12C81E4F82EC6
:103B40000ECEDF91CF911F910F91FF90EF90DF90FC
:103B5000CF90BF90AF909F908F907F906F905F902D
:103B60004F9008958F929F92AF92BF920F931F93A1
:103B7000CF93DF93CDB7DEB7A1970FB6F894DEBF32
:103B80000FBECDBF19A2423008F44AE08E010F5D8E
:103B90001F4F842E912CB12CA12CA50194010E94C1
:103BA000E537E62FB901CA01EA30F4F4E05DD80147
:103BB000EE938D01232B242B252B79F790E080E0C9
:103BC000109719F0CD010E94D11AA1960FB6F89462
:103BD000DEBF0FBECDBFDF91CF911F910F91BF9080
:103BE000AF909F908F900895E95CE1CFCF92DF92E4
:103BF000EF92FF92CF93DF936C01990FEE08FF08CD
:103C0000F7FE17C08DE20E94F00CEC0166277727C3
:103C1000CB016C197D098E099F094AE00E94B21DF3
:103C20008C0F9D1FDF91CF91FF90EF90DF90CF9091
:103C300008954AE0C701B601DF91CF91FF90EF9060
:103C4000DF90CF900C94B21D4F925F926F927F9253
:103C50008F929F92AF92BF92CF92DF92EF92FF929C
:103C60000F931F93CF936B017C01742EAC019B01CA
:103C70000E949C3A882399F080EB91E0CF911F91AC
:103C80000F91FF90EF90DF90CF90BF90AF909F90FB
:103C90008F907F906F905F904F900C94D11A460157
:103CA0005701E894B7F82FEF3FEF4FE75FE7C50103
:103CB000B4010E949C3A81110DC02FEF3FEF4FE7F6
:103CC0005FE7C501B4010E94943818161CF484EB18
:103CD00091E0D4CF2FEF3FEF4FE75FE4C701B6018C
:103CE0000E942A3A18161CF488EB91E0C7CF2FEFF8
:103CF0003FEF4FE75FECC701B6010E94943887FDA4
:103D0000F3CF20E030E0A901C701B6010E9494384A
:103D100010E000E087FF08C08DE20E94F00C8C01EB
:103D2000F7FAF094F7F8F094C0E060E070E080E01B
:103D30009FE37C1641F020E030E040E251E40E9435
:103D40009938CF5FF6CFA70196010E9428382B0142
:103D50003C010E940B394B015C014AE00E94B21DFC
:103D60007C01E00EF11ECC23B1F1C501B4010E942B
:103D70003A399B01AC01C301B2010E9427384B01C3
:103D80005C018EE20E94F00CE80EF91EC15018F1A1
:103D900020E030E040E251E4C501B4010E942F3A36
:103DA0002B013C010E940B394B01B12CA12C4AE0A4
:103DB000C501B4010E94B21DE80EF91EC501B4018F
:103DC0000E943A399B01AC01C301B2010E9427381D
:103DD0004B015C01DBCFC701CF911F910F91FF9089
:103DE000EF90DF90CF90BF90AF909F908F907F909B
:103DF0006F905F904F9008950C94241E8BEE92E08C
:103E00000E94D50C60912B0170912C0180912D01A5
:103E100090912E0146E050E00E94FC1E8FED92E052
:103E20000E94D50C60912F01709130018091310179
:103E30009091320146E050E00E94FC1E8BEC92E033
:103E40000E94D50C0E947115811104C084EC92E08F
:103E50000C94DE1A87EC92E0FBCF8AEA92E00E9493
:103E6000D50C6091230170912401809125019091DE
:103E7000260146E050E00E94FC1E88E992E00E9484
:103E8000D50C6091270170912801809129019091B2
:103E90002A0146E050E00E94FC1E86E892E00E9463
:103EA000D50C0E947A15811104C08FE792E00C9422
:103EB000DE1A82E892E0FBCFCF93DF93D0E0C0E040
:103EC000009719F00E94D11AEC018DEA91E00E944E
:103ED000D11A8C0F9D1FDF91CF910895CF93DF935F
:103EE000682F70E090E080E04AE00E94B21DEC0193
:103EF0008DEA91E00E94D11A8C0F9D1FDF91CF9126
:103F00000895CF930E943C0AC82F84EB93E00E944F
:103F1000D50C8C2F0E946E1F83EA93E00E94D50C73
:103F200080913905843089F184E893E00E94DE1A9B
:103F300084E793E0CC2331F180911A04882321F0A7
:103F400089E593E00E94DE1A80911B04882321F00A
:103F500082E493E00E94DE1A80911C04882321F001
:103F60008BE293E00E94DE1A80911D04882321F0E9
:103F700086E193E00E94DE1A80913905853041F494
:103F800081E093E0CF910C94DE1A84E993E0CECFE8
:103F9000CF910895CF93DF930E94241EEC018DEA08
:103FA00091E00E94D11A8C0F9D1FDF91CF9108954F
:103FB000CF92DF92EF92FF921F93CF93DF93CDB713
:103FC000DEB728970FB6F894DEBF0FBECDBF0E94B4
:103FD000DA0BC090F403D090F503E090F603F09074
:103FE000F703C982DA82EB82FC82C090FC03D09096
:103FF000FD03E090FE03F090FF03CD82DE82EF82AE
:10400000F8869E012B5F3F4FAE014F5F5F4F0E94CE
:104010007418182F6091DE027091DF028091E00227
:104020009091E1026B017C0121E0C21AD108E10804
:10403000F10827EEC21623E0D206E104F10408F0ED
:1040400053C00E943A399B01AC0160E070E08AE7FE
:1040500094E40E9499386B017C0189E494E00E9409
:10406000D50C85E494E0112311F087E494E00E94DC
:10407000D50C8CE20E94F00C6D817E818F81988539
:1040800044E050E00E94FC1E8CE20E94F00C69812A
:104090007A818B819C8144E050E00E94FC1E8CE27E
:1040A0000E94F00C6091100670911106809112062A
:1040B000909113064AE00E94B21D8CE20E94F00C1F
:1040C00042E050E0C701B6010E94CA1F28960FB611
:1040D000F894DEBF0FBECDBFDF91CF911F91FF904F
:1040E000EF90DF90CF900895C12CD12C7601B5CF01
:1040F0001F93CF93DF9300D000D0CDB7DEB71982E6
:104100001A821B821C82CE0101960E948A17182FE8
:1041100081110FC086E594E00E94DE1A0E94D81F2C
:10412000812F0F900F900F900F90DF91CF911F91E3
:10413000089589819A81AB81BC81809323019093FA
:104140002401A0932501B093260180912201816072
:10415000809322010E9400150E94DA0B30E020E0DB
:1041600050E040E00E9474188AE694E00E94D50C6A
:1041700069817A818B819C8146E050E00E94CA1F50
:104180000E942D1FCDCF8F929F92AF92BF92CF9260
:10419000DF92EF92FF920F931F93CF93DF93CDB7F0
:1041A000DEB728970FB6F894DEBF0FBECDBF809163
:1041B0003905853061F485ED91E00E94DE1A0E9498
:1041C000811F8EEB91E00E94DE1A10E011C01D826B
:1041D0001E821F821886CE0105960E948A17182F0C
:1041E00081111AC08AEA91E00E94DE1A0E94D81F4B
:1041F000812F28960FB6F894DEBF0FBECDBFDF919A
:10420000CF911F910F91FF90EF90DF90CF90BF90D3
:10421000AF909F908F90089580913905845082309F
:1042200018F48EE891E0CFCF11E010933905109388
:1042300000011093010110920201809120018093EE
:10424000170180911F0180931801809121018093B3
:10425000190119821A821B821C82CE0101960E94CA
:10426000C5108093010189819A81AB81BC818093C3
:10427000030190930401A0930501B09306018D8181
:104280009E81AF81B88580930B0190930C01A09320
:104290000D01B0930E0110931E0660E0809116068A
:1042A0000E94060B20E030E04AEF53E468E770E03C
:1042B00080E090E00E94C7090E94DA0B4B015C018C
:1042C0000E9489088823D9F00E94DA0B6B017C01D7
:1042D0000E94220AC701B6010E94C10DC701B601A2
:1042E0000E94EC1AC818D908EA08FB0889EBC8161E
:1042F0008BE0D806E104F10418F30E94AD080E9497
:10430000220A62E370E080E090E00E94A80B8FE058
:1043100091E00E948A17182F81110CC080E791E06C
:104320000E94DE1A80913905813009F061CF109228
:1043300039055ECF20910B0130910C0140910D01A8
:1043400050910E0160910F01709110018091110147
:10435000909112010E9427386B017C0120E030E02F
:1043600044E353E40E942A3A18163CF420E030E07B
:1043700044EB53E4C701B601EDCF20E030E044E365
:1043800053ECC701B6010E94943887FF0BC020E0B0
:1043900030E044EB53E4C701B6010E9428386B01BA
:1043A0007C01EBCFC0921301D0921401E092150171
:1043B000F09216010091200120E030E0A901C70130
:1043C000B6010E942A3A87FD01950093170120E06B
:1043D00030E0A901C701B6010E942A3A87FD2AC030
:1043E00081E08093180191E007FD9FEF90932001F9
:1043F0008F3F09F081E080931F018091220180614D
:10440000809322010E94001580913905813019F4B2
:1044100083E08093390580910101882369F08EE55E
:1044200091E00E94DE1A80917703811108C00E94FA
:104430008813DECE8FEFD5CF8CE491E0F2CF182F2A
:10444000D7CECF92DF92EF92FF920E94DA0B6B01F0
:104450007C0185E491E00E94D50CE09139058CEB5C
:1044600091E0E63038F4F0E0EE0FFF1FE559FE4F23
:10447000808191810E945C1F86E391E00E94D50CAF
:10448000809114048111BCC089E291E00E94D50C96
:1044900080E391E00E94D50C809115048111B3C096
:1044A00086EC90E00E94DE1A89E191E00E94D50C32
:1044B0006091F4037091F5038091F6039091F703F6
:1044C00044E050E00E94FC1E82E191E00E94D50C85
:1044D00060910004709101048091020490910304A2
:1044E00044E050E00E94FC1E86E091E00E94D50C62
:1044F000609108047091090480910A0490910B0462
:1045000044E050E00E94CA1F88EF90E00E94D50C62
:104510008091780390917903A0917A03B0917B0305
:10452000A7019601281B390B4A0B5B0BCA01B90185
:104530004AE00E94B21D8FEE90E00E94D50C80915F
:10454000F0039091F103A091F203B091F303A7015E
:104550009601281B390B4A0B5B0BCA01B9014AE0D3
:104560000E94B21D8DEA91E00E94D11A82EE90E085
:104570000E94D50C0E943C0A0E946E1F8DEC90E0B8
:104580000E94D50C0E947A15811140C08BEA90E000
:104590000E94D50C82EB90E00E94D50C0E94711510
:1045A000811137C082E990E00E94D50C89E990E042
:1045B0000E94D50C8091220184FD2EC08CE690E0F3
:1045C0000E94DE1A80E890E00E94D50C80916E0374
:1045D000813041F1823019F58BEC91E00E945C1F33
:1045E00083E790E00E94D50C80911A0181111DC0D3
:1045F00088E690E0FF90EF90DF90CF900C94DE1A69
:104600008DE291E043CF8AEC90E04CCF8EEA90E0CF
:10461000BFCF85E990E0C8CF8FE690E0D1CF84EDA1
:1046200091E0DCCF84EC91E0D9CF8AE690E0E2CF54
:10463000CF92DF92EF92FF92CF93DF936C01990FAD
:10464000EE08FF08F7FE1DC08DE20E94F00CEC01A1
:1046500066277727CB016C197D098E099F094AE0EF
:104660000E94B21DC80FD91F8DEA91E00E94D11A95
:104670008C0F9D1FDF91CF91FF90EF90DF90CF9037
:1046800008954AE0C701B6010E94B21DEC01ECCFCB
:104690002F923F924F925F926F927F928F929F9252
:1046A000AF92BF92CF92DF92EF92FF920F931F9340
:1046B000CF93DF9300D000D01F92CDB7DEB70E941A
:1046C000DA0B2090F40520910B0629832091050632
:1046D000309106063D832C832220E9F000910106EB
:1046E0001091020620910306309104066B017C01B3
:1046F000C01AD10AE20AF30A8C819D81892B49F004
:104700003324339495EFC91691E0D906E104F104FE
:1047100038F0312C05C0312CCC24CA94DC2C760125
:104720004090F5055090F6056090F7057090F805FB
:104730008090F0059090F105A090F205B090F305FF
:1047400000910706109108062091090630910A068B
:104750003B832A838EE294E00E94D50C84E294E0AD
:10476000211002C082E294E00E94D50C86E294E01F
:104770000E94D50C86E194E0311002C084E194E0FF
:104780000E94D50C88E194E00E94D50C398187EC19
:1047900093E0311102C085EC93E00E94D50C8BE0D0
:1047A00094E00E94D50C4AE0C701B6010E94B21DF8
:1047B00082E094E00E94D50C44E050E0C301B201D5
:1047C0000E94FC1E88EF93E00E94D50C44E050E06C
:1047D000C501B4010E94FC1E89EE93E00E94D50C35
:1047E0002C813D81B90190E080E04AE00E94B21D39
:1047F0008BED93E00E94D50CB80190E080E04AE098
:104800000E94B21D89EC93E00E94D50C2A813B8165
:10481000B90190E080E04AE00E94B21D8DEA91E08B
:104820000F900F900F900F900F90DF91CF911F91ED
:104830000F91FF90EF90DF90CF90BF90AF909F903F
:104840008F907F906F905F904F903F902F900C943F
:10485000D11ACF93DF93EC018BE695E00E94DE1A2C
:104860008981811104C080E695E00E94DE1A8A8168
:10487000811104C083E595E00E94DE1A88818111D0
:1048800004C088E495E00E94DE1A8B81811104C087
:104890008AE395E00E94DE1A8C81882321F08DE264
:1048A00095E00E94DE1A8D81811104C08CE195E0B3
:1048B0000E94DE1A8C8181110E94811F8B818111DF
:1048C00004C0DF91CF910C944823DF91CF910895DC
:1048D0001F93CF93DF9300D000D0CDB7DEB71982FE
:1048E0001A821B821C82CE0101960E94C510182FCD
:1048F00081110FC081E894E00E94DE1A0E944823D3
:10490000812F0F900F900F900F90DF91CF911F91FB
:10491000089589819A81AB81BC818093270190930E
:104920002801A0932901B0932A018091220182607D
:10493000809322010E94DA0B0E944E0A85E994E0DE
:104940000E94D50C69817A818B819C8146E050E080
:104950000E94CA1F0E942D1FD3CF1F93CF93DF93B6
:1049600000D000D0CDB7DEB71091000186E692E00E
:10497000112351F010910101111109C08AE492E054
:104980000E94DE1A86E292E00E94DE1A11C01982AD
:104990001A821B821C82CE0101960E94C510182F1C
:1049A00081110FC082E192E00E94DE1A0E9448232A
:1049B000812F0F900F900F900F90DF91CF911F914B
:1049C000089569817A818B819C816093070170933E
:1049D00008018093090190930A012091030130910D
:1049E000040140910501509106010E942A3A87FF77
:1049F0006BC08FEF8093190191E0909302011092A8
:104A000000018F3F09F081E08093210180913905F9
:104A1000813019F483E08093390581E092E00E94AF
:104A2000D50C0E94DA0B4AE00E94B21D8CE20E9473
:104A3000F00C609113017091140180911501909117
:104A4000160145E050E00E94FC1E8CE20E94F00C32
:104A500080911701082E000C990B0E94F61D8CE224
:104A60000E94F00C80911801082E000C990B0E94F6
:104A7000F61D8CE20E94F00C60910301709104011C
:104A8000809105019091060144E050E00E94FC1ED7
:104A90008CE20E94F00C60910701709108018091F6
:104AA000090190910A0144E050E00E94FC1E8CE252
:104AB0000E94F00C80911901082E000C990B0E94A5
:104AC000182386EE91E060CF81E094CF85ED80934E
:104AD000BC008091680490916904A0916A04B0912F
:104AE0006B040796A11DB11D23E0B695A795979578
:104AF00087952A95D1F72091BC0024FD03C0109220
:104B000066040895409168045091690460916A04B4
:104B100070916B04452B462B472B69F30097A10539
:104B2000B10541F02AE22A95F1F700C00197A109E9
:104B3000B109E1CF809167040C94EF114F925F921D
:104B40006F927F928F929F92AF92BF92CF92DF929D
:104B5000EF92FF92CF93C09122018C2F8C708C30FA
:104B600099F5C0902B01D0902C01E0902D01F09090
:104B70002E0140902F0150903001609031017090D3
:104B80003201A3019201C701B6010E9496394B017F
:104B90005C01A3019201C701B6010E9477396B0144
:104BA0007C01A50194010E94273820E030E040E01C
:104BB00050E40E94943887FF09C0C37FC09322014C
:104BC0008FEA94E00E94DE1A80E011C080922B01EF
:104BD00090922C01A0922D01B0922E01C0922F0133
:104BE000D0923001E0923101F092320181E0CF9118
:104BF000FF90EF90DF90CF90BF90AF909F908F90FD
:104C00007F906F905F904F900895CF92DF92EF92D8
:104C1000FF921F93CF93DF9300D000D0CDB7DEB7C4
:104C200019821A821B821C82CE0101960E948A1769
:104C3000182F811113C088E095E00E94DE1A0E94AF
:104C4000D81F812F0F900F900F900F90DF91CF9171
:104C50001F91FF90EF90DF90CF90089569817A8146
:104C60008B819C810E9415156B017C01C0922F01E4
:104C7000D0923001E0923101F09232018091220114
:104C800088608093220183EF94E00E94D50C46E077
:104C900050E0C701B6010E94CA1F8091220182FD27
:104CA00003C00E94FE1ECDCF0E949E258111F9CF28
:104CB00010E0C7CFCF92DF92EF92FF921F93CF9376
:104CC000DF9300D000D0CDB7DEB719821A821B82E5
:104CD0001C82CE0101960E948A17182F811113C0E1
:104CE0008FED94E00E94DE1A0E94D81F812F0F9052
:104CF0000F900F900F90DF91CF911F91FF90EF9049
:104D0000DF90CF90089569817A818B819C810E9488
:104D100015156B017C01C0922B01D0922C01E09201
:104D20002D01F0922E018091220184608093220156
:104D300088EC94E00E94D50C46E050E0C701B60133
:104D40000E94CA1F8091220183FD03C00E94FE1EA3
:104D5000CDCF0E949E258111F9CF10E0C7CFFF92E1
:104D60000F931F93CF93DF9380E19BEB90931C01F4
:104D700080931B0181E090E090931E0180931D01C0
:104D80000E949A068BE191E00E9482069093340182
:104D9000809333010BE111E0D0E0C0E0F801F19025
:104DA0008F01CE010E94BB37F81621F06F2DCE0186
:104DB0000E94C3372196CA31D10581F781E08093E3
:104DC0006E03DF91CF911F910F91FF900895EF92A5
:104DD000FF920F931F93CF93DF93CDB7DEB76A9700
:104DE0000FB6F894DEBF0FBECDBF8AE1E5E3F1E078
:104DF000DE01119601900D928A95E1F7CE010196A0
:104E00007C0110E000E0C8010E94BB37F7018193EC
:104E10007F010F5F1F4F0A311105A9F789819A8120
:104E200080319B4B21F48B819C81019799F00E94EA
:104E3000CF0682E080936E0380E06A960FB6F89406
:104E4000DEBF0FBECDBFDF91CF911F910F91FF90BD
:104E5000EF900895CE0101960E948206298D3A8D29
:104E60002817390721F78AE1FE013196ABE1B1E05D
:104E700001900D928A95E1F70E949A068BE191E0EC
:104E80000E948206909334018093330181E08093E5
:104E90006E03D3CF1F920F920FB60F9211242F9350
:104EA0003F938F939F93AF93BF938091E80390912B
:104EB000E903A091EA03B091EB033091E70323E00B
:104EC000230F2D3758F50196A11DB11D2093E7033F
:104ED0008093E8039093E903A093EA03B093EB0374
:104EE0008091EC039091ED03A091EE03B091EF035C
:104EF0000196A11DB11D8093EC039093ED03A09347
:104F0000EE03B093EF03BF91AF919F918F913F91CB
:104F10002F910F900FBE0F901F90189526E8230F2A
:104F20000296A11DB11DD2CF1F920F920FB60F9204
:104F300011242F933F934F935F936F937F938F939E
:104F40009F93AF93BF93EF93FF9380E994E00E9408
:104F5000660CFF91EF91BF91AF919F918F917F91DF
:104F60006F915F914F913F912F910F900FBE0F90D6
:104F70001F9018951F920F920FB60F9211242F9326
:104F80008F939F93EF93FF93E091A004F091A1047E
:104F90008081E091A604F091A70482FD1BC090815E
:104FA0008091A9048F5F8F732091AA04821741F02A
:104FB000E091A904F0E0E057FB4F958F8093A9049E
:104FC000FF91EF919F918F912F910F900FBE0F90B6
:104FD0001F9018958081F4CF1F920F920FB60F92F9
:104FE00011242F933F934F935F936F937F938F93EE
:104FF0009F93AF93BF93EF93FF93E0916C03F09176
:105000006D03309749F0A685B7858585968D91FF0C
:1050100014C09C918923A1F4FF91EF91BF91AF91AE
:105020009F918F917F916F915F914F913F912F91C0
:105030000F900FBE0F901F9018959C91892361F7D8
:10504000A389B4899C918589809589238C938689CD
:1050500097890197F1F7608D718DA685B785558584
:1050600038E020E0CB010197F1F7822F90E0959591
:105070008795282F4C91452309F02068315091F7EE
:10508000868D81FD209580916B0390E001968F7352
:10509000992730916A03381799F0A0916B03B0E01B
:1050A000AA5DBC4F2C9380936B03828D938D0197E7
:1050B000F1F7A389B4898C919589892B8C93ACCF16
:1050C000868D8160868FF1CF1F920F920FB60F925F
:1050D00011242F933F934F935F936F937F938F93FD
:1050E0009F93AF93BF93EF93FF938091B900887F15
:1050F000803609F44AC0F0F5883209F4A7C018F5E3
:10510000803109F49BC0B8F4882309F4F9C08830D1
:1051100009F494C0FF91EF91BF91AF919F918F914E
:105120007F916F915F914F913F912F910F900FBEA3
:105130000F901F901895883109F488C0803251F77C
:105140008093640414C0803409F49DC040F480331B
:10515000B9F38833F9F68093640485ECB0C08035E8
:1051600009F485C0883509F496C0883499F60E9400
:105170006625D0CF883909F48CC038F5883729F0F6
:1051800050F4883611F0803729F683E08093660466
:105190001092250357C0883809F47BC0803919F074
:1051A000803809F0B7CF80912503803208F071C0B4
:1051B000E091250381E08E0F809325038091BB0051
:1051C000F0E0EB5FFC4F80833DC0803B39F0E0F4C2
:1051D000803A09F479C0883A09F09CCF84E0809342
:1051E00066041092040310920303E0916603F091A9
:1051F000670309958091030381110FC081E08093BB
:1052000003031092E30209C0803C09F4A6CF883C56
:1052100009F4A3CF883B09F07DCFE091040381E03E
:105220008E0F80930403F0E0ED51FD4F8081809359
:10523000BB00909104038091030329C08091410435
:105240008093BB0085EC8093BC0064CF9091630495
:1052500080916204981758F5E091630481E08E0F05
:1052600080936304F0E0EE5BFB4F8081E9CFE09137
:10527000630481E08E0F809363048091BB00F0E0B3
:10528000EE5BFB4F808390916304809162049817DA
:10529000C8F285E8D8CFE091630481E08E0F809357
:1052A00063048091BB00F0E0EE5BFB4F8083809154
:1052B000650481115CCF81E08093400484EA80938F
:1052C000BC001092660426CF85EC8093BC0010923F
:1052D000660480912503803230F4E0912503F0E0EC
:1052E000EB5FFC4F10826091250370E0E091680352
:1052F000F091690385E093E00995109225030ACFA8
:105300001092640434CF1F920F920FB60F921124A3
:105310004F935F936F937F938F939F93AF93BF93BD
:10532000EF93FF9380911D068823E9F080911E067C
:105330008823C9F0809120068823A9F080912B064C
:1053400090912C06892B79F080912D0690912E0654
:105350000297C0F080912D0690912E0601979093B0
:105360002E0680932D06FF91EF91BF91AF919F91F3
:105370008F917F916F915F914F910F900FBE0F9022
:105380001F90189580912B0690912C0690932E06D5
:1053900080932D0680911F0691E0892780931F0638
:1053A00090911F06E0911706F0911806809119065A
:1053B000992309F46CC09081892B808380911F060A
:1053C0008823D9F0909122064091350650913606F7
:1053D0006091370670913806892F990F990BAA0BA7
:1053E000BB0B840F951FA61FB71F809335069093A4
:1053F0003606A0933706B093380680911F0688239F
:1054000009F4B1CF80913306882309F4ACCF8091A1
:105410002F0690913006A0913106B09132061816F1
:1054200019061A061B060CF09ECF80912F0690914C
:105430003006A0913106B09132060197A109B10959
:1054400080932F0690933006A0933106B0933206D6
:1054500080912F0690913006A0913106B0913206CE
:10546000892B8A2B8B2B09F07ECF1092200610926D
:105470001F06E0911706F091180690818091190699
:1054800080958923808381E0809334066CCF90815E
:105490008095892392CFFC0110821182128213829F
:1054A0001482158216821782108611861286138640
:1054B00048E25BE66EE67EEC448755876687778731
:1054C00088E29BE6AEE6BEE4808B918BA28BB38B29
:1054D000448B558B668B778B808F918FA28FB38F88
:1054E000148E158E168E178E10A211A212A213A260
:1054F00014A20895CF93DF93CDB7DEB76C970FB6A4
:10550000F894DEBF0FBECDBF1092930410929204A8
:1055100088EE93E0A0E0B0E080939404909395042B
:10552000A0939604B09397042BE731E03093910455
:105530002093900425EC30E030939D0420939C044C
:1055400024EC30E030939F0420939E0420EC30E064
:105550003093A1042093A00421EC30E03093A30405
:105560002093A20422EC30E03093A5042093A404FD
:1055700026EC30E03093A7042093A6041092A904EF
:105580001092AA041092AB041092AC041092300551
:1055900010922F058093310590933205A093330527
:1055A000B09334052DE831E030932E0520932D057E
:1055B00022E02093140623E02093150624E0209394
:1055C00016061092180610921706109219061092DD
:1055D0001B0610921A0610921C0610921D061092BD
:1055E0001E0610921F061092200661E060932106AD
:1055F000609322061092230610922406109225062C
:10560000109226061092270610922806109229065C
:1056100010922A0610922C0610922B0610922E063B
:1056200010922D0610922F0610923006109231061D
:1056300010923206109233061092340610923506FC
:1056400010923606109237061092380610920E0607
:1056500010920D0626E320930F061092100610926A
:105660001106109212061092130610928B051092DA
:105670008A0580938C0590938D05A0938E05B09339
:105680008F058FE991E090938905809388051092AA
:105690009F0510929E051092A1051092A0051092F0
:1056A000A3051092A2051092A5051092A405809161
:1056B000A6058E7F8D7F8093A605869581706827CD
:1056C0008BE00E94060B61E08BE00E94520BE8E643
:1056D000FCE0E491E0939805E4E5FCE0E491F0E07F
:1056E000EE0FFF1FE15CF34F8591949190939A0523
:1056F0008093990560E08AE00E94520B8091A60594
:1057000081FD04C061E08AE00E94060B8AE080937C
:105710009405E7E6FCE0E491E0939505E3E5FCE021
:10572000E491F0E0EE0FFF1FEB5CF34F8591949155
:1057300090939705809396051092A7051092A8055F
:105740001092A9051092AA051092AB051092AC0513
:105750001092AD051092AE051092AF051092B005F3
:105760001092B1051092B2051092B3051092B405D3
:10577000E5EBF5E0119211921192119285E0E13E74
:10578000F807C1F71092E1051092E2051092E305C7
:105790001092E4051092E5051092E6051092E705D7
:1057A0001092E8051092E9051092EA051092EB05B7
:1057B0001092EC051092ED051092EE051092EF0597
:1057C0001092F0051092F1051092F2051092F30577
:1057D0001092F4051092F5051092F6051092F70557
:1057E0001092F8051092F9051092FA051092FB0537
:1057F0001092FC051092FD051092FE051092FF0517
:1058000010920006109201061092020610920306F2
:1058100010920406109206061092050610920806D1
:105820001092070610920A061092090610920B06B3
:1058300010920C068AE395E00E944B2A8FE595E0D2
:105840000E944B2A109284051092850510928605BD
:10585000109287058DE895E3ADE7B2E480933A05B1
:1058600090933B05A0933C05B0933D058EEB9DE5E1
:10587000A0E6B3E480933E0590933F05A0934005D6
:10588000B09341058AED9DE2A6EDB0E48093420518
:1058900090934305A0934405B093450587EB9DE0A5
:1058A000A3E2BAEB8093460590934705A093480581
:1058B000B093490587EB9DE0A3E2BAE380934A05E4
:1058C00090934B05A0934C05B0934D058EE19AEF54
:1058D000AEE0BEEB80934E0590934F05A09350052C
:1058E000B09351058EE19AEFAEE0BEE3809352058E
:1058F00090935305A0935405B09355058CE1EFE4C4
:10590000F1E0DE01119601900D928A95E1F780E0B9
:1059100090E0A4EBB6E489839A83AB83BC8383E6EF
:1059200094E1ADE9B8E48D839E83AF83B88783E4C7
:1059300096E5A7EBBBEB8D879E87AF87B88B83E49B
:1059400096E5A7EBBBE3898B9A8BAB8BBC8B80E096
:1059500090E0A1EEB4EC8D8B9E8BAF8BB88F80E086
:1059600090E0A1EEB4E4898F9A8FAB8FBC8F8CE16D
:10597000FE013196AFE5B5E001900D928A95E1F711
:10598000109239056C960FB6F894DEBF0FBECDBFEE
:10599000DF91CF910895CF93DF93CDB7DEB76097B6
:1059A0000FB6F894DEBF0FBECDBF789484B5826089
:1059B00084BD84B5816084BD85B5826085BD85B5B3
:1059C000816085BD80916E00816080936E00109231
:1059D00081008091810082608093810080918100AC
:1059E000816080938100809180008160809380003D
:1059F0008091B10084608093B1008091B00081609B
:105A00008093B00080917A00846080937A008091C6
:105A10007A00826080937A0080917A00816080931E
:105A20007A0080917A00806880937A001092C10099
:105A3000E091A004F091A10412E01083E0919C0495
:105A4000F0919D041082E0919E04F0919F0480E10A
:105A500080831092A804E091A404F091A50486E04C
:105A60008083E091A204F091A3048081806180830F
:105A7000E091A204F091A304808188608083E0918A
:105A8000A204F091A304808180688083E091A20445
:105A9000F091A30480818F7D80836AEF70E080E0C5
:105AA00090E00E94A80B8FEE95E00E94DE1A0E9403
:105AB000E726811104C00E94CF0610936E0361E0B7
:105AC000809114060E94520B61E0809115060E949D
:105AD000520B61E0809116060E94520B80911406D1
