:100000000C94120A0C943A0A0C943A0A0C94242682
:100010000C94AE260C948A260C943A0A0C943A0A54
:100020000C943A0A0C943A0A0C943A0A0C94D2268C
:100030000C943A0A0C943A0A0C943A0A0C943A0A30
:100040000C9463240C943A0A0C94D3240C94AD249D
:100050000C943A0A0C943A0A0C943A0A0C943A0A10
:100060000C9405250C943A0A4E414E494E49545978
:10007000494E46CDCCCC3D0AD7233C17B7D1387773
:10008000CC2B329595E6241FB14F0A000020410089
:1000900000C84200401C4620BCBE4CCA1B0E5AAED3
:1000A000C59D74300031006E6F0079657300544552
:1000B0004C2C656E61626C65643D0043414C5F533E
:1000C000544F52452C7374617475733D006E6F000C
:1000D000796573002C76616C69643D002C757070D5
:1000E00065725F6465673D0043414C5F4C494D4913
:1000F00054532C6C6F7765725F6465673D002C7399
:100100006F6E61725F63656E7465725F636D3D00F3
:1001100043414C5F5A45524F2C6173353630305F46
:100120007A65726F5F6465673D006E6F0079657315
:10013000002C7369676E5F63616C696272617465DC
:10014000643D006E6F00796573002C6C696D697495
:10015000735F63616C696272617465643D006261C2
:1001600064006F6B0043414C2C7A65726F5F636172
:100170006C696272617465643D002C6375727265AE
:100180006E745F736F6E61723D002C637572726581
:100190006E745F6173353630303D005349474E53BE
:1001A0002C63757272656E745F73746570706572BE
:1001B0003D004641554C54532C626974733D002CEC
:1001C000706F735F6D733D004147452C616E676CC6
:1001D000655F6D733D002C785F66696C745F636D5D
:1001E0003D002C785F636D3D004D4541532C746894
:1001F0006574615F6465673D00626164006F6B00F8
:100200002C706F733D0053454E534F52532C616E0B
:10021000676C653D0053544154452C005741524E84
:100220002C736F6E61725F6E6561723D6E6F3B2005
:1002300075736520736F6E6172207369676E202B12
:100240002F2D31206F7220726572756E2062004909
:100250004E464F2C736F6E61725F6E6561723D79B1
:1002600065733B206D6F76655F7461726765745F5F
:100270006661725F7468656E5F6700494E464F2C19
:100280007375676765737465645F617335363030A5
:100290005F7369676E3D00494E464F2C7375676703
:1002A00065737465645F737465707065725F73699C
:1002B000676E3D00494E464F2C74686574615F72ED
:1002C00061775F64656C74615F6465673D00494E8A
:1002D000464F2C63616C5F7369676E5F6265676927
:1002E0006E5F636F6D706C657465004552522C6172
:1002F0006E676C655F6E6F745F72656164795F6174
:10030000667465725F6A6F67004552522C63616E56
:100310006E6F745F656E7465725F63616C69625F56
:100320007369676E004552522C616E676C655F6E33
:100330006F745F72656164790047554944452C6468
:100340006F3D742D3E612D3E702D3E662D3E620048
:100350004552522C6661756C745F61637469766591
:1003600000494E464F2C7369676E735F6170706C05
:100370006965645F72756E74696D653B2072756E38
:100380002063616C5F7361766520746F20706572A5
:1003900073697374005349474E5F43414C5F524544
:1003A00053554C542C004552522C736F6E61725F42
:1003B0006E6F745F72656164790047554944452CDE
:1003C000646F3D736F6E6172207369676E20317C5C
:1003D0002D31206F7220726572756E206200455259
:1003E000522C7369676E5F736F6E61725F6E6561C9
:1003F000725F6D697373696E67004552522C636159
:100400006C5F7369676E5F6E6F745F737461727433
:100410006564006E6F00796573002C7A65726F5F9A
:1004200063616C696272617465643D002C736F6E08
:1004300061725F63656E7465725F636D3D00434119
:100440004C5F5A45524F2C6173353630305F7A65B8
:10045000726F5F6465673D006E6F00796573002C95
:100460006C696D6974735F63616C696272617465F4
:10047000643D002C75707065725F6465673D004374
:10048000414C5F4C494D4954532C6C6F7765725FFA
:100490006465673D004641554C545F494E464F2CBC
:1004A0007265636F7665723D6669785F73656E73BA
:1004B0006F722D3E73004641554C545F494E464F76
:1004C0002C7265636F7665723D6669785F73656EE1
:1004D000736F722D3E662D3E73004641554C545F3E
:1004E000494E464F2C706F735F6F6F623D312C64C5
:1004F0006F3D63656E7465725F7461726765745F8A
:100500007468656E5F70004641554C545F494E46B5
:100510004F2C616E676C655F6F6F623D312C646F4D
:100520003D6C6576656C5F6265616D5F7468656E74
:100530005F61004641554C545F494E464F2C69322D
:10054000635F6572726F723D312C646F3D636865E5
:10055000636B5F415335363030004641554C545F34
:10056000494E464F2C736F6E61725F74696D656F93
:1005700075743D312C646F3D666C61745F7461729B
:100580006765742B636865636B5F4843535230340F
:10059000004641554C545F494E464F2C6E6F6E6578
:1005A000006272696E6775705F7761726E696E67FF
:1005B0000072756E5F686172645F6661756C74006D
:1005C0004641554C545F494E464F2C6D6F64653D16
:1005D000004641554C545F494E464F2C6269747336
:1005E0003D004D454E552C736F6E61723D666C61DA
:1005F000745F7461726765745F7468656E5F736F52
:100600006E61725F64696167006E6F007965730087
:100610006E6F00796573002C736F6E61725F6F6B24
:100620003D006E6F00796573002C616E676C655FCD
:100630006F6B3D006E6F00796573002C7369676E98
:100640003D006E6F00796573002C6C696D69747381
:100650003D002C7A65726F3D004D454E552C7374EC
:100660006174653D004D454E552C6272696E67752B
:100670007000300031002C6A756D705F72656A65BC
:1006800063745F636E743D002C74696D656F75747F
:100690005F636E743D002C76616C69645F73747285
:1006A00065616B3D002C66696C745F636D3D002C69
:1006B0007261775F636D3D002C6167655F6D733DAF
:1006C00000300031002C74696D656F75743D003029
:1006D0000031002C66726573683D00534F4E4152E5
:1006E0005F444941472C6861735F73616D706C654D
:1006F0003D004F4B2C63616C5F7A65726F5F616E7A
:10070000676C655F7365743D004552522C616E677E
:100710006C655F6E6F745F7265616479004F4B2C1E
:1007200063616C5F7A65726F5F706F736974696F14
:100730006E5F7365743D004552522C736F6E61722B
:100740005F6E6F745F7265616479004552522C6C04
:10075000696D69745F7370616E5F746F6F5F736DE5
:10076000616C6C00494E464F2C6C696D6974735F07
:100770006E6F726D616C697A65645F66726F6D5FD2
:10078000646F776E5F7570004F4B2C63616C5F6CAC
:10079000696D69745F646F776E5F7365743D004562
:1007A00052522C616E676C655F6E6F745F7265612B
:1007B000647900494E464F2C6C696D6974735F6EA5
:1007C0006F726D616C697A65645F66726F6D5F648C
:1007D0006F776E5F7570004F4B2C63616C5F6C6957
:1007E0006D69745F75705F7365743D004552522C7E
:1007F000616E676C655F6E6F745F726561647900CE
:1008000047554944452C737465703D72756E2C6470
:100810006F3D72756E5F720047554944452C737485
:1008200065703D736176652C646F3D72756E5F76A1
:100830000047554944452C737465703D736F6E6174
:10084000725F73656E736F722C646F3D666C61745A
:100850005F7461726765745F7468656E5F736F6EF5
:1008600061725F646961670047554944452C737440
:1008700065703D616E676C655F73656E736F722C3A
:10088000646F3D636865636B5F4153353630305F3D
:100890007468656E5F730047554944452C737465F1
:1008A000703D736F6E61725F7369676E5F6D616ECD
:1008B00075616C2C646F3D736F6E61725F736967F5
:1008C0006E5F315F6F725F2D310047554944452C93
:1008D000737465703D736F6E61725F7369676E5F8D
:1008E0006175746F2C646F3D6D6F76655F746172B6
:1008F0006765745F6661725F7468656E5F67004705
:10090000554944452C737465703D7369676E5F6229
:100910006567696E2C646F3D72756E5F6200475546
:100920004944452C737465703D6661756C745F72E3
:10093000657365742C646F3D6669785F7468656E75
:100940005F660047554944452C737465703D6C697A
:100950006D6974735F6669782C646F3D7265646F4E
:100960005F5B5F616E645F5D0047554944452C7372
:100970007465703D75705F6C696D69742C646F3D52
:100980006D6F76655F55505F7468656E5F5D00479B
:10099000554944452C737465703D646F776E5F6C88
:1009A000696D69742C646F3D6D6F76655F444F5758
:1009B0004E5F7468656E5F5B0047554944452C7314
:1009C0007465703D7A65726F5F706F732C646F3DF4
:1009D000666C61745F7461726765745F63656E7481
:1009E00065725F7468656E5F700047554944452CB9
:1009F000737465703D7A65726F5F616E676C652CAC
:100A0000646F3D6C6576656C5F6265616D5F74688F
:100A1000656E5F6100424C4F434B2C696E6E657290
:100A20005F6C6F6F7000424C4F434B2C6661756C6E
:100A3000747300424C4F434B2C73656E736F72732B
:100A400000424C4F434B2C7369676E00424C4F433E
:100A50004B2C6C696D69747300424C4F434B2C7A7C
:100A600065726F004552522C72756E5F626C6F63D7
:100A70006B6564006E6F007965730057495A2C37B7
:100A80002C646F3D633D736176652C713D657869BB
:100A900074006E6F00796573002C64697274793D1F
:100AA000006E6F00796573002C7369676E3D006E90
:100AB0006F00796573002C6C696D6974733D005724
:100AC000495A2C73756D6D6172792C7A65726F3D20
:100AD0000057495A2C362C646F3D6661725F746111
:100AE000726765745F7468656E5F6E0057495A2C53
:100AF000352C646F3D6E6561725F746172676574F9
:100B00005F7468656E5F6E0057495A2C342C646FB1
:100B10003D6D6F76655F55505F7468656E5F6E0002
:100B200057495A2C332C646F3D6D6F76655F444F87
:100B3000574E5F7468656E5F6E0057495A2C322CB1
:100B4000646F3D666C61745F7461726765745F6346
:100B5000656E7465725F7468656E5F6E0057495AA2
:100B60002C312C646F3D6C6576656C5F6265616DE0
:100B70005F7468656E5F6E00300031002C74656CC8
:100B8000656D657472795F726573746F7265643DCB
:100B90000057495A2C657869742C726561736F6EC1
:100BA0003D000000000023002600290042414C4C7B
:100BB0005F4245414D5F424F4F54004F4B2C6361A4
:100BC0006C5F6C696D69745F75707065725F736579
:100BD000743D004552522C696E76616C69645F6C9D
:100BE000696D69745F7370616E004552522C616E5D
:100BF000676C655F6E6F745F7265616479004F4BFF
:100C00002C63616C5F6C696D69745F6C6F77657282
:100C10005F7365743D004552522C696E76616C6954
:100C2000645F6C696D69745F7370616E00455252E8
:100C30002C616E676C655F6E6F745F72656164795D
:100C40000043414C5F535547474553542C534F4E37
:100C500041525F43454E5445525F434D3D0045521E
:100C6000522C736F6E61725F6E6F745F7265616438
:100C7000790043414C5F535547474553542C4153EA
:100C8000353630305F5A45524F5F4445473D004549
:100C900052522C616E676C655F6E6F745F72656136
:100CA000647900300031004153353630305F4449BB
:100CB00041472C004552522C63616C5F736176652D
:100CC0005F6661696C6564004F4B2C77697A61726D
:100CD000645F7361766564004552522C77697A616E
:100CE00072645F6E6F745F61745F736176655F736A
:100CF000746570004552522C77697A6172645F6E38
:100D00006F745F6163746976650057495A2C737418
:100D100065705F6661696C65642C6669785F616E99
:100D2000645F70726573735F6E5F616761696E00A7
:100D30004552522C77697A6172645F696E76616C94
:100D400069645F737465700057495A2C61776169F3
:100D500074696E675F636F6E6669726D2C70726521
:100D600073733D635F746F5F736176655F6F725F0E
:100D7000715F746F5F65786974004552522C7769B2
:100D80007A6172645F6E6F745F6163746976650027
:100D90003000310057495A2C636F6E74726F6C7358
:100DA0003D6E2C632C710057495A2C74656C656D2F
:100DB000657472795F6175746F5F64697361626C89
:100DC00065642C707265763D004F4B2C77697A61B3
:100DD00072645F737461727465640057495A2C625F
:100DE0006C6F636B65642C646F3D742D3E612D3EAA
:100DF000702D3E662D3E732D3E77004552522C6677
:100E000061756C745F616374697665004552522C3C
:100E100073746F705F6265666F72655F77697A6120
:100E20007264004552522C77697A6172645F616C1A
:100E300072656164795F6163746976650048454CE9
:100E4000502C6B657973004552522C756E6B6E6F2A
:100E5000776E5F636F6D6D616E642C7472793D683F
:100E6000004552522C6E6F5F6661756C745F7374CF
:100E7000617465004F4B2C6661756C745F636C65C3
:100E800061726564004F4B2C73746F707065640001
:100E90004F4B2C72756E6E696E67004F4B2C636101
:100EA0006C5F64656661756C74735F6170706C69AA
:100EB0006564004552522C75736167653A63616CD5
:100EC0005F72657365742064656661756C74730028
:100ED00064656661756C7473006C6F616465640051
:100EE0004F4B2C63616C5F6C6F61642C00455252F8
:100EF0002C63616C5F736176655F6661696C6564C4
:100F0000004F4B2C63616C5F7361766564004552E2
:100F1000522C75736167653A63616C5F6C696D69CA
:100F2000747320736574202E2E2E207C2073686FBE
:100F300077004552522C75736167653A63616C5F47
:100F40006C696D69747320736574202E2E2E0045B4
:100F500052522C75736167653A63616C5F6C696DA1
:100F600069747320736574202E2E2E004552522C06
:100F700075736167653A63616C5F6C696D69747301
:100F800020736574202E2E2E207C2073686F7700CE
:100F90004552522C75736167653A63616C5F7A657F
:100FA000726F2073657420616E676C657C706F73FF
:100FB0006974696F6E207C2063616C5F7A65726F03
:100FC0002073686F77004552522C75736167653ADC
:100FD00063616C5F7A65726F2073657420616E6700
:100FE0006C657C706F736974696F6E004552522C2A
:100FF00075736167653A63616C5F7A65726F2073C0
:10100000657420616E676C657C706F736974696F5D
:101010006E004552522C75736167653A63616C5F6F
:101020007A65726F2073657420616E676C657C7081
:101030006F736974696F6E207C2063616C5F7A6581
:10104000726F2073686F77004552522C7573616719
:10105000653A736F6E617220646961677C7369675A
:101060006E20317C2D31004F4B2C736F6E61725F9F
:101070007369676E5F7365743D004552522C7573DA
:101080006167653A736F6E6172207369676E2031B4
:101090007C2D31004552522C75736167653A736F30
:1010A0006E6172207369676E20317C2D310045526C
:1010B000522C75736167653A736F6E617220646953
:1010C00061677C7369676E20317C2D310045525217
:1010D0002C75736167653A63616C5F7369676E2035
:1010E000626567696E7C73617665004552522C7546
:1010F000736167653A63616C5F7369676E206265EF
:1011000067696E7C73617665004F4B2C6A6F675F11
:1011100073746172746564004552522C6A6F675F24
:10112000626C6F636B65645F6C6F7765725F6C692F
:101130006D6974004552522C6A6F675F626C6F6311
:101140006B65645F75707065725F6C696D69740062
:101150004552522C73746F705F72756E6E696E6754
:101160005F6265666F72655F6A6F67004552522CF9
:10117000696E76616C69645F6A6F675F61726773DD
:10118000004552522C75736167653A6A6F67203C5F
:101190007369676E65645F73746570733E203C723B
:1011A0006174653E004F4B2C6472697665725F65B1
:1011B0006E61626C6564004F4B2C64726976657277
:1011C0005F64697361626C6564004552522C656EA0
:1011D0005F72657175697265735F305F6F725F31E1
:1011E00000300031004F4B2C74656C656D65747276
:1011F000793D004552522C75736167653A74656C90
:10120000656D6574727920307C31004552522C77BF
:10121000697A6172645F6E6F745F61637469766529
:10122000004552522C6E6F5F6661756C745F73740B
:10123000617465004F4B2C6661756C745F636C65FF
:1012400061726564004F4B2C73746F70706564003D
:101250004F4B2C72756E6E696E67004F4B2C63613D
:101260006C5F64656661756C74735F6170706C69E6
:1012700065640064656661756C7473006C6F6164AD
:101280006564004F4B2C63616C5F6C6F61642C0074
:101290004552522C63616C5F736176655F6661696C
:1012A0006C6564004F4B2C63616C5F7361766564A1
:1012B000004F4B2C6A6F675F7374617274656400D2
:1012C0004552522C6A6F675F626C6F636B65645F37
:1012D0006C6F7765725F6C696D6974004552522C52
:1012E0006A6F675F626C6F636B65645F7570706572
:1012F000725F6C696D6974004552522C73746F7023
:101300005F72756E6E696E675F6265666F72655F4C
:101310006A6F67004552522C696E76616C69645F32
:101320006A6F675F61726773004552522C75736113
:1013300067653A6A203C7369676E65645F737465BC
:1013400070733E203C726174653E004F4B2C64729A
:10135000697665725F64697361626C6564004F4BA6
:101360002C6472697665725F656E61626C6564009B
:101370004552522C75736167653A6520307C3100A7
:10138000300031004F4B2C74656C656D657472795B
:101390003D005741524E2C6A6F675F73746F7070D7
:1013A00065645F6C6F7765725F6C696D6974005717
:1013B00041524E2C6A6F675F73746F707065645F23
:1013C00075707065725F6C696D69740054454C2C62
:1013D0000000000000240027002A00000000002573
:1013E0000028002B00040404040404040402020284
:1013F0000202020303030303030102040810204056
:1014000080010204081020010204081020000000DE
:1014100008000201000003040700000000000000B3
:1014200000009F2711241FBECFEFD8E0DEBFCDBF45
:1014300025E0A0EDB2E001C01D92AB3BB207E1F7A1
:1014400012E0A0E0B1E0E8E0F6E702C005900D92FE
:10145000A03DB107D9F71AE0C2E1DAE004C0219754
:10146000FE010E948939C131D107C9F70E946F2955
:101470000C94023B0C940000FC018091EE0485303A
:10148000B1F080818823A1F08181882389F0828155
:10149000882371F08381882359F08481811107C0EA
:1014A0008581882329F094E09093EE04089580E0EC
:1014B00008958091EE04843011F0823021F483E0AD
:1014C0008093EE040895813011F41092EE04089593
:1014D000FC01AC01485E5F4F8FEF9FEF2191922797
:1014E00028E0BC01880F991F77FF04C031E28327F1
:1014F00030E193272150A9F7E417F50779F708950C
:101500008091230187FF2BC08FEF8093230180916F
:10151000240187FF26C08FEF80932401809125014D
:1015200087FF21C08FEF80932501209133013091F7
:101530003401409135015091360160912F01709135
:10154000300180913101909132010E94EF3A87FD84
:1015500005C080912601837F80932601089581E054
:10156000D4CF81E0D9CF81E0DECF0F931F93CF930B
:10157000DF93CDB7DEB76A970FB6F894DEBF0FBE24
:10158000CDBFFE0131968AE1DF011D928A95E9F710
:1015900081E08D838E838F8380E090E0A0E0B1ECCA
:1015A000898B9A8BAB8BBC8B80E090E0A0E0B1E4A0
:1015B0008D8B9E8BAF8BB88F8AE1AFE1B1E001904C
:1015C0000D928A95E1F70FE111E080E19BEBF801C4
:1015D0009183808381E090E09383828380E090E038
:1015E000A0EAB1E484879587A687B787C8010E94DF
:1015F000680AD80159969C938E9358976A960FB6AD
:10160000F894DEBF0FBECDBFDF91CF911F910F9138
:1016100008952F923F924F925F926F927F928F9296
:101620009F92AF92BF92CF92DF92EF92FF920F9371
:101630001F93CF93DF93CDB7DEB766970FB6F894BD
:10164000DEBF0FBECDBF9E8B8D8B6A017B01DC019F
:1016500094968C919497412C512C3201882391F0CF
:1016600090962D913D914D915C919397CB01B60150
:101670000E94A3392AE037ED43EA5CE30E94103A66
:101680002B013C01ED89FE8920813181428153810A
:10169000C701B6010E942B386F83788789879A87A4
:1016A000AD89BE8914968D919D910D90BC91A02D10
:1016B0008B879C87AD87BE87ED89FE89848C958C4E
:1016C000A68CB78C2085318542855385C301B20134
:1016D0000E942B386F87788B898B9A8BA501940198
:1016E0006B857C858D859E850E942B382F81388562
:1016F00049855A850E94A4392F85388949895A8994
:101700000E94A4392B013C01AD89BE895896BC9139
:10171000BB83ED89FE89F18DFC83AD89BE895A9624
:10172000BC91BD83ED89FE89F38DFE83AD89BE89B1
:101730005496BC91B983ED89FE89F589FA83AD8908
:10174000BE8956963C90569757962C902B813C819B
:101750004D815E810E94EF3A87FD0AC020E030E0B3
:10176000A901C701B6010E94EF3A18160CF454C043
:1017700029813A81432D522DC301B2010E94C53700
:1017800018164CF020E030E0A901C701B6010E9414
:10179000C53787FD41C02AE037ED43EA5CE3C70166
:1017A000B6010E942B38A50194010E94A439762E1F
:1017B000672E582E492EED89FE89F089FB8BAD8965
:1017C000BE895196BC91BC8BED89FE890289138933
:1017D00084849584A684B7849401A5010E94C537AA
:1017E00087FD12C02B893C89A801672D762D852D98
:1017F000942D0E94EF3A8B889C885801181624F08B
:10180000872C962CA52CB42CC401D501ED89FE891A
:10181000848F958FA68FB78FAD89BE895C962D91E9
:101820003D914D915C915F976B857C858D859E8503
:101830000E942B382F81388549855A850E94A4390A
:101840002F85388949895A890E94A4395B018C0106
:101850009B01AC0169817A81832D922D0E94EF3A20
:10186000181674F09501A8016B817C818D819E8191
:101870000E94C53787FD2CC0A982BA82302E212E46
:10188000AD89BE899096CD92DD92ED92FC929397B0
:1018900081E094968C9369817A81832D922D66964E
:1018A0000FB6F894DEBF0FBECDBFDF91CF911F9171
:1018B0000F91FF90EF90DF90CF90BF90AF909F90EF
:1018C0008F907F906F905F904F903F902F900895F2
:1018D000BB81B983EC81EA833D802E80D1CF9FB755
:1018E000F8948091B705882379F04091B305509121
:1018F000B4056091B5057091B60581E01416150622
:10190000160617060CF080E09FBF0895E0919C0535
:10191000F0919D05309731F0908180919E058095E2
:10192000892380830895E9E9F5E016861786108AF1
:10193000118A128A138A148A158A8FB7F89414862A
:10194000168E128E138E148E158E178E178A168A87
:10195000118E108E13868FBF0C94860CCF92DF925F
:10196000EF92FF92CF936B017C0120E030E041EEDB
:1019700054E40E94EF3A18160CF4A6C020E030E0C0
:1019800041EE54ECC701B6010E94C53787FDA3C0E4
:10199000C092A705D092A805E092A905F092AA05E9
:1019A000D701C601BF778093AB059093AC05A09398
:1019B000AD05B093AE0560912401062E000C770BA7
:1019C000880B990B0E94CC37A70196010E942B38F7
:1019D000C1E020E030E0A9010E94EF3A87FDC0E0BD
:1019E000C093A6059091A605E0919F05F091A005F2
:1019F000309741F08091A105992309F473C090813B
:101A0000892B8083C090AB05D090AC05E090AD05EC
:101A1000F090AE0520E030E040E85FE3C701B6019A
:101A20000E94C53770E060E087FD2DC0A7019601D8
:101A3000C701B6010E94A4399B01AC0160E070E4CB
:101A40008CE197E40E94103A6B017C0120E030E0C9
:101A500040E85FE30E94C53787FD48C020E030E6DC
:101A60004AE657E4C701B6010E94EF3A18160CF493
:101A700044C020E030E040E05FE3C701B6010E94CF
:101A8000A4390E94823A9FB7F8947093B00560938E
:101A9000AF057093B2056093B10581E061157105E2
:101AA00009F480E08093A5058091A505811102C00D
:101AB0001092A4059FBF672B41F5CF91FF90EF9047
:101AC000DF90CF900C94860CC12CD12C31EEE32EFC
:101AD00034E4F32E5DCFC12CD12C21EEE22E24EC88
:101AE000F22E56CF9081809589238BCFC12CD12C9B
:101AF00090E8E92E9FE3F92EBCCFC12C80E6D82ECA
:101B00008AE6E82E87E4F82EB4CFCF91FF90EF90CD
:101B1000DF90CF9008958F929F92AF92BF92CF9215
:101B2000DF92EF92FF924B015C0169017A0181140F
:101B30009104A104B10451F4FF90EF90DF90CF9095
:101B4000BF90AF909F908F900C94930C20E030E06A
:101B500040E85FE3C701B6010E94C53787FF06C0B2
:101B6000C12CD12C80E8E82E8FE3F82E2FB7F89403
:101B7000D501C401B7FE07C088279927DC01881961
:101B80009909AA09BB098093B3059093B405A09362
:101B9000B505B093B60581E08093B7051092B805FE
:101BA0002FBF181419041A041B0424F0F7FAF09438
:101BB000F7F8F094C701B601FF90EF90DF90CF9057
:101BC000BF90AF909F908F900C94AE0C8FB7F8940D
:101BD0009091B805911102C08FBF08951092B80579
:101BE0001092B7051092B3051092B4051092B50586
:101BF0001092B6058FBF60E070E0CB010C94AE0C84
:101C00009091F1038091F203811182E0892B9091F0
:101C1000F303911194E0892B9091F403911198E0D2
:101C2000892B089590E0FC01E35FFB4E2491FC01B9
:101C3000E750FC4E3491FC01EB51FC4EE491EE2355
:101C4000C9F0222339F0233001F1A8F4213019F131
:101C5000223029F1F0E0EE0FFF1FE552FC4EA59176
:101C6000B4918FB7F894EC91611126C030953E2362
:101C70003C938FBF08952730A9F02830C9F0243055
:101C800049F7809180008F7D03C0809180008F771D
:101C900080938000DFCF84B58F7784BDDBCF84B5A0
:101CA0008F7DFBCF8091B0008F778093B000D2CF33
:101CB0008091B0008F7DF9CF3E2BDACF3F924F92CB
:101CC0005F926F927F928F929F92AF92BF92CF92CC
:101CD000DF92EF92FF920F931F93CF93DF93CDB7D5
:101CE000DEB7E0970FB6F894DEBF0FBECDBF6B0135
:101CF0007C012BA73CA74DA75EA78091860581118B
:101D000040C08091820590918305A0918405B09197
:101D10008505A7019B01281B390B4A0B5B0BDA01D8
:101D2000C90180369A4EA105B10558F18FB7F894D4
:101D300011E01093870510929005109291058FBFC6
:101D400060E080913D050E94120E83E090E00197D3
:101D5000F1F761E080913D050E94120E83E290E070
:101D60000197F1F760E080913D050E94120EC0924C
:101D70008205D0928305E0928405F0928505109348
:101D800086053FB7F8942091910560E070E0CB01A3
:101D9000222351F01092910560918C0570918D0570
:101DA00080918E0590918F053FBF222309F405C2D3
:101DB000109286058B019C010150110921093109FE
:101DC0000F3215472105310508F0E7C10E94CA37D7
:101DD00028E23EE74CE05DE30E942B3820E030E053
:101DE00040E05FE30E942B387B018C01962EAF2CE4
:101DF000B82E812E20E030E040E050E40E94C5374C
:101E000087FD0AC020E030E048E453E4B701C80190
:101E10000E94EF3A18163CF581E08093810580918D
:101E20007D0590917E058F3F980729F0019690934C
:101E30007E0580937D05E0960FB6F894DEBF0FBE59
:101E4000CDBFDF91CF911F910F91FF90EF90DF9069
:101E5000CF90BF90AF909F908F907F906F905F904A
:101E60004F903F90089580916A058823C1F140907A
:101E70006B0550906C0560906D0570906E05A30128
:101E80009201B701C8010E94A3399F7720E030E09A
:101E900048EC51E40E94EF3A18160CF580917F054A
:101EA0009091800501969093800580937F05A30112
:101EB0009201B701C8010E94EF3A20E030E048ECFF
:101EC00051E4181624F020E030E048EC51ECC30156
:101ED000B2010E94A439962EA72EB82E892E892DE4
:101EE0009A2DAB2DB82D80936B0590936C05A09324
:101EF0006D05B0936E058091640590E0FC01EE0FD6
:101F0000FF1FEE0FFF1FE35CFA4F492D5A2D6B2D7B
:101F1000782D4283538364837583019669E070E072
:101F20000E9453398093640580916305893018F4C9
:101F30008F5F8093630580916305C12CD12C76015E
:101F4000882309F496C0AFE3B5E0FE013196312C49
:101F50004D915D916D917D914193519361937193F9
:101F600033948311F5CFF12CC32CD12C8F2D90E01D
:101F70009C012F5F3F4F2C153D050CF04EC0E12C0E
:101F8000D601A81BB90BB8ABAFA78E2D90E08C0182
:101F90000F5F1F4FEFA5F8A90E171F07E4F5880F75
:101FA000991F880F991F21E030E02C0F3D1F280F4B
:101FB000391F3AA729A7D9014D905D906D907C906B
:101FC000000F111F000F111FE1E0F0E0EC0FFD1FEB
:101FD0000E0F1F1FD8012D913D914D915C912DA3A6
:101FE0003EA34FA358A7C301B2010E94EF3A1816AF
:101FF00084F42DA13EA14FA158A5A9A5BAA52D9362
:102000003D934D935C931397F80140825182628215
:102010007382E394BACFF394A9CF832D869590E091
:10202000FC01EE0FFF1FEE0FFF1F21E030E02C0F31
:102030003D1FE20FF31FC080D180E280F38030FCAF
:1020400018C00197880F991F880F991F820F931F3F
:10205000DC012D913D914D915C91C701B6010E942B
:10206000A43920E030E040E05FE30E942B386B01B0
:102070007C0180916505811169C0C0926605D0928E
:102080006705E0926805F092690581E08093650537
:1020900060912501062E000C770B880B990B0E948E
:1020A000CC376B017C0140902B0150902C0160904B
:1020B0002D0170902E01A3019201692D7A2D8B2D97
:1020C000982D0E94A339A70196010E942B38609396
:1020D0006F05709370058093710590937205A3014D
:1020E00092016091660570916705809168059091F5
:1020F00069050E94A339A70196010E942B386093BD
:1021000073057093740580937505909376052BA5E0
:102110003CA54DA55EA520937705309378054093A7
:10212000790550937A0581E080936A0510928105C4
:1021300080917B0590917C058F3F980709F47BCEB9
:10214000019690937C0580937B0575CE26E636E656
:1021500046E25FE3609166057091670580916805CE
:10216000909169050E942B382B013C0123E333E356
:1021700043EB5EE3C701B6010E942B389B01AC0123
:10218000C301B2010E94A43960936605709367058C
:1021900080936805909369057BCF81E080938105EA
:1021A00080917D0590917E058F3F980709F443CE7D
:1021B000019690937E0580937D0580918605882306
:1021C00009F439CE8091820590918305A091840510
:1021D000B0918505C81AD90AEA0AFB0A51E3C51667
:1021E00055E7D506E104F10408F425CE10928605E2
:1021F00081E08093810580917D0590917E058F3FE0
:10220000980729F0019690937E0580937D058FB7FE
:10221000F8941092870510929005109291058FBF47
:102220000ACECF93DF9390E0FC01E750FC4E24915F
:102230008B519C4EFC0184918823D1F090E0880F53
:10224000991FFC01EF52FC4EA591B491FC01E5529F
:10225000FC4EC591D49161110EC09FB7F8948C913A
:10226000E22FE0958E238C932881E223E8839FBFA1
:10227000DF91CF9108958FB7F894EC91E22BEC9316
:102280008FBFF6CF3FB7F8948091ED039091EE03A6
:10229000A091EF03B091F00326B5A89B05C02F3F96
:1022A00019F00196A11DB11D3FBFBA2FA92F982F7C
:1022B0008827BC01CD01620F711D811D911D42E077
:1022C000660F771F881F991F4A95D1F708958F923F
:1022D0009F92AF92BF92CF92DF92EF92FF924B010B
:1022E0005C010E9442116B017C010E9442116C1939
:1022F0007D098E099F09683E734081059105A8F309
:1023000021E0821A9108A108B10888EEC80E83E086
:10231000D81EE11CF11C81149104A104B10429F719
:10232000FF90EF90DF90CF90BF90AF909F908F90F5
:1023300008952FB7F8946091E9037091EA038091B2
:10234000EB039091EC032FBF089508950895AF9289
:10235000BF92CF92DF92EF92FF920F931F93CF9392
:10236000DF936C017B018B01040F151FEB015E01F4
:10237000AE18BF08C017D10759F06991D601ED9189
:10238000FC910190F081E02DC6010995892B79F728
:10239000C501DF91CF911F910F91FF90EF90DF90DA
:1023A000CF90BF90AF900895FC01538D448D252FA1
:1023B00030E0842F90E0821B930B541710F0CF96DF
:1023C000089501970895FC01918D828D981761F011
:1023D000A28DAE0FBF2FB11D5D968C91928D9F5F28
:1023E0009F73928F90E008958FEF9FEF0895FC0107
:1023F000918D828D981731F0828DE80FF11D858DBA
:1024000090E008958FEF9FEF0895FC01918D228D4C
:10241000892F90E0805C9F4F821B91098F739927D1
:10242000089585E494E00E94051221E0892B09F4C7
:1024300020E0822F089580E090E0892B29F00E940F
:10244000111281110C9400000895FC01A48DA80FB5
:10245000B92FB11DA35ABF4F2C91848D90E00196E6
:102460008F739927848FA689B7892C93A089B18906
:102470008C91837080648C93938D848D981306C0A7
:102480000288F389E02D80818F7D80830895EF920B
:10249000FF920F931F93CF93DF93EC0181E0888F1E
:1024A0009B8D8C8D98131AC0E889F989808185FFEE
:1024B00015C09FB7F894EE89FF896083E889F98990
:1024C00080818370806480839FBF81E090E0DF9192
:1024D000CF911F910F91FF90EF900895F62E0B8DE5
:1024E00010E00F5F1F4F0F731127E02E8C8D8E11A0
:1024F0000CC00FB607FCFACFE889F989808185FF07
:10250000F5CFCE010E942512F1CFEB8DEC0FFD2F00
:10251000F11DE35AFF4FF0829FB7F8940B8FEA89C1
:10252000FB8980818062CFCF0F931F93CF93DF937E
:102530008C01D0E0C0E0F801EC0FFD1F6491662330
:1025400041F085E494E00E944712892B11F0219616
:10255000F2CFCE01DF91CF911F910F910895682F97
:1025600085E494E00C944712CF93DF93EC01888DBF
:102570008823B9F0AA89BB89E889F9898C9185FDFE
:1025800003C0808186FD0DC00FB607FCF7CF8C918C
:1025900085FFF2CF808185FFEDCFCE010E9425120D
:1025A000E9CFDF91CF91089520911503260F3327AE
:1025B000331F21323105ECF420911B04FC0190E023
:1025C00080E0243069F082E00895A0911503219104
:1025D000AC014B505D4FA40FB52FB11D2C9301964C
:1025E000861798F380911503680F6093150380E0B8
:1025F000089581E0089510921B0481E080931A04ED
:102600001092F50361E082E10E94120E61E083E125
:102610000E94120EE9EBF0E080818E7F8083808142
:102620008D7F808388E48093B80085E48093BC002C
:102630000895CF93DF9391E09093F4028823B9F04B
:10264000C091B800D091BA008091BC008A7B809381
:10265000BC0060E082E10E94120E60E083E10E9413
:10266000120E0E94FB12D093BA00C093B800DF9103
:10267000CF9108958F929F92AF92BF92CF92DF92A7
:10268000EF92FF920F931F93CF93DF93D091440467
:10269000D13208F0D7C0182FC09143040E944211D4
:1026A0006B017C0180911B0481116BC082E08093DF
:1026B0001B0410931A048FEF8093190410921804CE
:1026C000D0931704A3E2B4E0E7EFF3E080E0D8137F
:1026D00091C01092F6038091F603CC0FC82BC093E3
:1026E000F6038091F503813009F088C01092F5035C
:1026F0000E9442116B017C018091F6038093BB0024
:1027000080911D0490911E04A0911F04B09120049B
:10271000892B8A2B8B2BA1F00E94421100911D0462
:1027200010911E0420911F04309120046C197D0922
:102730008E099F09061717072807390708F442C0B2
:102740008091BC0083FDD8CF85EC8093BC000E94B3
:1027500042116B017C0180911B04823009F450C04E
:10276000809119048F3F09F46FC080911904803261
:1027700009F46CC080911904803309F469C084E0C5
:1027800026C080911D0490911E04A0911F04B09159
:102790002004892B8A2B8B2B09F484CF0E944211B1
:1027A00080901D0490901E04A0901F04B0902004FF
:1027B0006C197D098E099F0986169706A806B90629
:1027C00008F070CF80911C040E94191385E01092CC
:1027D00022041092440410922104DF91CF911F91A2
:1027E0000F91FF90EF90DF90CF90BF90AF909F90B0
:1027F0008F9008959D9191938F5F69CF85EEA5CFBE
:1028000080911D0490911E04A0911F04B09120049A
:10281000892B8A2B8B2B09F49ECF0E9442110091A9
:102820001D0410911E0420911F04309120046C1986
:102830007D098E099F09061717072807390708F031
:102840008ACFC0CF81E0C3CF80E0C1CF82E0BFCFCD
:1028500083E0BDCF0895E0913D0380913C03E817EC
:1028600030F4F0E0EC52FD4F808190E008958FEF5E
:102870009FEF089590913D0380913C032FEF3FEF30
:10288000981748F4E92FF0E0EC52FD4F208130E03A
:102890009F5F90933D03C901089580913C039091FF
:1028A0003D03891B990B0895CF92DF92EF92FF921F
:1028B0000F931F93CF93DF937C01CB018A0120916B
:1028C0002104222389F0EB016B01C40ED51ECC1527
:1028D000DD0569F06991D701ED91FC910190F081DE
:1028E000E02DC7010995F3CF642F0E94D412C801CF
:1028F000DF91CF911F910F91FF90EF90DF90CF90DC
:102900000895CF93DF931F92CDB7DEB769832091EF
:1029100021042223F9F020914404203258F021E0D0
:1029200030E0FC013383228390E080E00F90DF9160
:10293000CF91089580912204E82FF0E0ED5DFB4FE8
:10294000998190838F5F809322048093440481E077
:1029500090E0ECCF61E0CE0101960E94D412F7CF57
:1029600090E080E008952F923F924F925F926F9295
:102970007F928F929F92AF92BF92CF92DF92EF920F
:10298000FF920F931F93CF93DF93CDB7DEB72897B6
:102990000FB6F894DEBF0FBECDBFE0916A05EE23FF
:1029A00009F4D8C01E830D83190158874F836B012A
:1029B0007C0140906F05509070056090710570909B
:1029C00072058090730590907405A0907505B09085
:1029D000760520916B0530916C0540916D05509105
:1029E0006E0529833A834B835C834092C6035092E1
:1029F000C7036092C8037092C9032AE037ED43E22F
:102A00005CE3C301B2010E942B386093CA03709348
:102A1000CB038093CC039093CD038092CE0390920E
:102A2000CF03A092D003B092D1032AE037ED43E266
:102A30005CE3C501B4010E942B386093D20370930C
:102A4000D3038093D4039093D50329813A814B819A
:102A50005C812093D6033093D7034093D8035093DF
:102A6000D90320917B0530917C052230310528F473
:102A70001092DB031092F40333C00091770510919C
:102A800078052091790530917A05C01AD10AE20AB9
:102A9000F30A41E059E7C516D104E104F10408F056
:102AA00040E04093DB03A9E7CA16D104E104F10436
:102AB00008F700934103109342032093430330939C
:102AC00044031092F1039F7711E02EEA37E441E6C8
:102AD0005EE30E94EF3A18160CF010E01093F40336
:102AE000EF81F885309721F04082518262827382B3
:102AF0002114310429F0F10180829182A282B382F3
:102B00002D813E812115310549F089819A81AB8162
:102B1000BC81F90180839183A283B383E091DB03BD
:102B20008E2F28960FB6F894DEBF0FBECDBFDF9173
:102B3000CF911F910F91FF90EF90DF90CF90BF90BA
:102B4000AF909F908F907F906F905F904F903F904D
:102B50002F9008951092DB031092F403E1CFCF93EE
:102B6000DF930E94930CC9E9D5E01A8661E08A815F
:102B70000E94120E8FB7F8941B862E893F89398FD9
:102B8000288F8FBFDF91CF910C94860C8091F10339
:102B900081110AC08091F203811106C08091F30374
:102BA000811102C08091F40308958F929F92AF9299
:102BB000BF92CF92DF92EF92FF920F931F934091BB
:102BC000EE0408EE13E020E030E0443021F40CE2A3
:102BD00011E020E030E0C0904503D0904603E09043
:102BE0004703F09048034B015C018C189D08AE0828
:102BF000BF08750164010C151D052E053F0518F46D
:102C000051E05093F203C0904103D0904203E09012
:102C10004303F09044036C197D098E099F09061740
:102C200017072807390718F481E08093F10344302F
:102C300099F40E94C615882379F085E08093EE040C
:102C40001F910F91FF90EF90DF90CF90BF90AF90CA
:102C50009F908F900C94AF151F910F91FF90EF9064
:102C6000DF90CF90BF90AF909F908F90089520916C
:102C7000330130913401409135015091360160911A
:102C80002F017091300180913101909132010E94A9
:102C9000C537881F8827881F0895809126018C706A
:102CA0008C3011F40C94371680E008959091260131
:102CB000937081E0933009F080E00895EF92FF92E5
:102CC0000F931F93CF93DF9300D000D000D0CDB7E8
:102CD000DEB700912601029501700E945616E82E7B
:102CE0000E944D16F82E1091DA0311111091DB039A
:102CF0000E94C615202F3E2D4F2D512F682F71E0B9
:102D000080E090E026960FB6F894DEBF0FBECDBFF0
:102D1000DF91CF911F910F91FF90EF900895FC01EB
:102D200001900020E9F73197AF01481B590BBC0116
:102D300085E494E00C94A711CF93DF930E94941242
:102D4000EC018FE991E00E948F168C0F9D1FDF919F
:102D5000CF910895E0911B01E73008F05EC0F0E0EC
:102D6000EC54F94E0C948939BB16BF16C216C51621
:102D7000C816CB16CE168DE59BE00C949C168AE304
:102D80009BE0FBCF80E29BE0F8CF88E09BE0F5CFB3
:102D90008CEE9AE0F2CF81ED9AE0EFCF8FEB9AE0E4
:102DA0000E9494120E94561681112BC08FEA9AE05D
:102DB0000E94941286EB9AE00E9494120E944D1693
:102DC000811122C081EA9AE00E94941288EA9AE076
:102DD0000E9494128091260184FD19C082E99AE034
:102DE0000E94941289E99AE00E94941280914E0305
:102DF000811110C084E79AE00E949C168BE79AE04C
:102E0000BCCF82EB9AE0D4CF84EA9AE0DDCF85E9AB
:102E10009AE0E6CF87E79AE0EFCF0895CF938091CD
:102E20001A01811150C0C09126018AEE99E0C0FFBD
:102E300012C089EB99E0C1FF0EC08FE899E0C2FF94
:102E40000AC089E699E0C3FF06C00E9437168111C7
:102E500005C083E499E0CF910C949C168091EE0418
:102E6000853019F48EE199E0F6CF8FEF98E0C4FF3A
:102E7000F2CF80910001882371F0809102018111CD
:102E80000AC080910101882319F08AEC98E0E3CF11
:102E900087E998E0E0CF8091DA03811103C088E6EA
:102EA00098E0D9CF8091DB03811103C081E398E0E2
:102EB000D2CF80914E03882319F088E198E0CBCFE0
:102EC00080E098E0C8CFCF9108958F929F92AF9203
:102ED000BF920F931F93CF93DF93CDB7DEB7A19728
:102EE0000FB6F894DEBF0FBECDBF19A2423008F472
:102EF0004AE08E010F5D1F4F842E912CB12CA12C26
:102F0000A50194010E946739E62FB901CA01EA3090
:102F1000F4F4E05DD801EE938D01232B242B252BB7
:102F200079F790E080E0109719F0CD010E948F169C
:102F3000A1960FB6F894DEBF0FBECDBFDF91CF9143
:102F40001F910F91BF90AF909F908F900895E95C73
:102F5000E1CFCF93DF93D0E0C0E0009719F00E945B
:102F60008F16EC018FE991E00E948F168C0F9D1F48
:102F7000DF91CF91089585E696E00E949C1689E541
:102F800096E00E949412E091EE04E63008F04FC003
:102F9000F0E0EE0FFF1FE159FE4F80819181009715
:102FA00011F00E948F1682E596E00E9494120E9412
:102FB000561681113FC082E496E00E94941289E483
:102FC00096E00E9494120E944D16811136C084E34F
:102FD00096E00E9494128BE396E00E9494128091F6
:102FE000260184FD2DC082E296E00E94941289E2BF
:102FF00096E00E9494128091DA03811124C080E14E
:1030000096E00E94941287E196E00E9494128091CB
:10301000DB0381111BC089E096E00E949C16809121
:10302000DB03811116C082EE95E00C949C1682EAB7
:1030300091E0B7CF85E496E0C0CF87E396E0C9CFB3
:1030400085E296E0D2CF83E196E0DBCF8CE096E09C
:10305000E4CF0895CF93DF93EC018091EE048130AB
:1030600011F40E94590A1092000180911C011092E3
:103070001A0110921B0191E090931C0110921D0106
:1030800080931E0181E99BE00E949412CE010E9470
:103090008F168CE79BE00E94941280911E01811193
:1030A00006C088E79BE0DF91CF910C949C168AE7DD
:1030B0009BE0F9CF4F925F926F927F928F929F9297
:1030C000AF92BF92CF92DF92EF92FF920F931F9336
:1030D000CF936B017C01742EAC019B010E94F43AEA
:1030E000882399F08AEA91E0CF911F910F91FF9088
:1030F000EF90DF90CF90BF90AF909F908F907F9098
:103100006F905F904F900C948F1646015701E89492
:10311000B7F82FEF3FEF4FE75FE7C501B4010E941B
:10312000F43A81110DC02FEF3FEF4FE75FE7C50184
:10313000B4010E94C53718161CF48EEA91E0D4CF72
:103140002FEF3FEF4FE75FE4C701B6010E94EF3A70
:1031500018161CF482EB91E0C7CF2FEF3FEF4FE73B
:103160005FECC701B6010E94C53787FDF3CF20E0B1
:1031700030E0A901C701B6010E94C53710E000E0A8
:1031800087FF08C08DE20E94AF128C01F7FAF0941D
:10319000F7F8F094C0E060E070E080E09FE37C1618
:1031A00041F020E030E040E251E40E94103ACF5F6D
:1031B000F6CFA70196010E94A4392B013C010E9481
:1031C000823A4B015C014AE00E9465177C01E00EE7
:1031D000F11ECC23B1F1C501B4010E94CA379B0195
:1031E000AC01C301B2010E94A3394B015C018EE224
:1031F0000E94AF12E80EF91EC15018F120E030E035
:1032000040E251E4C501B4010E942B382B013C017E
:103210000E94823A4B01B12CA12C4AE0C501B401B5
:103220000E946517E80EF91EC501B4010E94CA3755
:103230009B01AC01C301B2010E94A3394B015C01A7
:10324000DBCFC701CF911F910F91FF90EF90DF90DF
:10325000CF90BF90AF909F908F907F906F905F9036
:103260004F9008950C945A188FE794E00E9494129E
:1032700060912F0170913001809131019091320164
:1032800046E050E00E94321983E794E00E949412D5
:103290006091330170913401809135019091360134
:1032A00046E050E00E9432198FE594E00E949412AB
:1032B0000E944D16811104C088E594E00C949C1680
:1032C0008BE594E0FBCF8EE394E00E949412609132
:1032D0002701709128018091290190912A0146E0EF
:1032E00050E00E9432198CE294E00E9494126091A6
:1032F0002B0170912C0180912D0190912E0146E0BF
:1033000050E00E9432198AE194E00E9494120E94D7
:103310005616811104C083E194E00C949C1686E15A
:1033200094E0FBCFCF93DF930E945A18EC018FE912
:1033300091E00E948F168C0F9D1FDF91CF91089511
:10334000CF92DF92EF92FF92CF93DF936C01990FB0
:10335000EE08FF08F7FE1DC08DE20E94AF12EC01DF
:1033600066277727CB016C197D098E099F094AE0F2
:103370000E946517C80FD91F8FE991E00E948F1630
:103380008C0F9D1FDF91CF91FF90EF90DF90CF903A
:1033900008954AE0C701B6010E946517EC01ECCF21
:1033A000CF92DF92EF92FF92CF93DF936C01990F50
:1033B000EE08FF08F7FE17C08DE20E94AF12EC0185
:1033C00066277727CB016C197D098E099F094AE092
:1033D0000E9465178C0F9D1FDF91CF91FF90EF909A
:1033E000DF90CF9008954AE0C701B601DF91CF91F9
:1033F000FF90EF90DF90CF900C946517CF93DF9301
:10340000682F70E090E080E04AE00E946517EC01D0
:103410008FE991E00E948F168C0F9D1FDF91CF9155
:103420000895CF930E94000EC82F81ED95E00E9471
:1034300094128C2F0E94FE1980EC95E00E94941249
:103440008091EE04843089F181EA95E00E949C1617
:1034500081E995E0CC2331F18091F103882321F0BB
:103460008AE595E00E949C168091F203882321F062
:1034700083E395E00E949C168091F303882321F05A
:1034800087E095E00E949C168091F403882321F048
:103490008AED94E00E949C168091EE04853041F400
:1034A00086EB94E0CF910C949C1681EB95E0CECF07
:1034B00085E994E0F7CFFF920F931F93CF93DF93AB
:1034C000CDB7DEB72C970FB6F894DEBF0FBECDBFD9
:1034D00019821A821B821C821D821E821F821886FC
:1034E00019861A861B861C860E9499118E01075F19
:1034F0001F4F9E012B5F3F4FAE014F5F5F4F0E94FA
:10350000B314F82E811111C087E397E00E949C1636
:103510008F2D2C960FB6F894DEBF0FBECDBFDF9176
:10352000CF911F910F91FF90089589859A85AB8562
:10353000BC8580932B0190932C01A0932D01B09317
:103540002E01809126018260809326010E949911AC
:1035500010E000E030E020E050E040E00E94B314D2
:1035600081E080934E038DE197E00E94941269857B
:103570007A858B859C8546E050E00E9492190E94D6
:103580006319C6CF2F923F924F925F926F927F92B4
:103590008F929F92AF92BF92CF92DF92EF92FF9263
:1035A0000F931F93CF93DF9300D000D01F92CDB71E
:1035B000DEB70E94991120906A0520918105298328
:1035C00020917B0530917C053D832C832220E1F006
:1035D00000917705109178052091790530917A0551
:1035E0006B017C01C01AD10AE20AF30A8C819D8129
:1035F000029740F03324339499E7C916D104E104CB
:10360000F10438F0312C05C0312CCC24CA94DC2CC8
:10361000760140906B0550906C0560906D05709040
:103620006E058090660590906705A0906805B09043
:10363000690500917D0510917E0520917F053091EF
:1036400080053B832A838BED96E00E94941281EDE6
:1036500096E0211002C08FEC96E00E94941283ED58
:1036600096E00E94941283EC96E0311002C081EC47
:1036700096E00E94941285EC96E00E9494123981A3
:1036800084E796E0311102C082E796E00E9494122E
:1036900088EB96E00E9494124AE0C701B6010E94AE
:1036A00065178FEA96E00E94941244E050E0C3014F
:1036B000B2010E94321985EA96E00E94941244E019
:1036C00050E0C501B4010E94321986E996E00E94DB
:1036D00094122C813D81B90190E080E04AE00E9483
:1036E000651788E896E00E949412B80190E080E0A7
:1036F0004AE00E94651786E796E00E9494122A81AC
:103700003B81B90190E080E04AE00E9465178FE9B3
:1037100091E00F900F900F900F900F90DF91CF914D
:103720001F910F91FF90EF90DF90CF90BF90AF90DF
:103730009F908F907F906F905F904F903F902F90D1
:103740000C948F16CF93DF93EC0184E69AE00E94ED
:103750009C168981811104C089E59AE00E949C161B
:103760008A81811104C08CE49AE00E949C168881B1
:10377000811104C081E49AE00E949C168B81811122
:1037800004C083E39AE00E949C168C81882321F078
:1037900086E29AE00E949C168D81811104C085E129
:1037A0009AE00E949C168C8181110E94111A8B81D3
:1037B000811102C00E94C21ADF91CF910C940E17A2
:1037C0000F931F93CF93DF93CDB7DEB72C970FB630
:1037D000F894DEBF0FBECDBF109100018AEF93E0D9
:1037E000112351F010910101111114C08EED93E0DD
:1037F0000E949C168AEB93E00E949C16812F2C96C7
:103800000FB6F894DEBF0FBECDBFDF91CF911F91F1
:103810000F91089519861A861B861C861D821E82AA
:103820001F82188619821A821B821C820E9499119B
:103830008E010F5F1F4F9E012B5F3F4FAE01475F11
:103840005F4F0E94B314182F811103C086EA93E0E2
:10385000D3CF69817A818B819C81609307017093BA
:1038600008018093090190930A012091030130918E
:10387000040140910501509106010E94EF3A87FF33
:1038800070C08FEF8093190191E090930201109224
:1038900000018F3F09F081E0809325018091EE04C3
:1038A000813019F483E08093EE0485E993E00E946F
:1038B00094120E9499114AE00E9465178CE20E94BE
:1038C000AF126091130170911401809115019091D4
:1038D000160145E050E00E9432198CE20E94AF12BE
:1038E00080911701082E000C990B0E94D0198CE2D0
:1038F0000E94AF1280911801082E000C990B0E94B3
:10390000D0198CE20E94AF12609103017091040102
:10391000809105019091060144E050E00E94321927
:103920008CE20E94AF1260910701709108018091B2
:10393000090190910A0144E050E00E9432198CE2A2
:103940000E94AF1280911901082E000C990B0E9461
:10395000A01981E693E00E949C1681E080934E03BB
:103960004DCF81E08FCFCF92DF92EF92FF920E94F6
:1039700099116B017C0185E192E00E949412E09123
:10398000EE0482EA91E0E63038F4F0E0EE0FFF1F3B
:10399000E159FE4F808191810E94A91786E092E053
:1039A0000E9494128091DA03811129C189EF91E07C
:1039B0000E94941280E092E00E9494128091DB03B6
:1039C000811120C18EE591E00E949C1689EE91E064
:1039D0000E9494126091BA037091BB038091BC0362
:1039E0009091BD0344E050E00E94321982EE91E0D4
:1039F0000E9494126091C6037091C7038091C8031E
:103A00009091C90344E050E00E94321986ED91E0A4
:103A10000E9494126091CE037091CF038091D003E5
:103A20009091D10344E050E00E94921988EC91E01B
:103A30000E9494128091450390914603A091470300
:103A4000B0914803A7019601281B390B4A0B5B0B69
:103A5000CA01B9014AE00E9465178FEB91E00E940C
:103A600094128091410390914203A0914303B0913D
:103A70004403A7019601281B390B4A0B5B0BCA01B3
:103A8000B9014AE00E9465178FE991E00E948F1604
:103A900082EB91E00E9494120E94000E0E94FE1997
:103AA0008BE991E00E94941280912401082E000C71
:103AB000990B0E94D0198AE891E00E94941280919B
:103AC0002301082E000C990B0E94D0198AE791E07F
:103AD0000E94941280912501082E000C990B0E94DF
:103AE000A01985E691E00E9494120E945616811159
:103AF0008CC083E491E00E9494128AE491E00E94D9
:103B000094120E944D16811183C08AE291E00E94B6
:103B1000941281E391E00E9494128091260184FD29
:103B20007AC08DEC90E00E949C1680E191E00E94AA
:103B30009412609127017091280180912901909140
:103B40002A0146E050E00E9432198EEF90E00E9478
:103B5000941260912B0170912C0180912D01909114
:103B60002E0146E050E00E94921988EE90E00E94FB
:103B7000941260912F0170913001809131019091E8
:103B8000320145E050E00E9432198CED90E00E9435
:103B900094126091330170913401809135019091BC
:103BA000360145E050E00E94321984ED90E00E9419
:103BB00094120E944D16811131C087EA90E00E9454
:103BC0009C168BEB90E00E94941280914D03813003
:103BD00059F1823031F58DEB91E00E94A9178EEA00
:103BE00090E00E94941280911E01811120C083EA0E
:103BF00090E0FF90EF90DF90CF900C949C168DEFAB
:103C000091E0D6CE82E691E0DFCE86E491E073CFFC
:103C10008DE291E07CCF80ED90E085CF8AEA90E064
:103C2000CECF86EC91E0D9CF86EB91E0D6CF85EA76
:103C300090E0DFCF2F923F924F925F926F927F92F0
:103C40008F929F92AF92BF92CF92DF92EF92FF92AC
:103C50000F931F93CF93DF93CDB7DEB72A970FB69D
:103C6000F894DEBF0FBECDBFA0919205B091930531
:103C7000109791F58091950590919605A0919705E3
:103C8000B09198050196A11DB11D80939505909363
:103C90009605A0939705B09398051092DA0381E0FA
:103CA0008093F20380E02A960FB6F894DEBF0FBE31
:103CB000CDBFDF91CF911F910F91FF90EF90DF90DB
:103CC000CF90BF90AF909F908F907F906F905F90BC
:103CD0004F903F902F90089589011A016F83788744
:103CE00089879A872091940531E0309321042093AD
:103CF00043041092220410924404ED91FC91119718
:103D00000190F081E02D6CE0CD01099580E00E94EA
:103D10003A13F82E8111AECFE09094050E94421123
:103D20002B013C0180911B04811164C081E08093D0
:103D30001B0480931A049FEF9093190410921804A7
:103D4000809317048093F6038091F603EE0CE82A23
:103D5000E092F6038091F503813009F0CFC0109214
:103D6000F5030E9442112B013C018091F6038093E0
:103D7000BB0080911D0490911E04A0911F04B0917E
:103D80002004892B8A2B8B2BA1F00E9442112091B9
:103D90001D0430911E0440911F04509120046419A9
:103DA000750986099709261737074807590708F440
:103DB00042C08091BC0083FDD8CF85EC8093BC00CD
:103DC0000E9442112B013C0180911B04813009F4B7
:103DD00097C080911804823008F0B4C08091180414
:103DE000A7EFB3E0E4EDF2E0F81649F19D9191936D
:103DF000F394FACF80911D0490911E04A0911F04AA
:103E0000B0912004892B8A2B8B2B09F48BCF0E9435
:103E1000421120911D0430911E0440911F045091C5
:103E2000200464197509860997092617370748077A
:103E3000590708F077CF80911C040E941913109243
:103E40003D03F0923C0382E0882EF81013CF80915E
:103E5000920590919305DC01ED91FC910084F18530
:103E6000E02D099502970CF405CF80919205909171
:103E70009305DC01ED91FC910284F385E02D099519
:103E8000F82E8091920590919305DC01ED91FC91C3
:103E90000284F385E02D099560E07F2D66277F7011
:103EA000682B90E080E00E94CA3720E030E044EBCD
:103EB00053E40E942B3820E030E040E859E30E94B0
:103EC0002B382B013C012091270130912801409192
:103ED000290150912A010E94A3396B017C0120E045
:103EE00030E044E353E40E94EF3A18166CF520E00A
:103EF00030E044EB53E4C701B601EDCF85EE5ECF71
:103F000080911D0490911E04A0911F04B091200483
:103F1000892B8A2B8B2B09F457CF0E9442112091B9
:103F20001D0430911E0440911F0450912004641917
:103F3000750986099709261737074807590708F0B2
:103F400043CF79CF82E04CCF20E030E044E353EC24
:103F5000C701B6010E94C53787FF0BC020E030E0E3
:103F600044EB53E4C701B6010E94A4396B017C0104
:103F7000EBCF60912301062E000C770B880B990B79
:103F80000E94CC37A70196010E942B386B017C015F
:103F9000C092BA03D092BB03E092BC03F092BD037F
:103FA00025E33AEF4EE85CE30E942B386093BE03B2
:103FB0007093BF038093C0039093C1034092C203E8
:103FC0005092C3036092C4037092C50321E0209312
:103FD000DA038090D0029090D102A090D202B090EB
:103FE000D30289829A82AB82BC8289288A288B2854
:103FF000B9F58F809884A984BA848092D002909277
:10400000D102A092D202B092D30280924503909244
:104010004603A0924703B09248031092F2039F77A1
:10402000BB24B39422E93AE046E85EE30E94EF3A0B
:1040300018160CF0B12CB092F3032114310431F0B6
:10404000D101CD92DD92ED92FC92139701151105ED
:1040500029F0F801408251826282738281E023CE8E
:104060008F809884A984BA8429813A814B815C81AC
:10407000821A930AA40AB50A8092490390924A03CD
:10408000A0924B03B0924C03B4CF1F93CF93DF9316
:10409000CDB7DEB728970FB6F894DEBF0FBECDBF01
:1040A00019821A821B821C821D821E821F82188620
:1040B0000E9499119E012B5F3F4FAE014F5F5F4FF2
:1040C0000E941A1E182F81110FC089E097E00E94EC
:1040D0009C16812F28960FB6F894DEBF0FBECDBF79
:1040E000DF91CF911F9108958D819E81AF81B88519
:1040F0008093270190932801A0932901B0932A016E
:10410000809126018160809326010E94991130E000
:1041100020E050E040E00E941A1E81E080934E03B0
:1041200082EF96E00E9494126D817E818F81988546
:1041300046E050E00E9492190E946319CACF4F9244
:104140005F926F927F928F929F92AF92BF92CF9227
:10415000DF92EF92FF920F931F93CF93DF93CDB730
:10416000DEB764970FB6F894DEBF0FBECDBF809167
:10417000EE04853061F480E593E00E949C160E9475
:10418000111A89E393E00E949C1610E01BC00E9464
:1041900099114B015C01198A1A8A1B8A1C8A1D8697
:1041A0001E861F86188A9E01235F3F4FAE014F5E19
:1041B0005F4F0E941A1E182F81111CC085E293E0E8
:1041C0000E949C16812F64960FB6F894DEBF0FBE36
:1041D000CDBFDF91CF911F910F91FF90EF90DF90B6
:1041E000CF90BF90AF909F908F907F906F905F9097
:1041F0004F9008958091EE048450823018F489E045
:1042000093E0C1CFFF24F394F092EE04F09200010A
:10421000F092010110920201809124018093170114
:1042200080912301809318018091250180931901C9
:1042300019861A861B861C861D821E821F8218867E
:1042400019821A821B821C828E010F5F1F4F9E01F2
:104250002B5F3F4FAE01475F5F4FC501B4010E9426
:10426000B3148093010189819A81AB81BC818093D1
:10427000030190930401A0930501B09306018D857D
:104280009E85AF85B88980930B0190930C01A09314
:104290000D01B0930E01F092A30560E080919B05A3
:1042A0000E94120E20E030E04AEF53E468E770E02D
:1042B00080E090E00E948B0D0E9499114B015C01FF
:1042C0000E946F0C8823E9F00E9442112B013C01EF
:1042D0000E9499116B017C010E94E60DA7019601D5
:1042E000C301B2010E945E0EC818D908EA08FB0893
:1042F00089EBC8168BE0D806E104F10408F30E94AC
:10430000930C0E94E60D62E370E080E090E00E9472
:1043100067110E9499112FE031E050E040E00E94C7
:104320001A1E182F81110CC08BEE92E00E949C1671
:104330008091EE04813009F045CF1092EE0442CF17
:1043400020910B0130910C0140910D0150910E0113
:1043500060910F01709110018091110190911201F3
:104360000E94A3396B017C0120E030E044E353E478
:104370000E94EF3A18163CF420E030E044EB53E49E
:10438000C701B601EDCF20E030E044E353ECC701B4
:10439000B6010E94C53787FF0BC020E030E044EB38
:1043A00053E4C701B6010E94A4396B017C01EBCF35
:1043B000C0921301D0921401E0921501F0921601FF
:1043C0000091240120E030E0A901C701B6010E945C
:1043D000EF3A87FD01950093170120E030E0A90135
:1043E000C701B6010E94EF3A87FD55C081E0809376
:1043F000180191E007FD9FEF909324018F3F09F092
:1044000081E08093230180912601806180932601C1
:1044100081E080934E038091EE04813019F483E0B3
:104420008093EE048EEC92E00E949C1684EB92E066
:104430000E949412609113017091140180911501F2
:104440009091160145E050E00E94921987E992E0B0
:104450000E94941280911701082E000C990B0E9463
:10446000A0198BE792E00E94941280911801082E07
:10447000000C990B0E94A01980910101882369F01A
:104480008FE492E00E949C168091B103811108C0D4
:104490000E94AF1597CE8FEFAACF8CE192E0F2CFBA
:1044A000182F90CECF92DF92EF92FF920F931F932F
:1044B000CF936B017C01C092DC03D092DD03E092CC
:1044C000DE03F092DF0330E020E050E040E00E94A5
:1044D0001A1EC82F10E000E030E020E050E040E07D
:1044E000C701B6010E94B314C11101C080E0CF9191
:1044F0001F910F91FF90EF90DF90CF90089585ED81
:104500008093BC0080911D0490911E04A0911F0413
:10451000B09120040796A11DB11D23E0B695A79583
:10452000979587952A95D1F72091BC0024FD03C06B
:1045300010921B04089540911D0450911E04609137
:104540001F0470912004452B462B472B69F30097DD
:10455000A105B10541F02AE22A95F1F700C00197C3
:10456000A109B109E1CF80911C040C9419134F9259
:104570005F926F927F928F929F92AF92BF92CF92F3
:10458000DF92EF92FF92CF93C09126018C2F8C7017
:104590008C3099F5C0902F01D0903001E09031011E
:1045A000F090320140903301509034016090350119
:1045B00070903601A3019201C701B6010E94D03A62
:1045C0004B015C01A3019201C701B6010E94B13AFF
:1045D0006B017C01A50194010E94A33920E030E029
:1045E00040E050E40E94C53787FF09C0C37FC093F5
:1045F00026018BE497E00E949C1680E011C0809217
:104600002F0190923001A0923101B0923201C092FC
:104610003301D0923401E0923501F092360181E00D
:10462000CF91FF90EF90DF90CF90BF90AF909F9091
:104630008F907F906F905F904F9008951F93CF93CE
:10464000DF9300D000D0CDB7DEB719821A821B826B
:104650001C820E94991130E020E0AE014F5F5F4F55
:104660000E941A1E182F81110DC08CEE97E00E9437
:104670009C16812F0F900F900F900F90DF91CF918C
:104680001F91089589819A81AB81BC818093330108
:1046900090933401A0933501B093360180912601A7
:1046A00088608093260181E080934E0387ED97E038
:1046B0000E94941269817A818B819C8146E050E04E
:1046C0000E9492198091260182FF08C00E94B722A1
:1046D000882339F083EB97E00E949C160E943419DE
:1046E000C8CF10E0C6CF1F93CF93DF9300D000D088
:1046F000CDB7DEB719821A821B821C820E949911E3
:1047000030E020E0AE014F5F5F4F0E941A1E182F6D
:1047100081110DC08FE997E00E949C16812F0F90A8
:104720000F900F900F90DF91CF911F910895898185
:104730009A81AB81BC8180932F0190933001A0932B
:104740003101B0933201809126018460809326016B
:1047500081E080934E0388E897E00E94941269817B
:104760007A818B819C8146E050E00E949219809171
:10477000260183FF08C00E94B722882339F084E60F
:1047800097E00E949C160E943419C8CF10E0C6CF53
:10479000FF920F931F93CF93DF9380E19BEB909356
:1047A000200180931F0181E090E09093220180938B
:1047B00021010E94800A8FE191E00E94680A909393
:1047C0003801809337010FE111E0D0E0C0E0F8013B
:1047D000F1908F01CE010E94EC38F81621F06F2D78
:1047E000CE010E94F4382196CA31D10581F781E0CB
:1047F00080934D03DF91CF911F910F91FF9008950A
:10480000EF92FF920F931F93CF93DF93CDB7DEB755
:104810006A970FB6F894DEBF0FBECDBF8AE1E9E319
:10482000F1E0DE01119601900D928A95E1F7CE013B
:1048300001967C0110E000E0C8010E94EC38F7010D
:1048400081937F010F5F1F4F0A311105A9F78981FD
:104850009A8180319B4B21F48B819C81019799F047
:104860000E94B50A82E080934D0380E06A960FB6FD
:10487000F894DEBF0FBECDBFDF91CF911F910F9196
:10488000FF90EF900895CE0101960E94680A298D4D
:104890003A8D2817390721F78AE1FE013196AFE1F9
:1048A000B1E001900D928A95E1F70E94800A8FE1B4
:1048B00091E00E94680A909338018093370181E06B
:1048C00080934D03D3CF1F920F920FB60F921124F6
:1048D0002F933F938F939F93AF93BF938091E9035F
:1048E0009091EA03A091EB03B091EC033091E803BF
:1048F00023E0230F2D3758F50196A11DB11D2093FC
:10490000E8038093E9039093EA03A093EB03B09349
:10491000EC038091ED039091EE03A091EF03B09131
:10492000F0030196A11DB11D8093ED039093EE035A
:10493000A093EF03B093F003BF91AF919F918F913C
:104940003F912F910F900FBE0F901F90189526E862
:10495000230F0296A11DB11DD2CF1F920F920FB649
:104960000F9211242F933F934F935F936F937F93F5
:104970008F939F93AF93BF93EF93FF9385E494E05E
:104980000E942512FF91EF91BF91AF919F918F915E
:104990007F916F915F914F913F912F910F900FBE3B
:1049A0000F901F9018951F920F920FB60F9211241F
:1049B0002F938F939F93EF93FF93E0915504F09182
:1049C00056048081E0915B04F0915C0482FD1BC081
:1049D000908180915E048F5F8F7320915F048217B6
:1049E00041F0E0915E04F0E0EB5BFB4F958F80932C
:1049F0005E04FF91EF919F918F912F910F900FBEC9
:104A00000F901F9018958081F4CF1F920F920FB6D0
:104A10000F9211242F933F934F935F936F937F9344
:104A20008F939F93AF93BF93EF93FF938091B900C0
:104A3000887F803609F44AC0F0F5883209F4A7C0AF
:104A400018F5803109F49BC0B8F4882309F4F9C043
:104A5000883009F494C0FF91EF91BF91AF919F917D
:104A60008F917F916F915F914F913F912F910F9017
:104A70000FBE0F901F901895883109F488C08032BE
:104A800051F78093190414C0803409F49DC040F498
:104A90008033B9F38833F9F68093190485ECB0C0FC
:104AA000803509F485C0883509F496C0883499F6B4
:104AB0000E947F22D0CF883909F48CC038F588371E
:104AC00029F050F4883611F0803729F683E080937E
:104AD0001B041092370357C0883809F47BC0803913
:104AE00019F0803809F0B7CF80913703803208F091
:104AF00071C0E091370381E08E0F8093370380917E
:104B0000BB00F0E0E95EFC4F80833DC0803B39F0A4
:104B1000E0F4803A09F479C0883A09F09CCF84E047
:104B200080931B041092160310921503E0913A0330
:104B3000F0913B0309958091150381110FC081E02D
:104B4000809315031092F50209C0803C09F4A6CFAA
:104B5000883C09F4A3CF883B09F07DCFE091160390
:104B600081E08E0F80931603F0E0EB50FD4F8081C3
:104B70008093BB00909116038091150329C080910A
:104B8000F6038093BB0085EC8093BC0064CF9091CA
:104B9000180480911704981758F5E091180481E0E3
:104BA0008E0F80931804F0E0E950FC4F8081E9CF2C
:104BB000E091180481E08E0F809318048091BB006F
:104BC000F0E0E950FC4F8083909118048091170425
:104BD0009817C8F285E8D8CFE091180481E08E0FCD
:104BE000809318048091BB00F0E0E950FC4F808373
:104BF00080911A0481115CCF81E08093F50384EAEF
:104C00008093BC0010921B0426CF85EC8093BC00DF
:104C100010921B0480913703803230F4E091370307
:104C2000F0E0E95EFC4F10826091370370E0E091A4
:104C30003803F091390387E193E009951092370327
:104C40000ACF1092190434CF1F920F920FB60F9211
:104C500011240F931F932F933F934F935F936F9361
:104C60007F938F939F93AF93BF93CF93EF93FF93D4
:104C7000E0913F03F09140033097C1F0C0913E03B3
:104C8000CC23A1F010810E9442112091870522239C
:104C900069F0C123F9F060938805709389058093CA
:104CA0008A0590938B0581E080939005FF91EF91A9
:104CB000CF91BF91AF919F918F917F916F915F91B4
:104CC0004F913F912F911F910F910F900FBE0F9019
:104CD0001F90189520919005222341F3009188059B
:104CE0001091890520918A0530918B05601B710B0D
:104CF000820B930B60938C0570938D0580938E05CA
:104D000090938F0581E08093910510929005109209
:104D10008705CCCF1F920F920FB60F9211242F93BD
:104D20003F934F935F936F937F938F939F93AF9333
:104D3000BF93EF93FF930E942426FF91EF91BF91C1
:104D4000AF919F918F917F916F915F914F913F9123
:104D50002F910F900FBE0F901F9018951F920F92DA
:104D60000FB60F9211242F933F934F935F936F933E
:104D70007F938F939F93AF93BF93EF93FF930E9483
:104D80002426FF91EF91BF91AF919F918F917F91D9
:104D90006F915F914F913F912F910F900FBE0F90A8
:104DA0001F9018951F920F920FB60F9211248F9398
:104DB0009F93AF93BF93EF93FF938091A2058823B6
:104DC000E9F08091A3058823C9F08091A505882387
:104DD000A9F08091AF059091B005892B79F0809171
:104DE000B1059091B2050297A0F08091B105909124
:104DF000B20501979093B2058093B105FF91EF91B1
:104E0000BF91AF919F918F910F900FBE0F901F9008
:104E100018958091AF059091B0059093B20580935D
:104E2000B1058091A40591E089278093A405909114
:104E3000A405E0919C05F0919D0580919E05992324
:104E400009F44AC09081892B80838091A40588232E
:104E5000A9F28091B705882389F28091B3059091DA
:104E6000B405A091B505B091B605181619061A0635
:104E70001B0624F68091B3059091B405A091B50569
:104E8000B091B6050197A109B1098093B30590933C
:104E9000B405A093B505B093B6058091B305909184
:104EA000B405A091B505B091B605892B8A2B8B2B43
:104EB00009F0A4CF1092A5051092A405E0919C05DD
:104EC000F0919D05908180919E0580958923808336
:104ED00081E08093B80592CF908180958923B4CFEB
:104EE000FC011082118212821382148215821682B2
:104EF0001782108611861286138648E25BE66EE6FC
:104F00007EEC448755876687778788E29BE6AEE626
:104F1000BEE4808B918BA28BB38B448B558B668BBD
:104F2000778B808F918FA28FB38F148E158E168EF4
:104F3000178E10A211A212A213A214A20895CF9349
:104F4000DF93CDB7DEB76C970FB6F894DEBF0FBE18
:104F5000CDBF109248041092470488EE93E0A0E081
:104F6000B0E08093490490934A04A0934B04B0931B
:104F70004C042FE731E0309346042093450425ECA0
:104F800030E0309352042093510424EC30E030930D
:104F900054042093530420EC30E0309356042093C3
:104FA000550421EC30E0309358042093570422EC50
:104FB00030E030935A042093590426EC30E03093CB
:104FC0005C0420935B0410925E0410925F041092C4
:104FD0006004109261041092E5041092E40480933E
:104FE000E6049093E704A093E804B093E90481E910
:104FF00091E09093E3048093E20482E0809399052A
:1050000083E080939A0584E080939B0510929D0530
:1050100010929C0510929E051092A00510929F057B
:105020001092A1051092A2051092A3051092A4055A
:105030001092A50581E08093A6051092A705109215
:10504000A8051092A9051092AA051092AB0510921E
:10505000AC051092AD051092AE051092B0051092FD
:10506000AF051092B2051092B1051092B3051092DF
:10507000B4051092B5051092B6051092B7051092BE
:10508000B805109293051092920586E380939405DB
:10509000109295051092960510929705109298051A
:1050A00088E080933D0589E080933E05EFE3F5E0DD
:1050B000119211921192119285E0E336F807C1F72F
:1050C00010926305109264051092650510926605B2
:1050D00010926705109268051092690510926A0592
:1050E00010926B0510926C0510926D0510926E0572
:1050F00010926F0510927005109271051092720552
:105100001092730510927405109275051092760531
:1051100010927705109278051092790510927A0511
:1051200010927C0510927B0510927E0510927D05F1
:105130001092800510927F051092810510928205D1
:1051400010928305109284051092850510928605B1
:1051500010928705109288051092890510928A0591
:1051600010928B0510928C0510928D0510928E0571
:1051700010928F0510929005109291058FEE94E099
:105180000E94702784E195E00E94702710923905F3
:1051900010923A0510923B0510923C058DE895E37C
:1051A000ADE7B2E48093EF049093F004A093F10490
:1051B000B093F2048EEB9DE5A0E6B3E48093F30494
:1051C0009093F404A093F504B093F6048AED9DE265
:1051D000A6EDB0E48093F7049093F804A093F9044B
:1051E000B093FA0487EB9DE0A3E2BAEB8093FB0453
:1051F0009093FC04A093FD04B093FE0487EB9DE024
:10520000A3E2BAE38093FF0490930005A093010505
:10521000B09302058EE19AEFAEE0BEEB80930305FA
:1052200090930405A0930505B09306058EE19AEFCF
:10523000AEE0BEE38093070590930805A0930905AF
:10524000B0930A058CE1E3E5F1E0DE0111960190EF
:105250000D928A95E1F785E99FE9A7E2B0E4898399
:105260009A83AB83BC8387E291E2AAE4B2E48D83A4
:105270009E83AF83B88780EA9BE7AEE0B2EC8D8770
:105280009E87AF87B88B80EA9BE7AEE0B2E4898B5C
:105290009A8BAB8BBC8B80E090E0A1EEB4EC8D8B55
:1052A0009E8BAF8BB88F80E090E0A1EEB4E4898F45
:1052B0009A8FAB8FBC8F8CE1FE013196A4E1B5E0F3
:1052C00001900D928A95E1F71092EE046C960FB65C
:1052D000F894DEBF0FBECDBFDF91CF910895CF937D
:1052E000DF93CDB7DEB764970FB6F894DEBF0FBE7D
:1052F000CDBF789484B5826084BD84B5816084BD5F
:1053000085B5826085BD85B5816085BD80916E0063
:10531000816080936E001092810080918100826094
:1053200080938100809181008160809381008091D1
:1053300080008160809380008091B10084608093C0
:10534000B1008091B00081608093B00080917A00BC
:10535000846080937A0080917A00826080937A00E2
:1053600080917A00816080937A0080917A008068D1
:1053700080937A001092C100E0915504F091560498
:1053800012E01083E0915104F09152041082E091F8
:105390005304F091540480E1808310925D04E09105
:1053A0005904F0915A0486E08083E0915704F0910B
:1053B0005804808180618083E0915704F091580403
:1053C000808188608083E0915704F0915804808147
:1053D00080688083E0915704F091580480818F7D2C
:1053E00080836AEF70E080E090E00E9467118CEAB1
:1053F0009BE00E949C160E940024811104C00E9420
:10540000B50A10934D0361E0809199050E94111136
:1054100061E080919A050E94111161E080919B05E5
:105420000E9411118091990590E0FC01EB51FC4E16
:10543000E491F0E0EE0FFF1FE552FC4E2591349110
:1054400030939D0520939C05FC01E750FC4EE491B0
:10545000E0939E0580919A0590E0FC01EB51FC4E93
:10546000E491F0E0EE0FFF1FE552FC4E25913491E0
:105470003093A00520939F05FC01E750FC4EE4917A
:10548000E093A1050E94860CE0919F05F091A00594
:10549000309731F090818091A10580958923808398
:1054A00061E080919B050E94120E1092A3059FB7A8
:1054B000F894109280001092810010928500109252
:1054C000840021E330E030938900209388008091AC
:1054D0008100886080938100809181008260809348
:1054E000810080916F00826080936F0011E01093C3
:1054F000A2059FBF0E94AF1510923D0310923C037E
:1055000010922204109244040E94FB1285EA91E159
:1055100090933B0380933A0386EA91E19093390399
:105520008093380382EE94E09093930580939205E4
:1055300086E3809394050E94FB128091940510935A
:1055400021048093430481E00E943A13082F61E014
:1055500080913D050E94111160E080913E050E94FE
:10556000111160E080913D050E94120E8FE090E0E5
:105570000197F1F78FB7F894109287051092900574
:10558000109291058FBF0E94421160567A4E810998
:1055900091096093820570938305809384059093AD
:1055A0008505EEEEF3E1E491F0E0EE0FFF1FEE551E
:1055B000F44F859194919093400380933F03E2E0F0
:1055C000F4E1E491E0933E03809168008160809370
:1055D000680080916B00826080936B001092F103F1
:1055E0001092F2031092F3031092F403011110933E
:1055F000F2031092B2031092B3031092B40310920C
:10560000B5031092B6031092B7031092B80310922C
:10561000B9030E9499116093E4037093E5038093AA
:10562000E6039093E7036093E0037093E1038093B4
:10563000E2039093E30360934503709346038093E2
:105640004703909348036093410370934203809310
:105650004303909344038DE39EE00E949C160E94B6
:10566000BB170E94B31C0E94111A0E940E170E94C1
:1056700042116B017C010E9499112B013C010E9497
:10568000E60DA3019201C701B6010E945E0E85E4FA
:1056900094E00E940512181619060CF08FC785E4D5
:1056A00094E00E94E3118D3091F32091AF0330918B
:1056B000B0038A3009F072C7215B3C4FD9011C92BC
:1056C000188A1F86AE01415F5F4F64ED71E08FE481
:1056D00093E00E9410368C01009709F409C266ED30
:1056E00071E00E94F93A892B51F0F80101900020F5
:1056F000E9F7CF0102978017910709F0ACC2D801F2
:10570000EC91E153EA3408F0A6C20E2E000CFF0B18
:10571000E457F44D0C9489393E3148312B2E2B2E11
:105720002B2E2B2E2B2E2B2E2B2E2B2E2B2E2B2EB1
:105730002B2E2B2E322E2B2E2B2E2B2E2B2E2B2E9A
:105740002B2E2B2E2B2E2B2E2B2E2B2E2B2E2B2E91
:105750002B2E2B2E2B2E2B2E2B2E2B2E2B2E2B2E81
:105760002B2E2B2E2B2E2B2E2B2E2B2E3E312B2E5B
:1057700048312B2E2B2E2B2EE530572F042EDE2CCE
:10578000002C462D612F322EC8322C2C3F2D3E315D
:105790001C31B22DCE2CF430F82DE92C3C2ED62B1A
:1057A0004831C02C6E2DBE322B2E7130AE01415FC0
:1057B0005F4F64ED71E090E080E00E94103600974A
:1057C00099F480911E0191E0892780931E0184E85D
:1057D00093E10E94941280911E01882371F082E867
:1057E00093E10E949C1684C10E94CB3521E0892B55
:1057F00009F420E020931E01EACF80E893E1F1CF85
:10580000AE01415F5F4F64ED71E090E080E00E9487
:105810001036009719F480E793E1E3CF0E94CB356F
:1058200021E0009709F420E02093B103892B79F05F
:105830000E94C61581110BC081E08093A30560E032
:1058400080919B050E94120E8EE593E1CACF0E94C3
:10585000AF158BE493E1C5CFAE01415F5F4F64EDBF
:1058600071E090E080E00E9410367C01AE01415F63
:105870005F4F64ED71E090E080E00E9410368C0193
:10588000E114F10411F0892B19F489E293E1A9CF15
:10589000C7010E94E9356B017C01C8010E94C73530
:1058A0004B015C01C114D104E104F10439F020E0A2
:1058B00030E0A9010E94C53718161CF084E193E17D
:1058C00090CF8091EE04843019F488EF92E189CF73
:1058D00019821A821B821C820E944D16882309F4A9
:1058E0003EC00E94991130E020E0AE014F5F5F4F53
:1058F0000E941A1E882399F12DEC3CEC4CE45EE3E7
:105900001C141D041E041F04ACF46091330170913B
:10591000340180913501909136010E94A33929818B
:105920003A814B815C810E94C5371816C4F08CED1A
:1059300092E157CF60912F01709130018091310138
:10594000909132010E94A43929813A814B815C8176
:105950000E94EF3A87FD03C080EC92E142CF81E0E4
:105960008093A30560E080919B050E94120EA50123
:105970009401C701B6010E948B0D81EB92E131CFFA
:105980000E94C823882339F010924E0384EA92E1E2
:105990000E949C161FC480E992E1FACF0E94002465
:1059A000182F10924E0383E892E10E9494128CE724
:1059B00092E11111EDCF83E792E1EACF0E94B50A9F
:1059C00082E080934D0381E080934E038BE592E16A
:1059D000DFCF0E9499110E9452220E9499110E94C9
:1059E000D5150E945E1629833A834B835C836D83B1
:1059F0007E83CE0101960E943C0A882309F479C572
:105A000010920B0510920C0510920D0510920E05C8
:105A100010920F05109210051092110510921205A8
:105A20001092130510923005109231051092320534
:105A300010923305109234051092350510923605F8
:105A400010923705109238051092390510923A05D8
:105A500010923B0510923C051092B2031092B303D2
:105A60001092B4031092B5031092B6031092B703CC
:105A70001092B8031092B90380E592E1B2CE0E9471
:105A8000590A0E94AF1585E492E182CF1092F1038A
:105A90001092F2031092F3031092F4030E945E1628
:105AA00029833A834B835C836D837E838091EE04EC
:105AB000853039F081E292E10E949C160E94111A11
:105AC00089C3222329F0332319F083E0411101C057
:105AD00080E08093EE0484E392E1EECF80911A019E
