:100000000C94830A0C94AB0A0C94AB0A0C94BC2697
:100010000C9441270C941D270C94AB0A0C94AB0A4A
:100020000C94AB0A0C94AB0A0C94AB0A0C946527A5
:100030000C94AB0A0C94AB0A0C94AB0A0C94AB0A6C
:100040000C94FB240C94AB0A0C946B250C94452562
:100050000C94AB0A0C94AB0A0C94AB0A0C94AB0A4C
:100060000C949D250C94AB0A4E414E494E4954596F
:10007000494E46CDCCCC3D0AD7233C17B7D1387773
:10008000CC2B329595E6241FB14F0A000020410089
:1000900000C84200401C4620BCBE4CCA1B0E5AAED3
:1000A000C59D7448454C502C646961673D736F6E03
:1000B000617220646961677C617335363030206419
:1000C0006961670048454C502C6C696D6974733DDB
:1000D0005B205D20286C2F752F312F322900484579
:1000E0004C502C77697A3D77206E20632071004850
:1000F000454C502C636F72653D3F2F682073207410
:100100002065206A20612070207A205B205D206DB0
:10011000206220672076206F20642069207820727A
:10012000206B20660048454C502C6B65797300307D
:100130000031006E6F007965730054454C2C656E7C
:1001400061626C65643D0043414C5F53544F5245BE
:100150002C7374617475733D006E6F007965730064
:100160002C76616C69643D002C75707065725F64FB
:1001700065673D0043414C5F4C494D4954532C6CDD
:100180006F7765725F6465673D002C736F6E617297
:100190005F63656E7465725F636D3D0043414C5FE4
:1001A0005A45524F2C6173353630305F7A65726F25
:1001B0005F6465673D006E6F00796573002C73693D
:1001C000676E5F63616C696272617465643D006E45
:1001D0006F00796573002C6C696D6974735F63617E
:1001E0006C696272617465643D00626164006F6B8A
:1001F0000043414C2C7A65726F5F63616C69627277
:10020000617465643D002C63757272656E745F7312
:100210006F6E61723D002C63757272656E745F6102
:1002200073353630303D005349474E532C63757259
:1002300072656E745F737465707065723D004641DF
:10024000554C54532C626974733D002C706F735F6E
:100250006D733D004147452C616E676C655F6D7342
:100260003D002C785F66696C745F636D3D002C788F
:100270005F636D3D004D4541532C74686574615F4B
:100280006465673D00626164006F6B002C706F7382
:100290003D0053454E534F52532C616E676C653D84
:1002A0000053544154452C005741524E2C736F6EED
:1002B00061725F6E6561723D6E6F3B207573652084
:1002C000736F6E6172207369676E202B2F2D312042
:1002D0006F7220726572756E206200494E464F2C17
:1002E000736F6E61725F6E6561723D7965733B20FD
:1002F0006D6F76655F7461726765745F6661725F6A
:100300007468656E5F6700494E464F2C737567676A
:1003100065737465645F6173353630305F73696728
:100320006E3D00494E464F2C737567676573746563
:10033000645F737465707065725F7369676E3D00AA
:10034000494E464F2C74686574615F7261775F64D3
:10035000656C74615F6465673D00494E464F2C6370
:10036000616C5F7369676E5F626567696E5F636F1B
:100370006D706C657465004552522C616E676C65DA
:100380005F6E6F745F72656164795F6166746572D8
:100390005F6A6F67004552522C63616E6E6F745FC7
:1003A000656E7465725F63616C69625F7369676EC5
:1003B000004552522C616E676C655F6E6F745F72A0
:1003C000656164790047554944452C646F3D742D3F
:1003D0003E612D3E702D3E662D3E62004552522CF0
:1003E0006661756C745F61637469766500494E4639
:1003F0004F2C7369676E735F6170706C6965645FC1
:1004000072756E74696D653B2072756E2063616CE8
:100410005F7361766520746F2070657273697374A1
:10042000005349474E5F43414C5F524553554C542E
:100430002C004552522C736F6E61725F6E6F745F49
:1004400072656164790047554944452C646F3D737A
:100450006F6E6172207369676E20317C2D31206F61
:100460007220726572756E2062004552522C73695B
:10047000676E5F736F6E61725F6E6561725F6D69EB
:100480007373696E67004552522C63616C5F7369C8
:10049000676E5F6E6F745F73746172746564006E13
:1004A0006F00796573002C7A65726F5F63616C69A8
:1004B0006272617465643D002C736F6E61725F637C
:1004C000656E7465725F636D3D0043414C5F5A45D4
:1004D000524F2C6173353630305F7A65726F5F64CE
:1004E00065673D006E6F00796573002C6C696D69FE
:1004F00074735F63616C696272617465643D002C42
:1005000075707065725F6465673D0043414C5F4C78
:10051000494D4954532C6C6F7765725F6465673D34
:10052000004641554C545F494E464F2C7265636FEF
:100530007665723D6669785F73656E736F722D3E86
:1005400073004641554C545F494E464F2C726563CB
:100550006F7665723D6669785F73656E736F722D35
:100560003E662D3E73004641554C545F494E464F02
:100570002C706F735F6F6F623D312C646F3D6365EC
:100580006E7465725F7461726765745F7468656EBE
:100590005F70004641554C545F494E464F2C616E8A
:1005A000676C655F6F6F623D312C646F3D6C657683
:1005B000656C5F6265616D5F7468656E5F61004662
:1005C00041554C545F494E464F2C6932635F65720A
:1005D000726F723D312C646F3D636865636B5F4180
:1005E0005335363030004641554C545F494E464FE6
:1005F0002C736F6E61725F74696D656F75743D31D8
:100600002C646F3D666C61745F7461726765742BF6
:10061000636865636B5F484353523034004641550D
:100620004C545F494E464F2C6E6F6E650062726986
:100630006E6775705F7761726E696E670072756E56
:100640005F686172645F6661756C74004641554C09
:10065000545F494E464F2C6D6F64653D00464155D1
:100660004C545F494E464F2C626974733D004D45B2
:100670004E552C736F6E61723D7573655F666C616C
:10068000745F7461726765742B736F6E61725F64FF
:10069000696167006E6F00796573004D454E552C9A
:1006A000646F776E5F75703D706879736963616CB4
:1006B0003B206175746F5F6E6F726D616C697A65F6
:1006C00064004D454E552C666C6F773D742D3E6130
:1006D0002D3E702D3E5B646F776E5D2D3E5D2875FF
:1006E00070292D3E622D3E28677C736F6E61725FAC
:1006F0007369676E292D3E762D3E72006E6F00790C
:100700006573002C736F6E61725F6F6B3D006E6F6F
:1007100000796573002C616E676C655F6F6B3D00DF
:100720006E6F00796573002C7369676E3D006E6FA4
:1007300000796573002C6C696D6974733D002C7AC7
:1007400065726F3D004D454E552C73746174653D67
:10075000004D454E552C6272696E67757000300011
:1007600031002C6A756D705F72656A6563745F63D2
:100770006E743D002C74696D656F75745F636E7483
:100780003D002C76616C69645F73747265616B3DCA
:10079000002C66696C745F636D3D002C7261775F3D
:1007A000636D3D002C6167655F6D733D0030003106
:1007B000002C74696D656F75743D00300031002C3C
:1007C00066726573683D00534F4E41525F44494124
:1007D000472C6861735F73616D706C653D004F4BB2
:1007E0002C63616C5F7A65726F5F616E676C655FC9
:1007F0007365743D004552522C616E676C655F6E87
:100800006F745F7265616479004F4B2C63616C5F3C
:100810007A65726F5F706F736974696F6E5F73650D
:10082000743D004552522C736F6E61725F6E6F742F
:100830005F7265616479004552522C6C696D697410
:100840005F7370616E5F746F6F5F736D616C6C006E
:10085000494E464F2C6C696D6974735F6E6F726D93
:10086000616C697A65645F66726F6D5F646F776EE5
:100870005F7570004F4B2C63616C5F6C696D6974C0
:100880005F646F776E5F7365743D004552522C61F3
:100890006E676C655F6E6F745F7265616479004945
:1008A0004E464F2C6C696D6974735F6E6F726D612B
:1008B0006C697A65645F66726F6D5F646F776E5F97
:1008C0007570004F4B2C63616C5F6C696D69745F70
:1008D00075705F7365743D004552522C616E676C94
:1008E000655F6E6F745F7265616479004755494456
:1008F000452C737465703D72756E2C646F3D727516
:100900006E5F720047554944452C737465703D73A2
:100910006176652C646F3D72756E5F760047554950
:1009200044452C737465703D736F6E61725F7365BF
:100930006E736F722C646F3D666C61745F7461726C
:100940006765745F7468656E5F736F6E61725F6414
:100950006961670047554944452C737465703D6172
:100960006E676C655F73656E736F722C646F3D6349
:100970006865636B5F4153353630305F7468656E10
:100980005F730047554944452C737465703D736F20
:100990006E61725F7369676E5F6D616E75616C2CFD
:1009A000646F3D736F6E61725F7369676E5F315F15
:1009B0006F725F2D310047554944452C7374657043
:1009C0003D736F6E61725F7369676E5F6175746F9F
:1009D0002C646F3D6D6F76655F7461726765745FDF
:1009E0006661725F7468656E5F670047554944458C
:1009F0002C737465703D7369676E5F626567696EBD
:100A00002C646F3D72756E5F620047554944452CFA
:100A1000737465703D6661756C745F72657365743F
:100A20002C646F3D6669785F7468656E5F66004729
:100A3000554944452C737465703D6C696D697473D8
:100A40005F6669782C646F3D7265646F5F5B5F61A0
:100A50006E645F5D0047554944452C737465703D75
:100A600075705F6C696D69742C646F3D6D6F766530
:100A70005F55505F7468656E5F5D0047554944453A
:100A80002C737465703D646F776E5F6C696D69740B
:100A90002C646F3D6D6F76655F444F574E5F746891
:100AA000656E5F5B0047554944452C737465703D26
:100AB0007A65726F5F706F732C646F3D666C6174E2
:100AC0005F7461726765745F63656E7465725F748D
:100AD00068656E5F700047554944452C73746570B6
:100AE0003D7A65726F5F616E676C652C646F3D6CFB
:100AF0006576656C5F6265616D5F7468656E5F6188
:100B000000424C4F434B2C696E6E65725F6C6F6F89
:100B10007000424C4F434B2C6661756C74730042FD
:100B20004C4F434B2C73656E736F727300424C4F86
:100B3000434B2C7369676E00424C4F434B2C6C69DE
:100B40006D69747300424C4F434B2C7A65726F0091
:100B50004552522C72756E5F626C6F636B656400F8
:100B60006E6F007965730057495A2C372C646F3DBE
:100B7000633D736176652C713D65786974006E6FB5
:100B800000796573002C64697274793D006E6F00A2
:100B9000796573002C7369676E3D006E6F0079652F
:100BA00073002C6C696D6974733D0057495A2C733E
:100BB000756D6D6172792C7A65726F3D0057495A77
:100BC0002C362C646F3D6661725F74617267657468
:100BD0005F7468656E5F6E0057495A2C352C646FE0
:100BE0003D6E6561725F7461726765745F7468659C
:100BF0006E5F6E0057495A2C342C646F3D6D6F76D2
:100C0000655F55505F7468656E5F6E0057495A2C7A
:100C1000332C646F3D6D6F76655F444F574E5F7444
:100C200068656E5F6E0057495A2C322C646F3D66C2
:100C30006C61745F7461726765745F63656E74651F
:100C4000725F7468656E5F6E0057495A2C312C6470
:100C50006F3D6C6576656C5F6265616D5F7468653C
:100C60006E5F6E00300031002C74656C656D6574CC
:100C700072795F726573746F7265643D0057495A8B
:100C80002C657869742C726561736F6E3D0000008D
:100C9000000023002600290042414C4C5F424541A0
:100CA0004D5F424F4F54004F4B2C63616C5F6C693A
:100CB0006D69745F75707065725F7365743D004532
:100CC00052522C696E76616C69645F6C696D6974EF
:100CD0005F7370616E004552522C616E676C655F88
:100CE0006E6F745F7265616479004F4B2C63616C49
:100CF0005F6C696D69745F6C6F7765725F73657443
:100D00003D004552522C696E76616C69645F6C6976
:100D10006D69745F7370616E004552522C616E672D
:100D20006C655F6E6F745F72656164790043414CFE
:100D30005F535547474553542C534F4E41525F43E1
:100D4000454E5445525F434D3D004552522C736F02
:100D50006E61725F6E6F745F7265616479004341AA
:100D60004C5F535547474553542C4153353630302B
:100D70005F5A45524F5F4445473D004552522C61F2
:100D80006E676C655F6E6F745F7265616479003069
:100D90000031004153353630305F444941472C0023
:100DA0004552522C63616C5F736176655F66616961
:100DB0006C6564004F4B2C77697A6172645F736174
:100DC000766564004552522C77697A6172645F6E71
:100DD0006F745F61745F736176655F7374657000D3
:100DE0004552522C77697A6172645F6E6F745F61ED
:100DF00063746976650057495A2C737465705F6631
:100E000061696C65642C6669785F616E645F70729D
:100E10006573735F6E5F616761696E004552522C46
:100E200077697A6172645F696E76616C69645F7319
:100E30007465700057495A2C6177616974696E67EF
:100E40005F636F6E6669726D2C70726573733D635C
:100E50005F746F5F736176655F6F725F715F746FF0
:100E60005F65786974004552522C77697A617264C3
:100E70005F6E6F745F616374697665003000310086
:100E800057495A2C636F6E74726F6C733D6E2C638E
:100E90002C710057495A2C74656C656D65747279B4
:100EA0005F6175746F5F64697361626C65642C70F7
:100EB0007265763D004F4B2C77697A6172645F737F
:100EC0007461727465640057495A2C626C6F636B6D
:100ED00065642C646F3D742D3E612D3E702D3E6621
:100EE0002D3E732D3E77004552522C6661756C7411
:100EF0005F616374697665004552522C73746F703C
:100F00005F6265666F72655F77697A6172640045DA
:100F100052522C77697A6172645F616C72656164A8
:100F2000795F616374697665004552522C756E6B0A
:100F30006E6F776E5F636F6D6D616E642C74727926
:100F40003D68004552522C6E6F5F6661756C745F30
:100F50007374617465004F4B2C6661756C745F63CC
:100F60006C6561726564004F4B2C73746F707065B3
:100F700064004F4B2C72756E6E696E67004F4B2C80
:100F800063616C5F64656661756C74735F617070DA
:100F90006C696564004552522C75736167653A63EC
:100FA000616C5F72657365742064656661756C74ED
:100FB000730064656661756C7473006C6F61646561
:100FC00064004F4B2C63616C5F6C6F61642C004557
:100FD00052522C63616C5F736176655F6661696C08
:100FE0006564004F4B2C63616C5F736176656400D0
:100FF0004552522C75736167653A63616C5F6C6929
:101000006D69747320736574202E2E2E207C2073DE
:10101000686F77004552522C75736167653A63615A
:101020006C5F6C696D69747320736574202E2E2E4D
:10103000004552522C75736167653A63616C5F6C51
:10104000696D69747320736574202E2E2E004552CD
:10105000522C75736167653A63616C5F6C696D6989
:10106000747320736574202E2E2E207C2073686F7D
:1010700077004552522C75736167653A63616C5F06
:101080007A65726F2073657420616E676C657C7021
:101090006F736974696F6E207C2063616C5F7A6521
:1010A000726F2073686F77004552522C75736167B9
:1010B000653A63616C5F7A65726F20736574206155
:1010C0006E676C657C706F736974696F6E004552F2
:1010D000522C75736167653A63616C5F7A65726FF4
:1010E0002073657420616E676C657C706F736974C2
:1010F000696F6E004552522C75736167653A636182
:101100006C5F7A65726F2073657420616E676C65C1
:101110007C706F736974696F6E207C2063616C5F93
:101120007A65726F2073686F77004552522C757321
:101130006167653A736F6E617220646961677C7381
:1011400069676E20317C2D31004F4B2C736F6E61BF
:10115000725F7369676E5F7365743D004552522C10
:1011600075736167653A736F6E6172207369676E3C
:1011700020317C2D31004552522C75736167653AE0
:10118000736F6E6172207369676E20317C2D310040
:101190004552522C75736167653A736F6E617220A8
:1011A000646961677C7369676E20317C2D3100450D
:1011B00052522C75736167653A63616C5F7369673E
:1011C0006E20626567696E7C736176650045525278
:1011D0002C75736167653A63616C5F7369676E2034
:1011E000626567696E7C73617665004F4B2C6A6F30
:1011F000675F73746172746564004552522C6A6F44
:10120000675F626C6F636B65645F6C6F7765725F5D
:101210006C696D6974004552522C6A6F675F626C2D
:101220006F636B65645F75707065725F6C696D6923
:1012300074004552522C73746F705F72756E6E69D4
:101240006E675F6265666F72655F6A6F67004552C1
:10125000522C696E76616C69645F6A6F675F617258
:101260006773004552522C75736167653A6A6F6700
:10127000203C7369676E65645F73746570733E20AC
:101280003C726174653E004F4B2C647269766572E6
:101290005F656E61626C6564004F4B2C64726976A9
:1012A00065725F64697361626C6564004552522CBB
:1012B000656E5F72657175697265735F305F6F72BD
:1012C0005F3100300031004F4B2C74656C656D65EB
:1012D0007472793D004552522C75736167653A749A
:1012E000656C656D6574727920307C3100455252B1
:1012F0002C77697A6172645F6E6F745F6163746981
:101300007665004552522C6E6F5F6661756C745F36
:101310007374617465004F4B2C6661756C745F6308
:101320006C6561726564004F4B2C73746F707065EF
:1013300064004F4B2C72756E6E696E67004F4B2CBC
:1013400063616C5F64656661756C74735F61707016
:101350006C6965640064656661756C7473006C6FBC
:1013600061646564004F4B2C63616C5F6C6F6164FA
:101370002C004552522C63616C5F736176655F6629
:1013800061696C6564004F4B2C63616C5F736176BF
:101390006564004F4B2C6A6F675F7374617274658C
:1013A00064004552522C6A6F675F626C6F636B65B5
:1013B000645F6C6F7765725F6C696D69740045522C
:1013C000522C6A6F675F626C6F636B65645F7570E8
:1013D0007065725F6C696D6974004552522C73744C
:1013E0006F705F72756E6E696E675F6265666F7251
:1013F000655F6A6F67004552522C696E76616C6951
:10140000645F6A6F675F61726773004552522C7543
:10141000736167653A6A203C7369676E65645F73E0
:10142000746570733E203C726174653E004F4B2CB6
:101430006472697665725F64697361626C65640089
:101440004F4B2C6472697665725F656E61626C6584
:1014500064004552522C75736167653A6520307C93
:101460003100300031004F4B2C74656C656D657434
:1014700072793D005741524E2C6A6F675F73746FEB
:10148000707065645F6C6F7765725F6C696D6974AD
:10149000005741524E2C6A6F675F73746F707065AE
:1014A000645F75707065725F6C696D697400544536
:1014B0004C2C0000000000240027002A000000003F
:1014C00000250028002B0004040404040404040282
:1014D00002020202020303030303030102040810D1
:1014E000204080010204081020010204081020009E
:1014F00000000800020100000304070000000000D3
:1015000000000000322811241FBECFEFD8E0DEBF5C
:10151000CDBF25E0A0EDB2E001C01D92AA3AB2070E
:10152000E1F712E0A0E0B1E0E6E2F6E702C00590E4
:101530000D92A03DB107D9F71AE0C3E8DAE004C084
:101540002197FE010E949839C238D107C9F70E943D
:1015500089290C94113B0C940000FC018091EE044D
:101560008530B1F080818823A1F08181882389F0C2
:101570008281882371F08381882359F084818111CD
:1015800007C08581882329F094E09093EE040895A4
:1015900080E008958091EE04843011F0823021F4CF
:1015A00083E08093EE040895813011F41092EE04EC
:1015B0000895FC01AC01485E5F4F8FEF9FEF2191D2
:1015C000922728E0BC01880F991F77FF04C031E201
:1015D000832730E193272150A9F7E417F50779F71E
:1015E00008958091230187FF2BC08FEF8093230103
:1015F0008091240187FF26C08FEF80932401809182
:10160000250187FF21C08FEF8093250120913301B1
:1016100030913401409135015091360160912F0194
:101620007091300180913101909132010E94FE3A17
:1016300087FD05C080912601837F80932601089550
:1016400081E0D4CF81E0D9CF81E0DECF0F931F932B
:10165000CF93DF93CDB7DEB76A970FB6F894DEBFAE
:101660000FBECDBFFE0131968AE1DF011D928A9542
:10167000E9F781E08D838E838F8380E090E0A0E0A6
:10168000B1EC898B9A8BAB8BBC8B80E090E0A0E0B7
:10169000B1E48D8B9E8BAF8BB88F8AE1AFE1B1E067
:1016A00001900D928A95E1F70FE111E080E19BEB4B
:1016B000F8019183808381E090E09383828380E0CE
:1016C00090E0A0EAB1E484879587A687B787C80130
:1016D0000E94D90AD80159969C938E9358976A967E
:1016E0000FB6F894DEBF0FBECDBFDF91CF911F9133
:1016F0000F9108952F923F924F925F926F927F9237
:101700008F929F92AF92BF92CF92DF92EF92FF9211
:101710000F931F93CF93DF93CDB7DEB766970FB6C6
:10172000F894DEBF0FBECDBF9E8B8D8B6A017B010F
:10173000DC0194968C919497412C512C3201882392
:1017400091F090962D913D914D915C919397CB01A5
:10175000B6010E94B2392AE037ED43EA5CE30E9409
:101760001F3A2B013C01ED89FE89208131814281A4
:101770005381C701B6010E943A386F837887898701
:101780009A87AD89BE8914968D919D910D90BC91DB
:10179000A02D8B879C87AD87BE87ED89FE89848CC1
:1017A000958CA68CB78C2085318542855385C301E5
:1017B000B2010E943A386F87788B898B9A8BA5018A
:1017C00094016B857C858D859E850E943A382F819A
:1017D000388549855A850E94B3392F8538894989CA
:1017E0005A890E94B3392B013C01AD89BE895896B4
:1017F000BC91BB83ED89FE89F18DFC83AD89BE89E7
:101800005A96BC91BD83ED89FE89F38DFE83AD8927
:10181000BE895496BC91B983ED89FE89F589FA8316
:10182000AD89BE8956963C90569757962C902B8141
:101830003C814D815E810E94FE3A87FD0AC020E016
:1018400030E0A901C701B6010E94FE3A18160CF457
:1018500054C029813A81432D522DC301B2010E9407
:10186000D43718164CF020E030E0A901C701B601CA
:101870000E94D43787FD41C02AE037ED43EA5CE39C
:10188000C701B6010E943A38A50194010E94B339FC
:10189000762E672E582E492EED89FE89F089FB8B16
:1018A000AD89BE895196BC91BC8BED89FE890289B8
:1018B000138984849584A684B7849401A5010E9429
:1018C000D43787FD12C02B893C89A801672D762D5E
:1018D000852D942D0E94FE3A8B889C8858011816FD
:1018E00024F0872C962CA52CB42CC401D501ED89AD
:1018F000FE89848F958FA68FB78FAD89BE895C9640
:101900002D913D914D915C915F976B857C858D8587
:101910009E850E943A382F81388549855A850E94D4
:10192000B3392F85388949895A890E94B3395B01B7
:101930008C019B01AC0169817A81832D922D0E94DB
:10194000FE3A181674F09501A8016B817C818D8197
:101950009E810E94D43787FD2CC0A982BA82302E86
:10196000212EAD89BE899096CD92DD92ED92FC92AA
:10197000939781E094968C9369817A81832D922D3F
:1019800066960FB6F894DEBF0FBECDBFDF91CF9144
:101990001F910F91FF90EF90DF90CF90BF90AF908D
:1019A0009F908F907F906F905F904F903F902F907F
:1019B0000895BB81B983EC81EA833D802E80D1CF2D
:1019C0009FB7F8948091A605882379F04091A205ED
:1019D0005091A3056091A4057091A50581E01416AE
:1019E0001506160617060CF080E09FBF0895E091DB
:1019F0008B05F0918C05309731F0908180918D05A9
:101A00008095892380830895E8E8F5E01686178697
:101A1000108A118A128A138A148A158A8FB7F89449
:101A20001486168E128E138E148E158E178E178AAC
:101A3000168A118E108E13868FBF0C94F70CCF92DE
:101A4000DF92EF92FF92CF936B017C0120E030E0B8
:101A500041EE54E40E94FE3A18160CF4A6C020E0B1
:101A600030E041EE54ECC701B6010E94D43787FD47
:101A7000A3C0C0929605D0929705E0929805F09287
:101A80009905D701C601BF7780939A0590939B056E
:101A9000A0939C05B0939D0560912401062E000C37
:101AA000770B880B990B0E94DB37A70196010E94E8
:101AB0003A38C1E020E030E0A9010E94FE3A87FDFB
:101AC000C0E0C093950590919505E0918E05F09149
:101AD0008F05309741F080919005992309F473C0E8
:101AE0009081892B8083C0909A05D0909B05E090CF
:101AF0009C05F0909D0520E030E040E85FE3C701E1
:101B0000B6010E94D43770E060E087FD2DC0A701C8
:101B10009601C701B6010E94B3399B01AC0160E098
:101B200070E48CE197E40E941F3A6B017C0120E095
:101B300030E040E85FE30E94D43787FD48C020E0F2
:101B400030E64AE657E4C701B6010E94FE3A18168D
:101B50000CF444C020E030E040E05FE3C701B60190
:101B60000E94B3390E94913A9FB7F89470939F05F1
:101B700060939E057093A1056093A00581E06115B7
:101B8000710509F480E0809394058091940581119A
:101B900002C0109293059FBF672B41F5CF91FF9034
:101BA000EF90DF90CF900C94F70CC12CD12C31EE3C
:101BB000E32E34E4F32E5DCFC12CD12C21EEE22EA6
:101BC00024ECF22E56CF9081809589238BCFC12CA7
:101BD000D12C90E8E92E9FE3F92EBCCFC12C80E6F2
:101BE000D82E8AE6E82E87E4F82EB4CFCF91FF9066
:101BF000EF90DF90CF9008958F929F92AF92BF9217
:101C0000CF92DF92EF92FF924B015C0169017A0162
:101C100081149104A104B10451F4FF90EF90DF907E
:101C2000CF90BF90AF909F908F900C94040D20E0C8
:101C300030E040E85FE3C701B6010E94D43787FF78
:101C400006C0C12CD12C80E8E82E8FE3F82E2FB7E8
:101C5000F894D501C401B7FE07C088279927DC0195
:101C600088199909AA09BB098093A2059093A30535
:101C7000A093A405B093A50581E08093A6051092DA
:101C8000A7052FBF181419041A041B0424F0F7FA2F
:101C9000F094F7F8F094C701B601FF90EF90DF9051
:101CA000CF90BF90AF909F908F900C941F0D8FB7E7
:101CB000F8949091A705911102C08FBF08951092DA
:101CC000A7051092A6051092A2051092A3051092E6
:101CD000A4051092A5058FBF60E070E0CB010C94C5
:101CE0001F0D9091F1038091F203811182E0892B05
:101CF0009091F303911194E0892B9091F403911149
:101D000098E0892B089590E0FC01E151FB4E24916D
:101D1000FC01E552FB4E3491FC01E953FB4EE4918A
:101D2000EE23C9F0222339F0233001F1A8F4213049
:101D300019F1223029F1F0E0EE0FFF1FE354FB4EC2
:101D4000A591B4918FB7F894EC91611126C03095AC
:101D50003E233C938FBF08952730A9F02830C9F067
:101D6000243049F7809180008F7D03C080918000EE
:101D70008F7780938000DFCF84B58F7784BDDBCFF2
:101D800084B58F7DFBCF8091B0008F778093B000BA
:101D9000D2CF8091B0008F7DF9CF3E2BDACF2F923A
:101DA0003F924F925F926F927F928F929F92AF92EB
:101DB000BF92CF92DF92EF92FF920F931F93CF9338
:101DC000DF93CDB7DEB7A4970FB6F894DEBF0FBE92
:101DD000CDBF6D8B7E8B8F8B988F2F8F38A349A3B0
:101DE0005AA38091760581113DC080917205909132
:101DF0007305A0917405B09175052D893E894F89B1
:101E0000588D281B390B4A0B5B0BDA01C901883B43
:101E10009848A105B10530F160E080913D050E9430
:101E2000830E83E090E00197F1F761E080913D053A
:101E30000E94830E83E290E00197F1F760E08091C9
:101E40003D050E94830E8D899E89AF89B88D809350
:101E5000720590937305A0937405B093750581E0A6
:101E6000809376053FB7F8942091800560E070E09C
:101E7000CB01222351F01092800560917B05709177
:101E80007C0580917D0590917E053FBF222309F45A
:101E900067C0109276058B019C0101501109210940
:101EA0003109083A11462105310508F003C20E94A4
:101EB000D93728E23EE74CE05DE30E943A3820E063
:101EC00030E040E05FE30E943A386B017C01809192
:101ED0005A05882309F494C080905B0590905C05B6
:101EE000A0905D05B0905E05A5019401C701B60103
:101EF0000E94B2399F7720E030E048EC51E40E9424
:101F0000FE3A18160CF07CC080916F059091700518
:101F100001969093700580936F0510926C05109256
:101F20006B0581E080937105A5019401C701B6019D
:101F30000E94FE3A20E030E048EC51E4181624F00C
:101F400020E030E048EC51ECC501B4010E94B33907
:101F500060935B0570935C0580935D0590935E05CF
:101F600080917605882399F180917205909173058F
:101F7000A0917405B09175052D893E894F89588DC2
:101F8000281B390B4A0B5B0BDA01C901893A9146D0
:101F9000A105B105E0F01092760581E0809371050E
:101FA00010926C0510926B0580916D0590916E05F5
:101FB0008F3F980729F0019690936E0580936D05E9
:101FC0008FB7F89410927F05109280058FBFA4966A
:101FD0000FB6F894DEBF0FBECDBFDF91CF911F913A
:101FE0000F91FF90EF90DF90CF90BF90AF909F90B8
:101FF0008F907F906F905F904F903F902F900895BB
:10200000C0925B05D0925C05E0925D05F0925E05A2
:102010008091540590E0FC01EE0FFF1FEE0FFF1FB3
:10202000E35CFA4FC282D382E482F582019665E0D6
:1020300070E00E9462398093540580915305853089
:1020400018F48F5F8093530580915305812C912C58
:102050005401882309F49CC0AFE3B5E0FE0131963A
:10206000712C4D915D916D917D914193519361934F
:10207000719373948711F5CFA12C872C912C8A2D05
:1020800090E09C012F5F3F4F281539050CF054C09C
:10209000B12CF401E81BF90BFCA3EBA38B2D90E012
:1020A0008C010F5F1F4F2BA13CA1021713070CF0EF
:1020B00041C0880F991F880F991F41E050E04C0FD5
:1020C0005D1F480F591F5E8F4D8FDA018D919D91D5
:1020D0000D90BC91A02D898F9A8FAB8FBC8F000F74
:1020E000111F000F111FE1E0F0E0EC0FFD1F0E0FBC
:1020F0001F1FD8012D903D904D905C90A201910141
:10210000698D7A8D8B8D9C8D0E94FE3A181684F411
:10211000ED8DFE8D2082318242825382298D3A8D4F
:102120004B8D5C8DD8012D933D934D935C9313970C
:10213000B394B4CFA394A3CF872D869590E0FC01F0
:10214000EE0FFF1FEE0FFF1F21E030E02C0F3D1FB1
:10215000E20FF31F80809180A280B38070FC18C0D2
:102160000197880F991F880F991F820F931FDC0119
:102170002D913D914D915C91C501B4010E94B339FF
:1021800020E030E040E05FE30E943A384B015C0120
:1021900080915505811167C0809256059092570530
:1021A000A0925805B092590581E080935505609141
:1021B0002501062E000C770B880B990B0E94DB374C
:1021C0004B015C0140902B0150902C0160902D013F
:1021D00070902E01A3019201C701B6010E94B2398D
:1021E000A50194010E943A3860935F0570936005E1
:1021F0008093610590936205A30192016091560559
:102200007091570580915805909159050E94B239F7
:10221000A50194010E943A386093630570936405A8
:1022200080936505909366052F8D38A149A15AA129
:1022300020936705309368054093690550936A05BC
:1022400081E080935A051092710580916B05909101
:102250006C058F3F980709F483CE019690936C0527
:1022600080936B057DCE26E636E646E25FE360911D
:1022700056057091570580915805909159050E9417
:102280003A382B013C0123E333E343EB5EE3C50122
:10229000B4010E943A389B01AC01C301B2010E9413
:1022A000B339609356057093570580935805909302
:1022B00059057DCF81E08093710510926C051092D5
:1022C0006B0580916D0590916E058F3F980709F41D
:1022D0007ECE019690936E0580936D0541CECF938F
:1022E000DF9390E0FC01E552FB4E249189539B4E15
:1022F000FC0184918823D1F090E0880F991FFC01A4
:10230000ED54FB4EA591B491FC01E354FB4EC591F5
:10231000D49161110EC09FB7F8948C91E22FE09593
:102320008E238C932881E223E8839FBFDF91CF9196
:1023300008958FB7F894EC91E22BEC938FBFF6CF12
:102340003FB7F8948091ED039091EE03A091EF03D5
:10235000B091F00326B5A89B05C02F3F19F0019658
:10236000A11DB11D3FBFBA2FA92F982F8827BC01EF
:10237000CD01620F711D811D911D42E0660F771F17
:10238000881F991F4A95D1F708958F929F92AF9217
:10239000BF92CF92DF92EF92FF924B015C010E94BD
:1023A000A0116B017C010E94A0116C197D098E099E
:1023B0009F09683E734081059105A8F321E0821AC8
:1023C0009108A108B10888EEC80E83E0D81EE11C70
:1023D000F11C81149104A104B10429F7FF90EF903E
:1023E000DF90CF90BF90AF909F908F9008952FB7C0
:1023F000F8946091E9037091EA038091EB03909166
:10240000EC032FBF089508950895AF92BF92CF9225
:10241000DF92EF92FF920F931F93CF93DF936C01A4
:102420007B018B01040F151FEB015E01AE18BF0885
:10243000C017D10759F06991D601ED91FC91019037
:10244000F081E02DC6010995892B79F7C501DF914F
:10245000CF911F910F91FF90EF90DF90CF90BF90A1
:10246000AF900895FC01538D448D252F30E0842FCB
:1024700090E0821B930B541710F0CF9608950197AC
:102480000895FC01918D828D981761F0A28DAE0F99
:10249000BF2FB11D5D968C91928D9F5F9F73928F20
:1024A00090E008958FEF9FEF0895FC01918D828D4C
:1024B000981731F0828DE80FF11D858D90E0089519
:1024C0008FEF9FEF0895FC01918D228D892F90E071
:1024D000805C9F4F821B91098F739927089585E433
:1024E00094E00E94631221E0892B09F420E0822FFE
:1024F000089580E090E0892B29F00E946F128111ED
:102500000C9400000895FC01A48DA80FB92FB11DF3
:10251000A35ABF4F2C91848D90E001968F73992719
:10252000848FA689B7892C93A089B1898C918370F7
:1025300080648C93938D848D981306C00288F389F0
:10254000E02D80818F7D80830895EF92FF920F931D
:102550001F93CF93DF93EC0181E0888F9B8D8C8D4F
:1025600098131AC0E889F989808185FF15C09FB743
:10257000F894EE89FF896083E889F9898081837006
:10258000806480839FBF81E090E0DF91CF911F91B5
:102590000F91FF90EF900895F62E0B8D10E00F5FD6
:1025A0001F4F0F731127E02E8C8D8E110CC00FB6AC
:1025B00007FCFACFE889F989808185FFF5CFCE0144
:1025C0000E948312F1CFEB8DEC0FFD2FF11DE35A2A
:1025D000FF4FF0829FB7F8940B8FEA89FB898081C7
:1025E0008062CFCF0F931F93CF93DF938C01D0E006
:1025F000C0E0F801EC0FFD1F6491662341F085E413
:1026000094E00E94A512892B11F02196F2CFCE0101
:10261000DF91CF911F910F910895682F85E494E089
:102620000C94A512CF93DF93EC01888D8823B9F029
:10263000AA89BB89E889F9898C9185FD03C08081CD
:1026400086FD0DC00FB607FCF7CF8C9185FFF2CF4A
:10265000808185FFEDCFCE010E948312E9CFDF910B
:10266000CF91089520911503260F3327331F213270
:102670003105ECF420911B04FC0190E080E0243053
:1026800069F082E00895A09115032191AC014B50AF
:102690005D4FA40FB52FB11D2C930196861798F3AB
:1026A00080911503680F6093150380E0089581E021
:1026B000089510921B0481E080931A041092F50390
:1026C00061E082E10E94830E61E083E10E94830E5B
:1026D000E9EBF0E080818E7F808380818D7F808335
:1026E00088E48093B80085E48093BC000895CF937C
:1026F000DF9391E09093F4028823B9F0C091B80081
:10270000D091BA008091BC008A7B8093BC0060E0CD
:1027100082E10E94830E60E083E10E94830E0E94AA
:102720005913D093BA00C093B800DF91CF910895A8
:102730008F929F92AF92BF92CF92DF92EF92FF92D1
:102740000F931F93CF93DF93D0914404D13208F0BD
:10275000D7C0182FC09143040E94A0116B017C01C7
:1027600080911B0481116BC082E080931B04109345
:102770001A048FEF8093190410921804D093170451
:10278000A3E2B4E0E7EFF3E080E0D81391C0109249
:10279000F6038091F603CC0FC82BC093F60380910B
:1027A000F503813009F088C01092F5030E94A01152
:1027B0006B017C018091F6038093BB0080911D0426
:1027C00090911E04A0911F04B0912004892B8A2BA4
:1027D0008B2BA1F00E94A01100911D0410911E04EA
:1027E00020911F04309120046C197D098E099F09E6
:1027F000061717072807390708F442C08091BC0064
:1028000083FDD8CF85EC8093BC000E94A0116B01A2
:102810007C0180911B04823009F450C0809119041E
:102820008F3F09F46FC080911904803209F46CC0A5
:1028300080911904803309F469C084E026C0809136
:102840001D0490911E04A0911F04B0912004892BB7
:102850008A2B8B2B09F484CF0E94A01180901D0439
:1028600090901E04A0901F04B09020046C197D0964
:102870008E099F0986169706A806B90608F070CF3C
:1028800080911C040E94771385E01092220410921C
:10289000440410922104DF91CF911F910F91FF907A
:1028A000EF90DF90CF90BF90AF909F908F90089562
:1028B0009D9191938F5F69CF85EEA5CF80911D0487
:1028C00090911E04A0911F04B0912004892B8A2BA3
:1028D0008B2B09F49ECF0E94A01100911D04109132
:1028E0001E0420911F04309120046C197D098E096B
:1028F0009F09061717072807390708F08ACFC0CFA6
:1029000081E0C3CF80E0C1CF82E0BFCF83E0BDCF05
:102910000895E0913D0380913C03E81730F4F0E026
:10292000EC52FD4F808190E008958FEF9FEF089566
:1029300090913D0380913C032FEF3FEF981748F4AF
:10294000E92FF0E0EC52FD4F208130E09F5F909343
:102950003D03C901089580913C0390913D03891B7B
:10296000990B0895CF92DF92EF92FF920F931F93EE
:10297000CF93DF937C01CB018A0120912104222394
:1029800089F0EB016B01C40ED51ECC15DD0569F095
:102990006991D701ED91FC910190F081E02DC70183
:1029A0000995F3CF642F0E943213C801DF91CF91B4
:1029B0001F910F91FF90EF90DF90CF900895CF93EC
:1029C000DF931F92CDB7DEB76983209121042223C4
:1029D000F9F020914404203258F021E030E0FC016D
:1029E0003383228390E080E00F90DF91CF910895B0
:1029F00080912204E82FF0E0ED5DFB4F99819083F8
:102A00008F5F809322048093440481E090E0ECCFB8
:102A100061E0CE0101960E943213F7CF90E080E092
:102A200008952F923F924F925F926F927F928F9272
:102A30009F92AF92BF92CF92DF92EF92FF920F934D
:102A40001F93CF93DF93CDB7DEB760970FB6F8949F
:102A5000DEBF0FBECDBFF801A0915A0510917105E0
:102A6000AA2309F4CDC0FE83ED83190158874F8353
:102A70006D877E878F87988B40905F0550906005AB
:102A80006090610570906205809063059090640588
:102A9000A0906505B0906605C0905B05D0905C0580
:102AA000E0905D05F0905E05C982DA82EB82FC82DF
:102AB0004092C6035092C7036092C8037092C90344
:102AC0002AE037ED43E25CE3C301B2010E943A38E9
:102AD0006093CA037093CB038093CC039093CD0390
:102AE0008092CE039092CF03A092D003B092D103F4
:102AF0002AE037ED43E25CE3C501B4010E943A38B5
:102B00006093D2037093D3038093D4039093D5033F
:102B1000C092D603D092D703E092D803F092D903A3
:102B200020916B0530916C052230310538F41092FC
:102B3000DB0311111EC01092F4033DC02091670504
:102B4000309168054091690550916A05CD84DE8415
:102B5000EF84F888C21AD30AE40AF50AA70196019D
:102B6000293731054105510510F7112331F0109235
:102B7000DB0381E08093F103DECF21E02093DB03D0
:102B8000CD84DE84EF84F888C0924103D092420362
:102B9000E0924303F09244031092F1039F7711E017
:102BA0002EEA37E441E65EE30E94FE3A18160CF086
:102BB00010E01093F403EF80F884E114F10431F095
:102BC000D7014D925D926D927C921397211431043E
:102BD00029F0F10180829182A282B382CD80DE80D1
:102BE000CD2859F0C980DA80EB80FC80AD81BE81B0
:102BF000CD92DD92ED92FC9213971091DB030AC007
:102C00001092DB031092F403112321F081E08093F2
:102C1000F10310E0812F60960FB6F894DEBF0FBE6F
:102C2000CDBFDF91CF911F910F91FF90EF90DF907B
:102C3000CF90BF90AF909F908F907F906F905F905C
:102C40004F903F902F900895CF93DF930E94040DF3
:102C5000C8E8D5E01A8661E08A810E94830E8FB7AA
:102C6000F8941B862E893F89398F288F8FBFDF917B
:102C7000CF910C94F70C8091F10381110AC08091DF
:102C8000F203811106C08091F303811102C080918B
:102C9000F40308958F929F92AF92BF92CF92DF92EA
:102CA000EF92FF920F931F934091EE0408EE13E012
:102CB00020E030E0443021F40CE211E020E030E08C
:102CC000C0904503D0904603E0904703F09048033E
:102CD0004B015C018C189D08AE08BF0875016401AA
:102CE0000C151D052E053F0518F451E05093F20315
:102CF000C0904103D0904203E0904303F09044031E
:102D00006C197D098E099F090617170728073907CF
:102D100018F481E08093F10380917105882319F004
:102D200081E08093F103443099F40E943B1688239C
:102D300079F085E08093EE041F910F91FF90EF9062
:102D4000DF90CF90BF90AF909F908F900C942416FF
:102D50001F910F91FF90EF90DF90CF90BF90AF90B9
:102D60009F908F90089520913301309134014091CC
:102D700035015091360160912F01709130018091A1
:102D80003101909132010E94D437881F8827881F13
:102D90000895809126018C708C3011F40C94B31638
:102DA00080E0089590912601937081E0933009F0BE
:102DB00080E00895EF92FF920F931F93CF93DF93DC
:102DC00000D000D000D0CDB7DEB70091260102952B
:102DD00001700E94D216E82E0E94C916F82E10919A
:102DE000DA0311111091DB030E943B16202F3E2DB8
:102DF0004F2D512F682F71E080E090E026960FB69E
:102E0000F894DEBF0FBECDBFDF91CF911F910F9120
:102E1000FF90EF900895FC0101900020E9F73197B1
:102E2000AF01481B590BBC0185E494E00C940512DA
:102E3000CF93DF930E94F212EC018FE991E00E94A0
:102E40000B178C0F9D1FDF91CF910895E0911B010F
:102E5000E73008F05EC0F0E0E05DF84E0C94983981
:102E600037173B173E174117441747174A1789E48E
:102E70009CE00C94181786E29CE0FBCF8CE09CE071
:102E8000F8CF84EF9BE0F5CF88ED9BE0F2CF8DEBA0
:102E90009BE0EFCF8BEA9BE00E94F2120E94D216D9
:102EA00081112BC08BE99BE00E94F21282EA9BE029
:102EB0000E94F2120E94C916811122C08DE89BE087
:102EC0000E94F21284E99BE00E94F2128091260196
:102ED00084FD19C08EE79BE00E94F21285E89BE01A
:102EE0000E94F21280914E03811110C080E69BE097
:102EF0000E94181787E69BE0BCCF8EE99BE0D4CFF9
:102F000080E99BE0DDCF81E89BE0E6CF83E69BE0B4
:102F1000EFCF0895CF9380911A01811150C0C091D5
:102F2000260186ED9AE0C0FF12C085EA9AE0C1FF53
:102F30000EC08BE79AE0C2FF0AC085E59AE0C3FFA6
:102F400006C00E94B316811105C08FE29AE0CF91AE
:102F50000C9418178091EE04853019F48AE09AE0F9
:102F6000F6CF8BEE99E0C4FFF2CF80910001882369
:102F700071F08091020181110AC0809101018823C2
:102F800019F086EB99E0E3CF83E899E0E0CF8091F8
:102F9000DA03811103C084E599E0D9CF8091DB0386
:102FA000811103C08DE199E0D2CF80914E03882337
:102FB00019F084E099E0CBCF8CEE98E0C8CFCF91A8
:102FC000089585E291E00E9418178FEE90E00E942C
:102FD00018178EED90E00E94181784EC90E00E9484
:102FE000181783EA90E00C9418178F929F92AF9273
:102FF000BF920F931F93CF93DF93CDB7DEB7A19707
:103000000FB6F894DEBF0FBECDBF19A2423008F450
:103010004AE08E010F5D1F4F842E912CB12CA12C04
:10302000A50194010E947639E62FB901CA01EA3060
:10303000F4F4E05DD801EE938D01232B242B252B96
:1030400079F790E080E0109719F0CD010E940B17FE
:10305000A1960FB6F894DEBF0FBECDBFDF91CF9122
:103060001F910F91BF90AF909F908F900895E95C52
:10307000E1CFCF93DF93D0E0C0E0009719F00E943A
:103080000B17EC018FE991E00E940B178C0F9D1F2D
:10309000DF91CF91089581E597E00E94181785E4AC
:1030A00097E00E94F212E091EE04E63008F057C07B
:1030B000F0E0EE0FFF1FE159FE4F808191810097F4
:1030C00011F00E940B178EE397E00E94F2120E940B
:1030D000D216811147C08EE297E00E94F21285E37A
:1030E00097E00E94F2120E94C91681113EC080E250
:1030F00097E00E94F21287E297E00E94F21280911C
:10310000260184FD35C08EE097E00E94F21285E131
:1031100097E00E94F2128091DA0381112CC08CEFAB
:1031200096E00E94F21283E097E00E94F2128091F2
:10313000DB03811123C084E996E00E94181782EC1A
:1031400096E00E9418178BE996E00E94181780916C
:10315000DB03811116C08EE696E00C94181782EA04
:1031600091E0AFCF81E397E0B8CF83E297E0C1CFA2
:1031700081E197E0CACF8FEF96E0D3CF87E996E061
:10318000DCCF0895CF93DF93EC018091EE04813082
:1031900011F40E94CA0A1092000180911C01109241
:1031A0001A0110921B0191E090931C0110921D01D5
:1031B00080931E018DE79CE00E94F212CE010E94D6
:1031C0000B1788E69CE00E94F21280911E0181118B
:1031D00006C084E69CE0DF91CF910C94181786E638
:1031E0009CE0F9CF4F925F926F927F928F929F9265
:1031F000AF92BF92CF92DF92EF92FF920F931F9305
:10320000CF936B017C01742EAC019B010E94033BA8
:10321000882399F08AEA91E0CF911F910F91FF9056
:10322000EF90DF90CF90BF90AF909F908F907F9066
:103230006F905F904F900C940B1746015701E894E4
:10324000B7F82FEF3FEF4FE75FE7C501B4010E94EA
:10325000033B81110DC02FEF3FEF4FE75FE7C50143
:10326000B4010E94D43718161CF48EEA91E0D4CF32
:103270002FEF3FEF4FE75FE4C701B6010E94FE3A30
:1032800018161CF482EB91E0C7CF2FEF3FEF4FE70A
:103290005FECC701B6010E94D43787FDF3CF20E071
:1032A00030E0A901C701B6010E94D43710E000E068
:1032B00087FF08C08DE20E940D138C01F7FAF0948D
:1032C000F7F8F094C0E060E070E080E09FE37C16E7
:1032D00041F020E030E040E251E40E941F3ACF5F2D
:1032E000F6CFA70196010E94B3392B013C010E9441
:1032F000913A4B015C014AE00E94F5177C01E00E17
:10330000F11ECC23B1F1C501B4010E94D9379B0154
:10331000AC01C301B2010E94B2394B015C018EE2E3
:103320000E940D13E80EF91EC15018F120E030E0A4
:1033300040E251E4C501B4010E943A382B013C013E
:103340000E94913A4B01B12CA12C4AE0C501B40175
:103350000E94F517E80EF91EC501B4010E94D93785
:103360009B01AC01C301B2010E94B2394B015C0167
:10337000DBCFC701CF911F910F91FF90EF90DF90AE
:10338000CF90BF90AF909F908F907F906F905F9005
:103390004F9008950C94F2188BE095E00E94F21281
:1033A00060912F0170913001809131019091320133
:1033B00046E050E00E94CA198FEF94E00E94F2129A
:1033C0006091330170913401809135019091360103
:1033D00046E050E00E94CA198BEE94E00E94F2127F
:1033E0000E94C916811104C084EE94E00C94181751
:1033F00087EE94E0FBCF8AEC94E00E94F212609199
:103400002701709128018091290190912A0146E0BD
:1034100050E00E94CA1988EB94E00E94F212609179
:103420002B0170912C0180912D0190912E0146E08D
:1034300050E00E94CA1986EA94E00E94F2120E94AB
:10344000D216811104C08FE994E00C94181782EA17
:1034500094E0FBCFCF93DF930E94F218EC018FE949
:1034600091E00E940B178C0F9D1FDF91CF91089563
:10347000CF92DF92EF92FF92CF93DF936C01990F7F
:10348000EE08FF08F7FE1DC08DE20E940D13EC014F
:1034900066277727CB016C197D098E099F094AE0C1
:1034A0000E94F517C80FD91F8FE991E00E940B17F2
:1034B0008C0F9D1FDF91CF91FF90EF90DF90CF9009
:1034C00008954AE0C701B6010E94F517EC01ECCF60
:1034D000CF92DF92EF92FF92CF93DF936C01990F1F
:1034E000EE08FF08F7FE17C08DE20E940D13EC01F5
:1034F00066277727CB016C197D098E099F094AE061
:103500000E94F5178C0F9D1FDF91CF91FF90EF90D8
:10351000DF90CF9008954AE0C701B601DF91CF91C7
:10352000FF90EF90DF90CF900C94F517CF93DF933F
:10353000682F70E090E080E04AE00E94F517EC010F
:103540008FE991E00E940B178C0F9D1FDF91CF91A7
:103550000895CF930E94710EC82F8DE596E00E94CA
:10356000F2128C2F0E94961A8CE496E00E94F212BE
:103570008091EE04843089F18DE296E00E94181764
:103580008DE196E0CC2331F18091F103882321F085
:1035900086EE95E00E9418178091F203882321F0AF
:1035A0008FEB95E00E9418178091F303882321F098
:1035B00083E995E00E9418178091F403882321F095
:1035C00086E695E00E9418178091EE04853041F45C
:1035D00082E495E0CF910C9418178DE396E0CECF5E
:1035E00081E295E0F7CFFF920F931F93CF93DF9384
:1035F000CDB7DEB72C970FB6F894DEBF0FBECDBFA8
:1036000019821A821B821C821D821E821F821886CA
:1036100019861A861B861C860E94F7118E01075F89
:103620001F4F9E012B5F3F4FAE014F5F5F4F0E94C8
:103630001115F82E811111C083E298E00E9418172D
:103640008F2D2C960FB6F894DEBF0FBECDBFDF9145
:10365000CF911F910F91FF90089589859A85AB8531
:10366000BC8580932B0190932C01A0932D01B093E6
:103670002E01809126018260809326010E94F7111D
:1036800010E000E030E020E050E040E00E94111542
:1036900081E080934E0389E098E00E94F2126985F0
:1036A0007A858B859C8546E050E00E942A1A0E940C
:1036B000FB19C6CF2F923F924F925F926F927F92EB
:1036C0008F929F92AF92BF92CF92DF92EF92FF9232
:1036D0000F931F93CF93DF9300D000D01F92CDB7ED
:1036E000DEB70E94F71120905A05209171052983B9
:1036F00020916B0530916C053D832C832220E1F0F5
:1037000000916705109168052091690530916A055F
:103710006B017C01C01AD10AE20AF30A8C819D81F7
:10372000029740F03324339499E7C916D104E10499
:10373000F10438F0312C05C0312CCC24CA94DC2C97
:10374000760140905B0550905C0560905D0570903F
:103750005E058090560590905705A0905805B09052
:10376000590500916D0510916E0520916F053091FE
:1037700070053B832A8387EC97E00E94F2128DEB61
:1037800097E0211002C08BEB97E00E94F2128FEBC2
:1037900097E00E94F2128FEA97E0311002C08DEAA2
:1037A00097E00E94F21281EB97E00E94F2123981B9
:1037B00080E697E0311102C08EE597E00E94F21298
:1037C00084EA97E00E94F2124AE0C701B6010E9423
:1037D000F5178BE997E00E94F21244E050E0C30134
:1037E000B2010E94CA1981E997E00E94F21244E0F6
:1037F00050E0C501B4010E94CA1982E897E00E9416
:10380000F2122C813D81B90190E080E04AE00E94F3
:10381000F51784E797E00E94F212B80190E080E08B
:103820004AE00E94F51782E697E00E94F2122A8190
:103830003B81B90190E080E04AE00E94F5178FE9F2
:1038400091E00F900F900F900F900F90DF91CF911C
:103850001F910F91FF90EF90DF90CF90BF90AF90AE
:103860009F908F907F906F905F904F903F902F90A0
:103870000C940B17CF93DF93EC0180E59BE00E9443
:1038800018178981811104C085E49BE00E941817F4
:103890008A81811104C088E39BE00E941817888107
:1038A000811104C08DE29BE00E9418178B81811169
:1038B00004C08FE19BE00E9418178C81882321F0BF
:1038C00082E19BE00E9418178D81811104C081E084
:1038D0009BE00E9418178C8181110E94A91A8B818C
:1038E000811102C00E945A1BDF91CF910C948A175C
:1038F0000F931F93CF93DF93CDB7DEB72C970FB6FF
:10390000F894DEBF0FBECDBF1091000186E894E0B1
:10391000112351F010910101111114C08AE694E0B5
:103920000E94181786E494E00E941817812F2C96A5
:103930000FB6F894DEBF0FBECDBFDF91CF911F91C0
:103940000F91089519861A861B861C861D821E8279
:103950001F82188619821A821B821C820E94F7110C
:103960008E010F5F1F4F9E012B5F3F4FAE01475FE0
:103970005F4F0E941115182F811103C082E394E05C
:10398000D3CF69817A818B819C8160930701709389
:1039900008018093090190930A012091030130915D
:1039A000040140910501509106010E94FE3A87FFF3
:1039B00070C08FEF8093190191E0909302011092F3
:1039C00000018F3F09F081E0809325018091EE0492
:1039D000813019F483E08093EE0481E294E00E9448
:1039E000F2120E94F7114AE00E94F5178CE20E9441
:1039F0000D13609113017091140180911501909144
:103A0000160145E050E00E94CA198CE20E940D1395
:103A100080911701082E000C990B0E94681A8CE205
:103A20000E940D1380911801082E000C990B0E9422
:103A3000681A8CE20E940D136091030170910401D9
:103A4000809105019091060144E050E00E94CA195E
:103A50008CE20E940D136091070170910801809122
:103A6000090190910A0144E050E00E94CA198CE2D9
:103A70000E940D1380911901082E000C990B0E94D1
:103A8000381A8DEE93E00E94181781E080934E0360
:103A90004DCF81E08FCFCF92DF92EF92FF920E94C5
:103AA000F7116B017C0181EA92E00E94F212E09131
:103AB000EE0482EA91E0E63038F4F0E0EE0FFF1F0A
:103AC000E159FE4F808191810E94391882E992E08C
:103AD0000E94F2128091DA03811129C185E892E0F7
:103AE0000E94F2128CE892E00E94F2128091DB03B5
:103AF000811120C18AEE91E00E94181785E792E0BB
:103B00000E94F2126091BA037091BB038091BC03D2
:103B10009091BD0344E050E00E94CA198EE692E005
:103B20000E94F2126091C6037091C7038091C8038E
:103B30009091C90344E050E00E94CA1982E692E0E5
:103B40000E94F2126091CE037091CF038091D00356
:103B50009091D10344E050E00E942A1A84E592E05B
:103B60000E94F2128091450390914603A091470371
:103B7000B0914803A7019601281B390B4A0B5B0B38
:103B8000CA01B9014AE00E94F5178BE492E00E9455
:103B9000F2128091410390914203A0914303B091AE
:103BA0004403A7019601281B390B4A0B5B0BCA0182
:103BB000B9014AE00E94F5178FE991E00E940B17C6
:103BC0008EE392E00E94F2120E94710E0E94961AF9
:103BD00087E292E00E94F21280912401082E000CEC
:103BE000990B0E94681A86E192E00E94F21280917D
:103BF0002301082E000C990B0E94681A86E092E0BF
:103C00000E94F21280912501082E000C990B0E944F
:103C1000381A81EF91E00E94F2120E94D2168111AF
:103C20008CC08FEC91E00E94F21286ED91E00E9430
:103C3000F2120E94C916811183C086EB91E00E94A6
:103C4000F2128DEB91E00E94F2128091260184FD28
:103C50007AC089E591E00E9418178CE991E00E94F2
:103C6000F2126091270170912801809129019091B1
:103C70002A0146E050E00E94CA198AE891E00E94B9
:103C8000F21260912B0170912C0180912D01909185
:103C90002E0146E050E00E942A1A84E791E00E943B
:103CA000F21260912F017091300180913101909159
:103CB000320145E050E00E94CA1988E691E00E9476
:103CC000F21260913301709134018091350190912D
:103CD000360145E050E00E94CA1980E691E00E945A
:103CE000F2120E94C916811131C083E391E00E9453
:103CF000181787E491E00E94F21280914D03813001
:103D000059F1823031F58DEB91E00E9439188AE348
:103D100091E00E94F21280911E01811120C08FE279
:103D200091E0FF90EF90DF90CF900C94181789E806
:103D300092E0D6CE8EEE91E0DFCE82ED91E073CFB1
:103D400089EB91E07CCF8CE591E085CF86E391E033
:103D5000CECF86EC91E0D9CF86EB91E0D6CF81E350
:103D600091E0DFCF2F923F924F925F926F927F92BE
:103D70008F929F92AF92BF92CF92DF92EF92FF927B
:103D80000F931F93CF93DF93CDB7DEB72A970FB66C
:103D9000F894DEBF0FBECDBFA0918105B091820522
:103DA000109791F58091840590918505A0918605E5
:103DB000B09187050196A11DB11D80938405909354
:103DC0008505A0938605B09387051092DA0381E0FC
:103DD0008093F20380E02A960FB6F894DEBF0FBE00
:103DE000CDBFDF91CF911F910F91FF90EF90DF90AA
:103DF000CF90BF90AF909F908F907F906F905F908B
:103E00004F903F902F90089589011A016F83788712
:103E100089879A872091830531E03093210420938C
:103E200043041092220410924404ED91FC911197E6
:103E30000190F081E02D6CE0CD01099580E00E94B9
:103E40009813F82E8111AECFE09083050E94A01147
:103E50002B013C0180911B04811164C081E080939F
:103E60001B0480931A049FEF909319041092180476
:103E7000809317048093F6038091F603EE0CE82AF2
:103E8000E092F6038091F503813009F0CFC01092E3
:103E9000F5030E94A0112B013C018091F603809351
:103EA000BB0080911D0490911E04A0911F04B0914D
:103EB0002004892B8A2B8B2BA1F00E94A01120912A
:103EC0001D0430911E0440911F0450912004641978
:103ED000750986099709261737074807590708F40F
:103EE00042C08091BC0083FDD8CF85EC8093BC009C
:103EF0000E94A0112B013C0180911B04813009F428
:103F000097C080911804823008F0B4C080911804E2
:103F1000A7EFB3E0E4EDF2E0F81649F19D9191933B
:103F2000F394FACF80911D0490911E04A0911F0478
:103F3000B0912004892B8A2B8B2B09F48BCF0E9404
:103F4000A01120911D0430911E0440911F04509136
:103F50002004641975098609970926173707480749
:103F6000590708F077CF80911C040E9477131092B4
:103F70003D03F0923C0382E0882EF81013CF80912D
:103F8000810590918205DC01ED91FC910084F18521
:103F9000E02D099502970CF405CF80918105909151
:103FA0008205DC01ED91FC910284F385E02D0995F9
:103FB000F82E8091810590918205DC01ED91FC91B4
:103FC0000284F385E02D099560E07F2D66277F70E0
:103FD000682B90E080E00E94D93720E030E044EB8D
:103FE00053E40E943A3820E030E040E859E30E9470
:103FF0003A382B013C012091270130912801409152
:10400000290150912A010E94B2396B017C0120E004
:1040100030E044E353E40E94FE3A18166CF520E0C9
:1040200030E044EB53E4C701B601EDCF85EE5ECF3F
:1040300080911D0490911E04A0911F04B091200452
:10404000892B8A2B8B2B09F457CF0E94A01120912A
:104050001D0430911E0440911F04509120046419E6
:10406000750986099709261737074807590708F081
:1040700043CF79CF82E04CCF20E030E044E353ECF3
:10408000C701B6010E94D43787FF0BC020E030E0A3
:1040900044EB53E4C701B6010E94B3396B017C01C4
:1040A000EBCF60912301062E000C770B880B990B48
:1040B0000E94DB37A70196010E943A386B017C0110
:1040C000C092BA03D092BB03E092BC03F092BD034E
:1040D00025E33AEF4EE85CE30E943A386093BE0372
:1040E0007093BF038093C0039093C1034092C203B7
:1040F0005092C3036092C4037092C50321E02093E1
:10410000DA038090D0029090D102A090D202B090B9
:10411000D30289829A82AB82BC8289288A288B2822
:10412000B9F58F809884A984BA848092D002909245
:10413000D102A092D202B092D30280924503909213
:104140004603A0924703B09248031092F2039F7770
:10415000BB24B39422E93AE046E85EE30E94FE3ACB
:1041600018160CF0B12CB092F3032114310431F085
:10417000D101CD92DD92ED92FC92139701151105BC
:1041800029F0F801408251826282738281E023CE5D
:104190008F809884A984BA8429813A814B815C817B
:1041A000821A930AA40AB50A8092490390924A039C
:1041B000A0924B03B0924C03B4CF1F93CF93DF93E5
:1041C000CDB7DEB728970FB6F894DEBF0FBECDBFD0
:1041D00019821A821B821C821D821E821F821886EF
:1041E0000E94F7119E012B5F3F4FAE014F5F5F4F63
:1041F0000E94B21E182F81110FC085EF97E00E9418
:104200001817812F28960FB6F894DEBF0FBECDBFCA
:10421000DF91CF911F9108958D819E81AF81B885E7
:104220008093270190932801A0932901B0932A013C
:10423000809126018160809326010E94F71130E071
:1042400020E050E040E00E94B21E81E080934E03E7
:104250008EED97E00E94F2126D817E818F819885AC
:1042600046E050E00E942A1A0E94FB19CACF4F92E2
:104270005F926F927F928F929F92AF92BF92CF92F6
:10428000DF92EF92FF920F931F93CF93DF93CDB7FF
:10429000DEB764970FB6F894DEBF0FBECDBF809136
:1042A000EE04853061F48CED93E00E9418170E94B3
:1042B000A91A85EC93E00E94181710E01BC00E9419
:1042C000F7114B015C01198A1A8A1B8A1C8A1D8608
:1042D0001E861F86188A9E01235F3F4FAE014F5EE8
:1042E0005F4F0E94B21E182F81111CC081EB93E01A
:1042F0000E941817812F64960FB6F894DEBF0FBE88
:10430000CDBFDF91CF911F910F91FF90EF90DF9084
:10431000CF90BF90AF909F908F907F906F905F9065
:104320004F9008958091EE048450823018F485E90E
:1043300093E0C1CFFF24F394F092EE04F0920001D9
:10434000F0920101109202018091240180931701E3
:104350008091230180931801809125018093190198
:1043600019861A861B861C861D821E821F8218864D
:1043700019821A821B821C828E010F5F1F4F9E01C1
:104380002B5F3F4FAE01475F5F4FC501B4010E94F5
:1043900011158093010189819A81AB81BC81809341
:1043A000030190930401A0930501B09306018D854C
:1043B0009E85AF85B88980930B0190930C01A093E3
:1043C0000D01B0930E01F092920560E080918A0594
:1043D0000E94830E20E030E04AEF53E468E770E08B
:1043E00080E090E00E94FC0D0E94F7114B015C01FF
:1043F0000E94E00C8823E9F00E94A0112B013C01EF
:104400000E94F7116B017C010E94570EA7019601D3
:10441000C301B2010E94CF0EC818D908EA08FB08F0
:1044200089EBC8168BE0D806E104F10408F30E947A
:10443000040D0E94570E62E370E080E090E00E945D
:10444000C5110E94F7112FE031E050E040E00E94DA
:10445000B21E182F81110CC087E793E00E94181735
:104460008091EE04813009F045CF1092EE0442CFE6
:1044700020910B0130910C0140910D0150910E01E2
:1044800060910F01709110018091110190911201C2
:104490000E94B2396B017C0120E030E044E353E438
:1044A0000E94FE3A18163CF420E030E044EB53E45E
:1044B000C701B601EDCF20E030E044E353ECC70183
:1044C000B6010E94D43787FF0BC020E030E044EBF8
:1044D00053E4C701B6010E94B3396B017C01EBCFF5
:1044E000C0921301D0921401E0921501F0921601CE
:1044F0000091240120E030E0A901C701B6010E942B
:10450000FE3A87FD01950093170120E030E0A901F4
:10451000C701B6010E94FE3A87FD55C081E0809335
:10452000180191E007FD9FEF909324018F3F09F060
:1045300081E0809323018091260180618093260190
:1045400081E080934E038091EE04813019F483E082
:104550008093EE048AE593E00E94181780E493E0CC
:104560000E94F21260911301709114018091150163
:104570009091160145E050E00E942A1A83E293E0F0
:104580000E94F21280911701082E000C990B0E94D4
:10459000381A87E093E00E94F21280911801082EE9
:1045A000000C990B0E94381A80910101882369F050
:1045B0008BED92E00E9418178091B103811108C021
:1045C0000E94241697CE8FEFAACF88EA92E0F2CF0E
:1045D000182F90CECF92DF92EF92FF920F931F93FE
:1045E000CF936B017C01C092DC03D092DD03E0929B
:1045F000DE03F092DF0330E020E050E040E00E9474
:10460000B21EC82F10E000E030E020E050E040E0B3
:10461000C701B6010E941115C11101C080E0CF9100
:104620001F910F91FF90EF90DF90CF90089585ED4F
:104630008093BC0080911D0490911E04A0911F04E2
:10464000B09120040796A11DB11D23E0B695A79552
:10465000979587952A95D1F72091BC0024FD03C03A
:1046600010921B04089540911D0450911E04609106
:104670001F0470912004452B462B472B69F30097AC
:10468000A105B10541F02AE22A95F1F700C0019792
:10469000A109B109E1CF80911C040C9477134F92CA
:1046A0005F926F927F928F929F92AF92BF92CF92C2
:1046B000DF92EF92FF92CF93C09126018C2F8C70E6
:1046C0008C3099F5C0902F01D0903001E0903101ED
:1046D000F0903201409033015090340160903501E8
:1046E00070903601A3019201C701B6010E94DF3A22
:1046F0004B015C01A3019201C701B6010E94C03ABF
:104700006B017C01A50194010E94B23920E030E0E8
:1047100040E050E40E94D43787FF09C0C37FC093B4
:10472000260187E398E00E94181780E011C080926C
:104730002F0190923001A0923101B0923201C092CB
:104740003301D0923401E0923501F092360181E0DC
:10475000CF91FF90EF90DF90CF90BF90AF909F9060
:104760008F907F906F905F904F9008951F93CF939D
:10477000DF9300D000D0CDB7DEB719821A821B823A
:104780001C820E94F71130E020E0AE014F5F5F4FC6
:104790000E94B21E182F81110DC088ED98E00E9472
:1047A0001817812F0F900F900F900F90DF91CF91DE
:1047B0001F91089589819A81AB81BC8180933301D7
:1047C00090933401A0933501B09336018091260176
:1047D00088608093260181E080934E0383EC98E00B
:1047E0000E94F21269817A818B819C8146E050E0BF
:1047F0000E942A1A8091260182FF08C00E944F233E
:10480000882339F08FE998E00E9418170E94CC198C
:10481000C8CF10E0C6CF1F93CF93DF9300D000D056
:10482000CDB7DEB719821A821B821C820E94F71153
:1048300030E020E0AE014F5F5F4F0E94B21E182FA4
:1048400081110DC08BE898E00E941817812F0F90FE
:104850000F900F900F90DF91CF911F910895898154
:104860009A81AB81BC8180932F0190933001A093FA
:104870003101B0933201809126018460809326013A
:1048800081E080934E0384E798E00E94F2126981F0
:104890007A818B819C8146E050E00E942A1A8091A7
:1048A000260183FF08C00E944F23882339F080E54A
:1048B00098E00E9418170E94CC19C8CF10E0C6CF0C
:1048C000FF920F931F93CF93DF9380E19BEB909325
:1048D000200180931F0181E090E09093220180935A
:1048E00021010E94F10A8FE191E00E94D90A909380
:1048F0003801809337010FE111E0D0E0C0E0F8010A
:10490000F1908F01CE010E94FB38F81621F06F2D37
:10491000CE010E9403392196CA31D10581F781E089
:1049200080934D03DF91CF911F910F91FF900895D8
:10493000EF92FF920F931F93CF93DF93CDB7DEB724
:104940006A970FB6F894DEBF0FBECDBF8AE1E9E3E8
:10495000F1E0DE01119601900D928A95E1F7CE010A
:1049600001967C0110E000E0C8010E94FB38F701CD
:1049700081937F010F5F1F4F0A311105A9F78981CC
:104980009A8180319B4B21F48B819C81019799F016
:104990000E94260B82E080934D0380E06A960FB65A
:1049A000F894DEBF0FBECDBFDF91CF911F910F9165
:1049B000FF90EF900895CE0101960E94D90A298DAB
:1049C0003A8D2817390721F78AE1FE013196AFE1C8
:1049D000B1E001900D928A95E1F70E94F10A8FE112
:1049E00091E00E94D90A909338018093370181E0C9
:1049F00080934D03D3CF1F920F920FB60F921124C5
:104A00002F933F938F939F93AF93BF938091E9032D
:104A10009091EA03A091EB03B091EC033091E8038D
:104A200023E0230F2D3758F50196A11DB11D2093CA
:104A3000E8038093E9039093EA03A093EB03B09318
:104A4000EC038091ED039091EE03A091EF03B09100
:104A5000F0030196A11DB11D8093ED039093EE0329
:104A6000A093EF03B093F003BF91AF919F918F910B
:104A70003F912F910F900FBE0F901F90189526E831
:104A8000230F0296A11DB11DD2CF1F920F920FB618
:104A90000F9211242F933F934F935F936F937F93C4
:104AA0008F939F93AF93BF93EF93FF9385E494E02D
:104AB0000E948312FF91EF91BF91AF919F918F91CF
:104AC0007F916F915F914F913F912F910F900FBE0A
:104AD0000F901F9018951F920F920FB60F921124EE
:104AE0002F938F939F93EF93FF93E0915504F09151
:104AF00056048081E0915B04F0915C0482FD1BC050
:104B0000908180915E048F5F8F7320915F04821784
:104B100041F0E0915E04F0E0EB5BFB4F958F8093FA
:104B20005E04FF91EF919F918F912F910F900FBE97
:104B30000F901F9018958081F4CF1F920F920FB69F
:104B40000F9211242F933F934F935F936F937F9313
:104B50008F939F93AF93BF93EF93FF938091B9008F
:104B6000887F803609F44AC0F0F5883209F4A7C07E
:104B700018F5803109F49BC0B8F4882309F4F9C012
:104B8000883009F494C0FF91EF91BF91AF919F914C
:104B90008F917F916F915F914F913F912F910F90E6
:104BA0000FBE0F901F901895883109F488C080328D
:104BB00051F78093190414C0803409F49DC040F467
:104BC0008033B9F38833F9F68093190485ECB0C0CB
:104BD000803509F485C0883509F496C0883499F683
:104BE0000E941723D0CF883909F48CC038F5883754
:104BF00029F050F4883611F0803729F683E080934D
:104C00001B041092370357C0883809F47BC08039E1
:104C100019F0803809F0B7CF80913703803208F05F
:104C200071C0E091370381E08E0F8093370380914C
:104C3000BB00F0E0E95EFC4F80833DC0803B39F073
:104C4000E0F4803A09F479C0883A09F09CCF84E016
:104C500080931B041092160310921503E0913A03FF
:104C6000F0913B0309958091150381110FC081E0FC
:104C7000809315031092F50209C0803C09F4A6CF79
:104C8000883C09F4A3CF883B09F07DCFE09116035F
:104C900081E08E0F80931603F0E0EB50FD4F808192
:104CA0008093BB00909116038091150329C08091D9
:104CB000F6038093BB0085EC8093BC0064CF909199
:104CC000180480911704981758F5E091180481E0B2
:104CD0008E0F80931804F0E0E950FC4F8081E9CFFB
:104CE000E091180481E08E0F809318048091BB003E
:104CF000F0E0E950FC4F80839091180480911704F4
:104D00009817C8F285E8D8CFE091180481E08E0F9B
:104D1000809318048091BB00F0E0E950FC4F808341
:104D200080911A0481115CCF81E08093F50384EABD
:104D30008093BC0010921B0426CF85EC8093BC00AE
:104D400010921B0480913703803230F4E0913703D6
:104D5000F0E0E95EFC4F10826091370370E0E09173
:104D60003803F091390387E193E0099510923703F6
:104D70000ACF1092190434CF1F920F920FB60F92E0
:104D800011240F931F932F933F934F935F936F9330
:104D90007F938F939F93AF93BF93CF93EF93FF93A3
:104DA000E0913F03F09140033097A9F080913E03DA
:104DB000882389F0C081C8230E94A011CC23F9F078
:104DC00060937705709378058093790590937A05C1
:104DD00081E080937F05FF91EF91CF91BF91AF91DB
:104DE0009F918F917F916F915F914F913F912F9103
:104DF0001F910F910F900FBE0F901F90189520914B
:104E00007F05222341F300917705109178052091C9
:104E1000790530917A05601B710B820B930B6093BF
:104E20007B0570937C0580937D0590937E0581E0E2
:104E30008093800510927F05CECF1F920F920FB600
:104E40000F9211242F933F934F935F936F937F9310
:104E50008F939F93AF93BF93EF93FF930E94BC26D2
:104E6000FF91EF91BF91AF919F918F917F916F9142
:104E70005F914F913F912F910F900FBE0F901F9018
:104E800018951F920F920FB60F9211242F933F93F4
:104E90004F935F936F937F938F939F93AF93BF9342
:104EA000EF93FF930E94BC26FF91EF91BF91AF91CA
:104EB0009F918F917F916F915F914F913F912F9132
:104EC0000F900FBE0F901F9018951F920F920FB664
:104ED0000F9211248F939F93AF93BF93EF93FF9300
:104EE000809191058823E9F0809192058823C9F08B
:104EF000809194058823A9F080919E0590919F054B
:104F0000892B79F08091A0059091A1050297A0F0DE
:104F10008091A0059091A10501979093A1058093A0
:104F2000A005FF91EF91BF91AF919F918F910F904D
:104F30000FBE0F901F90189580919E0590919F0530
:104F40009093A1058093A0058091930591E0892716
:104F50008093930590919305E0918B05F0918C05DA
:104F600080918D05992309F44AC09081892B808313
:104F7000809193058823A9F28091A605882389F260
:104F80008091A2059091A305A091A405B091A505DB
:104F9000181619061A061B0624F68091A205909190
:104FA000A305A091A405B091A5050197A109B10998
:104FB0008093A2059093A305A093A405B093A505A3
:104FC0008091A2059091A305A091A405B091A5059B
:104FD000892B8A2B8B2B09F0A4CF10929405109269
:104FE0009305E0918B05F0918C05908180918D0562
:104FF00080958923808381E08093A70592CF90815B
:1050000080958923B4CFFC01108211821282138211
:1050100014821582168217821086118612861386D4
:1050200048E25BE66EE67EEC4487558766877787C5
:1050300088E29BE6AEE6BEE4808B918BA28BB38BBD
:10504000448B558B668B778B808F918FA28FB38F1C
:10505000148E158E168E178E10A211A212A213A2F4
:1050600014A20895CF93DF93CDB7DEB76C970FB638
:10507000F894DEBF0FBECDBFE5E4F4E013821282E8
:1050800088EE93E0A0E0B0E084839583A683B783A5
:105090002FE731E03183208325EC30E0358724870A
:1050A00024EC30E03787268720EC30E0318B208BF2
:1050B00021EC30E0338B228B22EC30E0358B248BDB
:1050C00026EC30E0378B268B118E128E138E148EC9
:1050D000E2EEF4E01382128284839583A683B78381
:1050E00081E991E091838083E8E8F5E082E08083C4
:1050F00083E0818384E08283148213821582178285
:1051000016821086118612861386148681E08587A2
:1051100016861786108A118A128A138A148A158AAB
:10512000178A168A118E108E128E138E148E158E7B
:10513000168E178EE1E8F5E01182108286E38283F5
:105140001382148215821682EDE3F5E088E08083F5
:1051500089E081831282138214821582168217825B
:105160001086118612861386148615861686178673
:10517000108A118A128A138A148A158A168A178A43
:10518000108E118E128E138E148E158E168E178E13
:1051900010A211A212A213A214A215A216A217A263
:1051A00010A611A612A613A614A615A617A616A633
:1051B00011AA10AA13AA12AA14AA15AA16AA17AA03
:1051C00010AE11AE12AE13AE14AE15AE10927B053A
:1051D00010927C0510927D0510927E0510927F053D
:1051E000109280058FEE94E00E94032884E195E000
:1051F0000E940328EFEEF4E01092390510923A0570
:1052000010923B0510923C058DE895E3ADE7B2E4C2
:1052100080839183A283B3838EEB9DE5A0E6B3E404
:1052200084839583A683B7838AED9DE2A6EDB0E4DF
:1052300080879187A287B38787EB9DE0A3E2BAEBD3
:1052400084879587A687B78787EB9DE0A3E2BAE3BB
:10525000808B918BA28BB38B8EE19AEFAEE0BEEB8D
:10526000848B958BA68BB78B8EE19AEFAEE0BEE375
:10527000808F918FA28FB38F8CE1E3E5F1E0DE01A7
:10528000119601900D928A95E1F785E99FE9A7E2D1
:10529000B0E489839A83AB83BC8387E291E2AAE47A
:1052A000B2E48D839E83AF83B88780EA9BE7AEE04C
:1052B000B2EC8D879E87AF87B88B80EA9BE7AEE024
:1052C000B2E4898B9A8BAB8BBC8B80E090E0A1EE33
:1052D000B4EC8D8B9E8BAF8BB88F80E090E0A1EE0D
:1052E000B4E4898F9A8FAB8FBC8F8CE1FE0131962D
:1052F000A4E1B5E001900D928A95E1F71092EE04D9
:105300006C960FB6F894DEBF0FBECDBFDF91CF9184
:105310000895CF93DF93CDB7DEB764970FB6F894B7
:10532000DEBF0FBECDBF789484B5826084BD84B5E6
:10533000816084BD85B5826085BD85B5816085BD90
:1053400080916E00816080936E0010928100809148
:1053500081008260809381008091810081608093D0
:105360008100809180008160809380008091B100F5
:1053700084608093B1008091B00081608093B00020
:1053800080917A00846080937A0080917A008260B4
:1053900080937A0080917A00816080937A00809176
:1053A0007A00806880937A001092C100E0915504E1
:1053B000F091560412E01083E0915104F0915204F0
:1053C0001082E0915304F091540480E180831092A4
:1053D0005D04E0915904F0915A0486E08083E091E5
:1053E0005704F0915804808180618083E0915704D4
:1053F000F0915804808188608083E0915704F09197
:105400005804808180688083E0915704F0915804AB
:1054100080818F7D80836AEF70E080E090E00E9461
:10542000C51188E99CE00E9418170E9498248111F8
:1054300004C00E94260B10934D0361E08091880503
:105440000E946F1161E0809189050E946F1161E0F7
:1054500080918A050E946F118091880590E0FC017F
:10546000E953FB4EE491F0E0EE0FFF1FE354FB4ED7
:105470002591349130938C0520938B05FC01E552E6
:10548000FB4EE491E0938D058091890590E0FC014D
:10549000E953FB4EE491F0E0EE0FFF1FE354FB4EA7
:1054A0002591349130938F0520938E05FC01E552B0
:1054B000FB4EE491E09390050E94F70CE0918E057D
:1054C000F0918F05309731F0908180919005809513
:1054D0008923808361E080918A050E94830E109267
:1054E00092059FB7F894109280001092810010925C
:1054F00085001092840021E330E0309389002093EE
:105500008800809181008860809381008091810073
:1055100082608093810080916F00826080936F0031
:1055200011E0109391059FBF0E94241610923D0335
:1055300010923C0310922204109244040E945913CA
:1055400083E092E190933B0380933A0384E092E1FD
:10555000909339038093380382EE94E09093820510
:105560008093810586E3809383050E94591380917F
:105570008305109321048093430481E00E949813D3
:10558000082F61E080913D050E946F1160E08091DD
:105590003E050E946F1160E080913D050E94830EE0
:1055A0008FE090E00197F1F70E94A011685B7848C6
:1055B0008109910960937205709373058093740556
:1055C00090937505E0EDF4E1E491F0E0EE0FFF1F3C
:1055D000E257F34F859194919093400380933F035A
:1055E000E4EEF4E1E491E0933E0380916800816091
:1055F0008093680080916B00826080936B001092B2
:10560000F1031092F2031092F3031092F4030111CC
:105610001093F2031092B2031092B3031092B403EA
:105620001092B5031092B6031092B7031092B8030C
:105630001092B9030E94F7116093E4037093E5039D
:105640008093E6039093E7036093E0037093E10394
:105650008093E2039093E3036093450370934603C2
:1056600080934703909348036093410370934203F0
:1056700080934303909344030E94E1170E944B18C8
:105680000E944B1D0E94A91A0E948A170E94A01115
:105690006B017C010E94F7112B013C010E94570E07
:1056A000A3019201C701B6010E94CF0E85E494E0E8
:1056B0000E946312181619060CF08FC785E494E057
:1056C0000E9441128D3091F32091AF033091B003CD
:1056D0008A3009F072C7215B3C4FD9011C92188AAD
:1056E0001F86AE01415F5F4F64ED71E08FE493E090
:1056F0000E941F368C01009709F409C266ED71E023
:105700000E94083B892B51F0F80101900020E9F735
:10571000CF0102978017910709F0ACC2D801EC9134
:10572000E153EA3408F0A6C20E2E000CFF0BE5563A
:10573000F44D0C9498394D3157313A2E3A2E3A2E79
:105740003A2E3A2E3A2E3A2E3A2E3A2E3A2E3A2E19
:105750003A2E412E3A2E3A2E3A2E3A2E3A2E3A2E02
:105760003A2E3A2E3A2E3A2E3A2E3A2E3A2E3A2EF9
:105770003A2E3A2E3A2E3A2E3A2E3A2E3A2E3A2EE9
:105780003A2E3A2E3A2E3A2E3A2E4D313A2E5731A3
:105790003A2E3A2E3A2EF430662F132EED2C0F2C83
:1057A000552D702F412ED7323B2C4E2D4D312B31A4
:1057B000C12DDD2C0331072EF82C4B2EE52B573154
:1057C000CF2C7D2DCD323A2E8030AE01415F5F4F20
:1057D00064ED71E090E080E00E941F36009799F43C
:1057E00080911E0191E0892780931E0186E694E155
:1057F0000E94F21280911E01882371F084E694E1E8
:105800000E94181784C10E94DA3521E0892B09F41F
:1058100020E020931E01EACF82E694E1F1CFAE01B1
:10582000415F5F4F64ED71E090E080E00E941F36C1
:10583000009719F482E594E1E3CF0E94DA3521E084
:10584000009709F420E02093B103892B79F00E949E
:105850003B1681110BC081E08093920560E080913E
:105860008A050E94830E80E494E1CACF0E94241628
:105870008DE294E1C5CFAE01415F5F4F64ED71E011
:1058800090E080E00E941F367C01AE01415F5F4FD7
:1058900064ED71E090E080E00E941F368C01E1141D
:1058A000F10411F0892B19F48BE094E1A9CFC70121
:1058B0000E94F8356B017C01C8010E94D6354B016E
:1058C0005C01C114D104E104F10439F020E030E0BE
:1058D000A9010E94D43718161CF086EF93E190CFEF
:1058E0008091EE04843019F48AED93E189CF198216
:1058F0001A821B821C820E94C916882309F43EC0AA
:105900000E94F71130E020E0AE014F5F5F4F0E9430
:10591000B21E882399F12DEC3CEC4CE45EE31C14A0
:105920001D041E041F04ACF4609133017091340116
:1059300080913501909136010E94B23929813A81D6
:105940004B815C810E94D4371816C4F08EEB93E132
:1059500057CF60912F01709130018091310190916A
:1059600032010E94B33929813A814B815C810E94C6
:10597000FE3A87FD03C082EA93E142CF81E0809343
:10598000920560E080918A050E94830EA501940132
:10599000C701B6010E94FC0D83E993E131CF0E945B
:1059A0006024882339F010924E0386E893E10E9428
:1059B00018171FC482E793E1FACF0E949824182F8A
:1059C00010924E0385E693E10E94F2128EE593E178
:1059D0001111EDCF85E593E1EACF0E94260B82E01D
:1059E00080934D0381E080934E038DE393E1DFCFFD
:1059F0000E94F7110E94EA220E94F7110E944A16A3
:105A00000E94DA1629833A834B835C836D837E83FD
:105A1000CE0101960E94AD0A882309F479C510923F
:105A20000B0510920C0510920D0510920E051092A8
:105A30000F05109210051092110510921205109288
:105A40001305109230051092310510923205109214
:105A500033051092340510923505109236051092D8
:105A60003705109238051092390510923A051092B8
:105A70003B0510923C051092B2031092B3031092B2
:105A8000B4031092B5031092B6031092B7031092AC
:105A9000B8031092B90382E393E1B2CE0E94CA0A1E
:105AA0000E94241687E293E182CF1092F1031092B4
:105AB000F2031092F3031092F4030E94DA16298382
:105AC0003A834B835C836D837E838091EE048530C3
:105AD00039F083E093E10E9418170E94A91A89C344
