:100000000C9413080C943B080C943B080C941A288D
:100010000C94A4280C9480280C943B080C943B0866
:100020000C943B080C943B080C943B080C94C82897
:100030000C943B080C943B080C943B080C943B0834
:100040000C9459260C943B080C94C9260C94A326B6
:100050000C943B080C943B080C943B080C943B0814
:100060000C94FB260C943B08300031006E6F007935
:1000700065730054454C2C656E61626C65643D008F
:1000800043414C5F53544F52452C737461747573E4
:100090003D006E6F00796573002C7369676E5F6356
:1000A000616C696272617465643D006E6F007965B0
:1000B00073002C6C696D6974735F63616C69627243
:1000C000617465643D00626164006F6B0043414C84
:1000D0002C7A65726F5F63616C69627261746564CA
:1000E0003D004641554C54532C626974733D002CBD
:1000F000706F735F6D733D004147452C616E676C97
:10010000655F6D733D002C785F66696C745F636D2D
:100110003D002C785F636D3D004D4541532C746864
:100120006574615F6465673D00626164006F6B00C8
:100130002C706F733D0053454E534F52532C616EDC
:10014000676C653D0053544154452C005741524E55
:100150002C736F6E61725F6E6561723D3000494E47
:10016000464F2C736F6E61725F6E6561723D310038
:100170004552522C616E676C655F6E6F745F72657D
:100180006164795F61667465725F6A6F670045528A
:10019000522C63616E6E6F745F656E7465725F631F
:1001A000616C69625F7369676E004552522C616EC3
:1001B000676C655F6E6F745F726561647900475547
:1001C0004944452C646F3D742D3E612D3E702D3E9B
:1001D000662D3E62004552522C6661756C745F61FB
:1001E000637469766500494E464F2C7369676E7378
:1001F0005F6170706C6965645F72756E74696D655E
:10020000005349474E5F43414C5F524553554C5450
:100210002C004552522C736F6E61725F6E6F745F6B
:1002200072656164790047554944452C646F3D739C
:100230006F6E6172207369676E20317C2D31206F83
:100240007220726572756E2062004552522C73697D
:10025000676E5F736F6E61725F6E6561725F6D690D
:100260007373696E67004552522C63616C5F7369EA
:10027000676E5F6E6F745F73746172746564006E35
:100280006F00796573002C7A65726F5F63616C69CA
:100290006272617465643D002C736F6E61725F639E
:1002A000656E7465725F636D3D0043414C5F5A45F6
:1002B000524F2C6173353630305F7A65726F5F64F0
:1002C00065673D006E6F00796573002C6C696D6920
:1002D00074735F63616C696272617465643D002C64
:1002E00075707065725F6465673D0043414C5F4C9B
:1002F000494D4954532C6C6F7765725F6465673D57
:10030000004641554C545F494E464F2C7265636F11
:100310007665723D66004641554C545F494E464FE6
:100320002C706F735F6F6F623D31004641554C54C6
:100330005F494E464F2C616E676C655F6F6F623D23
:1003400031004641554C545F494E464F2C6932634B
:100350005F6572726F723D31004641554C545F4982
:100360004E464F2C736F6E61725F74696D656F7569
:10037000743D31004641554C545F494E464F2C6EFA
:100380006F6E65006272696E6775705F7761726E1D
:10039000696E670072756E5F686172645F66617531
:1003A0006C74004641554C545F494E464F2C6D6F5E
:1003B00064653D004641554C545F494E464F2C62A2
:1003C0006974733D004D454E552C736F6E61723DDF
:1003D000666C61745F7461726765745F7468656E82
:1003E0005F736F6E61725F64696167006E6F007941
:1003F0006573006E6F00796573002C736F6E6172A8
:100400005F6F6B3D006E6F00796573002C616E67E6
:100410006C655F6F6B3D006E6F00796573002C73C8
:1004200069676E3D006E6F00796573002C6C696DB5
:100430006974733D002C7A65726F3D004D454E55D1
:100440002C73746174653D004D454E552C62726984
:100450006E67757000300031002C6A756D705F72C8
:10046000656A6563745F636E743D002C74696D65C5
:100470006F75745F636E743D002C76616C69645FA8
:1004800073747265616B3D002C66696C745F636D9B
:100490003D002C7261775F636D3D002C6167655F85
:1004A0006D733D00300031002C74696D656F75749B
:1004B0003D00300031002C66726573683D00534F7B
:1004C0004E41525F444941472C6861735F73616DCF
:1004D000706C653D00300031004153353630305F7F
:1004E000444941472C004552522C616E676C655F50
:1004F0006E6F745F7265616479004F4B2C63616C41
:100500005F7A65726F5F616E676C655F7365743D7E
:10051000004552522C736F6E61725F6E6F745F7222
:1005200065616479004F4B2C63616C5F7A65726F13
:100530005F706F736974696F6E5F7365743D0045BA
:1005400052522C6C696D69745F7370616E5F746F69
:100550006F5F736D616C6C00494E464F2C6C696D1A
:100560006974735F6E6F726D616C697A65645F66E2
:10057000726F6D5F646F776E5F7570004F4B2C63A9
:10058000616C5F6C696D69745F646F776E5F7365D2
:10059000743D004552522C616E676C655F6E6F74DE
:1005A0005F726561647900494E464F2C6C696D69D4
:1005B00074735F6E6F726D616C697A65645F667289
:1005C0006F6D5F646F776E5F7570004F4B2C63616A
:1005D0006C5F6C696D69745F75705F7365743D0005
:1005E0004552522C616E676C655F6E6F745F726509
:1005F0006164790047554944452C737465703D72B8
:10060000756E2C646F3D72756E5F7200475549447C
:10061000452C737465703D736176652C646F3D7213
:10062000756E5F760047554944452C737465703D7F
:10063000736F6E61725F73656E736F722C646F3D62
:10064000666C61745F7461726765745F7468656E0F
:100650005F736F6E61725F646961670047554944FB
:10066000452C737465703D616E676C655F73656E74
:10067000736F722C646F3D636865636B5F415335C4
:100680003630305F7468656E5F7300475549444586
:100690002C737465703D736F6E61725F7369676E02
:1006A0005F6D616E75616C2C646F3D736F6E61720E
:1006B0005F7369676E5F315F6F725F2D3100475501
:1006C0004944452C737465703D736F6E61725F733E
:1006D00069676E5F6175746F2C646F3D6D6F7665D1
:1006E0005F7461726765745F6661725F7468656E7E
:1006F0005F670047554944452C737465703D7369C5
:10070000676E5F626567696E2C646F3D72756E5FC0
:10071000620047554944452C737465703D666175A8
:100720006C745F72657365742C646F3D6669785F85
:100730007468656E5F660047554944452C7374655F
:10074000703D6C696D6974735F6669782C646F3D88
:100750007265646F5F5B5F616E645F5D0047554902
:1007600044452C737465703D75705F6C696D697478
:100770002C646F3D6D6F76655F55505F7468656E74
:100780005F5D0047554944452C737465703D646F47
:10079000776E5F6C696D69742C646F3D6D6F766503
:1007A0005F444F574E5F7468656E5F5B0047554905
:1007B00044452C737465703D7A65726F5F706F731A
:1007C0002C646F3D666C61745F7461726765745F01
:1007D00063656E7465725F7468656E5F700047551F
:1007E0004944452C737465703D7A65726F5F616E24
:1007F000676C652C646F3D6C6576656C5F626561E6
:100800006D5F7468656E5F6100424C4F434B2C69AD
:100810006E6E65725F6C6F6F7000424C4F434B2C75
:100820006661756C747300424C4F434B2C73656E5C
:10083000736F727300424C4F434B2C7369676E00A9
:10084000424C4F434B2C6C696D69747300424C4FA2
:10085000434B2C7A65726F004552522C72756E5F55
:10086000626C6F636B65640057495A2C31005749BD
:100870005A2C370057495A2C360057495A2C350004
:1008800057495A2C340057495A2C330057495A2C8F
:100890003200300031002C74656C656D65747279BE
:1008A0005F726573746F7265643D0057495A2C65B9
:1008B0007869742C726561736F6E3D0000000000F2
:1008C00023002600290042414C4C5F4245414D5FC8
:1008D000424F4F54004F4B2C63616C5F6C696D69E4
:1008E000745F75707065725F7365743D0045525238
:1008F0002C696E76616C69645F6C696D69745F7395
:1009000070616E004552522C616E676C655F6E6F50
:10091000745F7265616479004F4B2C63616C5F6C2E
:10092000696D69745F6C6F7765725F7365743D00A4
:100930004552522C696E76616C69645F6C696D69B1
:10094000745F7370616E004552522C616E676C6506
:100950005F6E6F745F72656164790043414C5F53F1
:100960005547474553542C534F4E41525F43454ED4
:100970005445525F434D3D004552522C736F6E619A
:10098000725F6E6F745F72656164790043414C5FA2
:10099000535547474553542C4153353630305F5AF1
:1009A00045524F5F4445473D004552522C616E67AA
:1009B0006C655F6E6F745F72656164790045525259
:1009C0002C63616C5F736176655F6661696C6564F9
:1009D000004F4B2C77697A6172645F73617665644E
:1009E000004552522C77697A6172645F6E6F745F52
:1009F00061745F736176655F737465700045525210
:100A00002C77697A6172645F6E6F745F6163746979
:100A100076650057495A2C737465705F6661696C1E
:100A20006564004552522C77697A6172645F696E21
:100A300076616C69645F737465700057495A2C6104
:100A400077616974696E675F636F6E6669726D0066
:100A50004552522C77697A6172645F6E6F745F6180
:100A60006374697665003000310057495A2C74650B
:100A70006C656D657472795F6175746F5F646973BD
:100A800061626C65642C707265763D004F4B2C770B
:100A9000697A6172645F7374617274656400574946
:100AA0005A2C626C6F636B6564004552522C666110
:100AB000756C745F616374697665004552522C737E
:100AC000746F705F6265666F72655F77697A617275
:100AD00064004552522C77697A6172645F616C726E
:100AE000656164795F6163746976650048454C505F
:100AF0002C6B657973004552522C756E6B6E6F7757
:100B00006E5F636F6D6D616E642C7472793D680009
:100B10004552522C6E6F5F6661756C745F737461C1
:100B20007465004F4B2C6661756C745F636C656116
:100B3000726564004F4B2C73746F70706564004F66
:100B40004B2C72756E6E696E67004F4B2C63616C37
:100B50005F64656661756C74735F6170706C696504
:100B600064004552522C75736167653A63616C5F2E
:100B700072657365740064656661756C7473006C8E
:100B80006F61646564004F4B2C63616C5F6C6F61D7
:100B9000642C004552522C63616C5F736176655F13
:100BA0006661696C6564004F4B2C63616C5F7361B7
:100BB000766564004552522C75736167653A6361CE
:100BC0006C5F6C696D697473004552522C7573616A
:100BD00067653A63616C5F6C696D6974735F7365B7
:100BE00074004552522C75736167653A63616C5F9E
:100BF0006C696D6974735F736574004552522C752E
:100C0000736167653A63616C5F6C696D69747300E9
:100C10004552522C75736167653A63616C5F7A6502
:100C2000726F004552522C75736167653A63616C4F
:100C30005F7A65726F5F736574004552522C7573ED
:100C40006167653A63616C5F7A65726F5F73657443
:100C5000004552522C75736167653A63616C5F7A27
:100C600065726F004552522C75736167653A736FF8
:100C70006E6172004F4B2C736F6E61725F736967A8
:100C80006E5F7365743D004552522C7573616765E4
:100C90003A736F6E61725F7369676E004552522CD2
:100CA00075736167653A736F6E61725F7369676EC2
:100CB000004552522C75736167653A736F6E6172AD
:100CC000004552522C75736167653A63616C5F73BE
:100CD00069676E004552522C75736167653A6361AE
:100CE0006C5F7369676E004552522C6A6F675F6272
:100CF0006C6F636B65645F6C6F7765725F6C696D59
:100D00006974004F4B2C6A6F675F7374617274650E
:100D100064004552522C6A6F675F626C6F636B654B
:100D2000645F75707065725F6C696D6974004552BF
:100D3000522C616E676C655F6E6F745F7265616483
:100D400079004552522C6A6F675F726571756972DE
:100D500065735F6C696D697473004552522C7374CE
:100D60006F705F72756E6E696E675F6265666F72D7
:100D7000655F6A6F67004552522C696E76616C69D7
:100D8000645F6A6F675F61726773004552522C75CA
:100D9000736167653A6A6F67004F4B2C64726976BE
:100DA00065725F656E61626C6564004F4B2C6472A6
:100DB000697665725F64697361626C65640045524F
:100DC000522C656E5F72657175697265735F305F15
:100DD0006F725F3100300031004F4B2C74656C65D1
:100DE0006D657472793D004552522C75736167656B
:100DF0003A74656C656D65747279004552522C7752
:100E0000697A6172645F6E6F745F6163746976653D
:100E1000004552522C6E6F5F6661756C745F73741F
:100E2000617465004F4B2C6661756C745F636C6513
:100E300061726564004F4B2C73746F707065640051
:100E40004F4B2C72756E6E696E67004F4B2C636151
:100E50006C5F64656661756C74735F6170706C69FA
:100E600065640064656661756C7473006C6F6164C1
:100E70006564004F4B2C63616C5F6C6F61642C0088
:100E80004552522C63616C5F736176655F66616980
:100E90006C6564004F4B2C63616C5F7361766564B5
:100EA000004552522C6A6F675F626C6F636B6564BA
:100EB0005F6C6F7765725F6C696D6974004F4B2C66
:100EC0006A6F675F73746172746564004552522C77
:100ED0006A6F675F626C6F636B65645F7570706586
:100EE000725F6C696D6974004552522C616E676C5B
:100EF000655F6E6F745F7265616479004552522C54
:100F00006A6F675F72657175697265735F6C696D31
:100F1000697473004552522C73746F705F72756EF2
:100F20006E696E675F6265666F72655F6A6F6700A4
:100F30004552522C696E76616C69645F6A6F675FB7
:100F400061726773004552522C75736167653A6A26
:100F5000004F4B2C6472697665725F6469736162DD
:100F60006C6564004F4B2C6472697665725F656EC8
:100F700061626C6564004552522C75736167653A15
:100F80006500300031004F4B2C74656C656D6574E5
:100F900072793D005741524E2C6A6F675F73746FD0
:100FA000707065645F6C6F7765725F6C696D697492
:100FB000005741524E2C6A6F675F73746F70706593
:100FC000645F75707065725F6C696D69740054451B
:100FD0004C2C0000000000240027002A0000000024
:100FE00000250028002B0004040404040404040267
:100FF00002020202020303030303030102040810B6
:101000002040800102040810200102040810200082
:1010100000000800020100000304070000000000B7
:1010200000000000952911241FBECFEFD8E0DEBFDD
:10103000CDBF12E0A0E0B1E0E0ECF5E702C0059022
:101040000D92A03DB107D9F725E0A0EDB2E001C0B7
:101050001D92A73DB207E1F718E0C3E1D8E004C054
:101060002197FE010E942738C231D107C9F70E949B
:101070007D2B0C94DE3A0C940000FC018091F80466
:101080008530B1F080818823A1F08181882389F0A7
:101090008281882371F08381882359F084818111B2
:1010A00007C08581882329F094E09093F80408957F
:1010B00080E008958091F804843011F0823021F4AA
:1010C00083E08093F8040895813011F41092F804BD
:1010D0000895FC01AC01485E5F4F8FEF9FEF2191B7
:1010E000922728E0BC01880F991F77FF04C031E2E6
:1010F000832730E193272150A9F7E417F50779F703
:1011000008958091230187FF2BC08FEF80932301E7
:101110008091240187FF26C08FEF80932401809166
:10112000250187FF21C08FEF809325012091330196
:1011300030913401409135015091360160912F0179
:101140007091300180913101909132010E945E3A9C
:1011500087FD05C080912601837F80932601089535
:1011600081E0D4CF81E0D9CF81E0DECF0F931F9310
:10117000CF93DF93CDB7DEB76A970FB6F894DEBF93
:101180000FBECDBFFE0131968AE1DF011D928A9527
:10119000E9F781E08D838E838F8380E090E0A0E08B
:1011A000B1EC898B9A8BAB8BBC8B80E090E0A0E09C
:1011B000B1E48D8B9E8BAF8BB88F8AE1AFE1B1E04C
:1011C00001900D928A95E1F70FE111E080E19BEB30
:1011D000F8019183808381E090E09383828380E0B3
:1011E00090E0A0EAB1E484879587A687B787C80115
:1011F0000E946908D80159969C938E9358976A96D5
:101200000FB6F894DEBF0FBECDBFDF91CF911F9117
:101210000F9108952F923F924F925F926F927F921B
:101220008F929F92AF92BF92CF92DF92EF92FF92F6
:101230000F931F93CF93DF93CDB7DEB766970FB6AB
:10124000F894DEBF0FBECDBF9E8B8D8B6A017B01F4
:10125000DC0194968C919497412C512C3201882377
:1012600091F090962D913D914D915C919397CB018A
:10127000B6010E945B382AE037ED43EA5CE30E9446
:10128000CD382B013C01ED89FE89208131814281DD
:101290005381C701B6010E94633A6F8378878987BB
:1012A0009A87AD89BE8914968D919D910D90BC91C0
:1012B000A02D8B879C87AD87BE87ED89FE89848CA6
:1012C000958CA68CB78C2085318542855385C301CA
:1012D000B2010E94633A6F87788B898B9A8BA50144
:1012E00094016B857C858D859E850E94633A2F8154
:1012F000388549855A850E945C382F853889498907
:101300005A890E945C382B013C01AD89BE895896F0
:10131000BC91BB83ED89FE89F18DFC83AD89BE89CB
:101320005A96BC91BD83ED89FE89F38DFE83AD890C
:10133000BE895496BC91B983ED89FE89F589FA83FB
:10134000AD89BE8956963C90569757962C902B8126
:101350003C814D815E810E945E3A87FD0AC020E09B
:1013600030E0A901C701B6010E945E3A18160CF4DC
:1013700054C029813A81432D522DC301B2010E94EC
:10138000C83818164CF020E030E0A901C701B601BA
:101390000E94C83887FD41C02AE037ED43EA5CE38C
:1013A000C701B6010E94633AA50194010E945C380E
:1013B000762E672E582E492EED89FE89F089FB8BFB
:1013C000AD89BE895196BC91BC8BED89FE8902899D
:1013D000138984849584A684B7849401A5010E940E
:1013E000C83887FD12C02B893C89A801672D762D4E
:1013F000852D942D0E945E3A8B889C885801181682
:1014000024F0872C962CA52CB42CC401D501ED8991
:10141000FE89848F958FA68FB78FAD89BE895C9624
:101420002D913D914D915C915F976B857C858D856C
:101430009E850E94633A2F81388549855A850E948E
:101440005C382F85388949895A890E945C385B014C
:101450008C019B01AC0169817A81832D922D0E94C0
:101460005E3A181674F09501A8016B817C818D811C
:101470009E810E94C83887FD2CC0A982BA82302E76
:10148000212EAD89BE899096CD92DD92ED92FC928F
:10149000939781E094968C9369817A81832D922D24
:1014A00066960FB6F894DEBF0FBECDBFDF91CF9129
:1014B0001F910F91FF90EF90DF90CF90BF90AF9072
:1014C0009F908F907F906F905F904F903F902F9064
:1014D0000895BB81B983EC81EA833D802E80D1CF12
:1014E0009FB7F8948091D505882379F04091D10574
:1014F0005091D2056091D3057091D40581E0141606
:101500001506160617060CF080E09FBF0895E091BF
:10151000BA05F091BB05309731F090818091BC0500
:101520008095892380830895E7EBF5E0168617867A
:10153000108A118A128A138A148A158A8FB7F8942E
:101540001486168E128E138E148E158E178E178A91
:10155000168A118E108E13868FBF0C94870ACF9235
:10156000DF92EF92FF92CF936B017C0120E030E09D
:1015700041EE54E40E945E3A18160CF4A6C020E036
:1015800030E041EE54ECC701B6010E94C83887FD37
:10159000A3C0C092C505D092C605E092C705F092DF
:1015A000C805D701C601BF778093C9059093CA05C6
:1015B000A093CB05B093CC0560912401062E000CBE
:1015C000770B880B990B0E947039A70196010E9436
:1015D000633AC1E020E030E0A9010E945E3A87FD55
:1015E000C0E0C093C4059091C405E091BD05F091A1
:1015F000BE05309741F08091BF05992309F473C06F
:101600009081892B8083C090C905D090CA05E09055
:10161000CB05F090CC0520E030E040E85FE3C70167
:10162000B6010E94C83870E060E087FD2DC0A701B8
:101630009601C701B6010E945C389B01AC0160E0D5
:1016400070E48CE197E40E94CD386B017C0120E0CE
:1016500030E040E85FE30E94C83887FD48C020E0E2
:1016600030E64AE657E4C701B6010E945E3A181612
:101670000CF444C020E030E040E05FE3C701B60175
:101680000E945C380E943F399FB7F8947093CE0552
:101690006093CD057093D0056093CF0581E061150F
:1016A000710509F480E08093C3058091C305811121
:1016B00002C01092C2059FBF672B41F5CF91FF90EA
:1016C000EF90DF90CF900C94870AC12CD12C31EE93
:1016D000E32E34E4F32E5DCFC12CD12C21EEE22E8B
:1016E00024ECF22E56CF9081809589238BCFC12C8C
:1016F000D12C90E8E92E9FE3F92EBCCFC12C80E6D7
:10170000D82E8AE6E82E87E4F82EB4CFCF91FF904A
:10171000EF90DF90CF9008958F929F92AF92BF92FB
:10172000CF92DF92EF92FF924B015C0169017A0147
:1017300081149104A104B10451F4FF90EF90DF9063
:10174000CF90BF90AF909F908F900C94940A20E020
:1017500030E040E85FE3C701B6010E94C83887FF68
:1017600006C0C12CD12C80E8E82E8FE3F82E2FB7CD
:10177000F894D501C401B7FE07C088279927DC017A
:1017800088199909AA09BB098093D1059093D205BC
:10179000A093D305B093D40581E08093D505109232
:1017A000D6052FBF181419041A041B0424F0F7FAE5
:1017B000F094F7F8F094C701B601FF90EF90DF9036
:1017C000CF90BF90AF909F908F900C94AF0A8FB73F
:1017D000F8949091D605911102C08FBF0895109290
:1017E000D6051092D5051092D1051092D20510920F
:1017F000D3051092D4058FBF60E070E0CB010C944C
:10180000AF0A4F925F926F927F928F929F92AF92A8
:10181000BF92CF92DF92EF92FF921F9320918805A3
:10182000222309F49FC06B017C0160918D057091AA
:101830008E0580918F059091900540909105509074
:101840009205609093057090940580908905909022
:101850008A05A0908B05B0908C056093C3037093AC
:10186000C4038093C5039093C6032AE037ED43E297
:101870005CE30E94633A6093C7037093C80380934C
:10188000C9039093CA034092CB035092CC03609259
:10189000CD037092CE032AE037ED43E25CE3C3014F
:1018A000B2010E94633A6093CF037093D003809398
:1018B000D1039093D2038092D3039092D403A09249
:1018C000D503B092D6032091990530919A05232B28
:1018D00029F41092D8031092B60333C08090950576
:1018E00090909605A0909705B0909805C818D908D3
:1018F000EA08FB0841E029ECC216D104E104F10436
:1019000008F040E04093D80329ECC216D104E1046A
:10191000F10408F78092AF039092B003A092B10354
:10192000B092B2031092B3039F7711E02EEA37E42E
:1019300041E65EE30E945E3A18160CF010E0109348
:10194000B6032091D803822F1F91FF90EF90DF9074
:10195000CF90BF90AF909F908F907F906F905F904F
:101960004F9008951092D8031092B603ECCF909147
:10197000B3038091B403811182E0892B9091B50368
:10198000911194E0892B9091B603911198E0892BE5
:10199000089590E0FC01E15FFF4E2491FC01E550C9
:1019A000F04F3491FC01E951F04FE491EE23C9F07E
:1019B000222339F0233001F1A8F4213019F122302B
:1019C00029F1F0E0EE0FFF1FE352F04FA591B49123
:1019D0008FB7F894EC91611126C030953E233C936B
:1019E0008FBF08952730A9F02830C9F0243049F777
:1019F000809180008F7D03C0809180008F778093DD
:101A00008000DFCF84B58F7784BDDBCF84B58F7D39
:101A1000FBCF8091B0008F778093B000D2CF8091C0
:101A2000B0008F7DF9CF3E2BDACF2F923F924F92AD
:101A30005F926F927F928F929F92AF92BF92CF925E
:101A4000DF92EF92FF920F931F93CF93DF93CDB767
:101A5000DEB7E4970FB6F894DEBF0FBECDBF2B0103
:101A60003C012FA738AB49AB5AAB8091A40581113B
:101A700040C08091A0059091A105A091A205B091D0
:101A8000A305A3019B01281B390B4A0B5B0BDA0151
:101A9000C90180349C49A105B10558F18FB7F8946C
:101AA00011E01093A5051092AE051092AF058FBFFF
:101AB00060E0809147050E94C90C83E090E00197A7
:101AC000F1F761E0809147050E94C90C83E290E044
:101AD0000197F1F760E0809147050E94C90C4092A0
:101AE000A0055092A1056092A2057092A3051093E3
:101AF000A4052FB7F8949090AF0560E070E0CB019B
:101B0000992051F01092AF056091AA057091AB0534
:101B10008091AC059091AD052FBF992009F447C283
:101B20001092A405F09080050091810510E0A801B5
:101B3000495B5A4F6A01D80111961D019B01AC0106
:101B40002150310941095109273A314641055105D2
:101B500008F007C20E946E3928E23EE74CE05DE3E0
:101B60000E94633A20E030E040E05FE30E94633A85
:101B70002B013C0120E030E040E050E40E945E3A5E
:101B800087FD98C020E030E042E852E4C301B20192
:101B90000E94C83818160CF48DC0E0908805EE201D
:101BA00009F48AC08090890590908A05A0908B05E1
:101BB000B0908C05A5019401C301B2010E945B386D
:101BC0009F7720E030E048EC51E40E945E3A18161E
:101BD000FCF480919D0590919E05019690939E0541
:101BE00080939D05A5019401C301B2010E945E3A54
:101BF00020E030E048EC51E4181624F020E030E01A
:101C000048EC51ECC501B4010E945C382B013C0149
:101C1000EBE0FE1253C0D6019E968C91882329F0EA
:101C200080918205815080938205F601E6A6EE2020
:101C300081F0000F111F000F111FF801E95BFA4F2F
:101C40004282538264827582809182058F5F809385
:101C50008205C1016BE070E00E94F137809381053D
:101C6000E11030C081E080939F0580919B059091A9
:101C70009C058F3F980729F0019690939C058093CF
:101C80009B05E4960FB6F894DEBF0FBECDBFDF9183
:101C9000CF911F910F91FF90EF90DF90CF90BF9069
:101CA000AF909F908F907F906F905F904F903F90FC
:101CB0002F900895E12CACCFE92CAACFF394F092A9
:101CC0008005B3CF80918205882331F19091800502
:101CD00025E735E0E7E4F5E080E010E0981701F152
:101CE000D9014D919D014423A1F044E0149FD001FE
:101CF000112441E050E04C0F5D1FA40FB51F42813D
:101D00005381648175814D935D936D937C9313979B
:101D10001F5F8F5F3496E2CF81E080939F05B1CF44
:101D2000C12CD12C7601112309F481C0D12C212E94
:101D3000312C8D2D90E09C012F5F3F4F22153305F4
:101D40000CF049C000E0D101A81BB90BBCABABAB98
:101D5000802F90E07C01BFEFEB1AFB0AEBA9FCA9F6
:101D6000EE16FF06B4F5880F991F880F991F21E022
:101D700030E02C0F3D1F280F391F3EA72DA7D9019A
:101D80008D909D90AD90BC90EE0CFF1CEE0CFF1C56
:101D9000E1E0F0E0EC0FFD1FEE0EFF1ED7014D90CD
:101DA0005D906D907C90A3019201C501B4010E94E9
:101DB0005E3A181664F4EDA5FEA540825182628257
:101DC0007382D7018D929D92AD92BC9213970F5F53
:101DD000BFCFD394AECF812F869590E0FC01EE0F5C
:101DE000FF1FEE0FFF1F21E030E02C0F3D1FE20F21
:101DF000F31FC080D180E280F38010FD18C00197EE
:101E0000880F991F880F991F820F931FDC012D9156
:101E10003D914D915C91C701B6010E945C3820E074
:101E200030E040E05FE30E94633A6B017C01809107
:101E3000830581116FC0C0928405D0928505E09220
:101E40008605F092870581E080938305C09289051D
:101E5000D0928A05E0928B05F0928C056091250165
:101E6000062E000C770B880B990B0E9470392B0102
:101E70003C0180902B0190902C01A0902D01B090FE
:101E80002E01A5019401C701B6010E945B38A30190
:101E900092010E94633A60938D0570938E05809342
:101EA0008F0590939005A501940160918405709130
:101EB000850580918605909187050E945B38A30176
:101EC00092010E94633A609391057093920580930A
:101ED0009305909394052FA538A949A95AA9209351
:101EE000950530939605409397055093980581E0AA
:101EF0008093880510929F058091990590919A058D
:101F00008F3F980709F4BDCE019690939A05809370
:101F10009905B7CE2CEC3CEC4CEC5EE3609184056B
:101F20007091850580918605909187050E94633A9E
:101F30004B015C012AE939E949E15FE3C701B601D8
:101F40000E94633A9B01AC01C501B4010E945C3858
:101F5000609384057093850580938605909387052B
:101F600075CF4BE0F41271C0D6019E968C918823F8
:101F700029F080918205815080938205F60116A692
:101F8000C1016BE070E00E94F1378093810581E030
:101F900080939F0580919B0590919C058F3F9807AA
:101FA00009F46FCE019690939C0580939B058091D8
:101FB000A405882309F465CE8091A0059091A10520
:101FC000A091A205B091A305481A590A6A0A7B0A92
:101FD00029EA421621E652066104710408F451CE42
:101FE0001092A405209180058091810590E0FC016C
:101FF000E95BFA4F2B3069F526A5222329F02091C1
:10200000820521502093820516A601966BE070E0B0
:102010000E94F1378093810581E080939F05809134
:102020009B0590919C058F3F980729F0019690930E
:102030009C0580939B058FB7F8941092A50510928C
:10204000AE051092AF058FBF1CCEF394F0928005C1
:1020500095CF2F5F20938005D7CFCF93DF9390E06C
:10206000FC01E550F04F24918951904FFC0184917F
:102070008823D1F090E0880F991FFC01ED52F04FBA
:10208000A591B491FC01E352F04FC591D491611137
:102090000EC09FB7F8948C91E22FE0958E238C931D
:1020A0002881E223E8839FBFDF91CF9108958FB706
:1020B000F894EC91E22BEC938FBFF6CF3FB7F894F6
:1020C0008091AB039091AC03A091AD03B091AE03AE
:1020D00026B5A89B05C02F3F19F00196A11DB11D83
:1020E0003FBFBA2FA92F982F8827BC01CD01620FBF
:1020F000711D811D911D42E0660F771F881F991F7A
:102100004A95D1F708958F929F92AF92BF92CF9246
:10211000DF92EF92FF924B015C010E945E106B0117
:102120007C010E945E106C197D098E099F09683E32
:10213000734081059105A8F321E0821A9108A10856
:10214000B10888EEC80E83E0D81EE11CF11C811492
:102150009104A104B10429F7FF90EF90DF90CF9094
:10216000BF90AF909F908F9008952FB7F894609193
:10217000A7037091A8038091A9039091AA032FBF90
:1021800008952F923F924F925F926F927F928F921B
:102190009F92AF92BF92CF92DF92EF92FF920F93F6
:1021A0001F93CF93DF9300D000D01F92CDB7DEB73F
:1021B0009B838A830E94B5104B015C0110E000E014
:1021C0001D82312C1C82212C0E94B51068197909BE
:1021D0008A099B096438734081059105D0F01C82FF
:1021E0008C810F900F900F900F900F90DF91CF91F7
:1021F0001F910F91FF90EF90DF90CF90BF90AF9025
:102200009F908F907F906F905F904F903F902F9016
:1022100008950E945E102B013C010E94B5106B01D5
:102220007C010E94E70BA7019601C301B2010E9445
:10223000150DF0918805F983FF2309F483C080917F
:10224000990590919A05892B09F47CC08091950598
:1022500090919605A0919705B0919805C81AD90A52
:10226000EA0AFB0A29ECC216D104E104F10408F0E1
:1022700069C080919F05811165C0C0908905D0908B
:102280008A05E0908B05F0908C0560908405709035
:102290008505509086054090870520E030E0A90133
:1022A000B301852D942D0E945E3A18160CF446C099
:1022B00020E030E0A901B601C7010E945E3A18167D
:1022C0000CF040C08C818823D1F02CEC3CEC4CEC21
:1022D0005EE3612F702F8D81932D0E94633A2B0155
:1022E0003C012AE939E949E15FE3B601C7010E94EF
:1022F000633AA30192010E945C386B017C01239434
:102300006DE270E080E090E00E948310E981EC8350
:102310001C2D0D2DED823F2C25E0221255CFFC8186
:10232000FF2309F45CCF812F902FAD81B32DEA817B
:10233000FB8180839183A283B38352CF6301E52C19
:10234000F42CC0CF6AE070E080E090E00E9483103F
:10235000E3CF08950895AF92BF92CF92DF92EF92AC
:10236000FF920F931F93CF93DF936C017B018B013F
:10237000040F151FEB015E01AE18BF08C017D1078F
:1023800059F06991D601ED91FC910190F081E02D19
:10239000C6010995892B79F7C501DF91CF911F916E
:1023A0000F91FF90EF90DF90CF90BF90AF90089586
:1023B000FC01538D448D252F30E0842F90E0821B4B
:1023C000930B541710F0CF96089501970895FC01D0
:1023D000918D828D981761F0A28DAE0FBF2FB11D28
:1023E0005D968C91928D9F5F9F73928F90E0089580
:1023F0008FEF9FEF0895FC01918D828D981731F03A
:10240000828DE80FF11D858D90E008958FEF9FEF8D
:102410000895FC01918D228D892F90E0805C9F4F63
:10242000821B91098F73992708958FE494E00E948D
:10243000091221E0892B09F420E0822F089580E021
:1024400090E0892B29F00E94151281110C94000054
:102450000895FC01A48DA80FB92FB11DA35ABF4F39
:102460002C91848D90E001968F739927848FA68993
:10247000B7892C93A089B1898C91837080648C93E7
:10248000938D848D981306C00288F389E02D808196
:102490008F7D80830895EF92FF920F931F93CF93C8
:1024A000DF93EC0181E0888F9B8D8C8D98131AC08F
:1024B000E889F989808185FF15C09FB7F894EE8976
:1024C000FF896083E889F9898081837080648083D3
:1024D0009FBF81E090E0DF91CF911F910F91FF901E
:1024E000EF900895F62E0B8D10E00F5F1F4F0F73C6
:1024F0001127E02E8C8D8E110CC00FB607FCFACF81
:10250000E889F989808185FFF5CFCE010E942912E3
:10251000F1CFEB8DEC0FFD2FF11DE35AFF4FF08251
:102520009FB7F8940B8FEA89FB8980818062CFCFB7
:102530000F931F93CF93DF938C01D0E0C0E0F8019D
:10254000EC0FFD1F6491662341F08FE494E00E943C
:102550004B12892B11F02196F2CFCE01DF91CF9152
:102560001F910F910895682F8FE494E00C944B1203
:10257000CF93DF93EC01888D8823B9F0AA89BB89BA
:10258000E889F9898C9185FD03C0808186FD0DC0A5
:102590000FB607FCF7CF8C9185FFF2CF808185FFC6
:1025A000EDCFCE010E942912E9CFDF91CF9108959E
:1025B00020910303260F3327331F21323105ECF41A
:1025C00020912504FC0190E080E0243069F082E055
:1025D0000895A09103032191AC014D515D4FA40FCB
:1025E000B52FB11D2C930196861798F380910303A4
:1025F000680F6093030380E0089581E008951092CE
:10260000250481E0809324041092FF0361E082E1BD
:102610000E94C90C61E083E10E94C90CE9EBF0E083
:1026200080818E7F808380818D7F808388E480930A
:10263000B80085E48093BC000895CF93DF9391E0C8
:102640009093E2028823B9F0C091B800D091BA000B
:102650008091BC008A7B8093BC0060E082E10E9494
:10266000C90C60E083E10E94C90C0E94FF12D09364
:10267000BA00C093B800DF91CF9108958F929F92D6
:10268000AF92BF92CF92DF92EF92FF920F931F9380
:10269000CF93DF93D0914E04D13208F0D7C0182FDA
:1026A000C0914D040E945E106B017C018091250455
:1026B00081116BC082E080932504109324048FEF76
:1026C0008093230410922204D0932104ADE2B4E05D
:1026D000E1E0F4E080E0D81391C010920004809112
:1026E0000004CC0FC82BC09300048091FF038130FD
:1026F00009F088C01092FF030E945E106B017C01FC
:10270000809100048093BB0080912704909128045D
:10271000A0912904B0912A04892B8A2B8B2BA1F03C
:102720000E945E1000912704109128042091290432
:1027300030912A046C197D098E099F090617170725
:102740002807390708F442C08091BC0083FDD8CF28
:1027500085EC8093BC000E945E106B017C0180912F
:102760002504823009F450C0809123048F3F09F47E
:102770006FC080912304803209F46CC080912304DF
:10278000803309F469C084E026C0809127049091C9
:102790002804A0912904B0912A04892B8A2B8B2B21
:1027A00009F484CF0E945E10809027049090280442
:1027B000A0902904B0902A046C197D098E099F0904
:1027C00086169706A806B90608F070CF80912604F1
:1027D0000E941D1385E010922C0410924E0410925A
:1027E0002B04DF91CF911F910F91FF90EF90DF901D
:1027F000CF90BF90AF909F908F9008959D919193AF
:102800008F5F69CF85EEA5CF809127049091280432
:10281000A0912904B0912A04892B8A2B8B2B09F4CF
:102820009ECF0E945E1000912704109128042091F1
:10283000290430912A046C197D098E099F09061715
:1028400017072807390708F08ACFC0CF81E0C3CF28
:1028500080E0C1CF82E0BFCF83E0BDCF0895E0919B
:10286000DE038091DD03E81730F4F0E0E152FC4F25
:10287000808190E008958FEF9FEF08959091DE039F
:102880008091DD032FEF3FEF981748F4E92FF0E038
:10289000E152FC4F208130E09F5F9093DE03C9013D
:1028A00008958091DD039091DE03891B990B0895B3
:1028B000CF92DF92EF92FF920F931F93CF93DF930C
:1028C0007C01CB018A0120912B04222389F0EB01AA
:1028D0006B01C40ED51ECC15DD0569F06991D701D9
:1028E000ED91FC910190F081E02DC7010995F3CFA6
:1028F000642F0E94D812C801DF91CF911F910F91D0
:10290000FF90EF90DF90CF900895CF93DF931F92C9
:10291000CDB7DEB7698320912B042223F9F02091F3
:102920004E04203258F021E030E0FC013383228352
:1029300090E080E00F90DF91CF91089580912C047A
:10294000E82FF0E0E35DFB4F998190838F5F8093E8
:102950002C0480934E0481E090E0ECCF61E0CE0146
:1029600001960E94D812F7CF90E080E00895CF93AF
:10297000DF930E94940AC7EBD5E01A8661E08A8152
:102980000E94C90C8FB7F8941B862E893F89398F16
:10299000288F8FBFDF91CF910C94870A8091B3036A
:1029A00081110AC08091B403811106C08091B503E2
:1029B000811102C08091B60308958F929F92AF92C9
:1029C000BF92CF92DF92EF92FF920F931F934091AD
:1029D000F80408EE13E020E030E0443021F40CE28B
:1029E00011E020E030E0C0902D03D0902E03E09065
:1029F0002F03F09030034B015C018C189D08AE084A
:102A0000BF08750164010C151D052E053F0518F45E
:102A100051E05093B403C090AF03D090B003E09066
:102A2000B103F090B2036C197D098E099F09061756
:102A300017072807390718F481E08093B30344305F
:102A400099F40E94CE14882379F085E08093F804ED
:102A50001F910F91FF90EF90DF90CF90BF90AF90BC
:102A60009F908F900C94B7141F910F91FF90EF904F
:102A7000DF90CF90BF90AF909F908F9008954F922E
:102A80005F926F927F928F929F92AF92BF92CF92FE
:102A9000DF92EF92FF920F931F93CF93DF9300D0BB
:102AA00000D000D0CDB7DEB7009709F4C7C09A8335
:102AB0008983FC01208101962032C9F337EF320F60
:102AC0003230A8F32D3099F32D32C1F59A838983E2
:102AD000812C912C30E8A32E3FEBB32E09811A8173
:102AE0001E830D8319821A821B821C8280E0ED8175
:102AF000FE81119190ED910F9A3058F5AAE0B0E067
:102B000029813A814B815C810E942D38AB01BC0147
:102B1000812F110F990BC097092E000CAA0BBB0B2C
:102B20008C019D01040F151F261F371F09831A836F
:102B30002B833C8381E0FE83ED83D9CF2B3211F4CC
:102B40009A838983812C912C20E8A22E2FE3B22E28
:102B5000C5CF1E3209F076C00D811E810B5F1F4F5D
:102B60001E830D83C12CD12C7601C394412C512C92
:102B70003201119190ED910F9A3008F05DC0AAE0FA
:102B8000B0E0A30192010E942D38212F110F330BC9
:102B9000205331092901330F66087708460E571E66
:102BA000681E791EA70196010E942D386B017C01D9
:102BB00081E00D811E810E171F07D9F612E0C116A4
:102BC000D104E104F10408F43FC0C301B2010E9442
:102BD0006E392B013C01C701B6010E946E399B0181
:102BE000AC01C301B2010E94CD386B017C01698147
:102BF0007A818B819C810E946E39A70196010E9487
:102C00005C38A50194010E94633A26960FB6F894A9
:102C1000DEBF0FBECDBFDF91CF911F910F91FF900F
:102C2000EF90DF90CF90BF90AF909F908F907F906C
:102C30006F905F904F9008958111C0CF60E070E079
:102C4000CB01E3CF8823D1F3C12CD12C7601CFCF98
:102C50001092D8021092DD021092D4021092D50286
:102C60001092D6021092D7021092D9021092DA0274
:102C70001092DB021092DC020895CF92DF92EF9265
:102C8000FF92209127013091280140912901509114
:102C90002A010E945B386B017C0120E030E044E3B4
:102CA00053E40E945E3A18163CF420E030E044EB16
:102CB00053E4C701B601EDCF20E030E044E353EC2C
:102CC000C701B6010E94C83887FF0BC020E030E082
:102CD00044EB53E4C701B6010E945C386B017C01F0
:102CE000EBCF60912301062E000C770B880B990B1C
:102CF0000E947039A70196010E94633AFF90EF90FD
:102D0000DF90CF90089520913301309134014091AC
:102D100035015091360160912F0170913001809101
:102D20003101909132010E94C838881F8827881F7E
:102D30000895809126018C708C3011F40C948316C8
:102D400080E0089590912601937081E0933009F01E
:102D500080E00895EF92FF920F931F93CF93DF933C
:102D600000D000D000D0CDB7DEB70091260102958B
:102D700001700E94A216E82E0E949916F82E10915A
:102D8000D70311111091D8030E94CE14202F3E2D8D
:102D90004F2D512F682F71E080E090E026960FB6FE
:102DA000F894DEBF0FBECDBFDF91CF911F910F9181
:102DB000FF90EF900895FC0101900020E9F7319712
:102DC000AF01481B590BBC018FE494E00C94AB118C
:102DD000CF93DF930E949812EC018FE991E00E945B
:102DE000DB168C0F9D1FDF91CF910895E0911B01A1
:102DF000E73010F5F0E0E150F94E0C942738061753
:102E00000A170D17101713171617191788E698E0E9
:102E10000C94E8168CE898E0FBCF86E898E0F8CFB1
:102E200080E898E0F5CF8AE798E0F2CF84E798E071
:102E3000EFCF8EE698E0ECCF0895CF9380911A0102
:102E4000811150C0C09126018EED97E0C0FF12C0E5
:102E50008DEA97E0C1FF0EC083E897E0C2FF0AC089
:102E60008DE597E0C3FF06C00E948316811105C05F
:102E700087E397E0CF910C94E8168091F8048530B1
:102E800019F482E197E0F6CF83EF96E0C4FFF2CF2A
:102E900080910001882371F08091020181110AC0A4
:102EA00080910101882319F08EEB96E0E3CF8BE847
:102EB00096E0E0CF8091D703811103C08CE596E0C6
:102EC000D9CF8091D803811103C085E296E0D2CF9B
:102ED00080913203882319F08CE096E0CBCF84EF09
:102EE00095E0C8CFCF9108958F929F92AF92BF92F5
:102EF0000F931F93CF93DF93CDB7DEB7A1970FB694
:102F0000F894DEBF0FBECDBF19A2423008F44AE0EC
:102F10008E010F5D1F4F842E912CB12CA12CA50189
:102F200094010E940538E62FB901CA01EA30F4F491
:102F3000E05DD801EE938D01232B242B252B79F70F
:102F400090E080E0109719F0CD010E94DB16A19669
:102F50000FB6F894DEBF0FBECDBFDF91CF911F91AA
:102F60000F91BF90AF909F908F900895E95CE1CF53
:102F7000CF93DF93D0E0C0E0009719F00E94DB16FA
:102F8000EC018FE991E00E94DB168C0F9D1FDF9111
:102F9000CF91089588E494E00E94E8168CE394E0D1
:102FA0000E949812E091F804E63008F04FC0F0E07B
:102FB000EE0FFF1FE159FE4F80819181009711F0C4
:102FC0000E94DB1685E394E00E9498120E94A216EC
:102FD00081113FC085E294E00E9498128CE294E057
:102FE0000E9498120E949916811136C087E194E0E0
:102FF0000E9498128EE194E00E949812809126011E
:1030000084FD2DC085E094E00E9498128CE094E04D
:103010000E9498128091D703811124C083EF93E01E
:103020000E9498128AEF93E00E9498128091D80330
:1030300081111BC08CEE93E00E94E8168091D803AA
:10304000811116C085EC93E00C94E81682EA91E0B9
:10305000B7CF88E294E0C0CF8AE194E0C9CF88E09E
:1030600094E0D2CF86EF93E0DBCF8FEE93E0E4CF16
:103070000895CF93DF93EC018091F804813011F42F
:103080000E945A081092000180911C0110921A01AE
:1030900010921B0191E090931C0110921D018093EE
:1030A0001E018BEA98E00E949812CE010E94DB1666
:1030B00086E998E00E94981280911E01811106C055
:1030C00082E998E0DF91CF910C94E81684E998E0CA
:1030D000F9CF4F925F926F927F928F929F92AF92B1
:1030E000BF92CF92DF92EF92FF920F931F93CF93F5
:1030F0006B017C01742EAC019B010E94D03A8823A5
:1031000099F08AEA91E0CF911F910F91FF90EF9093
:10311000DF90CF90BF90AF909F908F907F906F90F7
:103120005F904F900C94DB1646015701E894B7F876
:103130002FEF3FEF4FE75FE7C501B4010E94D03AA0
:1031400081110DC02FEF3FEF4FE75FE7C501B401DD
:103150000E94C83818161CF48EEA91E0D4CF2FEFE5
:103160003FEF4FE75FE4C701B6010E945E3A1816D1
:103170001CF482EB91E0C7CF2FEF3FEF4FE75FECFE
:10318000C701B6010E94C83887FDF3CF20E030E0C8
:10319000A901C701B6010E94C83810E000E087FF0E
:1031A00008C08DE20E94B3128C01F7FAF094F7F890
:1031B000F094C0E060E070E080E09FE37C1641F0B6
:1031C00020E030E040E251E40E94CD38CF5FF6CFFE
:1031D000A70196010E945C382B013C010E943F39F7
:1031E0004B015C014AE00E9474177C01E00EF11E65
:1031F000CC23B1F1C501B4010E946E399B01AC0131
:10320000C301B2010E945B384B015C018EE20E9457
:10321000B312E80EF91EC15018F120E030E040E290
:1032200051E4C501B4010E94633A2B013C010E94A4
:103230003F394B01B12CA12C4AE0C501B4010E94D9
:103240007417E80EF91EC501B4010E946E399B0186
:10325000AC01C301B2010E945B384B015C01DBCFC2
:10326000C701CF911F910F91FF90EF90DF90CF900A
:10327000BF90AF909F908F907F906F905F904F9096
:1032800008950C9469188BEE92E00E949812609158
:103290002F0170913001809131019091320146E00F
:1032A00050E00E9441198FED92E00E9498126091C7
:1032B000330170913401809135019091360146E0DF
:1032C00050E00E9441198BEC92E00E9498120E94FB
:1032D0009916811104C084EC92E00C94E81687ECF6
:1032E00092E0FBCF8AEA92E00E9498126091270157
:1032F000709128018091290190912A0146E050E0C7
:103300000E94411988E992E00E94981260912B0175
:1033100070912C0180912D0190912E0146E050E09A
:103320000E94411986E892E00E9498120E94A2161B
:10333000811104C08FE792E00C94E81682E892E0D5
:10334000FBCFCF93DF930E946918EC018FE991E0E6
:103350000E94DB168C0F9D1FDF91CF9108958F92F5
:103360009F92AF92BF92CF92DF92EF92FF920F9314
:103370001F93CF93DF93A091B005B091B105109743
:1033800009F58091B3059091B405A091B505B09170
:10339000B6050196A11DB11D8093B3059093B405A8
:1033A000A093B505B093B60580E0DF91CF911F9152
:1033B0000F91FF90EF90DF90CF90BF90AF909F90D4
:1033C0008F9008958C018091B20591E090932B0429
:1033D00080934D0410922C0410924E04ED91FC91B8
:1033E00011970190F081E02D6CE0CD01099580E00E
:1033F0000E943E13C82F8111C4CFD091B2050E9404
:103400005E106B017C0180912504811164C081E014
:1034100080932504809324049FEF909323041092BB
:103420002204809321048093000480910004DD0F26
:10343000D82BD09300048091FF03813009F0A6C0FF
:103440001092FF030E945E106B017C0180910004CA
:103450008093BB008091270490912804A0912904B7
:10346000B0912A04892B8A2B8B2BA1F00E945E102D
:103470008090270490902804A0902904B0902A04FA
:103480006C197D098E099F0986169706A806B9064C
:1034900008F442C08091BC0083FDD8CF85EC8093B6
:1034A000BC000E945E106B017C018091250481307C
:1034B00009F46EC080912204823008F08BC08091A4
:1034C0002204A1E0B4E0EFEDF3E0C81749F19D91CB
:1034D0009193CF5FFACF8091270490912804A09117
:1034E0002904B0912A04892B8A2B8B2B09F48BCFCA
:1034F0000E945E108090270490902804A0902904D8
:10350000B0902A046C197D098E099F0986169706CA
:10351000A806B90608F077CF809126040E941D13F3
:103520001092DE03C093DD03C23009F02ACF8091F0
:10353000B0059091B105DC01ED91FC910084F1851D
:10354000E02D099502970CF41CCF8091B005909165
:10355000B105DC01ED91FC910284F385E02D099524
:10356000C82F8091B0059091B105DC01ED91FC91DF
:103570000284F385E02D099520E03C2F22273F703F
:10358000282BF8013183208381E00FCF85EE87CF90
:103590008091270490912804A0912904B0912A04D5
:1035A000892B8A2B8B2B09F480CF0E945E10809090
:1035B000270490902804A0902904B0902A046C1944
:1035C0007D098E099F0986169706A806B90608F098
:1035D0006CCFA2CF82E075CFEF92FF920F931F9333
:1035E000CF93DF9300D000D000D0CDB7DEB78C01F1
:1035F0001E821D821C821B821A821982CE010596B0
:103600000E94AF1981110FC0F12C8F2D26960FB695
:10361000F894DEBF0FBECDBFDF91CF911F910F9108
:10362000FF90EF9008958BE6E82E87E1F82EC70112
:103630000197F1F7CE0103960E94AF19882321F379
:10364000C7010197F1F7CE0101960E94AF19F82E3C
:103650008823D1F26D817E818B819C8129813A8181
:10366000AC01461B570B4130E8E05E07A4F19051D6
:10367000A901461B570B4130E8E05E078CF1305141
:10368000861797072CF4562F472FBC01852F942FB0
:10369000281739070CF4C901681779070CF4BC0125
:1036A00077FF23C0705F072E000C880B990B0E94D8
:1036B000703920E030E044EB53E40E94633A20E0AC
:1036C00030E040E859E30E94633AF8016083718377
:1036D000828393839ACF4115584F54F6905FC8CF99
:1036E0004115584F6CF6305FCBCF611580E17807FC
:1036F000D4F27051D8CF2F923F924F925F926F9237
:103700007F928F929F92AF92BF92CF92DF92EF9271
:10371000FF920F931F93CF93DF93CDB7DEB72E9712
:103720000FB6F894DEBF0FBECDBF9E878D870E9477
:10373000B5101B012C011E8219861A861B861C8659
:1037400010E000E0B12CA12C912C1F820E94B5103A
:1037500062197309840995096438734081059105DC
:10376000D8F010E0812F2E960FB6F894DEBF0FBE72
:10377000CDBFDF91CF911F910F91FF90EF90DF9020
:10378000CF90BF90AF909F908F907F906F905F9001
:103790004F903F902F90089519821A821B821C82AD
:1037A000CE0101960E94EC1A8887882309F444C050
:1037B00079808A80FB81FD836C802E81222309F42D
:1037C00053C029853A854B855C85672D782D8F2FD1
:1037D000962D0E945B386B017C0120E030E044E3D1
:1037E00053E40E945E3A18163CF420E030E044EBCB
:1037F00053E4C701B601EDCF20E030E044E353ECE1
:10380000C701B6010E94C83887FF0BC020E030E036
:1038100044EB53E4C701B6010E945C386B017C01A4
:10382000EBCFC701B6019F7720E030E040E251E4E2
:103830000E945E3A1816C4F466E070E080E090E002
:103840000E9483102F81253009F080CF112309F4C5
:1038500088CF802F9B2DAA2DB92DED85FE858083E5
:103860009183A283B3837ECF112351F123E333E30A
:1038700043E35FE3602F7B2D8A2D992D0E94633AED
:103880006B017C012AE939E949E95EE3672D782D6E
:103890008D81962D0E94633AA70196010E945C38A3
:1038A000062FB72EA82E992E8F818F5F8F83E885E4
:1038B000EE8379868A86FD81FB876C861E2FBCCFBE
:1038C000072DB82CAD80962CEFCF2F923F924F92C0
:1038D0005F926F927F928F929F92AF92BF92CF92A0
:1038E000DF92EF92FF920F931F93CF93DF93CDB7A9
:1038F000DEB72D970FB6F894DEBF0FBECDBF2B01FC
:103900003C011A01890119821A821B821C82CE0194
:1039100001960E94EC1A8D87882309F42AC1298117
:103920003A814B815C812D833E834F835887CA0146
:10393000B9010E943D164B015C018091DD02882394
:1039400009F45CC08091D9029091DA02A091DB0267
:10395000B091DC0289879A87AB87BC879C01AD0157
:10396000C501B4010E945B386B017C0120E030E0AE
:1039700044E353E40E945E3A18163CF420E030E041
:1039800044EB53E4C701B601EDCF20E030E044E35F
:1039900053ECC701B6010E94C83887FF0BC020E076
:1039A00030E044EB53E4C701B6010E945C386B0180
:1039B0007C01EBCF20E030E048EC51E4C701B601D8
:1039C0009F770E945E3A1816CCF420E030E0A901FF
:1039D000C701B6010E945E3A20E030E048EC51E4B5
:1039E00087FF04C020E030E048EC51EC69857A851F
:1039F0008B859C850E945C384B015C018092D902CA
:103A00009092DA02A092DB02B092DC0281E0809315
:103A1000DD029091D8029111C6C08092D40290929A
:103A2000D502A092D602B092D7028093D802C0905D
:103A3000D402D090D502E090D602F090D702C09286
:103A4000B703D092B803E092B903F092BA0325E32A
:103A50003AEF4EE85CE3C701B6010E94633A609317
:103A6000BB037093BC038093BD039093BE032D8171
:103A70003E814F8158852093BF033093C00340930C
:103A8000C1035093C2038091D0029091D102A091C2
:103A9000D202B091D3020097A105B10581F0A30134
:103AA0009201281B390B4A0B5B0BDA01C901809389
:103AB000DE029093DF02A093E002B093E102409215
:103AC000D0025092D1026092D2027092D302409200
:103AD0002D0350922E0360922F03709230031092A8
:103AE000B4030E949916B82E882309F483C020E0FD
:103AF00030E040E85FE360912F01709130018091E8
:103B00003101909132010E945B38A70196010E9419
:103B10005E3A1816B4F020E030E040E85FE36091D0
:103B200033017091340180913501909136010E94EA
:103B30005C38A70196010E94C838B82EBB1CBB2474
:103B4000BB1CB092B5032114310431F0D101CD92E8
:103B5000DD92ED92FC9213970115110551F02D8124
:103B60003E814F815885D8012D933D934D935C93B1
:103B700013978D852D960FB6F894DEBF0FBECDBF7F
:103B8000DF91CF911F910F91FF90EF90DF90CF9039
:103B9000BF90AF909F908F907F906F905F904F906D
:103BA0003F902F90089523E333E343E35FE3609175
:103BB000D4027091D5028091D6029091D7020E94D2
:103BC000633A6B017C012AE939E949E95EE3C50101
:103BD000B4010E94633A9B01AC01C701B6010E9487
:103BE0005C386093D4027093D5028093D602909390
:103BF000D7021DCF1092B503A6CFCF92DF92EF92DE
:103C0000FF926B017C01C092D903D092DA03E0925B
:103C1000DB03F092DC0330E020E050E040E00E9463
:103C2000651CC701B6010E94010C8091DD0288234A
:103C3000E1F080912D0390912E03A0912F03B0917C
:103C40003003C81AD90AEA0AFB0A89ECC816D1045B
:103C5000E104F10450F481E08093D7038091D8030C
:103C6000FF90EF90DF90CF9008951092D70380E0FF
:103C7000F7CFCF92DF92EF92FF92CF93DF936C0159
:103C8000990FEE08FF08F7FE1DC08DE20E94B312E7
:103C9000EC0166277727CB016C197D098E099F09F6
:103CA0004AE00E947417C80FD91F8FE991E00E9463
:103CB000DB168C0F9D1FDF91CF91FF90EF90DF906F
:103CC000CF9008954AE0C701B6010E947417EC0135
:103CD000ECCFCF92DF92EF92FF92CF93DF936C0104
:103CE000990FEE08FF08F7FE17C08DE20E94B3128D
:103CF000EC0166277727CB016C197D098E099F0996
:103D00004AE00E9474178C0F9D1FDF91CF91FF90A6
:103D1000EF90DF90CF9008954AE0C701B601DF91A0
:103D2000CF91FF90EF90DF90CF900C947417CF93CA
:103D3000DF93682F70E090E080E04AE00E94741703
:103D4000EC018FE991E00E94DB168C0F9D1FDF9143
:103D5000CF910895CF930E94B70CC82F84EB93E0C6
:103D60000E9498128C2F0E94971E83EA93E00E9473
:103D700098128091F804843089F184E893E00E94DD
:103D8000E81684E793E0CC2331F18091B3038823D4
:103D900021F089E593E00E94E8168091B40388231E
:103DA00021F082E493E00E94E8168091B503882315
:103DB00021F08BE293E00E94E8168091B6038823FD
:103DC00021F086E193E00E94E8168091F8048530A6
:103DD00041F481E093E0CF910C94E81684E993E0FC
:103DE000CECFCF910895CF92DF92EF92FF921F93A3
:103DF000CF93DF93CDB7DEB728970FB6F894DEBF29
:103E00000FBECDBF0E94B510C090B703D090B803CD
:103E1000E090B903F090BA03C982DA82EB82FC82A7
:103E2000C090BF03D090C003E090C103F090C203E4
:103E3000CD82DE82EF82F8869E012B5F3F4FAE017E
:103E40004F5F5F4F0E94651C182F6091DE027091DA
:103E5000DF028091E0029091E1026B017C0121E0A0
:103E6000C21AD108E108F10827EEC21623E0D206F3
:103E7000E104F10408F053C00E946E399B01AC01CB
:103E800060E070E08AE794E40E94CD386B017C0129
:103E900089ED94E00E94981285ED94E0112311F0D1
:103EA00087ED94E00E9498128CE20E94B3126D811B
:103EB0007E818F81988544E050E00E9441198CE218
:103EC0000E94B31269817A818B819C8144E050E029
:103ED0000E9441198CE20E94B3126091B305709167
:103EE000B4058091B5059091B6054AE00E9474171B
:103EF0008CE20E94B31242E050E0C701B6010E947A
:103F0000A11928960FB6F894DEBF0FBECDBFDF9182
:103F1000CF911F91FF90EF90DF90CF900895C12C2B
:103F2000D12C7601B5CF1F93CF93DF9300D000D073
:103F3000CDB7DEB719821A821B821C82CE01019690
:103F40000E947B1B182F81110FC086EE94E00E9407
:103F5000E8160E94F31E812F0F900F900F900F9084
:103F6000DF91CF911F91089589819A81AB81BC81A6
:103F70008093270190932801A0932901B0932A01EF
:103F8000809126018160809326010E9428160E945C
:103F9000B51030E020E050E040E00E94651C81E078
:103FA000809332038AEF94E00E94981269817A81AB
:103FB0008B819C8146E050E00E94A1190E947219F9
:103FC000CACF2F923F924F925F926F927F928F92C1
:103FD0009F92AF92BF92CF92DF92EF92FF920F9398
:103FE0001F93CF93DF9300D000D01F92CDB7DEB7E1
:103FF0000E94B5102090880520919F05298320916B
:10400000990530919A053D832C832220E1F000919F
:1040100095051091960520919705309198056B01B3
:104020007C01C01AD10AE20AF30A8C819D81892B96
:1040300041F03324339499ECC916D104E104F1041E
:1040400038F0312C05C0312CCC24CA94DC2C7601FC
:104050004090890550908A0560908B0570908C0582
:104060008090840590908505A0908605B090870586
:1040700000919B0510919C0520919D0530919E0516
:104080003B832A838EEB94E00E94981284EB94E0A9
:10409000211002C082EB94E00E94981286EB94E01B
:1040A0000E94981286EA94E0311002C084EA94E0FB
:1040B0000E94981288EA94E00E949812398187E55C
:1040C00094E0311102C085E594E00E9498128BE9DA
:1040D00094E00E9498124AE0C701B6010E9474174A
:1040E00082E994E00E94981244E050E0C301B201DA
:1040F0000E94411988E894E00E94981244E050E040
:10410000C501B4010E94411989E794E00E94981208
:104110002C813D81B90190E080E04AE00E94741753
:104120008BE694E00E949812B80190E080E04AE0AB
:104130000E94741789E594E00E9498122A813B81BD
:10414000B90190E080E04AE00E9474178FE991E0A5
:104150000F900F900F900F900F90DF91CF911F91C4
:104160000F91FF90EF90DF90CF90BF90AF909F9016
:104170008F907F906F905F904F903F902F900C9416
:10418000DB16CF93DF93EC0188E598E00E94E816F8
:104190008981811104C08DE498E00E94E8168A812B
:1041A000811104C080E498E00E94E81688818111A2
:1041B00004C085E398E00E94E8168B81811104C059
:1041C00087E298E00E94E8168C81882321F08AE13A
:1041D00098E00E94E8168D81811104C089E098E082
:1041E0000E94E8168C8181110E94AA1E8B81811188
:1041F00002C00E94E11FDF91CF910C941D171F9305
:10420000CF93DF9300D000D0CDB7DEB719821A82EA
:104210001B821C82CE0101960E94C110182F8111B1
:104220000FC081E195E00E94E8160E94E11F812FF6
:104230000F900F900F900F90DF91CF911F910895E5
:1042400089819A81AB81BC8180932B0190932C0151
:10425000A0932D01B0932E0180912601826080935E
:1042600026010E94B5100E94010C81E08093320368
:1042700085E295E00E94981269817A818B819C8108
:1042800046E050E00E94A1190E947219D0CF1F93FE
:10429000CF93DF9300D000D0CDB7DEB710910001EF
:1042A00086E692E0112351F010910101111111C025
:1042B0008AE492E00E94E81686E292E00E94E81604
:1042C000812F0F900F900F900F90DF91CF911F9142
:1042D000089519821A821B821C82CE0101960E94C7
:1042E000C110182F811107C082E192E00E94E816E8
:1042F0000E94E11FE5CF69817A818B819C81609367
:104300000701709308018093090190930A0120919D
:1043100003013091040140910501509106010E9472
:104320005E3A87FF70C08FEF8093190191E0909300
:104330000201109200018F3F09F081E08093250176
:104340008091F804813019F483E08093F80481E0CF
:1043500092E00E9498120E94B5104AE00E947417E1
:104360008CE20E94B312609113017091140180914C
:1043700015019091160145E050E00E9441198CE230
:104380000E94B31280911701082E000C990B0E9415
:10439000691E8CE20E94B31280911801082E000C55
:1043A000990B0E94691E8CE20E94B3126091030176
:1043B00070910401809105019091060144E050E064
:1043C0000E9441198CE20E94B31260910701709122
:1043D00008018091090190910A0144E050E00E9497
:1043E00041198CE20E94B31280911901082E000C31
:1043F000990B0E94391E86EE91E00E94E81681E03A
:10440000809332035DCF81E08FCF4F925F926F92A6
:104410007F928F929F92AF92BF92CF92DF92EF9254
:10442000FF920F931F93CF93DF93CDB7DEB72897FB
:104430000FB6F894DEBF0FBECDBF8091F804853073
:1044400061F485ED91E00E94E8160E94AA1E8EEBB1
:1044500091E00E94E81610E011C01D821E821F82AA
:104460001886CE0105960E947B1B182F81111EC055
:104470008AEA91E00E94E8160E94F31E812F289696
:104480000FB6F894DEBF0FBECDBFDF91CF911F9165
:104490000F91FF90EF90DF90CF90BF90AF909F90E3
:1044A0008F907F906F905F904F9008958091F80467
:1044B0008450823018F48EE891E0CBCF11E0109355
:1044C000F8041093000110930101109202018091F1
:1044D000240180931701809123018093180180911A
:1044E00025018093190119821A821B821C82CE0138
:1044F00001960E94C1108093010189819A81AB814C
:10450000BC818093030190930401A0930501B093B3
:1045100006018D819E81AF81B88580930B019093B8
:104520000C01A0930D01B0930E011093C10560E042
:104530008091B9050E94C90C20E030E04AEF53E4B5
:1045400068E770E080E090E00E948C0B0E94B5105C
:104550004B015C010E94700A8823E9F00E945E1002
:104560002B013C010E94B5106B017C010E94E70BFE
:10457000A7019601C301B2010E94150DC818D90800
:10458000EA08FB0889EBC8168BE0D806E104F104C1
:1045900008F30E94940A0E94E70B62E370E080E057
:1045A00090E00E9483108FE091E00E947B1B182F07
:1045B00081110CC080E791E00E94E8168091F80418
:1045C000813009F05BCF1092F80458CF20910B0195
:1045D00030910C0140910D0150910E0160910F013D
:1045E0007091100180911101909112010E945B382D
:1045F0006B017C0120E030E044E353E40E945E3A2A
:1046000018163CF420E030E044EB53E4C701B60157
:10461000EDCF20E030E044E353ECC701B6010E9447
:10462000C83887FF0BC020E030E044EB53E4C701FB
:10463000B6010E945C386B017C01EBCFC092130184
:10464000D0921401E0921501F0921601009124011C
:1046500020E030E0A901C701B6010E945E3A87FD63
:1046600001950093170120E030E0A901C701B601D0
:104670000E945E3A87FD2DC081E08093180191E091
:1046800007FD9FEF909324018F3F09F081E0809315
:1046900023018091260180618093260181E080932F
:1046A00032030E9428168091F804813019F483E0C7
:1046B0008093F80480910101882369F08EE591E0F0
:1046C0000E94E81680919503811108C00E94B714DA
:1046D000D5CE8FEFD2CF8CE491E0F2CF182FCECE93
:1046E000CF92DF92EF92FF920E94B5106B017C0196
:1046F00085E491E00E949812E091F80482EA91E04A
:10470000E63038F4F0E0EE0FFF1FE159FE4F8081F4
:1047100091810E94B81786E391E00E9498128091DF
:10472000D7038111BCC089E291E00E94981280E316
:1047300091E00E9498128091D8038111B3C086EC59
:1047400090E00E94E81689E191E00E949812609141
:10475000B7037091B8038091B9039091BA0344E014
:1047600050E00E94411982E191E00E94981260910C
:10477000C3037091C4038091C5039091C60344E0C4
:1047800050E00E94411986E091E00E9498126091E9
:10479000CB037091CC038091CD039091CE0344E084
:1047A00050E00E94A11988EF90E00E949812809139
:1047B0002D0390912E03A0912F03B0913003A701F8
:1047C0009601281B390B4A0B5B0BCA01B9014AE061
:1047D0000E9474178FEE90E00E9498128091AF03B0
:1047E0009091B003A091B103B091B203A7019601DB
:1047F000281B390B4A0B5B0BCA01B9014AE00E9426
:1048000074178FE991E00E94DB1682EE90E00E941F
:1048100098120E94B70C0E94971E8DEC90E00E94A7
:1048200098120E94A216811140C08BEA90E00E946B
:10483000981282EB90E00E9498120E9499168111C2
:1048400037C082E990E00E94981289E990E00E94C6
:1048500098128091260184FD2EC08CE690E00E9483
:10486000E81680E890E00E94981280913103813030
:1048700041F1823019F58DEB91E00E94B81783E782
:1048800090E00E94981280911E0181111DC088E65F
:1048900090E0FF90EF90DF90CF900C94E8168DE2BF
:1048A00091E043CF8AEC90E04CCF8EEA90E0BFCF0E
:1048B00085E990E0C8CF8FE690E0D1CF86EC91E01B
:1048C000DCCF86EB91E0D9CF8AE690E0E2CF85EDB0
:1048D0008093BC008091270490912804A091290422
:1048E000B0912A040796A11DB11D23E0B695A795A6
:1048F000979587952A95D1F72091BC0024FD03C098
:104900001092250408954091270450912804609145
:10491000290470912A04452B462B472B69F30097F5
:10492000A105B10541F02AE22A95F1F700C00197EF
:10493000A109B109E1CF809126040C941D134F9277
:104940005F926F927F928F929F92AF92BF92CF921F
:10495000DF92EF92FF92CF93C09126018C2F8C7043
:104960008C3099F5C0902F01D0903001E09031014A
:10497000F090320140903301509034016090350145
:1049800070903601A3019201C701B6010E94CA3995
:104990004B015C01A3019201C701B6010E94AB3932
:1049A0006B017C01A50194010E945B3820E030E09E
:1049B00040E050E40E94C83887FF09C0C37FC0931D
:1049C00026018FE395E00E94E81680E011C08092F6
:1049D0002F0190923001A0923101B0923201C09229
:1049E0003301D0923401E0923501F092360181E03A
:1049F000CF91FF90EF90DF90CF90BF90AF909F90BE
:104A00008F907F906F905F904F900895CF92DF923C
:104A1000EF92FF921F93CF93DF9300D000D0CDB7DA
:104A2000DEB719821A821B821C82CE0101960E9477
:104A30007B1B182F811113C080EE95E00E94E816B1
:104A40000E94F31E812F0F900F900F900F90DF9117
:104A5000CF911F91FF90EF90DF90CF9008956981E3
:104A60007A818B819C810E943D166B017C01C092F2
:104A70003301D0923401E0923501F09236018091F9
:104A8000260188608093260181E0809332038BECBD
:104A900095E00E94981246E050E0C701B6010E94DE
:104AA000A1198091260182FF08C00E949F248823BB
:104AB00039F087EA95E00E94E8160E944319C2CFB8
:104AC00010E0C0CFCF92DF92EF92FF921F93CF936F
:104AD000DF9300D000D0CDB7DEB719821A821B82D7
:104AE0001C82CE0101960E947B1B182F811113C0DE
:104AF00083E995E00E94E8160E94F31E812F0F9033
:104B00000F900F900F90DF91CF911F91FF90EF903A
:104B1000DF90CF90089569817A818B819C810E947A
:104B20003D166B017C01C0922F01D0923001E092C2
:104B30003101F09232018091260184608093260138
:104B400081E0809332038CE795E00E94981246E062
:104B500050E0C701B6010E94A1198091260183FF90
:104B600008C00E949F24882339F088E595E00E94C0
:104B7000E8160E944319C2CF10E0C0CFFF920F93F6
:104B80001F93CF93DF9380E19BEB90932001809361
:104B90001F0181E090E090932201809321010E9407
:104BA00081088FE191E00E94690890933801809319
:104BB00037010FE111E0D0E0C0E0F801F1908F0182
:104BC000CE010E94DB37F81621F06F2DCE010E9436
:104BD000E3372196CA31D10581F781E08093310313
:104BE000DF91CF911F910F91FF900895EF92FF9267
:104BF0000F931F93CF93DF93CDB7DEB76A970FB6AE
:104C0000F894DEBF0FBECDBF8AE1E9E3F1E0DE013B
:104C1000119601900D928A95E1F7CE0101967C01E3
:104C200010E000E0C8010E94DB37F70181937F01AB
:104C30000F5F1F4F0A311105A9F789819A818031D1
:104C40009B4B21F48B819C81019799F00E94B608BF
:104C500082E08093310380E06A960FB6F894DEBF5D
:104C60000FBECDBFDF91CF911F910F91FF90EF90BD
:104C70000895CE0101960E946908298D3A8D281762
:104C8000390721F78AE1FE013196AFE1B1E00190E9
:104C90000D928A95E1F70E9481088FE191E00E94D0
:104CA0006908909338018093370181E08093310344
:104CB000D3CF1F920F920FB60F9211242F933F93D1
:104CC0008F939F93AF93BF938091A7039091A80375
:104CD000A091A903B091AA033091A60323E0230F6A
:104CE0002D3758F50196A11DB11D2093A603809381
:104CF000A7039093A803A093A903B093AA0380915C
:104D0000AB039091AC03A091AD03B091AE030196BB
:104D1000A11DB11D8093AB039093AC03A093AD0391
:104D2000B093AE03BF91AF919F918F913F912F911F
:104D30000F900FBE0F901F90189526E8230F029634
:104D4000A11DB11DD2CF1F920F920FB60F92112449
:104D50002F933F934F935F936F937F938F939F9383
:104D6000AF93BF93EF93FF938FE494E00E942912D7
:104D7000FF91EF91BF91AF919F918F917F916F9133
:104D80005F914F913F912F910F900FBE0F901F9009
:104D900018951F920F920FB60F9211242F938F9395
:104DA0009F93EF93FF93E0915F04F0916004808103
:104DB000E0916504F091660482FD1BC090818091B2
:104DC00068048F5F8F7320916904821741F0E0912E
:104DD0006804F0E0E15BFB4F958F80936804FF91DE
:104DE000EF919F918F912F910F900FBE0F901F9079
:104DF00018958081F4CF1F920F920FB60F92112455
:104E00002F933F934F935F936F937F938F939F93D2
:104E1000AF93BF93EF93FF938091B900887F803663
:104E200009F44AC0F0F5883209F4A7C018F58031BA
:104E300009F49BC0B8F4882309F4F9C0883009F458
:104E400094C0FF91EF91BF91AF919F918F917F910E
:104E50006F915F914F913F912F910F900FBE0F90E7
:104E60001F901895883109F488C0803251F78093DB
:104E7000230414C0803409F49DC040F48033B9F396
:104E80008833F9F68093230485ECB0C0803509F4AB
:104E900085C0883509F496C0883499F60E94672445
:104EA000D0CF883909F48CC038F5883729F050F410
:104EB000883611F0803729F683E08093250410921C
:104EC000250357C0883809F47BC0803919F0803831
:104ED00009F0B7CF80912503803208F071C0E091CE
:104EE000250381E08E0F809325038091BB00F0E0C5
:104EF000EB5FFC4F80833DC0803B39F0E0F4803AAB
:104F000009F479C0883A09F09CCF84E080932504A5
:104F10001092040310920303E0912803F0912903F7
:104F200009958091030381110FC081E080930303F1
:104F30001092E30209C0803C09F4A6CF883C09F432
:104F4000A3CF883B09F07DCFE091040381E08E0F71
:104F500080930403F0E0ED51FD4F80818093BB000E
:104F6000909104038091030329C0809100048093F1
:104F7000BB0085EC8093BC0064CF909122048091AB
:104F80002104981758F5E091220481E08E0F809358
:104F90002204F0E0EF5FFB4F8081E9CFE091220433
:104FA00081E08E0F809322048091BB00F0E0EF5FE0
:104FB000FB4F808390912204809121049817C8F2BE
:104FC00085E8D8CFE091220481E08E0F80932204FF
:104FD0008091BB00F0E0EF5FFB4F80838091240461
:104FE00081115CCF81E08093FF0384EA8093BC0051
:104FF0001092250426CF85EC8093BC0010922504E6
:1050000080912503803230F4E0912503F0E0EB5FDE
:10501000FC4F10826091250370E0E0912603F0912F
:10502000270385E093E00995109225030ACF10929B
:10503000230434CF1F920F920FB60F9211240F93B7
:105040001F932F933F934F935F936F937F938F9310
:105050009F93AF93BF93CF93EF93FF93E0912B0375
:10506000F0912C033097C1F0C0912A03CC23A1F01A
:1050700010810E945E102091A505222369F0C123B2
:10508000F9F06093A6057093A7058093A805909307
:10509000A90581E08093AE05FF91EF91CF91BF917B
:1050A000AF919F918F917F916F915F914F913F91C0
:1050B0002F911F910F910F900FBE0F901F90189579
:1050C0002091AE05222341F30091A6051091A7057A
:1050D0002091A8053091A905601B710B820B930BE1
:1050E0006093AA057093AB058093AC059093AD05D2
:1050F00081E08093AF051092AE051092A505CCCF4C
:105100001F920F920FB60F9211242F933F934F933C
:105110005F936F937F938F939F93AF93BF93EF931F
:10512000FF930E941A28FF91EF91BF91AF919F9139
:105130008F917F916F915F914F913F912F910F9040
:105140000FBE0F901F9018951F920F920FB60F92DF
:1051500011242F933F934F935F936F937F938F937C
:105160009F93AF93BF93EF93FF930E941A28FF91F1
:10517000EF91BF91AF919F918F917F916F915F91CF
:105180004F913F912F910F900FBE0F901F90189548
:105190001F920F920FB60F9211248F939F93AF938C
:1051A000BF93EF93FF938091C0058823E9F080912E
:1051B000C1058823C9F08091C3058823A9F0809197
:1051C000CD059091CE05892B79F08091CF059091F6
:1051D000D0050297A0F08091CF059091D00501975E
:1051E0009093D0058093CF05FF91EF91BF91AF9140
:1051F0009F918F910F900FBE0F901F9018958091E7
:10520000CD059091CE059093D0058093CF058091E8
:10521000C20591E089278093C2059091C205E09173
:10522000BA05F091BB058091BC05992309F44AC0E9
:105230009081892B80838091C2058823A9F2809177
:10524000D505882389F28091D1059091D205A0914E
:10525000D305B091D405181619061A061B0624F6B4
:105260008091D1059091D205A091D305B091D4053C
:105270000197A109B1098093D1059093D205A0931C
:10528000D305B093D4058091D1059091D205A0911A
:10529000D305B091D405892B8A2B8B2B09F0A4CF91
:1052A0001092C3051092C205E091BA05F091BB05BA
:1052B00090818091BC0580958923808381E08093D3
:1052C000D60592CF908180958923B4CFFC011082BE
:1052D000118212821382148215821682178210861E
:1052E00011861286138648E25BE66EE67EEC448702
:1052F00055876687778788E29BE6AEE6BEE4808BBB
:10530000918BA28BB38B448B558B668B778B808F65
:10531000918FA28FB38F148E158E168E178E10A2BA
:1053200011A212A213A214A20895CF93DF93CDB7B6
:10533000DEB76C970FB6F894DEBF0FBECDBF1092EC
:1053400052041092510488EE93E0A0E0B0E0809304
:10535000530490935404A0935504B09356042FE73C
:1053600031E03093500420934F0425EC30E030932B
:105370005C0420935B0424EC30E030935E042093C3
:105380005D0420EC30E03093600420935F0421EC56
:1053900030E0309362042093610422EC30E03093DB
:1053A00064042093630426EC30E030936604209379
:1053B0006504109268041092690410926A041092B5
:1053C0006B041092EF041092EE048093F00490931B
:1053D000F104A093F204B093F30481E991E0909377
:1053E000ED048093EC0482E08093B70583E0809322
:1053F000B80584E08093B9051092BB051092BA05F8
:105400001092BC051092BE051092BD051092BF050A
:105410001092C0051092C1051092C2051092C305EA
:1054200081E08093C4051092C5051092C6051092C4
:10543000C7051092C8051092C9051092CA051092AE
:10544000CB051092CC051092CE051092CD0510928E
:10545000D0051092CF051092D1051092D20510926E
:10546000D3051092D4051092D5051092D60510924E
:10547000B1051092B00586E38093B2051092B30592
:105480001092B4051092B5051092B60588E080938D
:10549000470589E080934805E9E4F5E0119211920F
:1054A0001192119285E0E537F807C1F71092750562
:1054B0001092760510927705109278051092790572
:1054C00010927A0510927B0510927C0510927D0552
:1054D00010927E0510927F05109280051092810532
:1054E0001092820510928305109284051092850512
:1054F00010928605109287051092880510928905F2
:1055000010928A0510928B0510928C0510928D05D1
:1055100010928E0510928F051092900510929105B1
:105520001092920510929305109294051092950591
:1055300010929605109297051092980510929A0570
:105540001092990510929C0510929B0510929E0551
:1055500010929D0510929F051092A0051092A10532
:105560001092A2051092A3051092A4051092A50511
:105570001092A6051092A7051092A8051092A905F1
:105580001092AA051092AB051092AC051092AD05D1
:105590001092AE051092AF0589EF94E00E94662943
:1055A0008EE195E00E946629109243051092440511
:1055B00010924505109246058DE895E3ADE7B2E4FB
:1055C0008093F9049093FA04A093FB04B093FC0435
:1055D0008EEB9DE5A0E6B3E48093FD049093FE047A
:1055E000A093FF04B09300058AED9DE2A6EDB0E420
:1055F0008093010590930205A0930305B0930405E1
:1056000087EB9DE0A3E2BAEB809305059093060536
:10561000A0930705B093080587EB9DE0A3E2BAE3EA
:105620008093090590930A05A0930B05B0930C0590
:105630008EE19AEFAEE0BEEB80930D0590930E05E0
:10564000A0930F05B09310058EE19AEFAEE0BEE394
:105650008093110590931205A0931305B093140540
:105660008CE1E3E5F1E0DE01119601900D928A955F
:10567000E1F785E99FE9A7E2B0E489839A83AB83E8
:10568000BC8387E291E2AAE4B2E48D839E83AF8378
:10569000B88780EA9BE7AEE0B2EC8D879E87AF8744
:1056A000B88B80EA9BE7AEE0B2E4898B9A8BAB8B38
:1056B000BC8B80E090E0A1EEB4EC8D8B9E8BAF8B29
:1056C000B88F80E090E0A1EEB4E4898F9A8FAB8F21
:1056D000BC8F8CE1FE013196AEE1B5E001900D92F8
:1056E0008A95E1F71092F8046C960FB6F894DEBF35
:1056F0000FBECDBFDF91CF910895CF93DF93CDB78C
:10570000DEB72C970FB6F894DEBF0FBECDBF7894EE
:1057100084B5826084BD84B5816084BD85B58260B6
:1057200085BD85B5816085BD80916E008160809367
:105730006E001092810080918100826080938100D0
:1057400080918100816080938100809180008160E0
:10575000809380008091B10084608093B10080913B
:10576000B00081608093B00080917A008460809363
:105770007A0080917A00826080937A0080917A002A
:10578000816080937A0080917A00806880937A00AB
:105790001092C100E0915F04F091600412E0108368
:1057A000E0915B04F0915C041082E0915D04F09163
:1057B0005E0480E1808310926704E0916304F091BD
:1057C000640486E08083E0916104F091620480814A
:1057D00080618083E0916104F0916204808188603F
:1057E0008083E0916104F09162048081806880830D
:1057F000E0916104F091620480818F7D80836AEF83
:1058000070E080E090E00E94831086EC98E00E94B7
:10581000E8160E94F625811104C00E94B608109374
:10582000310361E08091B7050E942D1061E0809105
:10583000B8050E942D1061E08091B9050E942D10DD
:105840008091B70590E0FC01E951F04FE491F0E060
:10585000EE0FFF1FE352F04F259134913093BB05BB
:105860002093BA05FC01E550F04FE491E093BC05AC
:105870008091B80590E0FC01E951F04FE491F0E02F
:10588000EE0FFF1FE352F04F259134913093BE0588
:105890002093BD05FC01E550F04FE491E093BF0576
:1058A0000E94870AE091BD05F091BE05309731F066
:1058B00090818091BF0580958923808361E08091EC
:1058C000B9050E94C90C1092C1059FB7F8941092B7
:1058D000800010928100109285001092840021E3D4
:1058E00030E03093890020938800809181008860A7
:1058F00080938100809181008260809381008091FB
:105900006F00826080936F0011E01093C0059FBF0D
:105910000E94B7141092DE031092DD0310922C0443
:1059200010924E040E94FF1289EA91E1909329039C
:10593000809328038AEA91E19093270380932603BA
:105940008CEE94E09093B1058093B00586E380934C
:10595000B2050E94FF128091B20510932B04809330
:105960004D0481E00E943E13082F61E080914705BD
:105970000E942D1060E0809148050E942D1060E08B
:10598000809147050E94C90C8FE090E00197F1F7E4
:105990008FB7F8941092A5051092AE051092AF053E
:1059A0008FBF0E945E1060547C4981099109609309
:1059B000A0057093A1058093A2059093A305E0EF45
:1059C000FFE0E491F0E0EE0FFF1FE454F74F859104
:1059D000949190932C0380932B03E4E0F0E1E49105
:1059E000E0932A0380916800816080936800809131
:1059F0006B00826080936B001092B3031092B4032B
:105A00001092B5031092B60301111093B4031092D3
:105A10009603109297031092980310929903109294
:105A20009A0310929B0310929C0310929D030E9474
:105A3000B5106093A2037093A3038093A403909383
:105A4000A50360939E0370939F038093A00390939C
:105A5000A10360932D0370932E0380932F039093E3
:105A600030036093AF037093B0038093B1039093BE
:105A7000B2038CEE9AE00E94E8160E94CA170E94B8
:105A800070230E94AA1E0E941D170E945E106B01C7
:105A90007C010E94B5102B013C010E94E70BA30181
:105AA0009201C701B6010E94150D8FE494E00E9497
:105AB0000912181619060CF00CC78FE494E00E9426
:105AC000E7118D3091F320919303309194038A3044
:105AD00009F0EFC62D5C3C4FD9011C9218861F823D
