:100000000C94A00C0C94C80C0C94C80C0C94712685
:100010000C94F6260C94D2260C94C80C0C94C80CA4
:100020000C94C80C0C94C80C0C94C80C0C941A2793
:100030000C94C80C0C94C80C0C94C80C0C94C80CF0
:100040000C94B0240C94C80C0C9420250C94FA2425
:100050000C94C80C0C94C80C0C94C80C0C94C80CD0
:100060000C9452250C94C80C4E414E494E4954599B
:10007000494E46CDCCCC3D0AD7233C17B7D1387773
:10008000CC2B329595E6241FB14F0A000020410089
:1000900000C84200401C4620BCBE4CCA1B0E5AAED3
:1000A000C59D74202072756E207C2073746F702043
:1000B0007C206661756C745F7265736574207C204A
:1000C0006661756C7473207C2067756964650020B7
:1000D0002063616C5F73617665207C2063616C5F77
:1000E0006C6F6164207C2063616C5F726573657402
:1000F0002064656661756C747300202063616C5FB9
:100100007369676E20626567696E7C7361766500EE
:10011000202063616C5F6C696D6974732073686F14
:100120007700202063616C5F6C696D697473207364
:100130006574206C6F7765727C75707065720020D5
:100140002063616C5F7A65726F2073686F777C6182
:100150006E676C657C706F736974696F6E002020C8
:1001600063616C5F7A65726F2073657420616E677E
:100170006C657C706F736974696F6E0020206A6FA4
:1001800067203C7369676E65645F73746570733E66
:10019000203C726174653E002020656E20307C3109
:1001A00000202074656C656D6574727920307C3137
:1001B00000202073746174757300202068656C7072
:1001C0000046756C6C20436F6D6D616E6473202802
:1001D000636F6D706174293A0020206320636F6E35
:1001E0006669726D2066696E616C20736176652C3C
:1001F00020712061626F72742077697A6172640085
:100200002020772073746172742067756964656457
:100210002063616C6962726174696F6E2C206E205C
:100220006E65787420737465700057697A617264C2
:10023000204B6579733A00202069206272696E67ED
:100240002D7570206D656E75002020722072756EA0
:100250002C206B2073746F702C2066206661756C87
:10026000742072657365742C2078206661756C74D7
:1002700020696E666F0020206F206C6F61642045DE
:100280004550524F4D2C2064207265736574206474
:10029000656661756C747300202062207369676EF7
:1002A00020626567696E2C2067207369676E207312
:1002B0006176652C20762073617665204545505225
:1002C0004F4D0020206C7C31206C6F776572206C64
:1002D000696D69742C20757C322075707065722090
:1002E0006C696D69742C206D2073686F77206C6960
:1002F0006D69747300202061207A65726F20616ED1
:10030000676C652C2070207A65726F20706F73693E
:1003100074696F6E2C207A2073686F77207A65720B
:100320006F0020206520307C3120656E61626C6535
:10033000206472697665722C206A203C7374657043
:10034000733E203C726174653E206A6F6700202016
:100350003F7C682068656C702C2073207374617416
:1003600075732C207420746F67676C652074656CDE
:10037000656D6574727900517569636B204B6579A1
:10038000733A00300031006E6F0079657300544598
:100390004C2C656E61626C65643D0043414C5F535B
:1003A000544F52452C7374617475733D006E6F0029
:1003B000796573002C76616C69643D002C757070F2
:1003C00065725F6465673D0043414C5F4C494D4930
:1003D00054532C6C6F7765725F6465673D002C73B6
:1003E0006F6E61725F63656E7465725F636D3D0011
:1003F00043414C5F5A45524F2C6173353630305F64
:100400007A65726F5F6465673D006E6F0079657332
:10041000002C7369676E5F63616C696272617465F9
:10042000643D006E6F00796573002C6C696D6974B2
:10043000735F63616C696272617465643D006261DF
:1004400064006F6B0043414C2C7A65726F5F63618F
:100450006C696272617465643D002C6375727265CB
:100460006E745F736F6E61723D002C63757272659E
:100470006E745F6173353630303D005349474E53DB
:100480002C63757272656E745F73746570706572DB
:100490003D004641554C54532C626974733D002C09
:1004A000706F735F6D733D004147452C616E676CE3
:1004B000655F6D733D002C785F66696C745F636D7A
:1004C0003D002C785F636D3D004D4541532C7468B1
:1004D0006574615F6465673D00626164006F6B0015
:1004E0002C706F733D0053454E534F52532C616E29
:1004F000676C653D0053544154452C00494E464FAE
:100500002C6D6F76652062616C6C20746F20666163
:100510007220656E6420282B78292C207468656E03
:100520002072756E3A206720286F722063616C5FBD
:100530007369676E20736176652900494E464F2CBA
:100540007375676765737465645F617335363030E2
:100550005F7369676E3D00494E464F2C7375676740
:1005600065737465645F737465707065725F7369D9
:10057000676E3D00494E464F2C74686574615F722A
:1005800061775F64656C74615F6465673D00494EC7
:10059000464F2C63616C5F7369676E5F6265676964
:1005A0006E5F636F6D706C657465004552522C63AD
:1005B000616E6E6F745F656E7465725F63616C69A6
:1005C000625F7369676E004552522C73656E736F7C
:1005D00072735F6E6F745F7265616479004755492D
:1005E00044452C646F3D4D6F7665206E6575747261
:1005F000616C207468656E2072756E20612C702CA1
:10060000662C62004552522C6661756C745F6163A2
:100610007469766500494E464F2C7369676E735F47
:100620006170706C6965645F72756E74696D653B4D
:100630002072756E2063616C5F7361766520746FE4
:100640002070657273697374005349474E5F43416C
:100650004C5F524553554C542C004552522C736FED
:100660006E61725F6E6F745F72656164790045528E
:10067000522C63616C5F7369676E5F6E6F745F733A
:10068000746172746564006E6F00796573002C7A12
:1006900065726F5F63616C696272617465643D006D
:1006A0002C736F6E61725F63656E7465725F636DEC
:1006B0003D0043414C5F5A45524F2C6173353630F3
:1006C000305F7A65726F5F6465673D006E6F0079B9
:1006D0006573002C6C696D6974735F63616C69622A
:1006E00072617465643D002C75707065725F64653D
:1006F000673D0043414C5F4C494D4954532C6C6F4E
:100700007765725F6465673D004641554C545F49AB
:100710004E464F2C7265636F7665723D6E657574DB
:1007200072616C2D3E612D3E702D3E662D3E730034
:100730004641554C545F494E464F2C706F735F6F66
:100740006F623D312C646F3D43656E74657220624B
:10075000616C6C207468656E2072756E2070004646
:1007600041554C545F494E464F2C616E676C655F36
:100770006F6F623D312C646F3D4C6576656C206215
:1007800065616D207468656E2072756E206100462B
:1007900041554C545F494E464F2C6932635F657238
:1007A000726F723D312C646F3D436865636B20410D
:1007B000533536303020776972696E672F706F77E6
:1007C0006572004641554C545F494E464F2C736F3D
:1007D0006E61725F74696D656F75743D312C646F05
:1007E0003D4669782048432D535230342076697352
:1007F0006962696C6974792F776972696E670046FE
:1008000041554C545F494E464F2C6E6F6E65004605
:1008100041554C545F494E464F2C626974733D00FC
:10082000535445502C392C636D643D722C646F3DDC
:10083000537461727420636F6E74726F6C005354E2
:1008400045502C382C636D643D762C646F3D5361AC
:10085000766520746F20454550524F4D00535445E6
:10086000502C372C636D643D62207468656E206780
:100870002C646F3D52756E207369676E2063616CE6
:100880006962726174696F6E00535445502C362C46
:10089000636D643D662C646F3D436C6561722066D8
:1008A00061756C742061667465722072657475720E
:1008B0006E696E6720746F206E65757472616C006E
:1008C000535445502C352C636D643D6C2F752C644E
:1008D0006F3D536574206C6F7765723D736D616C0D
:1008E0006C65722074686574612C20757070657217
:1008F0003D6C617267657220746865746100535461
:1009000045502C342C636D643D732C646F3D5265EF
:10091000616420746865746120617420626F74681A
:10092000206D656368616E6963616C2065787472BF
:10093000656D657300535445502C332C636D643DD5
:10094000702C646F3D42616C6C2063656E746572DF
:10095000207468656E206361707475726520706FB5
:10096000736974696F6E207A65726F0053544550D5
:100970002C322C636D643D612C646F3D4265616D6A
:10098000206C6576656C207468656E206361707498
:1009900075726520616E676C65207A65726F0053B1
:1009A0005445502C312C636D643D742C646F3D5064
:1009B000617573652074656C656D65747279004D41
:1009C000454E552C6272696E677570004F4B2C63F3
:1009D000616C5F7A65726F5F616E676C655F73658E
:1009E000743D004552522C616E676C655F6E6F748A
:1009F0005F7265616479004F4B2C63616C5F7A654F
:100A0000726F5F706F736974696F6E5F7365743D49
:100A1000004552522C736F6E61725F6E6F745F721D
:100A200065616479004F4B2C63616C5F6C696D6923
:100A3000745F6C6F7765725F7365743D00455252E9
:100A40002C696E76616C69645F6C696D69745F7343
:100A500070616E004552522C616E676C655F6E6FFF
:100A6000745F7265616479004F4B2C63616C5F6CDD
:100A7000696D69745F75707065725F7365743D0050
:100A80004552522C696E76616C69645F6C696D6960
:100A9000745F7370616E004552522C616E676C65B5
:100AA0005F6E6F745F7265616479004755494445B4
:100AB0002C737465703D72756E2C646F3D50726559
:100AC0007373207220286F722072756E2920746FE4
:100AD0002073746172742062616C616E63696E6709
:100AE0000047554944452C737465703D73617665C4
:100AF0002C646F3D506572736973742063616C6917
:100B000062726174696F6E2077697468207620283C
:100B10006F722063616C5F73617665290047554988
:100B200044452C737465703D73656E736F72732CDE
:100B3000646F3D5761697420666F722073746162DF
:100B40006C65204153353630302B736F6E617220E7
:100B500072656164696E67732C207468656E2072BB
:100B6000756E207374617475730047554944452C44
:100B7000737465703D6661756C745F7265736574DE
:100B80002C646F3D4669782073656E736F722F66B3
:100B900061756C7420636F6E646974696F6E206137
:100BA0006E642072756E206620286F7220666175F3
:100BB0006C745F7265736574290047554944452C10
:100BC000737465703D7369676E5F626567696E2CEB
:100BD000646F3D4B6565702062616C6C206E656171
:100BE00072207265666572656E636520656E642C41
:100BF000207468656E207072657373206220286FA0
:100C0000722063616C5F7369676E20626567696EED
:100C1000290047554944452C737465703D736967D5
:100C20006E5F736176652C646F3D4D6F76652062F3
:100C3000616C6C20746F20666172202B7820656E69
:100C4000642C207468656E20707265737320672051
:100C5000286F722063616C5F7369676E20736176C1
:100C600065290047554944452C737465703D6C698E
:100C70006D6974735F6669782C646F3D5365742089
:100C80006C6F77657220746F20534D414C4C455208
:100C900020746865746120286C292C20757070653B
:100CA0007220746F204C415247455220746865741D
:100CB00061202875290047554944452C7374657097
:100CC0003D75707065725F6C696D69742C646F3D01
:100CD0004D6F7665206265616D20746F20555050B0
:100CE0004552206D656368616E6963616C20737441
:100CF0006F702C207468656E207072657373207538
:100D00000047554944452C737465703D6C6F776599
:100D1000725F6C696D69742C646F3D4D6F766520F0
:100D20006265616D20746F204C4F574552206D6590
:100D30006368616E6963616C2073746F702C2074DA
:100D400068656E207072657373206C004755494466
:100D5000452C737465703D7A65726F5F706F73694F
:100D600074696F6E2C646F3D506C616365206261C5
:100D70006C6C2061742063656E7465722C207468DD
:100D8000656E207072657373207020286F72206307
:100D9000616C5F7A65726F2073657420706F736920
:100DA00074696F6E290047554944452C737465700A
:100DB0003D7A65726F5F616E676C652C646F3D4C48
:100DC0006576656C206265616D20706172616C6C26
:100DD000656C2C207468656E207072657373206179
:100DE00020286F722063616C5F7A65726F20736573
:100DF0007420616E676C652900424C4F434B2C692F
:100E00006E6E65725F6C6F6F7000424C4F434B2C7F
:100E10006661756C747300424C4F434B2C73656E66
:100E2000736F727300424C4F434B2C7369676E00B3
:100E3000424C4F434B2C6C696D69747300424C4FAC
:100E4000434B2C7A65726F004552522C72756E5F5F
:100E5000626C6F636B6564006E6F00796573005739
:100E6000495A2C737465703D372C646F3D50726520
:100E70007373206320746F207361766520746F2014
:100E8000454550524F4D2C206F72207120746F20B9
:100E90006578697420776974686F757420736176FA
:100EA00065006E6F00796573002C64697274793D1A
:100EB000006E6F00796573002C7369676E3D006E7C
:100EC0006F00796573002C6C696D6974733D005710
:100ED000495A2C73756D6D6172792C7A65726F3D0C
:100EE0000057495A2C68696E743D546869732073C1
:100EF00061766573207369676E20646972656374D7
:100F0000696F6E202873616D652061732067290009
:100F100057495A2C737465703D362C646F3D4D6F84
:100F200076652062616C6C20746F20666172202B84
:100F30007820656E643B207468656E2070726573FE
:100F400073206E0057495A2C68696E743D54686965
:100F5000732072756E73207369676E2D62656769A1
:100F60006E206A6F67202873616D6520617320624F
:100F7000290057495A2C737465703D352C646F3DB8
:100F80004B6565702062616C6C206174206E6561D8
:100F900072207265666572656E636520656E643B7E
:100FA000207468656E207072657373206E005749F7
:100FB0005A2C68696E743D5468697320636170745B
:100FC00075726573207570706572206C696D6974D7
:100FD000202873616D652061732075290057495A77
:100FE0002C737465703D342C646F3D4D6F766520B5
:100FF0006265616D20746F205550504552206D65BB
:101000006368616E6963616C206C696D69743B2013
:101010007468656E207072657373206E0057495A4C
:101020002C68696E743D54686973206361707475CF
:10103000726573206C6F776572206C696D697420BE
:101040002873616D65206173206C290057495A2C03
:10105000737465703D332C646F3D4D6F766520620F
:1010600065616D20746F204C4F574552206D65634C
:1010700068616E6963616C206C696D69743B207492
:1010800068656E207072657373206E0057495A2C24
:1010900068696E743D546869732063617074757219
:1010A000657320736F6E61722063656E7465722064
:1010B0002873616D652061732070290057495A2C8F
:1010C000737465703D322C646F3D506C61636520B4
:1010D00062616C6C2061742063656E7465723B2084
:1010E0007468656E207072657373206E0057495A7C
:1010F0002C68696E743D54686973206361707475FF
:1011000072657320616E676C65207A65726F202846
:1011100073616D652061732061290057495A2C73F2
:101120007465703D312C646F3D5365742062656158
:101130006D20706172616C6C656C20746F206772D9
:101140006F756E643B207468656E20707265737392
:10115000206E00300031002C74656C656D65747212
:10116000795F726573746F7265643D0057495A2CDC
:10117000657869742C726561736F6E3D00000000C4
:101180000023002600290042414C4C5F4245414D5E
:101190005F424F4F540043414C5F535547474553BF
:1011A000542C534F4E41525F43454E5445525F437A
:1011B0004D3D004552522C736F6E61725F6E6F74BD
:1011C0005F72656164790043414C5F535547474501
:1011D00053542C4153353630305F5A45524F5F449B
:1011E00045473D004552522C616E676C655F6E6FDE
:1011F000745F7265616479004552522C63616C5F63
:10120000736176655F6661696C6564004F4B2C772E
:10121000697A6172645F7361766564004552522C2D
:1012200077697A6172645F6E6F745F61745F736116
:1012300076655F73746570004552522C77697A61E8
:1012400072645F6E6F745F6163746976650057499D
:101250005A2C737465705F6661696C65642C66698D
:10126000785F616E645F70726573735F6E5F6167F4
:1012700061696E004552522C77697A6172645F69C8
:101280006E76616C69645F737465700057495A2C9F
:101290006177616974696E675F636F6E6669726DAD
:1012A0002C70726573733D635F746F5F73617665F5
:1012B0005F6F725F715F746F5F657869740045522C
:1012C000522C77697A6172645F6E6F745F616374C8
:1012D000697665003000310057495A2C636F6E748F
:1012E000726F6C733D6E286E657874292C63286369
:1012F0006F6E6669726D2073617665292C71287135
:10130000756974290057495A2C74656C656D65744C
:1013100072795F6175746F5F64697361626C656433
:101320002C707265763D004F4B2C77697A61726440
:101330005F737461727465640057495A2C626C6FF4
:10134000636B65642C646F3D4D6F7665206E6575CB
:101350007472616C207468656E2072756E20612CE9
:10136000702C662C732C77004552522C6661756C7C
:10137000745F616374697665004552522C73746FB3
:10138000705F72756E6E696E675F6265666F7265BB
:101390005F77697A617264004552522C77697A618D
:1013A00072645F616C72656164795F6163746976B0
:1013B00065004552522C756E6B6E6F776E5F636F72
:1013C0006D6D616E642C7472793D68004552522CCB
:1013D0006E6F5F6661756C745F7374617465004FE6
:1013E0004B2C6661756C745F636C6561726564003B
:1013F0004F4B2C73746F70706564004F4B2C72757B
:101400006E6E696E67004F4B2C63616C5F6465663E
:1014100061756C74735F6170706C696564004552CE
:10142000522C75736167653A63616C5F72657365B1
:10143000742064656661756C7473006465666175BB
:101440006C7473006C6F61646564004F4B2C636156
:101450006C5F6C6F61642C004552522C63616C5F51
:10146000736176655F6661696C6564004F4B2C63E0
:10147000616C5F7361766564004552522C757361CF
:1014800067653A63616C5F6C696D6974732073653D
:1014900074206C6F7765727C7570706572207C202B
:1014A00063616C5F6C696D6974732073686F77003A
:1014B0004552522C75736167653A63616C5F6C6964
:1014C0006D69747320736574206C6F7765727C75B9
:1014D00070706572004552522C75736167653A638E
:1014E000616C5F6C696D69747320736574206C6FD7
:1014F0007765727C7570706572004552522C7573F9
:101500006167653A63616C5F6C696D6974732073C0
:101510006574206C6F7765727C7570706572207C65
:101520002063616C5F6C696D6974732073686F7799
:10153000004552522C75736167653A63616C5F7A3E
:1015400065726F2073657420616E676C657C706F67
:10155000736974696F6E207C2063616C5F7A657259
:101560006F2073686F77004552522C757361676501
:101570003A63616C5F7A65726F2073657420616E87
:10158000676C657C706F736974696F6E0045525249
:101590002C75736167653A63616C5F7A65726F2061
:1015A00073657420616E676C657C706F73697469B4
:1015B0006F6E004552522C75736167653A63616CBA
:1015C0005F7A65726F2073657420616E676C657CED
:1015D000706F736974696F6E207C2063616C5F7AD1
:1015E00065726F2073686F77004552522C75736176
:1015F00067653A63616C5F7369676E2062656769EE
:101600006E7C73617665004552522C757361676517
:101610003A63616C5F7369676E20626567696E7CAF
:1016200073617665004F4B2C6A6F675F73746172EC
:10163000746564004552522C6A6F675F626C6F6319
:101640006B65645F6C6F7765725F6C696D69740060
:101650004552522C6A6F675F626C6F636B65645FA3
:1016600075707065725F6C696D6974004552522CBB
:1016700073746F705F72756E6E696E675F626566B8
:101680006F72655F6A6F67004552522C696E7661B2
:101690006C69645F6A6F675F61726773004552527D
:1016A0002C75736167653A6A6F67203C7369676E72
:1016B00065645F73746570733E203C726174653E4F
:1016C000004F4B2C6472697665725F656E61626C67
:1016D0006564004F4B2C6472697665725F64697350
:1016E00061626C6564004552522C656E5F72657173
:1016F00075697265735F305F6F725F310030003102
:10170000004F4B2C74656C656D657472793D0045B6
:1017100052522C75736167653A74656C656D6574BA
:10172000727920307C31004552522C77697A61728F
:10173000645F6E6F745F61637469766500455252D1
:101740002C6E6F5F6661756C745F73746174650095
:101750004F4B2C6661756C745F636C656172656478
:10176000004F4B2C73746F70706564004F4B2C727C
:10177000756E6E696E67004F4B2C63616C5F6465BC
:101780006661756C74735F6170706C696564006428
:10179000656661756C7473006C6F61646564004F9D
:1017A0004B2C63616C5F6C6F61642C004552522C52
:1017B00063616C5F736176655F6661696C65640027
:1017C0004F4B2C63616C5F7361766564004F4B2CEB
:1017D0006A6F675F73746172746564004552522C5E
:1017E0006A6F675F626C6F636B65645F6C6F776570
:1017F000725F6C696D6974004552522C6A6F675F45
:10180000626C6F636B65645F75707065725F6C6945
:101810006D6974004552522C73746F705F72756EEF
:101820006E696E675F6265666F72655F6A6F67009B
:101830004552522C696E76616C69645F6A6F675FAE
:1018400061726773004552522C75736167653A6A1D
:10185000203C7369676E65645F73746570733E20C6
:101860003C726174653E004F4B2C64726976657200
:101870005F64697361626C6564004F4B2C647269CC
:101880007665725F656E61626C6564004552522CCC
:1018900075736167653A6520307C31003000310036
:1018A0004F4B2C74656C656D657472793D005741C2
:1018B000524E2C6A6F675F73746F707065645F6CF3
:1018C0006F7765725F6C696D6974005741524E2C79
:1018D0006A6F675F73746F707065645F7570706551
:1018E000725F6C696D69740054454C2C00000000F7
:1018F00000240027002A0000000000250028002BFB
:1019000000040404040404040402020202020203A8
:1019100003030303030102040810204080010204B2
:101920000810200102040810200000000800020135
:101930000000030407000000000000000000E7278B
:1019400011241FBECFEFD8E0DEBFCDBF25E0A6EB50
:10195000B2E001C01D92A238B207E1F712E0A0E0A8
:10196000B1E0ECE2F2E702C005900D92A63BB107B0
:10197000D9F71CE0C0EADCE004C02197FE010E9418
:10198000D937CF39D107C9F70E9432290C941439BD
:101990000C940000FC018091CC048530B1F0808172
:1019A0008823A1F08181882389F08281882371F0C6
:1019B0008381882359F08481811107C08581882320
:1019C00029F094E09093CC04089580E008958091EC
:1019D000CC04843011F0823021F483E08093CC0475
:1019E0000895813011F41092CC040895FC01AC01EB
:1019F000485E5F4F8FEF9FEF2191922728E0BC0157
:101A0000880F991F77FF04C031E2832730E19327C5
:101A10002150A9F7E417F50779F70895809123017C
:101A200087FF2BC08FEF809323018091240187FFD4
:101A300026C08FEF809324018091250187FF21C06C
:101A40008FEF809325012091330130913401409133
:101A500035015091360160912F01709130018091D4
:101A60003101909132010E94013987FD05C08091BA
:101A70002601837F80932601089581E0D4CF81E001
:101A8000D9CF81E0DECF0F931F93CF93DF93CDB7F4
:101A9000DEB76A970FB6F894DEBF0FBECDBFFE016A
:101AA00031968AE1DF011D928A95E9F781E08D8305
:101AB0008E838F8380E090E0A0E0B1EC898B9A8BDD
:101AC000AB8BBC8B80E090E0A0E0B1E48D8B9E8B73
:101AD000AF8BB88F8AE1AFE1B1E001900D928A95AA
:101AE000E1F70FE111E080E19BEBF8019183808346
:101AF00081E090E09383828380E090E0A0EAB1E40B
:101B000084879587A687B787C8010E94F60CD801FD
:101B100059969C938E9358976A960FB6F894DEBFA9
:101B20000FBECDBFDF91CF911F910F9108952F92DE
:101B30003F924F925F926F927F928F929F92AF925D
:101B4000BF92CF92DF92EF92FF920F931F93CF93AA
:101B5000DF93CDB7DEB766970FB6F894DEBF0FBE42
:101B6000CDBF9E8B8D8B6A017B01DC0194968C919D
:101B70009497412C512C3201882391F090962D910D
:101B80003D914D915C919397CB01B6010E94F33743
:101B90002AE037ED43EA5CE30E9460382B013C0108
:101BA000ED89FE892081318142815381C701B601CF
:101BB0000E947B366F83788789879A87AD89BE8933
:101BC00014968D919D910D90BC91A02D8B879C8733
:101BD000AD87BE87ED89FE89848C958CA68CB78CE9
:101BE0002085318542855385C301B2010E947B3631
:101BF0006F87788B898B9A8BA50194016B857C8587
:101C00008D859E850E947B362F81388549855A8532
:101C10000E94F4372F85388949895A890E94F43700
:101C20002B013C01AD89BE895896BC91BB83ED89DF
:101C3000FE89F18DFC83AD89BE895A96BC91BD8326
:101C4000ED89FE89F38DFE83AD89BE895496BC91E2
:101C5000B983ED89FE89F589FA83AD89BE895696E7
:101C60003C90569757962C902B813C814D815E81FC
:101C70000E94013987FD0AC020E030E0A901C701B8
:101C8000B6010E94013918160CF454C029813A811A
:101C9000432D522DC301B2010E94153618164CF087
:101CA00020E030E0A901C701B6010E94153687FD8A
:101CB00041C02AE037ED43EA5CE3C701B6010E9468
:101CC0007B36A50194010E94F437762E672E582E9C
:101CD000492EED89FE89F089FB8BAD89BE8951962D
:101CE000BC91BC8BED89FE8902891389848495841B
:101CF000A684B7849401A5010E94153687FD12C001
:101D00002B893C89A801672D762D852D942D0E9465
:101D100001398B889C885801181624F0872C962C42
:101D2000A52CB42CC401D501ED89FE89848F958F33
:101D3000A68FB78FAD89BE895C962D913D914D914F
:101D40005C915F976B857C858D859E850E947B3637
:101D50002F81388549855A850E94F4372F85388927
:101D600049895A890E94F4375B018C019B01AC01BF
:101D700069817A81832D922D0E940139181674F0A1
:101D80009501A8016B817C818D819E810E94153611
:101D900087FD2CC0A982BA82302E212EAD89BE8942
:101DA0009096CD92DD92ED92FC92939781E094967D
:101DB0008C9369817A81832D922D66960FB6F89463
:101DC000DEBF0FBECDBFDF91CF911F910F91FF906E
:101DD000EF90DF90CF90BF90AF909F908F907F90CB
:101DE0006F905F904F903F902F900895BB81B98383
:101DF000EC81EA833D802E80D1CF9FB7F89480910B
:101E00007E05882379F040917A0550917B05609199
:101E10007C0570917D0581E01416150616061706DF
:101E20000CF080E09FBF0895E0916305F091640598
:101E3000309731F09081809165058095892380836A
:101E40000895E0E6F5E016861786108A118A128A50
:101E5000138A148A158A8FB7F8941486168E128EF8
:101E6000138E148E158E178E178A168A118E108E69
:101E700013868FBF0C94140FCF92DF92EF92FF92D4
:101E8000CF936B017C0120E030E041EE54E40E94EE
:101E9000013918160CF4A6C020E030E041EE54ECF5
:101EA000C701B6010E94153687FDA3C0C0926E051A
:101EB000D0926F05E0927005F0927105D701C601CE
:101EC000BF778093720590937305A0937405B093C8
:101ED000750560912401062E000C770B880B990B79
:101EE0000E941C36A70196010E947B36C1E020E0CB
:101EF00030E0A9010E94013987FDC0E0C0936D0563
:101F000090916D05E0916605F0916705309741F07D
:101F100080916805992309F473C09081892B80838F
:101F2000C0907205D0907305E0907405F09075052F
:101F300020E030E040E85FE3C701B6010E941536BB
:101F400070E060E087FD2DC0A7019601C701B601D2
:101F50000E94F4379B01AC0160E070E48CE197E4EF
:101F60000E9460386B017C0120E030E040E85FE3D4
:101F70000E94153687FD48C020E030E64AE657E467
:101F8000C701B6010E94013918160CF444C020E0C4
:101F900030E040E05FE3C701B6010E94F4370E94E1
:101FA000D2389FB7F8947093770560937605709355
:101FB00079056093780581E06115710509F480E089
:101FC00080936C0580916C05811102C010926B05A5
:101FD0009FBF672B41F5CF91FF90EF90DF90CF909F
:101FE0000C94140FC12CD12C31EEE32E34E4F32EDB
:101FF0005DCFC12CD12C21EEE22E24ECF22E56CF57
:102000009081809589238BCFC12CD12C90E8E92E2B
:102010009FE3F92EBCCFC12C80E6D82E8AE6E82EAD
:1020200087E4F82EB4CFCF91FF90EF90DF90CF9060
:1020300008958F929F92AF92BF92CF92DF92EF92CC
:10204000FF924B015C0169017A0181149104A104A2
:10205000B10451F4FF90EF90DF90CF90BF90AF901C
:102060009F908F900C94210F20E030E040E85FE3D8
:10207000C701B6010E94153687FF06C0C12CD12CBE
:1020800080E8E82E8FE3F82E2FB7F894D501C4012D
:10209000B7FE07C088279927DC0188199909AA0982
:1020A000BB0980937A0590937B05A0937C05B09340
:1020B0007D0581E080937E0510927F052FBF181467
:1020C00019041A041B0424F0F7FAF094F7F8F094BA
:1020D000C701B601FF90EF90DF90CF90BF90AF9017
:1020E0009F908F900C943C0F8FB7F89490917F0540
:1020F000911102C08FBF089510927F0510927E0546
:1021000010927A0510927B0510927C0510927D0545
:102110008FBF60E070E0CB010C943C0F9091CF0337
:102120008091D003811182E0892B9091D10391118C
:1021300094E0892B9091D203911198E0892B089516
:1021400090E0FC01E75DF64E2491FC01EB5EF64E5B
:102150003491FC01EF5FF64EE491EE23C9F02223A7
:1021600039F0233001F1A8F4213019F1223029F19E
:10217000F0E0EE0FFF1FE950F74EA591B4918FB735
:10218000F894EC91611126C030953E233C938FBFAB
:1021900008952730A9F02830C9F0243049F78091FC
:1021A00080008F7D03C0809180008F7780938000B6
:1021B000DFCF84B58F7784BDDBCF84B58F7DFBCF38
:1021C0008091B0008F778093B000D2CF8091B00023
:1021D0008F7DF9CF3E2BDACF2F923F924F925F92B5
:1021E0006F927F928F929F92AF92BF92CF92DF9227
:1021F000EF92FF920F931F93CF93DF93CDB7DEB78C
:10220000A4970FB6F894DEBF0FBECDBF6D8B7E8B4B
:102210008F8B988F2F8F38A349A35AA380914E0597
:1022200081113DC080914A0590914B05A0914C05CC
:10223000B0914D052D893E894F89588D281B390B4A
:102240004A0B5B0BDA01C901883B9848A105B1052F
:1022500030F160E080911B050E94A01083E090E0C7
:102260000197F1F761E080911B050E94A01083E2C5
:1022700090E00197F1F760E080911B050E94A010AB
:102280008D899E89AF89B88D80934A0590934B05BF
:10229000A0934C05B0934D0581E080934E053FB768
:1022A000F8942091580560E070E0CB01222351F0B2
:1022B0001092580560915305709154058091550511
:1022C000909156053FBF222309F443C110924E0559
:1022D0008B019C010150110921093109083A11466D
:1022E0002105310508F09CC10E941A3628E23EE71C
:1022F0004CE05DE30E947B3620E030E040E05FE3AD
:102300000E947B364B015C018092390590923A0520
:10231000A0923B05B0923C058091320590E0FC0113
:10232000EE0FFF1FEE0FFF1FE55EFA4F82829382D2
:10233000A482B582019665E070E00E94A337809385
:10234000320580913105853018F48F5F8093310517
:1023500080913105C12CD12C7601882309F49CC0D1
:10236000ADE1B5E0FE013196712C4D915D916D911D
:102370007D91419351936193719373948711F5CF3C
:10238000E12CC72CD12C8E2D90E09C012F5F3F4F6C
:102390002C153D050CF054C0F12CF601E81BF90B8F
:1023A000FCA3EBA38F2D90E08C010F5F1F4F2BA19F
:1023B0003CA1021713070CF041C0880F991F880F2A
:1023C000991F41E050E04C0F5D1F480F591F5E8F71
:1023D0004D8FDA018D919D910D90BC91A02D898F2B
:1023E0009A8FAB8FBC8F000F111F000F111FE1E000
:1023F000F0E0EC0FFD1F0E0F1F1FD8012D903D9038
:102400004D905C90A2019101698D7A8D8B8D9C8D90
:102410000E940139181684F4ED8DFE8D20823182E0
:1024200042825382298D3A8D4B8D5C8DD8012D933C
:102430003D934D935C931397F394B4CFE394A3CF60
:10244000872D869590E0FC01EE0FFF1FEE0FFF1F1A
:1024500021E030E02C0F3D1FE20FF31FC080D18040
:10246000E280F38070FC18C00197880F991F880FD5
:10247000991F820F931FDC012D913D914D915C912D
:10248000C701B6010E94F43720E030E040E05FE38E
:102490000E947B366B017C0180913305811199C0CC
:1024A000C0923405D0923505E0923605F09237059A
:1024B00081E08093330560912501062E000C770B97
:1024C000880B990B0E941C366B017C0140902B01FC
:1024D00050902C0160902D0170902E01A30192016B
:1024E000C501B4010E94F337A70196010E947B3613
:1024F00060933D0570933E0580933F0590934005A2
:10250000A3019201609134057091350580913605E3
:10251000909137050E94F337A70196010E947B3600
:102520006093410570934205809343059093440561
:102530002F8D38A149A15AA1209345053093460516
:10254000409347055093480581E0809338051092E9
:10255000490580914E05882319F180914A05909193
:102560004B05A0914C05B0914D052D893E894F89B1
:10257000588D281B390B4A0B5B0BDA01C901893ACC
:102580009146A105B10560F010924E0581E080935F
:1025900049058FB7F89410925705109258058FBFD0
:1025A000A4960FB6F894DEBF0FBECDBFDF91CF91DA
:1025B0001F910F91FF90EF90DF90CF90BF90AF9061
:1025C0009F908F907F906F905F904F903F902F9053
:1025D000089526E636E646E25FE3609134057091A1
:1025E000350580913605909137050E947B362B0189
:1025F0003C0123E333E343EB5EE3C701B6010E94F2
:102600007B369B01AC01C301B2010E94F437609399
:1026100034057093350580933605909337054BCF7D
:1026200081E08093490595CFCF93DF9390E0FC0143
:10263000EB5EF64E24918F5F964EFC0184918823C9
:10264000D1F090E0880F991FFC01E351F74EA5915E
:10265000B491FC01E950F74EC591D49161110EC0BF
:102660009FB7F8948C91E22FE0958E238C9328816C
:10267000E223E8839FBFDF91CF9108958FB7F8944D
:10268000EC91E22BEC938FBFF6CF3FB7F89480919B
:10269000CB039091CC03A091CD03B091CE0326B58E
:1026A000A89B05C02F3F19F00196A11DB11D3FBF8A
:1026B000BA2FA92F982F8827BC01CD01620F711D59
:1026C000811D911D42E0660F771F881F991F4A9553
:1026D000D1F708958F929F92AF92BF92CF92DF92DF
:1026E000EF92FF924B015C010E9445136B017C014C
:1026F0000E9445136C197D098E099F09683E73403D
:1027000081059105A8F321E0821A9108A108B1087A
:1027100088EEC80E83E0D81EE11CF11C81149104E0
:10272000A104B10429F7FF90EF90DF90CF90BF9004
:10273000AF909F908F9008952FB7F8946091C70342
:102740007091C8038091C9039091CA032FBF089567
:1027500008950895AF92BF92CF92DF92EF92FF92C9
:102760000F931F93CF93DF936C017B018B01040FB9
:10277000151FEB015E01AE18BF08C017D10759F055
:102780006991D601ED91FC910190F081E02DC60197
:102790000995892B79F7C501DF91CF911F910F9191
:1027A000FF90EF90DF90CF90BF90AF900895FC0125
:1027B000538D448D252F30E0842F90E0821B930BA6
:1027C000541710F0CF96089501970895FC01918D4C
:1027D000828D981761F0A28DAE0FBF2FB11D5D964F
:1027E0008C91928D9F5F9F73928F90E008958FEFF1
:1027F0009FEF0895FC01918D828D981731F0828DA5
:10280000E80FF11D858D90E008958FEF9FEF0895FB
:10281000FC01918D228D892F90E0805C9F4F821B5F
:1028200091098F739927089583E294E00E94081418
:1028300021E0892B09F420E0822F089580E090E0C8
:10284000892B29F00E94141481110C940000089522
:10285000FC01A48DA80FB92FB11DA35ABF4F2C9115
:10286000848D90E001968F739927848FA689B7890C
:102870002C93A089B1898C91837080648C93938D03
:10288000848D981306C00288F389E02D80818F7DA6
:1028900080830895EF92FF920F931F93CF93DF935E
:1028A000EC0181E0888F9B8D8C8D98131AC0E8898C
:1028B000F989808185FF15C09FB7F894EE89FF895B
:1028C0006083E889F98980818370806480839FBFF9
:1028D00081E090E0DF91CF911F910F91FF90EF90F9
:1028E0000895F62E0B8D10E00F5F1F4F0F73112709
:1028F000E02E8C8D8E110CC00FB607FCFACFE88944
:10290000F989808185FFF5CFCE010E942814F1CF8F
:10291000EB8DEC0FFD2FF11DE35AFF4FF0829FB7B7
:10292000F8940B8FEA89FB8980818062CFCF0F9367
:102930001F93CF93DF938C01D0E0C0E0F801EC0F40
:10294000FD1F6491662341F083E294E00E944A14E3
:10295000892B11F02196F2CFCE01DF91CF911F91FB
:102960000F910895682F83E294E00C944A14CF935A
:10297000DF93EC01888D8823B9F0AA89BB89E889A7
:10298000F9898C9185FD03C0808186FD0DC00FB64D
:1029900007FCF7CF8C9185FFF2CF808185FFEDCFCB
:1029A000CE010E942814E9CFDF91CF9108952091A4
:1029B000F702260F3327331F21323105ECF4209123
:1029C000F903FC0190E080E0243069F082E0089592
:1029D000A091F7022191AC0149525D4FA40FB52F90
:1029E000B11D2C930196861798F38091F702680F1A
:1029F0006093F70280E0089581E008951092F90352
:102A000081E08093F8031092D30361E082E10E9499
:102A1000A01061E083E10E94A010E9EBF0E080816A
:102A20008E7F808380818D7F808388E48093B8004F
:102A300085E48093BC000895CF93DF9391E0909359
:102A4000D6028823B9F0C091B800D091BA00809125
:102A5000BC008A7B8093BC0060E082E10E94A010F1
:102A600060E083E10E94A0100E94FE14D093BA009F
:102A7000C093B800DF91CF9108958F929F92AF924B
:102A8000BF92CF92DF92EF92FF920F931F93CF935B
:102A9000DF93D0912204D13208F0D7C0182FC09113
:102AA00021040E9445136B017C018091F90381117F
:102AB0006BC082E08093F9031093F8038FEF80934B
:102AC000F7031092F603D093F503A1E0B4E0E5ED2F
:102AD000F3E080E0D81391C01092D4038091D40326
:102AE000CC0FC82BC093D4038091D303813009F05D
:102AF00088C01092D3030E9445136B017C01809122
:102B0000D4038093BB008091FB039091FC03A091C0
:102B1000FD03B091FE03892B8A2B8B2BA1F00E9421
:102B200045130091FB031091FC032091FD033091AC
:102B3000FE036C197D098E099F09061717072807E0
:102B4000390708F442C08091BC0083FDD8CF85ECE2
:102B50008093BC000E9445136B017C018091F903B6
:102B6000823009F450C08091F7038F3F09F46FC0A1
:102B70008091F703803209F46CC08091F7038033B1
:102B800009F469C084E026C08091FB039091FC03A6
:102B9000A091FD03B091FE03892B8A2B8B2B09F4A6
:102BA00084CF0E9445138090FB039090FC03A0907B
:102BB000FD03B090FE036C197D098E099F098616EE
:102BC0009706A806B90608F070CF8091FA030E9414
:102BD0001C1585E010920004109222041092FF034D
:102BE000DF91CF911F910F91FF90EF90DF90CF90E9
:102BF000BF90AF909F908F9008959D9191938F5F1C
:102C000069CF85EEA5CF8091FB039091FC03A09145
:102C1000FD03B091FE03892B8A2B8B2B09F49ECFE9
:102C20000E9445130091FB031091FC032091FD03CA
:102C30003091FE036C197D098E099F09061717074D
:102C40002807390708F08ACFC0CF81E0C3CF80E0E2
:102C5000C1CF82E0BFCF83E0BDCF0895E0911F03D5
:102C600080911E03E81730F4F0E0EA54FD4F8081B4
:102C700090E008958FEF9FEF089590911F0380914A
:102C80001E032FEF3FEF981748F4E92FF0E0EA54C6
:102C9000FD4F208130E09F5F90931F03C90108958D
:102CA00080911E0390911F03891B990B0895CF9269
:102CB000DF92EF92FF920F931F93CF93DF937C01EC
:102CC000CB018A012091FF03222389F0EB016B01E4
:102CD000C40ED51ECC15DD0569F06991D701ED91C3
:102CE000FC910190F081E02DC7010995F3CF642F8D
:102CF0000E94D714C801DF91CF911F910F91FF90CF
:102D0000EF90DF90CF900895CF93DF931F92CDB7D0
:102D1000DEB769832091FF032223F9F0209122047A
:102D2000203258F021E030E0FC013383228390E030
:102D300080E00F90DF91CF91089580910004E82FFB
:102D4000F0E0EF5FFB4F998190838F5F80930004E9
:102D50008093220481E090E0ECCF61E0CE01019607
:102D60000E94D714F7CF90E080E008952F923F9211
:102D70004F925F926F927F928F929F92AF92BF928B
:102D8000CF92DF92EF92FF920F931F93CF93DF9337
:102D9000CDB7DEB762970FB6F894DEBF0FBECDBFDA
:102DA000C0903805CA86D0904905D986CC2009F450
:102DB000C6C018870F8389011A016F87788B898BAA
:102DC0009A8B40903D0550903E0560903F05709075
:102DD00040058090410590904205A0904305B09039
:102DE0004405C0903905D0903A05E0903B05F0903D
:102DF0003C05C982DA82EB82FC824092A4035092A5
:102E0000A5036092A6037092A7032AE037ED43E280
:102E10005CE3C301B2010E947B366093A803709308
:102E2000A9038093AA039093AB038092AC03909282
:102E3000AD03A092AE03B092AF032AE037ED43E2B8
:102E40005CE3C501B4010E947B366093B0037093CC
:102E5000B1038093B2039093B303C092B403D092B2
:102E6000B503E092B603F092B70320914505309187
:102E700046054091470550914805CF84D888E98898
:102E8000FA88C21AD30AE40AF50AA701960129377B
:102E9000310541055105A8F11092B903D984D1102B
:102EA00035C09F7721E02A872EEA37E441E65EE3CA
:102EB0000E94013918160CF01A86CA84C092D203F7
:102EC0002114310431F0D1014D925D926D927C92CA
:102ED00013970115110529F0F80180829182A282D1
:102EE000B382CF80D884CD2899F1C980DA80EB8075
:102EF000FC80AF81B885CD92DD92ED92FC92139764
:102F000027C0C984CC2039F01092B90321E0209366
:102F1000CF031986C6CF21E02093B903CF84D88888
:102F2000E988FA88C0922303D0922403E092250313
:102F3000F09226031092CF03DA84D986B2CF109292
:102F4000B903C984CC2021F081E08093CF03198696
:102F5000898562960FB6F894DEBF0FBECDBFDF91B4
:102F6000CF911F910F91FF90EF90DF90CF90BF9086
:102F7000AF909F908F907F906F905F904F903F9019
:102F80002F900895CF93DF930E94210FC0E6D5E0E4
:102F90001A8661E08A810E94A0108FB7F8941B8680
:102FA0002E893F89398F288F8FBFDF91CF910C9465
:102FB000140F8091CF0381110AC08091D003811139
:102FC00006C08091D103811102C08091D20308957F
:102FD0008F929F92AF92BF92CF92DF92EF92FF9229
:102FE0000F931F932091CC04243009F44AC008EEBB
:102FF00013E020E030E0C0902703D0902803E09059
:103000002903F0902A034B015C018C189D08AE083F
:10301000BF08750164010C151D052E053F0518F448
:1030200041E04093D003C0902303D0902403E0906C
:103030002503F09026036C197D098E099F09061758
:1030400017072807390718F481E08093CF03809190
:103050004905882319F081E08093CF030E94D91796
:103060008823A1F085E08093CC041F910F91FF90FD
:10307000EF90DF90CF90BF90AF909F908F900C9487
:10308000C2170CE211E020E030E0B5CF1F910F91A4
:10309000FF90EF90DF90CF90BF90AF909F908F9078
:1030A00008952091330130913401409135015091C0
:1030B000360160912F017091300180913101909122
:1030C00032010E941536881F8827881F0895809135
:1030D00026018C708C3011F40C94511880E0089506
:1030E00090912601937081E0933009F080E008957B
:1030F000EF92FF920F931F93CF93DF9300D000D0F6
:1031000000D0CDB7DEB700912601029501700E9474
:103110007018E82E0E946718F82E1091B80311114C
:103120001091B9030E94D917202F3E2D4F2D512FFA
:10313000682F71E080E090E026960FB6F894DEBF2D
:103140000FBECDBFDF91CF911F910F91FF90EF90F8
:103150000895FC0101900020E9F73197AF01481B69
:10316000590BBC0183E294E00C94AA13CF93DF9334
:103170000E949714EC018FE991E00E94A9188C0F2E
:103180009D1FDF91CF910895E0911B01E73008F07A
:1031900076C0F0E0E253F74E0C94D937D518DD181D
:1031A000E418EB18F218F91800198BE191E10E946C
:1031B000B6188DEE90E10C94B6188CEB90E10E945D
:1031C000B6188CE890E1F7CF8CE490E10E94B61835
:1031D0008DE190E1F0CF8DED9FE00E94B6188EEA70
:1031E0009FE0E9CF82E79FE00E94B61884E49FE069
:1031F000E2CF80E19FE00E94B61881EE9EE0DBCF37
:103200008FEC9EE00E9497140E94701881112BC0D1
:103210008FEB9EE00E94971486EC9EE00E9497142C
:103220000E946718811122C081EB9EE00E949714D2
:1032300088EB9EE00E9497148091260184FD19C0BE
:1032400082EA9EE00E94971489EA9EE00E94971409
:1032500080912C03811110C088E59EE00E94B61871
:103260008FE59EE0A8CF82EC9EE0D4CF84EB9EE079
:10327000DDCF85EA9EE0E6CF8BE59EE0EFCF0895B7
:10328000CF9380911A01811143C0C091260186EA33
:103290009DE0C0FF12C08CE49DE0C1FF0EC081E044
:1032A0009DE0C2FF0AC086EB9CE0C3FF06C00E94FF
:1032B0005118811105C083E69CE0CF910C94B6189B
:1032C000C4FD0AC080910001882319F082E19CE0CE
:1032D000F4CF8AEB9BE0F1CF0E94D917882319F035
:1032E0008AE69BE0EACF8091B803882321F08091A1
:1032F000B903811103C08DE19BE0DFCF80912C03E6
:10330000882319F081EE9AE0D8CF8BEA9AE0D5CFE6
:10331000CF910895CF93DF93EC0188E49EE00E9463
:10332000B6188981811104C08DE39EE00E94B61811
:103330008A81811104C080E39EE00E94B6188881D2
:10334000811104C085E29EE00E94B6188B81811134
:1033500004C087E19EE00E94B6188C81882321F08A
:103360008AE09EE00E94B6188D81811104C089EF29
:103370009DE00E94B618DF91CF910C9440198FEB1D
:1033800099E00E94B6188FE999E00E94B6188CE681
:1033900099E00E94B61885E399E00E94B6188EEF76
:1033A00098E00E94B61880EC98E00E94B61889E870
:1033B00098E00E94B6188DE598E00E94B6188EE35A
:1033C00098E00E94B61880E298E00C94B61887E75F
:1033D00093E00E94B6188EE493E00E94B61882E251
:1033E00093E00E94B61885EF92E00E94B61883EC35
:1033F00092E00E94B61888E992E00E94B61886E72B
:1034000092E00E94B61889E492E00E94B61887E321
:1034100092E00E94B6188AE292E00E94B61880E01C
:1034200092E00E94B61889ED91E00E94B61881ECF6
:1034300091E00E94B6188AEB91E00E94B61881EBE9
:1034400091E00E94B61881EA91E00E94B61888E9DE
:1034500091E00E94B6188CE791E00E94B6188EE5C4
:1034600091E00E94B6188FE391E00E94B61882E2C4
:1034700091E00E94B61880E191E00E94B6188AEFB0
:1034800090E00E94B6188FEC90E00E94B61883EA94
:1034900090E00C94B6188F929F92AF92BF920F93C8
:1034A0001F93CF93DF93CDB7DEB7A1970FB6F894F4
:1034B000DEBF0FBECDBF19A2423008F44AE08E0134
:1034C0000F5D1F4F842E912CB12CA12CA5019401CE
:1034D0000E94B737E62FB901CA01EA30F4F4E05D83
:1034E000D801EE938D01232B242B252B79F790E027
:1034F00080E0109719F0CD010E94A918A1960FB68F
:10350000F894DEBF0FBECDBFDF91CF911F910F9119
:10351000BF90AF909F908F900895E95CE1CFCF93DB
:10352000DF93D0E0C0E0009719F00E94A918EC01E9
:103530008FE991E00E94A9188C0F9D1FDF91CF9118
:103540000895CF93DF93EC018091CC04813011F486
:103550000E94E70C1092000180911C0110921A0148
:1035600010921B0191E090931C0110921D01809319
:103570001E018CE691E10E949714CE010E94A918C9
:1035800087E591E10E94971480911E01811106C088
:1035900083E591E1DF91CF910C94B61885E591E137
:1035A000F9CF4F925F926F927F928F929F92AF92DC
:1035B000BF92CF92DF92EF92FF920F931F93CF9320
:1035C0006B017C01742EAC019B010E94063988239B
:1035D00099F082EA91E0CF911F910F91FF90EF90C7
:1035E000DF90CF90BF90AF909F908F907F906F9023
:1035F0005F904F900C94A91846015701E894B7F8D2
:103600002FEF3FEF4FE75FE7C501B4010E94063996
:1036100081110DC02FEF3FEF4FE75FE7C501B40108
:103620000E94153618161CF486EA91E0D4CF2FEFCD
:103630003FEF4FE75FE4C701B6010E94013918165A
:103640001CF48AEA91E0C7CF2FEF3FEF4FE75FEC22
:10365000C701B6010E94153687FDF3CF20E030E0A8
:10366000A901C701B6010E94153610E000E087FFEE
:1036700008C08DE20E94B2148C01F7FAF094F7F8BA
:10368000F094C0E060E070E080E09FE37C1641F0E1
:1036900020E030E040E251E40E946038CF5FF6CF96
:1036A000A70196010E94F4372B013C010E94D238F9
:1036B0004B015C014AE00E944B1A7C01E00EF11EB6
:1036C000CC23B1F1C501B4010E941A369B01AC01B3
:1036D000C301B2010E94F3374B015C018EE20E94EC
:1036E000B214E80EF91EC15018F120E030E040E2BB
:1036F00051E4C501B4010E947B362B013C010E94BC
:10370000D2384B01B12CA12C4AE0C501B4010E9472
:103710004B1AE80EF91EC501B4010E941A369B012E
:10372000AC01C301B2010E94F3374B015C01DBCF56
:10373000C701CF911F910F91FF90EF90DF90CF9035
:10374000BF90AF909F908F907F906F905F904F90C1
:1037500008950C94D11A83EF96E00E94971460911B
:103760002F0170913001809131019091320146E03A
:1037700050E00E94A91B87EE96E00E94971460918A
:10378000330170913401809135019091360146E00A
:1037900050E00E94A91B83ED96E00E9497140E94BE
:1037A0006718811104C08CEC96E00C94B6188FEC6D
:1037B00096E0FBCF82EB96E00E9497146091270180
:1037C000709128018091290190912A0146E050E0F2
:1037D0000E94A91B80EA96E00E94971460912B0139
:1037E00070912C0180912D0190912E0146E050E0C6
:1037F0000E94A91B8EE896E00E9497140E94701800
:10380000811104C087E896E00C94B6188AE896E027
:10381000FBCFCF93DF930E94D11AEC018FE991E0A7
:103820000E94A9188C0F9D1FDF91CF910895CF9210
:10383000DF92EF92FF92CF93DF936C01990FEE0826
:10384000FF08F7FE1DC08DE20E94B214EC0166274E
:103850007727CB016C197D098E099F094AE00E94E8
:103860004B1AC80FD91F8FE991E00E94A9188C0F3D
:103870009D1FDF91CF91FF90EF90DF90CF90089543
:103880004AE0C701B6010E944B1AEC01ECCFCF927F
:10389000DF92EF92FF92CF93DF936C01990FEE08C6
:1038A000FF08F7FE17C08DE20E94B214EC016627F4
:1038B0007727CB016C197D098E099F094AE00E9488
:1038C0004B1A8C0F9D1FDF91CF91FF90EF90DF90EF
:1038D000CF9008954AE0C701B601DF91CF91FF90E4
:1038E000EF90DF90CF900C944B1ACF93DF93682F1B
:1038F00070E090E080E04AE00E944B1AEC018FE912
:1039000091E00E94A9188C0F9D1FDF91CF9108951F
:10391000CF930E948E10C82F8FE098E00E949714DA
:103920008C2F0E94751C8FEF97E0CC2311F18091B2
:10393000CF03882321F083EC97E00E94B618809192
:10394000D003882321F08FE897E00E94B618809179
:10395000D103882321F08FE597E00E94B61880916B
:10396000D203882321F080E397E00E94B61889E013
:1039700097E0CF910C94B618FF920F931F93CF93BB
:10398000DF93CDB7DEB72C970FB6F894DEBF0FBE2E
:10399000CDBF19821A821B821C821D821E821F8249
:1039A000188619861A861B861C860E949C138E0117
:1039B000075F1F4F9E012B5F3F4FAE014F5F5F4F71
:1039C0000E94B616F82E811111C081E19AE00E9482
:1039D000B6188F2D2C960FB6F894DEBF0FBECDBF54
:1039E000DF91CF911F910F91FF90089589859A855E
:1039F000AB85BC8580932B0190932C01A0932D0166
:103A0000B0932E01809126018260809326010E944E
:103A10009C1310E000E030E020E050E040E00E9425
:103A2000B61681E080932C0387EF99E00E949714EB
:103A300069857A858B859C8546E050E00E94091C4B
:103A40000E94DA1BC6CF0F931F93CF93DF93CDB79E
:103A5000DEB72C970FB6F894DEBF0FBECDBF8091B6
:103A60000001882321F080910101811111C08EE6AF
:103A700096E00E94B61810E0812F2C960FB6F894AD
:103A8000DEBF0FBECDBFDF91CF911F910F91089583
:103A900019861A861B861C861D821E821F82188626
:103AA00019821A821B821C820E949C138E010F5F56
:103AB0001F4F9E012B5F3F4FAE01475F5F4F0E943C
:103AC000B616182F811105C08AE596E00E94B61837
:103AD000D3CF69817A818B819C8160930701709338
:103AE00008018093090190930A012091030130910C
:103AF000040140910501509106010E94013987FFA0
:103B000088C08FEF8093190191E090930201109289
:103B100000019091170197FF7EC09FEF90932401C1
:103B20009091180197FF79C09FEF909323018F3FE9
:103B300009F081E0809325018091260180618093C6
:103B400026010E94D9179091CC04913031F488233A
:103B500009F465C080E08093CC0489E496E00E947B
:103B600097140E949C134AE00E944B1A8CE20E9418
:103B7000B21460911301709114018091150190911C
:103B8000160145E050E00E94A91B8CE20E94B2148D
:103B900080911701082E000C990B0E94471C8CE2A3
:103BA0000E94B21480911801082E000C990B0E94FB
:103BB000471C8CE20E94B2146091030170910401D1
:103BC000809105019091060144E050E00E94A91BFC
:103BD0008CE20E94B21460910701709108018091FB
:103BE000090190910A0144E050E00E94A91B8CE277
:103BF0000E94B21480911901082E000C990B0E94AA
:103C0000171C85E196E00E94B61881E080932C0392
:103C100033CF81E077CF91E081CF91E086CF83E011
:103C20009ACFCF92DF92EF92FF920E949C136B018A
:103C30007C0185EF94E00E949714E091CC048EEA19
:103C400091E0E63038F4F0E0EE0FFF1FE159FE4F4F
:103C5000808191810E948F1A86EE94E00E949714D1
:103C60008091B803811129C189ED94E00E949714D5
:103C700080EE94E00E9497148091B903811120C1D5
:103C80008EE394E00E94B61889EC94E00E949714A9
:103C9000609198037091990380919A0390919B038E
:103CA00044E050E00E94A91B82EC94E00E9497142B
:103CB0006091A4037091A5038091A6039091A7033E
:103CC00044E050E00E94A91B86EB94E00E94971408
:103CD0006091AC037091AD038091AE039091AF03FE
:103CE00044E050E00E94091C88EA94E00E94971486
:103CF0008091270390912803A0912903B0912A0372
:103D0000A7019601281B390B4A0B5B0BCA01B901AD
:103D10004AE00E944B1A8FE994E00E949714809128
:103D2000230390912403A0912503B0912603A701BA
:103D30009601281B390B4A0B5B0BCA01B9014AE0FB
:103D40000E944B1A8FE991E00E94A91882E994E041
:103D50000E9497140E948E100E94751C8BE794E0BD
:103D60000E94971480912401082E000C990B0E9448
:103D7000471C8AE694E00E94971480912301082E44
:103D8000000C990B0E94471C8AE594E00E9497144E
:103D900080912501082E000C990B0E94171C85E4C8
:103DA00094E00E9497140E94701881118CC083E2E5
:103DB00094E00E9497148AE294E00E9497140E9473
:103DC0006718811183C08AE094E00E94971481E112
:103DD00094E00E9497148091260184FD7AC08DEAB8
:103DE00093E00E94B61880EF93E00E9497146091D0
:103DF0002701709128018091290190912A0146E0C4
:103E000050E00E94A91B8EED93E00E9497146091F0
:103E10002B0170912C0180912D0190912E0146E093
:103E200050E00E94091C88EC93E00E949714609176
:103E30002F0170913001809131019091320145E064
:103E400050E00E94A91B8CEB93E00E9497146091B4
:103E5000330170913401809135019091360145E034
:103E600050E00E94A91B84EB93E00E9497140E94EB
:103E70006718811131C087E893E00E94B6188BE97A
:103E800093E00E94971480912B03813059F1823086
:103E900031F58DEB91E00E948F1A8EE893E00E943D
:103EA000971480911E01811120C083E893E0FF9058
:103EB000EF90DF90CF900C94B6188DED94E0D6CEB5
:103EC00082E494E0DFCE86E294E073CF8DE094E06C
:103ED0007CCF80EB93E085CF8AE893E0CECF86EC71
:103EE00091E0D9CF86EB91E0D6CF85E893E0DFCFA4
:103EF0004F925F926F927F928F929F92AF92BF92FA
:103F0000CF92DF92EF92FF920F931F93CF93DF93A5
:103F1000A0915905B0915A05109751F580915C0513
:103F200090915D05A0915E05B0915F050196A11D80
:103F3000B11D80935C0590935D05A0935E05B093E1
:103F40005F051092B80381E08093D00380E0DF9199
:103F5000CF911F910F91FF90EF90DF90CF90BF9086
:103F6000AF909F908F907F906F905F904F9008954B
:103F70008901EA012B013C0120915B0531E030937E
:103F8000FF03209321041092000410922204ED916B
:103F9000FC9111970190F081E02D6CE0CD01099525
:103FA00080E00E943D15F82E8111B8CFE0905B05AE
:103FB0000E9445134B015C018091F903811164C09B
:103FC00081E08093F9038093F8039FEF9093F703C8
:103FD0001092F6038093F5038093D4038091D40369
:103FE000EE0CE82AE092D4038091D303813009F0EB
:103FF000CEC01092D3030E9445134B015C01809107
:10400000D4038093BB008091FB039091FC03A091AB
:10401000FD03B091FE03892B8A2B8B2BA1F00E940C
:1040200045132091FB033091FC034091FD03509117
:10403000FE03681979098A099B092617370748077B
:10404000590708F442C08091BC0083FDD8CF85ECAD
:104050008093BC000E9445134B015C018091F903E1
:10406000813009F496C08091F603823008F0B3C025
:104070008091F603A5EDB3E0E6EBF2E0F81649F126
:104080009D919193F394FACF8091FB039091FC035F
:10409000A091FD03B091FE03892B8A2B8B2B09F491
:1040A0008BCF0E9445132091FB033091FC0340917C
:1040B000FD035091FE03681979098A099B092617A7
:1040C00037074807590708F077CF8091FA030E9415
:1040D0001C1510921F03F0921E0382E0F8121ECFEF
:1040E0008091590590915A05DC01ED91FC91008475
:1040F000F185E02D099502970CF410CF80915905B8
:1041000090915A05DC01ED91FC910284F385E02D3C
:104110000995F82E8091590590915A05DC01ED9191
:10412000FC910284F385E02D099560E07F2D6627E0
:104130007F70682B90E080E00E941A3620E030E02B
:1041400044EB53E40E947B3620E030E040E859E342
:104150000E947B364B015C012091270130912801A0
:104160004091290150912A010E94F3376B017C0193
:1041700020E030E044E353E40E94013918166CF566
:1041800020E030E044EB53E4C701B601EDCF85EE0B
:104190005FCF8091FB039091FC03A091FD03B09150
:1041A000FE03892B8A2B8B2B09F458CF0E944513D1
:1041B0002091FB033091FC034091FD035091FE03DD
:1041C000681979098A099B0926173707480759078B
:1041D00008F044CF7ACF82E04DCF20E030E044E3D6
:1041E00053ECC701B6010E94153687FF0BC020E0D3
:1041F00030E044EB53E4C701B6010E94F4376B0191
:104200007C01EBCF60912301062E000C770B880B0D
:10421000990B0E941C36A70196010E947B366B0108
:104220007C01C0929803D0929903E0929A03F09295
:104230009B0325E33AEF4EE85CE30E947B366093F4
:104240009C0370939D0380939E0390939F038092A1
:10425000A0039092A103A092A203B092A30321E035
:104260002093B803409227035092280360922903B9
:1042700070922A031092D0039F777724739422E9D7
:104280003AE046E85EE30E94013918160CF0712C02
:104290007092D103209751F40115110529F0F8010E
:1042A00080829182A282B38281E051CEC882D9827B
:1042B000EA82FB82F1CF1F93CF93DF9300D000D02F
:1042C000CDB7DEB719821A821B821C820E949C1312
:1042D00030E020E0AE014F5F5F4F0E94781F182F43
:1042E00081110DC087E99AE00E94B618812F0F90C6
:1042F0000F900F900F90DF91CF911F9108958981BA
:104300009A81AB81BC818093330190933401A09357
:104310003501B09336018091260188608093260193
:1043200081E080932C030E945118811104C080E821
:104330009AE00E94B61888E69AE00E949714698174
:104340007A818B819C8146E050E00E94091C0E948A
:10435000AB1BCCCF1F93CF93DF9300D000D0CDB752
:10436000DEB719821A821B821C820E949C1330E0E5
:1043700020E0AE014F5F5F4F0E94781F182F811120
:104380000DC084E59AE00E94B618812F0F900F901F
:104390000F900F90DF91CF911F91089589819A819D
:1043A000AB81BC8180932F0190933001A0933101A8
:1043B000B09332018091260184608093260181E0D0
:1043C00080932C030E945118811104C08DE39AE060
:1043D0000E94B61885E29AE00E94971469817A815A
:1043E0008B819C8146E050E00E94091C0E94AB1B1F
:1043F000CCCF1F93CF93DF93CDB7DEB728970FB6FF
:10440000F894DEBF0FBECDBF19821A821B821C82B8
:104410001D821E821F8218860E949C139E012B5FA4
:104420003F4FAE014F5F5F4F0E94781F182F8111E1
:104430000FC083EE99E00E94B618812F28960FB620
:10444000F894DEBF0FBECDBFDF91CF911F910895CD
:104450008D819E81AF81B88580932701909328013B
:10446000A0932901B0932A01809126018160809355
:1044700026010E949C1330E020E050E040E00E94C2
:10448000781F81E080932C038CEC99E00E949714B4
:104490006D817E818F81988546E050E00E94091CE5
:1044A0000E94DA1BCACFCF92DF92EF92FF920F9356
:1044B0001F93CF936B017C01C092BA03D092BB03D0
:1044C000E092BC03F092BD0330E020E050E040E019
:1044D0000E94781FC82F10E000E030E020E050E09C
:1044E00040E0C701B6010E94B616C11101C080E0CC
:1044F000CF911F910F91FF90EF90DF90CF90089593
:104500004F925F926F927F928F929F92AF92BF92E3
:10451000CF92DF92EF92FF92CF93DF938091CC0402
:10452000853061F484E096E00E94B6180E94881CF1
:104530008DED95E00E94B618C0E00BC00E949C1360
:104540000E945322C82F811114C087EC95E00E946D
:10455000B6188C2FDF91CF91FF90EF90DF90CF9026
:10456000BF90AF909F908F907F906F905F904F9093
:1045700008958091CC048450823018F48BEA95E041
:10458000D9CF81E08093CC04809300018093010116
:1045900010920201909124019093170190912301B0
:1045A0009093180190912501909319014091B403C3
:1045B0005091B5036091B6037091B7034093030126
:1045C0005093040160930501709306014091A0038C
:1045D0005091A1036091A2037091A30340930B013A
:1045E00050930C0160930D0170930E0180936A0546
:1045F00060E0809162050E94A01020E030E04AEF68
:1046000053E468E770E080E090E00E9419100E9497
:104610009C134B015C010E94FD0E8823E9F00E946F
:1046200045132B013C010E949C136B017C010E94ED
:104630007410A7019601C301B2010E94EC10C818C2
:10464000D908EA08FB0889EBC8168BE0D806E10414
:10465000F10408F30E94210F0E94741062E370E0DD
:1046600080E090E00E946A130E949C130E945322F3
:104670006091A0037091A1038091A2039091A30384
:1046800060930F01709310018093110190931201B8
:1046900020910B0130910C0140910D0150910E01C0
:1046A0000E94F3376B017C0120E030E044E353E4E7
:1046B0000E94013918163CF420E030E044EB53E44A
:1046C000C701B601EDCF20E030E044E353ECC70171
:1046D000B6010E94153687FF0BC020E030E044EBA6
:1046E00053E4C701B6010E94F4376B017C01EBCFA4
:1046F000C0921301D0921401E0921501F0921601BC
:10470000D091240160912301062E000C770B880BB9
:10471000990B0E941C36A70196010E947B3620E06F
:1047200030E0A9010E94013987FDD195D09317018E
:1047300020E030E0A901C701B6010E94013987FDE0
:1047400038C081E0809318018EE895E00E94B61889
:1047500084E795E00E949714609113017091140111
:10476000809115019091160145E050E00E94091CCE
:1047700087E595E00E94971480911701082E000CA0
:10478000990B0E94171C8BE395E00E94971480916F
:104790001801082E000C990B0E94171C8CEF94E056
:1047A0000E94B61880918F03811105C00E94C21724
:1047B000D0CE8FEFC7CFC82FCCCE85ED8093BC0075
:1047C0008091FB039091FC03A091FD03B091FE0347
:1047D0000796A11DB11D23E0B695A79597958795DE
:1047E0002A95D1F72091BC0024FD03C01092F90353
:1047F00008954091FB035091FC036091FD0370917B
:10480000FE03452B462B472B69F30097A105B10505
:1048100041F02AE22A95F1F700C00197A109B109F8
:10482000E1CF8091FA030C941C15FF920F931F9314
:10483000CF93DF9380E19BEB9093200180931F0146
:1048400081E090E090932201809321010E940E0D5F
:104850008FE191E00E94F60C90933801809337012C
:104860000FE111E0D0E0C0E0F801F1908F01CE013E
:104870000E943C37F81621F06F2DCE010E9444377C
:104880002196CA31D10581F781E080932B03DF9116
:10489000CF911F910F91FF900895EF92FF920F9388
:1048A0001F93CF93DF93CDB7DEB76A970FB6F89417
:1048B000DEBF0FBECDBF8AE1E9E3F1E0DE01119674
:1048C00001900D928A95E1F7CE0101967C0110E0EE
:1048D00000E0C8010E943C37F70181937F010F5F20
:1048E0001F4F0A311105A9F789819A8180319B4BAD
:1048F00021F48B819C81019799F00E94430D82E005
:1049000080932B0380E06A960FB6F894DEBF0FBE4B
:10491000CDBFDF91CF911F910F91FF90EF90089540
:10492000CE0101960E94F60C298D3A8D2817390781
:1049300021F78AE1FE013196AFE1B1E001900D92DD
:104940008A95E1F70E940E0D8FE191E00E94F60C2E
:10495000909338018093370181E080932B03D3CF6C
:104960001F920F920FB60F9211242F933F938F93A4
:104970009F93AF93BF938091C7039091C803A09179
:10498000C903B091CA033091C60323E0230F2D372A
:1049900058F50196A11DB11D2093C6038093C7034E
:1049A0009093C803A093C903B093CA038091CB032B
:1049B0009091CC03A091CD03B091CE030196A11D9F
:1049C000B11D8093CB039093CC03A093CD03B09300
:1049D000CE03BF91AF919F918F913F912F910F90F7
:1049E0000FBE0F901F90189526E8230F0296A11D69
:1049F000B11DD2CF1F920F920FB60F9211242F9399
:104A00003F934F935F936F937F938F939F93AF9356
:104A1000BF93EF93FF9383E294E00E942814FF91E9
:104A2000EF91BF91AF919F918F917F916F915F9126
:104A30004F913F912F910F900FBE0F901F9018959F
:104A40001F920F920FB60F9211242F938F939F9363
:104A5000EF93FF93E0913304F09134048081E0916F
:104A60003904F0913A0482FD1BC0908180913C048E
:104A70008F5F8F7320913D04821741F0E0913C04D9
:104A8000F0E0ED5DFB4F958F80933C04FF91EF913B
:104A90009F918F912F910F900FBE0F901F9018959F
:104AA0008081F4CF1F920F920FB60F9211242F9393
:104AB0003F934F935F936F937F938F939F93AF93A6
:104AC000BF93EF93FF938091B900887F803609F4FC
:104AD0004AC0F0F5883209F4A7C018F5803109F40E
:104AE0009BC0B8F4882309F4F9C0883009F494C055
:104AF000FF91EF91BF91AF919F918F917F916F91B6
:104B00005F914F913F912F910F900FBE0F901F908B
:104B10001895883109F488C0803251F78093F703E3
:104B200014C0803409F49DC040F48033B9F3883355
:104B3000F9F68093F70385ECB0C0803509F485C0A1
:104B4000883509F496C0883499F60E94DD23D0CFC9
:104B5000883909F48CC038F5883729F050F4883644
:104B600011F0803729F683E08093F903109219033E
:104B700057C0883809F47BC0803919F0803809F0B3
:104B8000B7CF80911903803208F071C0E09119030A
:104B900081E08E0F809319038091BB00F0E0E75015
:104BA000FD4F80833DC0803B39F0E0F4803A09F44A
:104BB00079C0883A09F09CCF84E08093F903109281
:104BC000F8021092F702E0911C03F0911D03099581
:104BD0008091F70281110FC081E08093F70210925B
:104BE000D70209C0803C09F4A6CF883C09F4A3CFC2
:104BF000883B09F07DCFE091F80281E08E0F809331
:104C0000F802F0E0E952FD4F80818093BB00909163
:104C1000F8028091F70229C08091D4038093BB00F1
:104C200085EC8093BC0064CF9091F6038091F503EE
:104C3000981758F5E091F60381E08E0F8093F60304
:104C4000F0E0EB52FC4F8081E9CFE091F60381E088
:104C50008E0F8093F6038091BB00F0E0EB52FC4F87
:104C600080839091F6038091F5039817C8F285E848
:104C7000D8CFE091F60381E08E0F8093F603809108
:104C8000BB00F0E0EB52FC4F80838091F803811170
:104C90005CCF81E08093D30384EA8093BC001092C0
:104CA000F90326CF85EC8093BC001092F903809124
:104CB0001903803230F4E0911903F0E0E750FD4F22
:104CC00010826091190370E0E0911A03F0911B03C8
:104CD00089EF92E00995109219030ACF1092F70319
:104CE00034CF1F920F920FB60F9211240F931F9380
:104CF0002F933F934F935F936F937F938F939F93E4
:104D0000AF93BF93CF93EF93FF93E0912103F09183
:104D100022033097A9F080912003882389F0C08175
:104D2000C8230E944513CC23F9F060934F0570937C
:104D30005005809351059093520581E0809357056B
:104D4000FF91EF91CF91BF91AF919F918F917F9103
:104D50006F915F914F913F912F911F910F910F9004
:104D60000FBE0F901F90189520915705222341F3F5
:104D700000914F0510915005209151053091520539
:104D8000601B710B820B930B60935305709354055A
:104D9000809355059093560581E0809358051092B5
:104DA0005705CECF1F920F920FB60F9211242F935B
:104DB0003F934F935F936F937F938F939F93AF93A3
:104DC000BF93EF93FF930E947126FF91EF91BF91E4
:104DD000AF919F918F917F916F915F914F913F9193
:104DE0002F910F900FBE0F901F9018951F920F924A
:104DF0000FB60F9211242F933F934F935F936F93AE
:104E00007F938F939F93AF93BF93EF93FF930E94F2
:104E10007126FF91EF91BF91AF919F918F917F91FB
:104E20006F915F914F913F912F910F900FBE0F9017
:104E30001F9018951F920F920FB60F9211248F9307
:104E40009F93AF93BF93EF93FF938091690588235E
:104E5000E9F080916A058823C9F080916C05882368
:104E6000A9F08091760590917705892B79F0809152
:104E70007805909179050297A0F08091780590913E
:104E8000790501979093790580937805FF91EF91CB
:104E9000BF91AF919F918F910F900FBE0F901F9078
:104EA0001895809176059091770590937905809378
:104EB000780580916B0591E0892780936B0590912F
:104EC0006B05E0916305F091640580916505992378
:104ED00009F44AC09081892B808380916B058823D7
:104EE000A9F280917E05882389F280917A059091BC
:104EF0007B05A0917C05B0917D05181619061A0650
:104F00001B0624F680917A0590917B05A0917C0583
:104F1000B0917D050197A109B10980937A0590931D
:104F20007B05A0937C05B0937D0580917A059091D7
:104F30007B05A0917C05B0917D05892B8A2B8B2B5D
:104F400009F0A4CF10926C0510926B05E0916305F7
:104F5000F091640590818091650580958923808317
:104F600081E080937F0592CF908180958923B4CF93
:104F7000FC01108211821282138214821582168221
:104F80001782108611861286138648E25BE66EE66B
:104F90007EEC448755876687778788E29BE6AEE696
:104FA000BEE4808B918BA28BB38B448B558B668B2D
:104FB000778B808F918FA28FB38F148E158E168E64
:104FC000178E10A211A212A213A214A20895CF93B9
:104FD000DF93CDB7DEB76C970FB6F894DEBF0FBE88
:104FE000CDBFE3E2F4E01382128288EE93E0A0E00A
:104FF000B0E084839583A683B7832FE731E03183C4
:10500000208325EC30E03587248724EC30E0378797
:10501000268720EC30E0318B208B21EC30E0338B85
:10502000228B22EC30E0358B248B26EC30E0378B62
:10503000268B118E128E138E148EE0ECF4E0138208
:10504000128284839583A683B78381E991E091835B
:105050008083E0E6F5E082E0808383E0818384E082
:10506000828314821382158217821682108611861B
:1050700012861386148681E0858716861786108A25
:10508000118A128A138A148A158A178A168A118E2F
:10509000108E128E138E148E158E168E178EE9E5D5
:1050A000F5E01182108286E38283138214821582D6
:1050B0001682EBE1F5E088E0808389E0818312824B
:1050C0001382148215821682178210861186128628
:1050D00013861486158616861786108A118A128AF8
:1050E000138A148A158A168A178A108E118E128EC8
:1050F000138E148E158E168E178E10A211A212A268
:1051000013A214A215A216A217A210A611A612A6E7
:1051100013A614A615A616A617A610AA11AA12AAB7
:1051200013AA14AA15AA16AA17AA10AE11AE12AE87
:1051300013AE14AE15AE8DEC94E00E94B82782EF4A
:1051400094E00E94B827EDECF4E01092170510925D
:1051500018051092190510921A058DE895E3ADE730
:10516000B2E480839183A283B3838EEB9DE5A0E6B6
:10517000B3E484839583A683B7838AED9DE2A6ED8D
:10518000B0E480879187A287B38787EB9DE0A3E295
:10519000BAEB84879587A687B78787EB9DE0A3E264
:1051A000BAE3808B918BA28BB38B8EE19AEFAEE04A
:1051B000BEEB848B958BA68BB78B8EE19AEFAEE01E
:1051C000BEE3808F918FA28FB38F8CE1E3E5F1E096
:1051D000DE01119601900D928A95E1F785E99FE92C
:1051E000A7E2B0E489839A83AB83BC8387E291E230
:1051F000AAE4B2E48D839E83AF83B88780EA9BE7FD
:10520000AEE0B2EC8D879E87AF87B88B80EA9BE7D4
:10521000AEE0B2E4898B9A8BAB8BBC8B80E090E0E4
:10522000A1EEB4EC8D8B9E8BAF8BB88F80E090E0BD
:10523000A1EEB4E4898F9A8FAB8FBC8F8CE1FE0115
:105240003196A2EFB4E001900D928A95E1F71092A9
:10525000CC046C960FB6F894DEBF0FBECDBFDF91C5
:10526000CF910895CF93DF93CDB7DEB764970FB694
:10527000F894DEBF0FBECDBF789484B5826084BD44
:1052800084B5816084BD85B5826085BD85B581604A
:1052900085BD80916E00816080936E0010928100C8
:1052A0008091810082608093810080918100816083
:1052B0008093810080918000816080938000809144
:1052C000B10084608093B1008091B00081608093D0
:1052D000B00080917A00846080937A0080917A0097
:1052E000826080937A0080917A00816080937A0056
:1052F00080917A00806880937A001092C100E091DA
:105300003304F091340412E01083E0912F04F09103
:1053100030041082E0913104F091320480E1808306
:1053200010923B04E0913704F091380486E08083CA
:10533000E0913504F0913604808180618083E091B2
:105340003504F0913604808188608083E0913504D3
:10535000F0913604808180688083E0913504F0917B
:10536000360480818F7D80836AEF70E080E090E07A
:105370000E946A1387E891E10E94B6180E944D24AA
:10538000811104C00E94430D10932B0361E08091B2
:1053900060050E94141361E0809161050E9414135E
:1053A00061E0809162050E9414138091600590E095
:1053B000FC01EF5FF64EE491F0E0EE0FFF1FE950C5
:1053C000F74E259134913093640520936305FC01D9
:1053D000EB5EF64EE491E09365058091610590E007
:1053E000FC01EF5FF64EE491F0E0EE0FFF1FE95095
:1053F000F74E259134913093670520936605FC01A3
:10540000EB5EF64EE491E09368050E94140FE09184
:105410006605F0916705309731F0908180916805BD
:1054200080958923808361E0809162050E94A010AD
:1054300010926A059FB7F894109280001092810034
:10544000109285001092840021E330E030938900AF
:1054500020938800809181008860809381008091F2
:10546000810082608093810080916F0082608093D0
:105470006F0011E0109369059FBF0E94C217109240
:105480001F0310921E0310920004109222040E9427
:10549000FE1488EA93E190931D0380931C0389EA2C
:1054A00093E190931B0380931A0380EC94E0909314
:1054B0005A058093590586E380935B050E94FE148C
:1054C00080915B051093FF038093210481E00E948B
:1054D0003D15082F61E080911B050E94141360E0C8
:1054E00080911C050E94141360E080911B050E94AE
:1054F000A0108FE090E00197F1F70E944513685BE0
:1055000078488109910960934A0570934B0580930F
:105510004C0590934D05EAE0F9E1E491F0E0EE0FDF
:10552000FF1FE358FE4E8591949190932203809340
:105530002103EEE1F9E1E491E0932003809168001A
:1055400081608093680080916B00826080936B0023
:105550001092CF031092D0031092D1031092D20375
:1055600001111093D00310929003109291031092A6
:105570009203109293031092940310929503109249
:105580009603109297030E949C136093C20370933A
:10559000C3038093C4039093C5036093BE037093C9
:1055A000BF038093C0039093C1036093270370935C
:1055B00028038093290390932A0360932303709315
:1055C000240380932503909326030E94E7190E94E9
:1055D000BF190E94111E0E94881C0E9440190E943F
:1055E00045136B017C010E949C132B013C010E941E
:1055F0007410A3019201C701B6010E94EC1083E26E
:1056000094E00E940814181619060CF026C683E2CE
:1056100094E00E94E6138D3091F320918D03309138
:105620008E038A3009F009C6235D3C4FD9011C92D4
:10563000188A1F86AE01415F5F4F64ED71E08DE215
:1056400093E00E9460348C01009709F4CCC266EDAF
:1056500071E00E940B39892B51F0F8010190002074
:10566000E9F7CF0102978017910709F0A5C2D80189
:10567000EC91E153EA3408F09FC20E2E000CFF0BB0
:10568000EC5BF44D0C94D93709301330DC2DDC2D54
:10569000DC2DDC2DDC2DDC2DDC2DDC2DDC2DDC2DC2
:1056A000DC2DDC2DE32DDC2DDC2DDC2DDC2DDC2DAB
:1056B000DC2DDC2DDC2DDC2DDC2DDC2DDC2DDC2DA2
:1056C000DC2DDC2DDC2DDC2DDC2DDC2DDC2DDC2D92
:1056D000DC2DDC2DDC2DDC2DDC2DDC2DDC2DDC2D82
:1056E000DC2DDC2DDC2DDC2DB32F102FB62D962CD0
:1056F000B82BFE2C1A2FE32D1731E42BF72C093091
:10570000E82F642D862CC02FAA2DA12CED2D8E2BD9
:105710001330782C242DEF2DDC2D3F2FAE01415F6F
:105720005F4F64ED71E090E080E00E94603400978C
:1057300099F480911E0191E0892780931E0180EAEF
:1057400098E10E94971480911E01882371F08EE9E0
:1057500098E10E94B61847C20E941B3421E0892BB1
:1057600009F420E020931E01EACF8CE998E1F1CF03
:10577000AE01415F5F4F64ED71E090E080E00E9418
:105780006034009719F48CE898E1E3CF0E941B3451
:1057900021E0009709F420E020938F03892B79F012
:1057A0000E94D91781110BC081E080936A0560E0E7
:1057B000809162050E94A0108AE798E1CACF0E94FA
:1057C000C21787E698E1C5CFAE01415F5F4F64ED38
:1057D00071E090E080E00E9460347C01AE01415FA6
:1057E0005F4F64ED71E090E080E00E9460348C01D6
:1057F000E114F10411F0892B19F485E498E1A9CFA3
:10580000C7010E9439346B017C01C8010E94173422
:105810004B015C01C114D104E104F10439F020E032
:1058200030E0A9010E94153618161CF080E398E1BB
:1058300090CF8091CC04843019F484E198E189CF31
:1058400019821A821B821C820E946718882309F41D
:105850003EC00E949C1330E020E0AE014F5F5F4FDE
:105860000E94781F882399F12DEC3CEC4CE45EE318
:105870001C141D041E041F04ACF4609133017091CC
:10588000340180913501909136010E94F3372981CE
:105890003A814B815C810E9415361816C4F088EF5E
:1058A00097E157CF60912F017091300180913101C4
:1058B000909132010E94F43729813A814B815C81B9
:1058C0000E94013987FD03C08CED97E142CF81E052
:1058D00080936A0560E0809162050E94A010A50196
:1058E0009401C701B6010E9419108DEC97E131CFE8
:1058F0000E941524882339F010922C0380EC97E144
:105900000E94B6186EC18CEA97E1FACF0E944D242E
:10591000182F10922C038FE997E10E94971488E9C1
:1059200097E11111EDCF8FE897E1EACF0E94430D87
:1059300082E080932B0381E080932C0387E797E13B
:10594000DFCF0E949C130E9453220E949C130E944E
:10595000E8170E94781829833A834B835C836D8310
:105960007E83CE0101960E94CA0C882309F412C4DA
:105970001092E9041092EA041092EB041092EC04E5
:105980001092ED041092EE041092EF041092F004C5
:105990001092F10410920E0510920F05109210054E
:1059A0001092110510921205109213051092140511
:1059B00010921505109216051092170510921805F1
:1059C0001092190510921A051092900310929103EB
:1059D00010929203109293031092940310929503E5
:1059E00010929603109297038CE697E1B2CE0E9434
:1059F000E70C0E94C21781E697E182CF1092CF0395
:105A00001092D0031092D1031092D2030E94781802
:105A100029833A834B835C836D837E838091CC049E
:105A2000853029F08DE397E10E94B618D8C0222373
:105A300029F0332319F083E0411101C080E0809305
:105A4000CC0480E597E1F0CF80911A01882339F0EA
:105A500088E993E10E94B6180E94C418C4C08091DE
:105A6000CC04843019F489E793E173CE853049F48E
:105A700088E693E10E94B6180E94881C89E393E1AE
:105A800068CE81E080931A0110921B0110921D01D3
:105A900080911E0180931C0110921E0187E293E108
:105AA0000E94B61885E093E10E94971480911C0132
:105AB000882339F086ED92E10E94B61888ED92E1D4
:105AC000C9CF84ED92E1F8CF80911A01811103C012
:105AD0008EEB92E13ECEE0911B01E73028F5F0E03D
